{"abi":[{"type":"function","name":"evalRequest","inputs":[{"name":"req","type":"tuple","internalType":"struct GatewayRequest","components":[{"name":"ops","type":"bytes","internalType":"bytes"}]},{"name":"proofs","type":"tuple","internalType":"struct ProofSequence","components":[{"name":"index","type":"uint256","internalType":"uint256"},{"name":"stateRoot","type":"bytes32","internalType":"bytes32"},{"name":"proofs","type":"bytes[]","internalType":"bytes[]"},{"name":"order","type":"bytes","internalType":"bytes"},{"name":"hooks","type":"IVerifierHooks","internalType":"contract IVerifierHooks"}]}],"outputs":[{"name":"outputs","type":"bytes[]","internalType":"bytes[]"},{"name":"exitCode","type":"uint8","internalType":"uint8"}],"stateMutability":"view"},{"type":"error","name":"InvalidOutputIndex","inputs":[{"name":"index","type":"uint256","internalType":"uint256"},{"name":"count","type":"uint256","internalType":"uint256"}]},{"type":"error","name":"InvalidProof","inputs":[]},{"type":"error","name":"InvalidRequest","inputs":[]},{"type":"error","name":"InvalidStackIndex","inputs":[{"name":"index","type":"uint256","internalType":"uint256"},{"name":"count","type":"uint256","internalType":"uint256"},{"name":"reversed","type":"bool","internalType":"bool"}]},{"type":"error","name":"StackOverflow","inputs":[]}],"bytecode":{"object":"0x612202610034600b8282823980515f1a607314602857634e487b7160e01b5f525f60045260245ffd5b305f52607381538281f3fe7300000000000000000000000000000000000000003014608060405260043610610034575f3560e01c806392a201d414610038575b5f80fd5b61004b610046366004611d89565b610062565b604051610059929190611eb8565b60405180910390f35b60605f8061006e6100e9565b855181526101008101859052905061008581610143565b60ff166001600160401b0381111561009f5761009f611bdc565b6040519080825280602002602001820160405280156100d257816020015b60608152602001906001900390816100bd5790505b5092506100df818461015b565b9150509250929050565b6100f1611b52565b5f60208201526040805161010080825261202082019092529081602001602082028036833750505060408201525f608082018190526060820181905260a0820181905260c0820181905260e082015290565b5f80610150836001610ee7565b5160f81c9392505050565b5f5b82515160208401511015610ede575f61017584610143565b9050602060ff82161161019e576101996101928560ff8416610f30565b8590610f7f565b610ed8565b60271960ff8216016101d4576101996101cd6101c66101bc87610143565b879060ff16610f30565b8690610f8f565b8590610fc0565b60311960ff821601610210576101e984610fd1565b6001600160a01b031660a085015261020084610fe5565b60c08501525f60e0850152610ed8565b60321960ff82160161028b575f61022685610fd1565b90508351811061025f5783516040516353c04cd160e11b8152610256918391600401918252602082015260400190565b60405180910390fd5b61026885611073565b84828151811061027a5761027a611f26565b602002602001018190525050610ed8565b60351960ff8216016102ca575f6102a185610143565b90506102b66102af86611088565b869061109f565b156102c4579150610ee19050565b50610ed8565b603b1960ff8216016102e4576101996101cd8560016110d8565b603f1960ff821601610306576101996101cd6102ff86610fd1565b86906110d8565b603c1960ff82160161031e576101996101cd85611165565b603e1960ff82160161036e575f61033485611289565b905061033f85610fd1565b8151602083012014610364576040516309bde33960e01b815260040160405180910390fd5b6102c48582610fc0565b603d1960ff821601610390576101996101cd61038986610fd1565b86906112e8565b60451960ff8216016103af576103a584610fd1565b60e0850152610ed8565b60461960ff8216016103dd576103c484610fd1565b8460e0018181516103d59190611f4e565b905250610ed8565b60471960ff82160161042a576103f284611073565b8460e00151604051602001610408929190611f78565b60408051601f19818403018152919052805160209091012060e0850152610ed8565b60281960ff8216016104ab575f61044085610fd1565b90508460600151811061046f576060850151604051633f42fc8760e11b81526102569183915f90600401611f90565b6102c48560400151828151811061048857610488611f26565b60200260200101516104a3838861140d90919063ffffffff16565b87919061141f565b60291960ff82160161051d575f6104c185610fd1565b9050835181106104f15783516040516353c04cd160e11b8152610256918391600401918252602082015260400190565b6102c484828151811061050657610506611f26565b602002602001015186610fc090919063ffffffff16565b60201960ff8216016105395760e0840151610199908590610f7f565b60211960ff821601610587576101998460a00151604051602001610570919060609190911b6001600160601b031916815260140190565b60408051601f198184030181529190528590610fc0565b60221960ff8216016105a3576060840151610199908590610f7f565b60231960ff8216016105c15760c084015161019990859015156114a5565b604f1960ff8216016105fc575f6105e16105da86610fd1565b86906114c0565b90506102c48560400151828151811061048857610488611f26565b60501960ff821601610628576060840151156101995783606001805161062190611fa8565b9052610ed8565b60511960ff821601610705575f6106416105da86610fd1565b90505f61064e86826114c0565b90508560400151818151811061066657610666611f26565b60200260200101518660400151838151811061068457610684611f26565b6020026020010151876040015184815181106106a2576106a2611f26565b60200260200101886040015184815181106106bf576106bf611f26565b6020908102919091010191909152526106d8868261140d565b15156106e4878461140d565b1515146106fe57608086018051600180851b90841b171890525b5050610ed8565b605b1960ff821601610852575f61071b85610fd1565b90505f61072786610fd1565b90505f61073387611073565b90505f6107408484611f4e565b9050815181116107645761075f6107588385876114fd565b8990610fc0565b610849565b815183106107b95761075f846001600160401b0381111561078757610787611bdc565b6040519080825280601f01601f1916602001820160405280156107b1576020820181803683370190505b508990610fc0565b6108496107d383858686516107ce9190611fbd565b6114fd565b83516107df9084611fbd565b6001600160401b038111156107f6576107f6611bdc565b6040519080825280601f01601f191660200182016040528015610820576020820181803683370190505b50604051602001610832929190611fd0565b60408051601f198184030181529190528990610fc0565b50505050610ed8565b60591960ff8216016108bc575f61086885611088565b9050610874858261140d565b156108a05761089b61089461088987846115fc565b5f9081526020902090565b8690610f7f565b6102c4565b6102c46108ad8683611651565b80516020909101208690610f7f565b605c1960ff8216016108fd575f6108d285611088565b90506102c46108e1868361140d565b6108f5576108ef8683611651565b51610894565b856020610f7f565b605d1960ff821601610982575f61091385610fd1565b90505f61091f86611073565b905081156106fe575f8282516109359190611ff8565b82516109419190611fbd565b90505b82811061097a576109696109628361095c8685611fbd565b866114fd565b8890610fc0565b6109738382611fbd565b9050610944565b505050610ed8565b605a1960ff8216016109cf575f61099885611073565b90506102c46109a686611073565b826040516020016109b8929190611fd0565b60408051601f198184030181529190528690610fc0565b60631960ff8216016109fc575f6109e585610fd1565b90506102c4816109f487610fd1565b879101610f7f565b60641960ff821601610a29575f610a1285610fd1565b90506102c481610a2187610fd1565b879102610f7f565b60651960ff821601610a64575f610a3f85610fd1565b90506102c481610a4e87610fd1565b81610a5b57610a5b611fe4565b87919004610f7f565b60661960ff821601610a93575f610a7a85610fd1565b90506102c481610a8987610fd1565b6108949190611ff8565b60671960ff821601610ac1575f610aa985610fd1565b90506102c481610ab887610fd1565b8791900a610f7f565b606d1960ff821601610aee575f610ad785610fd1565b90506102c481610ae687610fd1565b879116610f7f565b606e1960ff821601610b1b575f610b0485610fd1565b90506102c481610b1387610fd1565b879117610f7f565b606f1960ff821601610b48575f610b3185610fd1565b90506102c481610b4087610fd1565b879118610f7f565b60701960ff821601610b7157610199610b6085610fd1565b610b6986610fd1565b86911b610f7f565b60711960ff821601610b9a57610199610b8985610fd1565b610b9286610fd1565b86911c610f7f565b60781960ff821601610bc7575f610bb085610fd1565b90506102c481610bbf87610fd1565b8791146114a5565b60791960ff821601610bf4575f610bdd85610fd1565b90506102c481610bec87610fd1565b8791116114a5565b607a1960ff821601610c21575f610c0a85610fd1565b90506102c481610c1987610fd1565b8791106114a5565b60721960ff821601610c4157610199610c3985610fd1565b859019610f7f565b60771960ff821601610c6357610199610c5c6102af86611088565b85906114a5565b60341960ff821601610cd4575f610c7c6102af86611088565b1590505f610c8986611073565b905081156106fe5760208601805187518389525f928390529091610cad898961015b565b905060ff811615610cc5579550610ee1945050505050565b50875260208701525050610ed8565b60331960ff821601610e93575f610cea85610143565b90505f610cf686610fd1565b90505f610d016100e9565b9050610d0c87611073565b815261010080880151908201526060870151821115610d2d57866060015191505b811561097a57610d3c82611fa8565b60a0808901516001600160a01b03169083015260c0808901519083015260e080890151908301525f6020830181905260608301819052909250610d7e88611088565b9050610dbc88604001518281518110610d9957610d99611f26565b6020026020010151610db4838b61140d90919063ffffffff16565b84919061141f565b610dc6828861015b565b60ff165f03610dd6576001610dd9565b60025b841660ff165f14610e8d57600884165f03610e04578288606001818151610e009190611fbd565b9052505b6004841615610e87575060a0808201516001600160a01b03169088015260c0808201519088015260e080820151908801525f5b8160600151811015610e8757610e7f82604001518281518110610e5c57610e5c611f26565b6020026020010151610e77838561140d90919063ffffffff16565b8a919061141f565b600101610e37565b5061097a565b50610d2d565b60fe1960ff821601610ebf57610199610eb8610eae86610143565b869060ff16610f8f565b85906116ae565b6040516341abc80160e01b815260040160405180910390fd5b5061015d565b505f5b92915050565b602082015182515f919082610efc8584611f4e565b90508151811115610f20576040516341abc80160e01b815260040160405180910390fd5b6020958601520190920192915050565b5f815f03610f3f57505f610ee1565b6020821115610f61576040516341abc80160e01b815260040160405180910390fd5b5f610f6c8484610ee7565b51602084900360031b1c91505092915050565b610f8b8282600161141f565b5050565b6060610fa3835f01518460200151846114fd565b90508183602001818151610fb79190611f4e565b90525092915050565b80610fcc83825f61141f565b505050565b5f610ee1610fde83611088565b83906115fc565b5f816101000151608001516001600160a01b031663dd0d907c836101000151602001518460a0015161101686611289565b6040518463ffffffff1660e01b81526004016110349392919061200b565b602060405180830381865afa15801561104f573d5f803e3d5ffd5b505050506040513d601f19601f82011682018060405250810190610ee1919061203d565b6060610ee161108183611088565b8390611651565b5f61109382826114c0565b60609092018290525090565b5f6110aa838361140d565b6110c5576110c06110bb8484611651565b611886565b6110d1565b6110cf83836115fc565b155b9392505050565b6060600582901b6001600160401b038111156110f6576110f6611bdc565b6040519080825280601f01601f191660200182016040528015611120576020820181803683370190505b5090505f5b8281101561115e575f611148828660e001516111419190611f4e565b86906118d8565b9050600182019150808260051b84015250611125565b5092915050565b60605f61117f8360e00151846118d890919063ffffffff16565b9050806001165f036111e25760018160ff16901c6001600160401b038111156111aa576111aa611bdc565b6040519080825280601f01601f1916602001820160405280156111d4576020820181803683370190505b509150806020830152611283565b600181901c60056111f482601f611f4e565b901c9150806001600160401b0381111561121057611210611bdc565b6040519080825280601f01601f19166020018201604052801561123a576020820181803683370190505b5060e08501515f908152602081209194505b8381101561127f575f6112696112628385611f4e565b88906118d8565b9050600182019150808260051b8701525061124c565b5050505b50919050565b6101008101516040810151606082810151835191939291836112aa82612054565b9052815181106112bc576112bc611f26565b0160200151815160f89190911c9081106112d8576112d8611f26565b6020026020010151915050919050565b60605f6113028460e00151856118d890919063ffffffff16565b90505f6020841015611345575f61131a85602061206c565b90508060016113298286611f4e565b6113339190611fbd565b61133d919061206c565b915050611360565b600561135285601f611f4e565b61135d911c8361207f565b90505b600561136d826001611f4e565b901b6001600160401b0381111561138657611386611bdc565b6040519080825280601f01601f1916602001820160405280156113b0576020820181803683370190505b5092508160208401525f6113cf8660e001515f1b5f9081526020902090565b90505f5b82811015611403575f6113f06113e98385611f4e565b89906118d8565b6002830160051b870152506001016113d3565b5050505092915050565b60808201516001821b16151592915050565b6101008360600151036114455760405163a25cba3160e01b815260040160405180910390fd5b6060830180515f9161145682612054565b90529050811515611467858361140d565b15151461147c576080840180516001831b1890525b828460400151828151811061149357611493611f26565b60200260200101818152505050505050565b610f8b816114b3575f6114b6565b60015b839060ff16610f7f565b5f826060015182106114ef576060830151604051633f42fc8760e11b8152610256918491600190600401611f90565b50606090910151035f190190565b60608182601f0110156115225760405162461bcd60e51b815260040161025690612096565b8282840110156115445760405162461bcd60e51b815260040161025690612096565b8183018451101561158b5760405162461bcd60e51b8152602060048201526011602482015270736c6963655f6f75744f66426f756e647360781b6044820152606401610256565b6060821580156115a95760405191505f8252602082016040526115f3565b6040519150601f8416801560200281840101858101878315602002848b0101015b818310156115e25780518352602092830192016115ca565b5050858452601f01601f1916604052505b50949350505050565b5f8260400151828151811061161357611613611f26565b60200260200101519050611630828461140d90919063ffffffff16565b610ee15780516020918201519181101561115e5760200360031b1c92915050565b60605f8360400151838151811061166a5761166a611f26565b60200260200101519050611687838561140d90919063ffffffff16565b156110d157604080516020810183905201604051602081830303815290604052915061115e565b6116d96040518060400160405280600981526020016844454255472825732960b81b81525082611982565b61170f6040518060400160405280600b81526020016a5b706f733d25732f25735d60a81b8152508360200151845f0151516119c7565b815151610100111561172657815161172690611a0e565b611764604051806040016040528060138152602001725b7461726765743d257320736c6f743d25735d60681b8152508360a001518460e00151611a54565b6117a66040518060400160405280600d81526020016c5b70726f6f663d25732f25735d60981b8152508361010001515f015184610100015160600151516119c7565b6117da6040518060400160405280600e81526020016d5b737461636b53697a653d25735d60901b8152508360600151611a9b565b5f5b8260600151811015611851575f6117f38483611651565b905061183f604051806040016040528060138152602001722573205b73697a653d2573207261773d25735d60681b81525083835161183a868961140d90919063ffffffff16565b611ae0565b61184881611a0e565b506001016117dc565b506040805180820190915260128152715b6d656d6f72793d2573206761733d25735d60701b6020820152610fcc81805a6119c7565b5f60208201825181015f600193505b818310156118b95750815160209092019180156118b4575f93506118b9565b611895565b831582841116156118d0578082840360031b1c1593505b505050919050565b5f806118e384611289565b60c08501519091506118f8575f915050610ee1565b836101000151608001516001600160a01b0316631dcc17698560c001518660a0015186856040518563ffffffff1660e01b815260040161193b94939291906120be565b602060405180830381865afa158015611956573d5f803e3d5ffd5b505050506040513d601f19601f8201168201806040525081019061197a919061203d565b949350505050565b610f8b82826040516024016119989291906120f4565b60408051601f198184030181529190526020810180516001600160e01b0316634b5c427760e01b179052611b2f565b610fcc8383836040516024016119df93929190612118565b60408051601f198184030181529190526020810180516001600160e01b031663ca47c4eb60e01b179052611b2f565b611a5181604051602401611a22919061213c565b60408051601f198184030181529190526020810180516001600160e01b03166305f3bfab60e11b179052611b2f565b50565b610fcc838383604051602401611a6c9392919061214e565b60408051601f198184030181529190526020810180516001600160e01b0316630d26b92560e01b179052611b2f565b610f8b8282604051602401611ab192919061217b565b60408051601f198184030181529190526020810180516001600160e01b0316632d839cb360e21b179052611b2f565b611b2984848484604051602401611afa949392919061219c565b60408051601f198184030181529190526020810180516001600160e01b0316633b136dc960e11b179052611b2f565b50505050565b611a51815f6a636f6e736f6c652e6c6f6790505f80835160208501845afa505050565b604051806101200160405280606081526020015f8152602001606081526020015f81526020015f81526020015f6001600160a01b031681526020015f80191681526020015f8152602001611bd76040518060a001604052805f81526020015f801916815260200160608152602001606081526020015f6001600160a01b031681525090565b905290565b634e487b7160e01b5f52604160045260245ffd5b604051602081016001600160401b0381118282101715611c1257611c12611bdc565b60405290565b60405160a081016001600160401b0381118282101715611c1257611c12611bdc565b604051601f8201601f191681016001600160401b0381118282101715611c6257611c62611bdc565b604052919050565b5f82601f830112611c79575f80fd5b81356001600160401b03811115611c9257611c92611bdc565b611ca5601f8201601f1916602001611c3a565b818152846020838601011115611cb9575f80fd5b816020850160208301375f918101602001919091529392505050565b5f82601f830112611ce4575f80fd5b813560206001600160401b0380831115611d0057611d00611bdc565b8260051b611d0f838201611c3a565b9384528581018301938381019088861115611d28575f80fd5b84880192505b85831015611d6257823584811115611d44575f80fd5b611d528a87838c0101611c6a565b8352509184019190840190611d2e565b98975050505050505050565b80356001600160a01b0381168114611d84575f80fd5b919050565b5f8060408385031215611d9a575f80fd5b82356001600160401b0380821115611db0575f80fd5b9084019060208287031215611dc3575f80fd5b611dcb611bf0565b823582811115611dd9575f80fd5b611de588828601611c6a565b82525093506020850135915080821115611dfd575f80fd5b9084019060a08287031215611e10575f80fd5b611e18611c18565b8235815260208301356020820152604083013582811115611e37575f80fd5b611e4388828601611cd5565b604083015250606083013582811115611e5a575f80fd5b611e6688828601611c6a565b606083015250611e7860808401611d6e565b60808201528093505050509250929050565b5f81518084528060208401602086015e5f602082860101526020601f19601f83011685010191505092915050565b5f604082016040835280855180835260608501915060608160051b860101925060208088015f5b83811015611f0d57605f19888703018552611efb868351611e8a565b95509382019390820190600101611edf565b50505050508091505060ff831660208301529392505050565b634e487b7160e01b5f52603260045260245ffd5b634e487b7160e01b5f52601160045260245ffd5b80820180821115610ee157610ee1611f3a565b5f81518060208401855e5f93019283525090919050565b5f611f838285611f61565b9283525050602001919050565b92835260208301919091521515604082015260600190565b5f81611fb657611fb6611f3a565b505f190190565b81810381811115610ee157610ee1611f3a565b5f61197a611fde8386611f61565b84611f61565b634e487b7160e01b5f52601260045260245ffd5b5f8261200657612006611fe4565b500690565b8381526001600160a01b03831660208201526060604082018190525f9061203490830184611e8a565b95945050505050565b5f6020828403121561204d575f80fd5b5051919050565b5f6001820161206557612065611f3a565b5060010190565b5f8261207a5761207a611fe4565b500490565b8082028115828204841417610ee157610ee1611f3a565b6020808252600e908201526d736c6963655f6f766572666c6f7760901b604082015260600190565b84815260018060a01b0384166020820152826040820152608060608201525f6120ea6080830184611e8a565b9695505050505050565b604081525f6121066040830185611e8a565b82810360208401526120348185611e8a565b606081525f61212a6060830186611e8a565b60208301949094525060400152919050565b602081525f6110d16020830184611e8a565b606081525f6121606060830186611e8a565b6001600160a01b039490941660208301525060400152919050565b604081525f61218d6040830185611e8a565b90508260208301529392505050565b608081525f6121ae6080830187611e8a565b6020830195909552506040810192909252151560609091015291905056fea2646970667358221220b3fe1988d2b1f8c82357fe99434b7dad721d8109fcf6c0cdfdbbbe587ac1aef164736f6c63430008190033","linkReferences":{}},"methodIdentifiers":{"evalRequest(GatewayRequest,ProofSequence)":"92a201d4"},"id":5}