{"abi":[{"type":"function","name":"evalRequest","inputs":[{"name":"req","type":"tuple","internalType":"struct GatewayRequest","components":[{"name":"ops","type":"bytes","internalType":"bytes"}]},{"name":"proofs","type":"tuple","internalType":"struct ProofSequence","components":[{"name":"index","type":"uint256","internalType":"uint256"},{"name":"stateRoot","type":"bytes32","internalType":"bytes32"},{"name":"proofs","type":"bytes[]","internalType":"bytes[]"},{"name":"order","type":"bytes","internalType":"bytes"},{"name":"hooks","type":"IVerifierHooks","internalType":"contract IVerifierHooks"}]}],"outputs":[{"name":"outputs","type":"bytes[]","internalType":"bytes[]"},{"name":"exitCode","type":"uint8","internalType":"uint8"}],"stateMutability":"view"},{"type":"error","name":"InvalidOutputIndex","inputs":[{"name":"index","type":"uint256","internalType":"uint256"},{"name":"count","type":"uint256","internalType":"uint256"}]},{"type":"error","name":"InvalidProof","inputs":[]},{"type":"error","name":"InvalidRequest","inputs":[]},{"type":"error","name":"InvalidStackIndex","inputs":[{"name":"index","type":"uint256","internalType":"uint256"},{"name":"count","type":"uint256","internalType":"uint256"},{"name":"reversed","type":"bool","internalType":"bool"}]},{"type":"error","name":"StackOverflow","inputs":[]}],"bytecode":{"object":"0x612172610034600b8282823980515f1a607314602857634e487b7160e01b5f525f60045260245ffd5b305f52607381538281f3fe7300000000000000000000000000000000000000003014608060405260043610610034575f3560e01c806392a201d414610038575b5f80fd5b61004b610046366004611cf9565b610062565b604051610059929190611e28565b60405180910390f35b60605f8061006e6100e9565b855181526101008101859052905061008581610143565b60ff166001600160401b0381111561009f5761009f611b4c565b6040519080825280602002602001820160405280156100d257816020015b60608152602001906001900390816100bd5790505b5092506100df818461015b565b9150509250929050565b6100f1611ac2565b5f60208201526040805161010080825261202082019092529081602001602082028036833750505060408201525f608082018190526060820181905260a0820181905260c0820181905260e082015290565b5f80610150836001610ee5565b5160f81c9392505050565b5f5b82515160208401511015610edc575f61017584610143565b9050602060ff82161161019e576101996101928560ff8416610f2e565b8590610f7d565b610ed6565b60271960ff8216016101d4576101996101cd6101c66101bc87610143565b879060ff16610f2e565b8690610f8d565b8590610fbe565b60311960ff82160161028b576101e984610fcf565b6001600160a01b0390811660a08601819052610100860151608081015160209091015192169163dd0d907c9161021e88610fe3565b6040518463ffffffff1660e01b815260040161023c93929190611e96565b602060405180830381865afa158015610257573d5f803e3d5ffd5b505050506040513d601f19601f8201168201806040525081019061027b9190611ec8565b60c08501525f60e0850152610ed6565b60321960ff821601610306575f6102a185610fcf565b9050835181106102da5783516040516353c04cd160e11b81526102d1918391600401918252602082015260400190565b60405180910390fd5b6102e385611042565b8482815181106102f5576102f5611edf565b602002602001018190525050610ed6565b60351960ff821601610345575f61031c85610143565b905061033161032a86611057565b869061106e565b1561033f579150610edf9050565b50610ed6565b603b1960ff82160161035f576101996101cd8560016110a7565b603f1960ff821601610381576101996101cd61037a86610fcf565b86906110a7565b603c1960ff821601610399576101996101cd85611134565b603e1960ff8216016103e9575f6103af85610fe3565b90506103ba85610fcf565b81516020830120146103df576040516309bde33960e01b815260040160405180910390fd5b61033f8582610fbe565b603d1960ff82160161040b576101996101cd61040486610fcf565b8690611258565b60451960ff82160161042a5761042084610fcf565b60e0850152610ed6565b60461960ff8216016104585761043f84610fcf565b8460e0018181516104509190611f07565b905250610ed6565b60471960ff8216016104a55761046d84611042565b8460e00151604051602001610483929190611f31565b60408051601f19818403018152919052805160209091012060e0850152610ed6565b60281960ff821601610526575f6104bb85610fcf565b9050846060015181106104ea576060850151604051633f42fc8760e11b81526102d19183915f90600401611f49565b61033f8560400151828151811061050357610503611edf565b602002602001015161051e838861137d90919063ffffffff16565b87919061138f565b60291960ff821601610598575f61053c85610fcf565b90508351811061056c5783516040516353c04cd160e11b81526102d1918391600401918252602082015260400190565b61033f84828151811061058157610581611edf565b602002602001015186610fbe90919063ffffffff16565b60201960ff8216016105b45760e0840151610199908590610f7d565b60211960ff821601610602576101998460a001516040516020016105eb919060609190911b6001600160601b031916815260140190565b60408051601f198184030181529190528590610fbe565b60221960ff82160161061e576060840151610199908590610f7d565b60231960ff82160161063c5760c08401516101999085901515611415565b604f1960ff821601610677575f61065c61065586610fcf565b8690611430565b905061033f8560400151828151811061050357610503611edf565b60501960ff8216016106a3576060840151156101995783606001805161069c90611f61565b9052610ed6565b60511960ff821601610780575f6106bc61065586610fcf565b90505f6106c98682611430565b9050856040015181815181106106e1576106e1611edf565b6020026020010151866040015183815181106106ff576106ff611edf565b60200260200101518760400151848151811061071d5761071d611edf565b602002602001018860400151848151811061073a5761073a611edf565b602090810291909101019190915252610753868261137d565b151561075f878461137d565b15151461077957608086018051600180851b90841b171890525b5050610ed6565b605b1960ff8216016108cd575f61079685610fcf565b90505f6107a286610fcf565b90505f6107ae87611042565b90505f6107bb8484611f07565b9050815181116107df576107da6107d383858761146d565b8990610fbe565b6108c4565b81518310610834576107da846001600160401b0381111561080257610802611b4c565b6040519080825280601f01601f19166020018201604052801561082c576020820181803683370190505b508990610fbe565b6108c461084e83858686516108499190611f76565b61146d565b835161085a9084611f76565b6001600160401b0381111561087157610871611b4c565b6040519080825280601f01601f19166020018201604052801561089b576020820181803683370190505b506040516020016108ad929190611f89565b60408051601f198184030181529190528990610fbe565b50505050610ed6565b60591960ff821601610937575f6108e385611057565b90506108ef858261137d565b1561091b5761091661090f610904878461156c565b5f9081526020902090565b8690610f7d565b61033f565b61033f61092886836115c1565b80516020909101208690610f7d565b605c1960ff821601610978575f61094d85611057565b905061033f61095c868361137d565b6109705761096a86836115c1565b5161090f565b856020610f7d565b605a1960ff8216016109c5575f61098e85611042565b905061033f61099c86611042565b826040516020016109ae929190611f89565b60408051601f198184030181529190528690610fbe565b60631960ff8216016109f2575f6109db85610fcf565b905061033f816109ea87610fcf565b879101610f7d565b60641960ff821601610a1f575f610a0885610fcf565b905061033f81610a1787610fcf565b879102610f7d565b60651960ff821601610a5a575f610a3585610fcf565b905061033f81610a4487610fcf565b81610a5157610a51611f9d565b87919004610f7d565b60661960ff821601610a89575f610a7085610fcf565b905061033f81610a7f87610fcf565b61090f9190611fb1565b60671960ff821601610ab7575f610a9f85610fcf565b905061033f81610aae87610fcf565b8791900a610f7d565b606d1960ff821601610ae4575f610acd85610fcf565b905061033f81610adc87610fcf565b879116610f7d565b606e1960ff821601610b11575f610afa85610fcf565b905061033f81610b0987610fcf565b879117610f7d565b606f1960ff821601610b3e575f610b2785610fcf565b905061033f81610b3687610fcf565b879118610f7d565b60701960ff821601610b6757610199610b5685610fcf565b610b5f86610fcf565b86911b610f7d565b60711960ff821601610b9057610199610b7f85610fcf565b610b8886610fcf565b86911c610f7d565b60781960ff821601610bbd575f610ba685610fcf565b905061033f81610bb587610fcf565b879114611415565b60791960ff821601610bea575f610bd385610fcf565b905061033f81610be287610fcf565b879111611415565b607a1960ff821601610c17575f610c0085610fcf565b905061033f81610c0f87610fcf565b879110611415565b60721960ff821601610c3757610199610c2f85610fcf565b859019610f7d565b60771960ff821601610c5957610199610c5261032a86611057565b8590611415565b60341960ff821601610cca575f610c7261032a86611057565b1590505f610c7f86611042565b905081156107795760208601805187518389525f928390529091610ca3898961015b565b905060ff811615610cbb579550610edf945050505050565b50875260208701525050610ed6565b60331960ff821601610e91575f610ce085610143565b90505f610cec86610fcf565b90505f610cf76100e9565b9050610d0287611042565b815261010080880151908201526060870151821115610d2357866060015191505b8115610e8957610d3282611f61565b60a0808901516001600160a01b03169083015260c0808901519083015260e080890151908301525f6020830181905260608301819052909250610d7488611057565b9050610db288604001518281518110610d8f57610d8f611edf565b6020026020010151610daa838b61137d90919063ffffffff16565b84919061138f565b610dbc828861015b565b60ff165f03610dcc576001610dcf565b60025b841660ff165f14610e8357600884165f03610dfa578288606001818151610df69190611f76565b9052505b6004841615610e7d575060a0808201516001600160a01b03169088015260c0808201519088015260e080820151908801525f5b8160600151811015610e7d57610e7582604001518281518110610e5257610e52611edf565b6020026020010151610e6d838561137d90919063ffffffff16565b8a919061138f565b600101610e2d565b50610e89565b50610d23565b505050610ed6565b60fe1960ff821601610ebd57610199610eb6610eac86610143565b869060ff16610f8d565b859061161e565b6040516341abc80160e01b815260040160405180910390fd5b5061015d565b505f5b92915050565b602082015182515f919082610efa8584611f07565b90508151811115610f1e576040516341abc80160e01b815260040160405180910390fd5b6020958601520190920192915050565b5f815f03610f3d57505f610edf565b6020821115610f5f576040516341abc80160e01b815260040160405180910390fd5b5f610f6a8484610ee5565b51602084900360031b1c91505092915050565b610f898282600161138f565b5050565b6060610fa1835f015184602001518461146d565b90508183602001818151610fb59190611f07565b90525092915050565b80610fca83825f61138f565b505050565b5f610edf610fdc83611057565b839061156c565b61010081015160408101516060828101518351919392918361100482611fc4565b90528151811061101657611016611edf565b0160200151815160f89190911c90811061103257611032611edf565b6020026020010151915050919050565b6060610edf61105083611057565b83906115c1565b5f6110628282611430565b60609092018290525090565b5f611079838361137d565b6110945761108f61108a84846115c1565b6117f6565b6110a0565b61109e838361156c565b155b9392505050565b6060600582901b6001600160401b038111156110c5576110c5611b4c565b6040519080825280601f01601f1916602001820160405280156110ef576020820181803683370190505b5090505f5b8281101561112d575f611117828660e001516111109190611f07565b8690611848565b9050600182019150808260051b840152506110f4565b5092915050565b60605f61114e8360e001518461184890919063ffffffff16565b9050806001165f036111b15760018160ff16901c6001600160401b0381111561117957611179611b4c565b6040519080825280601f01601f1916602001820160405280156111a3576020820181803683370190505b509150806020830152611252565b600181901c60056111c382601f611f07565b901c9150806001600160401b038111156111df576111df611b4c565b6040519080825280601f01601f191660200182016040528015611209576020820181803683370190505b5060e08501515f908152602081209194505b8381101561124e575f6112386112318385611f07565b8890611848565b9050600182019150808260051b8701525061121b565b5050505b50919050565b60605f6112728460e001518561184890919063ffffffff16565b90505f60208410156112b5575f61128a856020611fdc565b90508060016112998286611f07565b6112a39190611f76565b6112ad9190611fdc565b9150506112d0565b60056112c285601f611f07565b6112cd911c83611fef565b90505b60056112dd826001611f07565b901b6001600160401b038111156112f6576112f6611b4c565b6040519080825280601f01601f191660200182016040528015611320576020820181803683370190505b5092508160208401525f61133f8660e001515f1b5f9081526020902090565b90505f5b82811015611373575f6113606113598385611f07565b8990611848565b6002830160051b87015250600101611343565b5050505092915050565b60808201516001821b16151592915050565b6101008360600151036113b55760405163a25cba3160e01b815260040160405180910390fd5b6060830180515f916113c682611fc4565b905290508115156113d7858361137d565b1515146113ec576080840180516001831b1890525b828460400151828151811061140357611403611edf565b60200260200101818152505050505050565b610f8981611423575f611426565b60015b839060ff16610f7d565b5f8260600151821061145f576060830151604051633f42fc8760e11b81526102d1918491600190600401611f49565b50606090910151035f190190565b60608182601f0110156114925760405162461bcd60e51b81526004016102d190612006565b8282840110156114b45760405162461bcd60e51b81526004016102d190612006565b818301845110156114fb5760405162461bcd60e51b8152602060048201526011602482015270736c6963655f6f75744f66426f756e647360781b60448201526064016102d1565b6060821580156115195760405191505f825260208201604052611563565b6040519150601f8416801560200281840101858101878315602002848b0101015b8183101561155257805183526020928301920161153a565b5050858452601f01601f1916604052505b50949350505050565b5f8260400151828151811061158357611583611edf565b602002602001015190506115a0828461137d90919063ffffffff16565b610edf5780516020918201519181101561112d5760200360031b1c92915050565b60605f836040015183815181106115da576115da611edf565b602002602001015190506115f7838561137d90919063ffffffff16565b156110a057604080516020810183905201604051602081830303815290604052915061112d565b6116496040518060400160405280600981526020016844454255472825732960b81b815250826118f2565b61167f6040518060400160405280600b81526020016a5b706f733d25732f25735d60a81b8152508360200151845f015151611937565b81515161010011156116965781516116969061197e565b6116d4604051806040016040528060138152602001725b7461726765743d257320736c6f743d25735d60681b8152508360a001518460e001516119c4565b6117166040518060400160405280600d81526020016c5b70726f6f663d25732f25735d60981b8152508361010001515f01518461010001516060015151611937565b61174a6040518060400160405280600e81526020016d5b737461636b53697a653d25735d60901b8152508360600151611a0b565b5f5b82606001518110156117c1575f61176384836115c1565b90506117af604051806040016040528060138152602001722573205b73697a653d2573207261773d25735d60681b8152508383516117aa868961137d90919063ffffffff16565b611a50565b6117b88161197e565b5060010161174c565b506040805180820190915260128152715b6d656d6f72793d2573206761733d25735d60701b6020820152610fca81805a611937565b5f60208201825181015f600193505b81831015611829575081516020909201918015611824575f9350611829565b611805565b83158284111615611840578082840360031b1c1593505b505050919050565b5f8061185384610fe3565b60c0850151909150611868575f915050610edf565b836101000151608001516001600160a01b0316631dcc17698560c001518660a0015186856040518563ffffffff1660e01b81526004016118ab949392919061202e565b602060405180830381865afa1580156118c6573d5f803e3d5ffd5b505050506040513d601f19601f820116820180604052508101906118ea9190611ec8565b949350505050565b610f898282604051602401611908929190612064565b60408051601f198184030181529190526020810180516001600160e01b0316634b5c427760e01b179052611a9f565b610fca83838360405160240161194f93929190612088565b60408051601f198184030181529190526020810180516001600160e01b031663ca47c4eb60e01b179052611a9f565b6119c18160405160240161199291906120ac565b60408051601f198184030181529190526020810180516001600160e01b03166305f3bfab60e11b179052611a9f565b50565b610fca8383836040516024016119dc939291906120be565b60408051601f198184030181529190526020810180516001600160e01b0316630d26b92560e01b179052611a9f565b610f898282604051602401611a219291906120eb565b60408051601f198184030181529190526020810180516001600160e01b0316632d839cb360e21b179052611a9f565b611a9984848484604051602401611a6a949392919061210c565b60408051601f198184030181529190526020810180516001600160e01b0316633b136dc960e11b179052611a9f565b50505050565b6119c1815f6a636f6e736f6c652e6c6f6790505f80835160208501845afa505050565b604051806101200160405280606081526020015f8152602001606081526020015f81526020015f81526020015f6001600160a01b031681526020015f80191681526020015f8152602001611b476040518060a001604052805f81526020015f801916815260200160608152602001606081526020015f6001600160a01b031681525090565b905290565b634e487b7160e01b5f52604160045260245ffd5b604051602081016001600160401b0381118282101715611b8257611b82611b4c565b60405290565b60405160a081016001600160401b0381118282101715611b8257611b82611b4c565b604051601f8201601f191681016001600160401b0381118282101715611bd257611bd2611b4c565b604052919050565b5f82601f830112611be9575f80fd5b81356001600160401b03811115611c0257611c02611b4c565b611c15601f8201601f1916602001611baa565b818152846020838601011115611c29575f80fd5b816020850160208301375f918101602001919091529392505050565b5f82601f830112611c54575f80fd5b813560206001600160401b0380831115611c7057611c70611b4c565b8260051b611c7f838201611baa565b9384528581018301938381019088861115611c98575f80fd5b84880192505b85831015611cd257823584811115611cb4575f80fd5b611cc28a87838c0101611bda565b8352509184019190840190611c9e565b98975050505050505050565b80356001600160a01b0381168114611cf4575f80fd5b919050565b5f8060408385031215611d0a575f80fd5b82356001600160401b0380821115611d20575f80fd5b9084019060208287031215611d33575f80fd5b611d3b611b60565b823582811115611d49575f80fd5b611d5588828601611bda565b82525093506020850135915080821115611d6d575f80fd5b9084019060a08287031215611d80575f80fd5b611d88611b88565b8235815260208301356020820152604083013582811115611da7575f80fd5b611db388828601611c45565b604083015250606083013582811115611dca575f80fd5b611dd688828601611bda565b606083015250611de860808401611cde565b60808201528093505050509250929050565b5f81518084528060208401602086015e5f602082860101526020601f19601f83011685010191505092915050565b5f604082016040835280855180835260608501915060608160051b860101925060208088015f5b83811015611e7d57605f19888703018552611e6b868351611dfa565b95509382019390820190600101611e4f565b50505050508091505060ff831660208301529392505050565b8381526001600160a01b03831660208201526060604082018190525f90611ebf90830184611dfa565b95945050505050565b5f60208284031215611ed8575f80fd5b5051919050565b634e487b7160e01b5f52603260045260245ffd5b634e487b7160e01b5f52601160045260245ffd5b80820180821115610edf57610edf611ef3565b5f81518060208401855e5f93019283525090919050565b5f611f3c8285611f1a565b9283525050602001919050565b92835260208301919091521515604082015260600190565b5f81611f6f57611f6f611ef3565b505f190190565b81810381811115610edf57610edf611ef3565b5f6118ea611f978386611f1a565b84611f1a565b634e487b7160e01b5f52601260045260245ffd5b5f82611fbf57611fbf611f9d565b500690565b5f60018201611fd557611fd5611ef3565b5060010190565b5f82611fea57611fea611f9d565b500490565b8082028115828204841417610edf57610edf611ef3565b6020808252600e908201526d736c6963655f6f766572666c6f7760901b604082015260600190565b84815260018060a01b0384166020820152826040820152608060608201525f61205a6080830184611dfa565b9695505050505050565b604081525f6120766040830185611dfa565b8281036020840152611ebf8185611dfa565b606081525f61209a6060830186611dfa565b60208301949094525060400152919050565b602081525f6110a06020830184611dfa565b606081525f6120d06060830186611dfa565b6001600160a01b039490941660208301525060400152919050565b604081525f6120fd6040830185611dfa565b90508260208301529392505050565b608081525f61211e6080830187611dfa565b6020830195909552506040810192909252151560609091015291905056fea2646970667358221220dc5018d6407274bbdf978d347a76993be758f0f443132788e8d9af75a84e0d1a64736f6c63430008190033","linkReferences":{}},"methodIdentifiers":{"evalRequest(GatewayRequest,ProofSequence)":"92a201d4"},"id":4}