{"abi":[{"type":"constructor","inputs":[{"name":"urls","type":"string[]","internalType":"string[]"},{"name":"window","type":"uint256","internalType":"uint256"},{"name":"hooks","type":"address","internalType":"contract IVerifierHooks"}],"stateMutability":"nonpayable"},{"type":"function","name":"gatewayURLs","inputs":[],"outputs":[{"name":"","type":"string[]","internalType":"string[]"}],"stateMutability":"view"},{"type":"function","name":"getHooks","inputs":[],"outputs":[{"name":"","type":"address","internalType":"contract IVerifierHooks"}],"stateMutability":"view"},{"type":"function","name":"getLatestContext","inputs":[],"outputs":[{"name":"","type":"bytes","internalType":"bytes"}],"stateMutability":"view"},{"type":"function","name":"getStorageValues","inputs":[{"name":"context","type":"bytes","internalType":"bytes"},{"name":"req","type":"tuple","internalType":"struct GatewayRequest","components":[{"name":"ops","type":"bytes","internalType":"bytes"}]},{"name":"proof","type":"bytes","internalType":"bytes"}],"outputs":[{"name":"","type":"bytes[]","internalType":"bytes[]"},{"name":"exitCode","type":"uint8","internalType":"uint8"}],"stateMutability":"view"},{"type":"function","name":"getWindow","inputs":[],"outputs":[{"name":"","type":"uint256","internalType":"uint256"}],"stateMutability":"view"},{"type":"function","name":"owner","inputs":[],"outputs":[{"name":"","type":"address","internalType":"address"}],"stateMutability":"view"},{"type":"function","name":"renounceOwnership","inputs":[],"outputs":[],"stateMutability":"nonpayable"},{"type":"function","name":"setGatewayURLs","inputs":[{"name":"urls","type":"string[]","internalType":"string[]"}],"outputs":[],"stateMutability":"nonpayable"},{"type":"function","name":"supportsInterface","inputs":[{"name":"interfaceId","type":"bytes4","internalType":"bytes4"}],"outputs":[{"name":"","type":"bool","internalType":"bool"}],"stateMutability":"view"},{"type":"function","name":"transferOwnership","inputs":[{"name":"newOwner","type":"address","internalType":"address"}],"outputs":[],"stateMutability":"nonpayable"},{"type":"function","name":"verify","inputs":[{"name":"req","type":"tuple","internalType":"struct GatewayRequest","components":[{"name":"ops","type":"bytes","internalType":"bytes"}]},{"name":"stateRoot","type":"bytes32","internalType":"bytes32"},{"name":"proofs","type":"bytes[]","internalType":"bytes[]"},{"name":"order","type":"bytes","internalType":"bytes"}],"outputs":[{"name":"outputs","type":"bytes[]","internalType":"bytes[]"},{"name":"exitCode","type":"uint8","internalType":"uint8"}],"stateMutability":"view"},{"type":"event","name":"GatewayURLsChanged","inputs":[],"anonymous":false},{"type":"event","name":"OwnershipTransferred","inputs":[{"name":"previousOwner","type":"address","indexed":true,"internalType":"address"},{"name":"newOwner","type":"address","indexed":true,"internalType":"address"}],"anonymous":false},{"type":"error","name":"CommitTooNew","inputs":[{"name":"latest","type":"uint256","internalType":"uint256"},{"name":"got","type":"uint256","internalType":"uint256"}]},{"type":"error","name":"CommitTooOld","inputs":[{"name":"latest","type":"uint256","internalType":"uint256"},{"name":"got","type":"uint256","internalType":"uint256"},{"name":"window","type":"uint256","internalType":"uint256"}]},{"type":"error","name":"ContentLengthMismatch","inputs":[]},{"type":"error","name":"EmptyItem","inputs":[]},{"type":"error","name":"InvalidDataRemainder","inputs":[]},{"type":"error","name":"InvalidHeader","inputs":[]},{"type":"error","name":"OwnableInvalidOwner","inputs":[{"name":"owner","type":"address","internalType":"address"}]},{"type":"error","name":"OwnableUnauthorizedAccount","inputs":[{"name":"account","type":"address","internalType":"address"}]},{"type":"error","name":"UnexpectedList","inputs":[]},{"type":"error","name":"UnexpectedString","inputs":[]}],"bytecode":{"object":"0x60c060405234801561000f575f80fd5b50604051611c55380380611c5583398101604081905261002e916101fc565b828282338061005657604051631e4fbdf760e01b81525f600482015260240160405180910390fd5b61005f81610090565b5082516100739060019060208601906100df565b506080919091526001600160a01b031660a0525061046592505050565b5f80546001600160a01b038381166001600160a01b0319831681178455604051919092169283917f8be0079c531659141344cd1fd0a4f28419497f9722a3daafe3b4186f6b6457e09190a35050565b828054828255905f5260205f20908101928215610123579160200282015b82811115610123578251829061011390826103a6565b50916020019190600101906100fd565b5061012f929150610133565b5090565b8082111561012f575f610146828261014f565b50600101610133565b50805461015b90610322565b5f825580601f1061016a575050565b601f0160209004905f5260205f20908101906101869190610189565b50565b5b8082111561012f575f815560010161018a565b634e487b7160e01b5f52604160045260245ffd5b604051601f8201601f191681016001600160401b03811182821017156101d9576101d961019d565b604052919050565b80516001600160a01b03811681146101f7575f80fd5b919050565b5f805f6060848603121561020e575f80fd5b83516001600160401b0380821115610224575f80fd5b818601915086601f830112610237575f80fd5b815160208282111561024b5761024b61019d565b8160051b61025a8282016101b1565b928352848101820192828101908b851115610273575f80fd5b83870192505b848310156102fd5782518681111561028f575f80fd5b8701603f81018d1361029f575f80fd5b848101516040888211156102b5576102b561019d565b6102c7601f8301601f191688016101b1565b8281528f828486010111156102da575f80fd5b828285018983015e5f928101880192909252508352509183019190830190610279565b80995050505080880151955050505050610319604085016101e1565b90509250925092565b600181811c9082168061033657607f821691505b60208210810361035457634e487b7160e01b5f52602260045260245ffd5b50919050565b601f8211156103a157805f5260205f20601f840160051c8101602085101561037f5750805b601f840160051c820191505b8181101561039e575f815560010161038b565b50505b505050565b81516001600160401b038111156103bf576103bf61019d565b6103d3816103cd8454610322565b8461035a565b602080601f831160018114610406575f84156103ef5750858301515b5f19600386901b1c1916600185901b17855561045d565b5f85815260208120601f198616915b8281101561043457888601518255948401946001909101908401610415565b508582101561045157878501515f19600388901b60f8161c191681555b505060018460011b0185555b505050505050565b60805160a0516117bc6104995f395f818160f3015261025d01525f818160c801528181610646015261068e01526117bc5ff3fe608060405234801561000f575f80fd5b5060043610610097575f3560e01c806301ffc9a71461009b5780631d80051d146100c35780635cd2525e146100f1578063715018a6146101205780637a26fd761461012a57806387c484fe1461014b5780638da5cb5b146101605780638e5ea8df14610168578063b50f2fbc1461017b578063e3d1666e14610190578063f2fde38b146101a3575b5f80fd5b6100ae6100a9366004610df2565b6101b6565b60405190151581526020015b60405180910390f35b6040517f000000000000000000000000000000000000000000000000000000000000000081526020016100ba565b7f00000000000000000000000000000000000000000000000000000000000000005b6040516100ba9190610e19565b610128610207565b005b61013d610138366004610f9b565b61021a565b6040516100ba9291906110bf565b6101536102f3565b6040516100ba919061112d565b610113610326565b61012861017636600461113f565b610334565b61018361037b565b6040516100ba91906111fb565b61013d61019e36600461125d565b61044f565b6101286101b13660046112de565b61055d565b5f6001600160e01b03198216633446b34b60e21b14806101e657506001600160e01b03198216634152574360e01b145b8061020157506301ffc9a760e01b6001600160e01b03198316145b92915050565b61020f61059a565b6102185f6105cc565b565b60605f73__$011ed85421b307e5206de383929e31be73$__6392a201d4876040518060a001604052805f81526020018981526020018881526020018781526020017f00000000000000000000000000000000000000000000000000000000000000006001600160a01b03168152506040518363ffffffff1660e01b81526004016102a5929190611304565b5f60405180830381865af41580156102bf573d5f803e3d5ffd5b505050506040513d5f823e601f3d908101601f191682016040526102e691908101906114a7565b9150915094509492505050565b606061030060014361150e565b60405160200161031291815260200190565b604051602081830303815290604052905090565b5f546001600160a01b031690565b61033c61059a565b805161034f906001906020840190610d24565b506040517fe621d803a0c96b9bbeea51d136777f6ea8a4ce0c4ac74f6645e18b4342e2fa07905f90a150565b60606001805480602002602001604051908101604052809291908181526020015f905b82821015610446578382905f5260205f200180546103bb90611521565b80601f01602080910402602001604051908101604052809291908181526020018280546103e790611521565b80156104325780601f1061040957610100808354040283529160200191610432565b820191905f5260205f20905b81548152906001019060200180831161041557829003601f168201915b50505050508152602001906001019061039e565b50505050905090565b60605f80858060200190518101906104679190611559565b90505f8480602001905181019061047e9190611570565b90505f61048d825f015161061b565b90505f6104b3826008815181106104a6576104a661161d565b602002602001015161062e565b90506104bf8482610640565b8251805160209091012081409081146105115760405162461bcd60e51b815260206004820152600f60248201526e0a6cad8cc7440c4d8dec6d6d0c2e6d608b1b60448201526064015b60405180910390fd5b5f610535846003815181106105285761052861161d565b60200260200101516106e9565b905061054b8a828760200151886040015161021a565b97509750505050505050935093915050565b61056561059a565b6001600160a01b03811661058e575f604051631e4fbdf760e01b81526004016105089190610e19565b610597816105cc565b50565b336105a3610326565b6001600160a01b031614610218573360405163118cdaa760e01b81526004016105089190610e19565b5f80546001600160a01b038381166001600160a01b0319831681178455604051919092169283917f8be0079c531659141344cd1fd0a4f28419497f9722a3daafe3b4186f6b6457e09190a35050565b606061020161062983610728565b61076f565b5f61020161063b836108e2565b61096a565b8161066b7f000000000000000000000000000000000000000000000000000000000000000083611631565b10156106ba57604051632a54241d60e21b815260048101839052602481018290527f00000000000000000000000000000000000000000000000000000000000000006044820152606401610508565b818111156106e55760405163b356ade760e01b81526004810183905260248101829052604401610508565b5050565b5f806106f4836108e2565b90508051602014610718576040516366c9448560e01b815260040160405180910390fd5b61072181611644565b9392505050565b610730610d78565b81515f0361075157604051635ab458fb60e01b815260040160405180910390fd5b50604080518082019091528151815260209182019181019190915290565b60605f805f61077d856109b1565b91945092509050600181600181111561079857610798611667565b146107b6576040516325ce355f60e11b815260040160405180910390fd5b84516107c28385611631565b146107e057604051630b8aa6f760e31b815260040160405180910390fd5b604080516020808252610420820190925290816020015b6107ff610d78565b8152602001906001900390816107f75790505093505f835b86518110156108d6575f8061085b6040518060400160405280858c5f015161083f919061150e565b8152602001858c602001516108549190611631565b90526109b1565b5091509150604051806040016040528083836108779190611631565b8152602001848b6020015161088c9190611631565b8152508885815181106108a1576108a161161d565b60209081029190910101526108b7600185611631565b93506108c38183611631565b6108cd9084611631565b92505050610817565b50845250919392505050565b60605f805f6108f0856109b1565b919450925090505f81600181111561090a5761090a611667565b14610928576040516307fe6cb960e21b815260040160405180910390fd5b6109328284611631565b85511461095257604051630b8aa6f760e31b815260040160405180910390fd5b61096185602001518484610c94565b95945050505050565b5f60208251111561098e576040516366c9448560e01b815260040160405180910390fd5b60038251602061099e919061150e565b901b6109a983611644565b901c92915050565b5f805f835f01515f036109d757604051635ab458fb60e01b815260040160405180910390fd5b602084015180515f1a607f81116109f9575f60015f9450945094505050610c8d565b60b78111610a8e575f610a0d60808361150e565b905080875f015111610a32576040516366c9448560e01b815260040160405180910390fd5b6001838101516001600160f81b0319169082148015610a5e5750600160ff1b6001600160f81b03198216105b15610a7c5760405163babb01dd60e01b815260040160405180910390fd5b506001955093505f9250610c8d915050565b60bf8111610b6c575f610aa260b78361150e565b905080875f015111610ac7576040516366c9448560e01b815260040160405180910390fd5b60018301516001600160f81b0319165f819003610af75760405163babb01dd60e01b815260040160405180910390fd5b600184015160088302610100031c60378111610b265760405163babb01dd60e01b815260040160405180910390fd5b610b308184611631565b895111610b50576040516366c9448560e01b815260040160405180910390fd5b610b5b836001611631565b975095505f9450610c8d9350505050565b60f78111610bb6575f610b8060c08361150e565b905080875f015111610ba5576040516366c9448560e01b815260040160405180910390fd5b600195509350849250610c8d915050565b5f610bc260f78361150e565b905080875f015111610be7576040516366c9448560e01b815260040160405180910390fd5b60018301516001600160f81b0319165f819003610c175760405163babb01dd60e01b815260040160405180910390fd5b600184015160088302610100031c60378111610c465760405163babb01dd60e01b815260040160405180910390fd5b610c508184611631565b895111610c70576040516366c9448560e01b815260040160405180910390fd5b610c7b836001611631565b9750955060019450610c8d9350505050565b9193909250565b6060816001600160401b03811115610cae57610cae610e2d565b6040519080825280601f01601f191660200182016040528015610cd8576020820181803683370190505b5090508115610721575f610cec8486611631565b9050602082015f5b84811015610d0c578281015182820152602001610cf4565b84811115610d1a575f858301525b5050509392505050565b828054828255905f5260205f20908101928215610d68579160200282015b82811115610d685782518290610d5890826116c7565b5091602001919060010190610d42565b50610d74929150610d90565b5090565b60405180604001604052805f81526020015f81525090565b80821115610d74575f610da38282610dac565b50600101610d90565b508054610db890611521565b5f825580601f10610dc7575050565b601f0160209004905f5260205f209081019061059791905b80821115610d74575f8155600101610ddf565b5f60208284031215610e02575f80fd5b81356001600160e01b031981168114610721575f80fd5b6001600160a01b0391909116815260200190565b634e487b7160e01b5f52604160045260245ffd5b604051606081016001600160401b0381118282101715610e6357610e63610e2d565b60405290565b604051601f8201601f191681016001600160401b0381118282101715610e9157610e91610e2d565b604052919050565b5f6001600160401b03821115610eb157610eb1610e2d565b50601f01601f191660200190565b5f610ed1610ecc84610e99565b610e69565b9050828152838383011115610ee4575f80fd5b828260208301375f602084830101529392505050565b5f82601f830112610f09575f80fd5b61072183833560208501610ebf565b5f60208284031215610f28575f80fd5b604051602081016001600160401b038082118383101715610f4b57610f4b610e2d565b816040528293508435915080821115610f62575f80fd5b50610f6f85828601610efa565b8252505092915050565b5f6001600160401b03821115610f9157610f91610e2d565b5060051b60200190565b5f805f8060808587031215610fae575f80fd5b84356001600160401b0380821115610fc4575f80fd5b610fd088838901610f18565b955060209150818701359450604087013581811115610fed575f80fd5b8701601f81018913610ffd575f80fd5b803561100b610ecc82610f79565b81815260059190911b8201840190848101908b831115611029575f80fd5b8584015b8381101561105f57803586811115611043575f80fd5b6110518e8983890101610efa565b84525091860191860161102d565b5096505050506060870135915080821115611078575f80fd5b5061108587828801610efa565b91505092959194509250565b5f81518084528060208401602086015e5f602082860101526020601f19601f83011685010191505092915050565b5f604082016040835280855180835260608501915060608160051b860101925060208088015f5b8381101561111457605f19888703018552611102868351611091565b955093820193908201906001016110e6565b50505050508091505060ff831660208301529392505050565b602081525f6107216020830184611091565b5f6020808385031215611150575f80fd5b82356001600160401b0380821115611166575f80fd5b818501915085601f830112611179575f80fd5b8135611187610ecc82610f79565b81815260059190911b830184019084810190888311156111a5575f80fd5b8585015b838110156111ee578035858111156111bf575f80fd5b8601603f81018b136111cf575f80fd5b6111e08b8983013560408401610ebf565b8452509186019186016111a9565b5098975050505050505050565b5f60208083016020845280855180835260408601915060408160051b8701019250602087015f5b8281101561125057603f1988860301845261123e858351611091565b94509285019290850190600101611222565b5092979650505050505050565b5f805f6060848603121561126f575f80fd5b83356001600160401b0380821115611285575f80fd5b61129187838801610efa565b945060208601359150808211156112a6575f80fd5b6112b287838801610f18565b935060408601359150808211156112c7575f80fd5b506112d486828701610efa565b9150509250925092565b5f602082840312156112ee575f80fd5b81356001600160a01b0381168114610721575f80fd5b604081525f835160208060408501526113206060850183611091565b91508382038185015260a08201855183528186015182840152604086015160a0604085015281815180845260c08601915060c08160051b870101935084830192505f5b818110156113915760bf1987860301835261137f858551611091565b94509285019291850191600101611363565b505050506060860151915082810360608401526113ae8183611091565b91505060808501516113cb60808401826001600160a01b03169052565b5095945050505050565b5f82601f8301126113e4575f80fd5b81516113f2610ecc82610e99565b818152846020838601011115611406575f80fd5b8160208501602083015e5f918101602001919091529392505050565b5f82601f830112611431575f80fd5b81516020611441610ecc83610f79565b82815260059290921b8401810191818101908684111561145f575f80fd5b8286015b8481101561149c5780516001600160401b03811115611480575f80fd5b61148e8986838b01016113d5565b845250918301918301611463565b509695505050505050565b5f80604083850312156114b8575f80fd5b82516001600160401b038111156114cd575f80fd5b6114d985828601611422565b925050602083015160ff811681146114ef575f80fd5b809150509250929050565b634e487b7160e01b5f52601160045260245ffd5b81810381811115610201576102016114fa565b600181811c9082168061153557607f821691505b60208210810361155357634e487b7160e01b5f52602260045260245ffd5b50919050565b5f60208284031215611569575f80fd5b5051919050565b5f60208284031215611580575f80fd5b81516001600160401b0380821115611596575f80fd5b90830190606082860312156115a9575f80fd5b6115b1610e41565b8251828111156115bf575f80fd5b6115cb878286016113d5565b8252506020830151828111156115df575f80fd5b6115eb87828601611422565b602083015250604083015182811115611602575f80fd5b61160e878286016113d5565b60408301525095945050505050565b634e487b7160e01b5f52603260045260245ffd5b80820180821115610201576102016114fa565b80516020808301519190811015611553575f1960209190910360031b1b16919050565b634e487b7160e01b5f52602160045260245ffd5b601f8211156116c257805f5260205f20601f840160051c810160208510156116a05750805b601f840160051c820191505b818110156116bf575f81556001016116ac565b50505b505050565b81516001600160401b038111156116e0576116e0610e2d565b6116f4816116ee8454611521565b8461167b565b602080601f831160018114611727575f84156117105750858301515b5f19600386901b1c1916600185901b17855561177e565b5f85815260208120601f198616915b8281101561175557888601518255948401946001909101908401611736565b508582101561177257878501515f19600388901b60f8161c191681555b505060018460011b0185555b50505050505056fea264697066735822122013a9932951a7feef24bff99a8672a9be7ead9b13e088ac379c7e6b47cd25a1e964736f6c63430008190033","linkReferences":{"contracts/GatewayVM.sol":{"GatewayVM":[{"start":1720,"length":20}]}}},"methodIdentifiers":{"gatewayURLs()":"b50f2fbc","getHooks()":"5cd2525e","getLatestContext()":"87c484fe","getStorageValues(bytes,(bytes),bytes)":"e3d1666e","getWindow()":"1d80051d","owner()":"8da5cb5b","renounceOwnership()":"715018a6","setGatewayURLs(string[])":"8e5ea8df","supportsInterface(bytes4)":"01ffc9a7","transferOwnership(address)":"f2fde38b","verify((bytes),bytes32,bytes[],bytes)":"7a26fd76"},"id":13}