{"abi":[{"type":"constructor","inputs":[{"name":"urls","type":"string[]","internalType":"string[]"},{"name":"window","type":"uint256","internalType":"uint256"},{"name":"hooks","type":"address","internalType":"contract IVerifierHooks"}],"stateMutability":"nonpayable"},{"type":"function","name":"gatewayURLs","inputs":[],"outputs":[{"name":"","type":"string[]","internalType":"string[]"}],"stateMutability":"view"},{"type":"function","name":"getHooks","inputs":[],"outputs":[{"name":"","type":"address","internalType":"contract IVerifierHooks"}],"stateMutability":"view"},{"type":"function","name":"getLatestContext","inputs":[],"outputs":[{"name":"","type":"bytes","internalType":"bytes"}],"stateMutability":"view"},{"type":"function","name":"getStorageValues","inputs":[{"name":"context","type":"bytes","internalType":"bytes"},{"name":"req","type":"tuple","internalType":"struct GatewayRequest","components":[{"name":"ops","type":"bytes","internalType":"bytes"}]},{"name":"proof","type":"bytes","internalType":"bytes"}],"outputs":[{"name":"","type":"bytes[]","internalType":"bytes[]"},{"name":"exitCode","type":"uint8","internalType":"uint8"}],"stateMutability":"view"},{"type":"function","name":"getWindow","inputs":[],"outputs":[{"name":"","type":"uint256","internalType":"uint256"}],"stateMutability":"view"},{"type":"function","name":"owner","inputs":[],"outputs":[{"name":"","type":"address","internalType":"address"}],"stateMutability":"view"},{"type":"function","name":"renounceOwnership","inputs":[],"outputs":[],"stateMutability":"nonpayable"},{"type":"function","name":"setGatewayURLs","inputs":[{"name":"urls","type":"string[]","internalType":"string[]"}],"outputs":[],"stateMutability":"nonpayable"},{"type":"function","name":"transferOwnership","inputs":[{"name":"newOwner","type":"address","internalType":"address"}],"outputs":[],"stateMutability":"nonpayable"},{"type":"function","name":"verify","inputs":[{"name":"req","type":"tuple","internalType":"struct GatewayRequest","components":[{"name":"ops","type":"bytes","internalType":"bytes"}]},{"name":"stateRoot","type":"bytes32","internalType":"bytes32"},{"name":"proofs","type":"bytes[]","internalType":"bytes[]"},{"name":"order","type":"bytes","internalType":"bytes"}],"outputs":[{"name":"outputs","type":"bytes[]","internalType":"bytes[]"},{"name":"exitCode","type":"uint8","internalType":"uint8"}],"stateMutability":"view"},{"type":"event","name":"GatewayURLsChanged","inputs":[],"anonymous":false},{"type":"event","name":"OwnershipTransferred","inputs":[{"name":"previousOwner","type":"address","indexed":true,"internalType":"address"},{"name":"newOwner","type":"address","indexed":true,"internalType":"address"}],"anonymous":false},{"type":"error","name":"CommitTooNew","inputs":[{"name":"latest","type":"uint256","internalType":"uint256"},{"name":"got","type":"uint256","internalType":"uint256"}]},{"type":"error","name":"CommitTooOld","inputs":[{"name":"latest","type":"uint256","internalType":"uint256"},{"name":"got","type":"uint256","internalType":"uint256"},{"name":"window","type":"uint256","internalType":"uint256"}]},{"type":"error","name":"ContentLengthMismatch","inputs":[]},{"type":"error","name":"EmptyItem","inputs":[]},{"type":"error","name":"InvalidDataRemainder","inputs":[]},{"type":"error","name":"InvalidHeader","inputs":[]},{"type":"error","name":"OwnableInvalidOwner","inputs":[{"name":"owner","type":"address","internalType":"address"}]},{"type":"error","name":"OwnableUnauthorizedAccount","inputs":[{"name":"account","type":"address","internalType":"address"}]},{"type":"error","name":"UnexpectedList","inputs":[]},{"type":"error","name":"UnexpectedString","inputs":[]}],"bytecode":{"object":"0x60c060405234801561000f575f80fd5b50604051611bb5380380611bb583398101604081905261002e916101fc565b828282338061005657604051631e4fbdf760e01b81525f600482015260240160405180910390fd5b61005f81610090565b5082516100739060019060208601906100df565b506080919091526001600160a01b031660a0525061046592505050565b5f80546001600160a01b038381166001600160a01b0319831681178455604051919092169283917f8be0079c531659141344cd1fd0a4f28419497f9722a3daafe3b4186f6b6457e09190a35050565b828054828255905f5260205f20908101928215610123579160200282015b82811115610123578251829061011390826103a6565b50916020019190600101906100fd565b5061012f929150610133565b5090565b8082111561012f575f610146828261014f565b50600101610133565b50805461015b90610322565b5f825580601f1061016a575050565b601f0160209004905f5260205f20908101906101869190610189565b50565b5b8082111561012f575f815560010161018a565b634e487b7160e01b5f52604160045260245ffd5b604051601f8201601f191681016001600160401b03811182821017156101d9576101d961019d565b604052919050565b80516001600160a01b03811681146101f7575f80fd5b919050565b5f805f6060848603121561020e575f80fd5b83516001600160401b0380821115610224575f80fd5b818601915086601f830112610237575f80fd5b815160208282111561024b5761024b61019d565b8160051b61025a8282016101b1565b928352848101820192828101908b851115610273575f80fd5b83870192505b848310156102fd5782518681111561028f575f80fd5b8701603f81018d1361029f575f80fd5b848101516040888211156102b5576102b561019d565b6102c7601f8301601f191688016101b1565b8281528f828486010111156102da575f80fd5b828285018983015e5f928101880192909252508352509183019190830190610279565b80995050505080880151955050505050610319604085016101e1565b90509250925092565b600181811c9082168061033657607f821691505b60208210810361035457634e487b7160e01b5f52602260045260245ffd5b50919050565b601f8211156103a157805f5260205f20601f840160051c8101602085101561037f5750805b601f840160051c820191505b8181101561039e575f815560010161038b565b50505b505050565b81516001600160401b038111156103bf576103bf61019d565b6103d3816103cd8454610322565b8461035a565b602080601f831160018114610406575f84156103ef5750858301515b5f19600386901b1c1916600185901b17855561045d565b5f85815260208120601f198616915b8281101561043457888601518255948401946001909101908401610415565b508582101561045157878501515f19600388901b60f8161c191681555b505060018460011b0185555b505050505050565b60805160a05161171c6104995f395f818160c501526101de01525f81816095015281816105cd0152610615015261171c5ff3fe608060405234801561000f575f80fd5b506004361061008c575f3560e01c80631d80051d146100905780635cd2525e146100c3578063715018a6146100f25780637a26fd76146100fc57806387c484fe1461011d5780638da5cb5b146101325780638e5ea8df1461013a578063b50f2fbc1461014d578063e3d1666e14610162578063f2fde38b14610175575b5f80fd5b6040517f000000000000000000000000000000000000000000000000000000000000000081526020015b60405180910390f35b7f00000000000000000000000000000000000000000000000000000000000000005b6040516100ba9190610d79565b6100fa610188565b005b61010f61010a366004610efb565b61019b565b6040516100ba92919061101f565b610125610274565b6040516100ba919061108d565b6100e56102a7565b6100fa61014836600461109f565b6102b5565b6101556102fc565b6040516100ba919061115b565b61010f6101703660046111bd565b6103d0565b6100fa61018336600461123e565b6104de565b61019061051b565b6101995f61054d565b565b60605f73__$011ed85421b307e5206de383929e31be73$__6392a201d4876040518060a001604052805f81526020018981526020018881526020018781526020017f00000000000000000000000000000000000000000000000000000000000000006001600160a01b03168152506040518363ffffffff1660e01b8152600401610226929190611264565b5f60405180830381865af4158015610240573d5f803e3d5ffd5b505050506040513d5f823e601f3d908101601f191682016040526102679190810190611407565b9150915094509492505050565b606061028160014361146e565b60405160200161029391815260200190565b604051602081830303815290604052905090565b5f546001600160a01b031690565b6102bd61051b565b80516102d0906001906020840190610cab565b506040517fe621d803a0c96b9bbeea51d136777f6ea8a4ce0c4ac74f6645e18b4342e2fa07905f90a150565b60606001805480602002602001604051908101604052809291908181526020015f905b828210156103c7578382905f5260205f2001805461033c90611481565b80601f016020809104026020016040519081016040528092919081815260200182805461036890611481565b80156103b35780601f1061038a576101008083540402835291602001916103b3565b820191905f5260205f20905b81548152906001019060200180831161039657829003601f168201915b50505050508152602001906001019061031f565b50505050905090565b60605f80858060200190518101906103e891906114b9565b90505f848060200190518101906103ff91906114d0565b90505f61040e825f015161059c565b90505f610434826008815181106104275761042761157d565b60200260200101516105b5565b905061044084826105c7565b8251805160209091012081409081146104925760405162461bcd60e51b815260206004820152600f60248201526e0a6cad8cc7440c4d8dec6d6d0c2e6d608b1b60448201526064015b60405180910390fd5b5f6104b6846003815181106104a9576104a961157d565b6020026020010151610670565b90506104cc8a828760200151886040015161019b565b97509750505050505050935093915050565b6104e661051b565b6001600160a01b03811661050f575f604051631e4fbdf760e01b81526004016104899190610d79565b6105188161054d565b50565b336105246102a7565b6001600160a01b031614610199573360405163118cdaa760e01b81526004016104899190610d79565b5f80546001600160a01b038381166001600160a01b0319831681178455604051919092169283917f8be0079c531659141344cd1fd0a4f28419497f9722a3daafe3b4186f6b6457e09190a35050565b60606105af6105aa836106af565b6106f6565b92915050565b5f6105af6105c283610869565b6108f1565b816105f27f000000000000000000000000000000000000000000000000000000000000000083611591565b101561064157604051632a54241d60e21b815260048101839052602481018290527f00000000000000000000000000000000000000000000000000000000000000006044820152606401610489565b8181111561066c5760405163b356ade760e01b81526004810183905260248101829052604401610489565b5050565b5f8061067b83610869565b9050805160201461069f576040516366c9448560e01b815260040160405180910390fd5b6106a8816115a4565b9392505050565b6106b7610cff565b81515f036106d857604051635ab458fb60e01b815260040160405180910390fd5b50604080518082019091528151815260209182019181019190915290565b60605f805f61070485610938565b91945092509050600181600181111561071f5761071f6115c7565b1461073d576040516325ce355f60e11b815260040160405180910390fd5b84516107498385611591565b1461076757604051630b8aa6f760e31b815260040160405180910390fd5b604080516020808252610420820190925290816020015b610786610cff565b81526020019060019003908161077e5790505093505f835b865181101561085d575f806107e26040518060400160405280858c5f01516107c6919061146e565b8152602001858c602001516107db9190611591565b9052610938565b5091509150604051806040016040528083836107fe9190611591565b8152602001848b602001516108139190611591565b8152508885815181106108285761082861157d565b602090810291909101015261083e600185611591565b935061084a8183611591565b6108549084611591565b9250505061079e565b50845250919392505050565b60605f805f61087785610938565b919450925090505f816001811115610891576108916115c7565b146108af576040516307fe6cb960e21b815260040160405180910390fd5b6108b98284611591565b8551146108d957604051630b8aa6f760e31b815260040160405180910390fd5b6108e885602001518484610c1b565b95945050505050565b5f602082511115610915576040516366c9448560e01b815260040160405180910390fd5b600382516020610925919061146e565b901b610930836115a4565b901c92915050565b5f805f835f01515f0361095e57604051635ab458fb60e01b815260040160405180910390fd5b602084015180515f1a607f8111610980575f60015f9450945094505050610c14565b60b78111610a15575f61099460808361146e565b905080875f0151116109b9576040516366c9448560e01b815260040160405180910390fd5b6001838101516001600160f81b03191690821480156109e55750600160ff1b6001600160f81b03198216105b15610a035760405163babb01dd60e01b815260040160405180910390fd5b506001955093505f9250610c14915050565b60bf8111610af3575f610a2960b78361146e565b905080875f015111610a4e576040516366c9448560e01b815260040160405180910390fd5b60018301516001600160f81b0319165f819003610a7e5760405163babb01dd60e01b815260040160405180910390fd5b600184015160088302610100031c60378111610aad5760405163babb01dd60e01b815260040160405180910390fd5b610ab78184611591565b895111610ad7576040516366c9448560e01b815260040160405180910390fd5b610ae2836001611591565b975095505f9450610c149350505050565b60f78111610b3d575f610b0760c08361146e565b905080875f015111610b2c576040516366c9448560e01b815260040160405180910390fd5b600195509350849250610c14915050565b5f610b4960f78361146e565b905080875f015111610b6e576040516366c9448560e01b815260040160405180910390fd5b60018301516001600160f81b0319165f819003610b9e5760405163babb01dd60e01b815260040160405180910390fd5b600184015160088302610100031c60378111610bcd5760405163babb01dd60e01b815260040160405180910390fd5b610bd78184611591565b895111610bf7576040516366c9448560e01b815260040160405180910390fd5b610c02836001611591565b9750955060019450610c149350505050565b9193909250565b6060816001600160401b03811115610c3557610c35610d8d565b6040519080825280601f01601f191660200182016040528015610c5f576020820181803683370190505b50905081156106a8575f610c738486611591565b9050602082015f5b84811015610c93578281015182820152602001610c7b565b84811115610ca1575f858301525b5050509392505050565b828054828255905f5260205f20908101928215610cef579160200282015b82811115610cef5782518290610cdf9082611627565b5091602001919060010190610cc9565b50610cfb929150610d17565b5090565b60405180604001604052805f81526020015f81525090565b80821115610cfb575f610d2a8282610d33565b50600101610d17565b508054610d3f90611481565b5f825580601f10610d4e575050565b601f0160209004905f5260205f209081019061051891905b80821115610cfb575f8155600101610d66565b6001600160a01b0391909116815260200190565b634e487b7160e01b5f52604160045260245ffd5b604051606081016001600160401b0381118282101715610dc357610dc3610d8d565b60405290565b604051601f8201601f191681016001600160401b0381118282101715610df157610df1610d8d565b604052919050565b5f6001600160401b03821115610e1157610e11610d8d565b50601f01601f191660200190565b5f610e31610e2c84610df9565b610dc9565b9050828152838383011115610e44575f80fd5b828260208301375f602084830101529392505050565b5f82601f830112610e69575f80fd5b6106a883833560208501610e1f565b5f60208284031215610e88575f80fd5b604051602081016001600160401b038082118383101715610eab57610eab610d8d565b816040528293508435915080821115610ec2575f80fd5b50610ecf85828601610e5a565b8252505092915050565b5f6001600160401b03821115610ef157610ef1610d8d565b5060051b60200190565b5f805f8060808587031215610f0e575f80fd5b84356001600160401b0380821115610f24575f80fd5b610f3088838901610e78565b955060209150818701359450604087013581811115610f4d575f80fd5b8701601f81018913610f5d575f80fd5b8035610f6b610e2c82610ed9565b81815260059190911b8201840190848101908b831115610f89575f80fd5b8584015b83811015610fbf57803586811115610fa3575f80fd5b610fb18e8983890101610e5a565b845250918601918601610f8d565b5096505050506060870135915080821115610fd8575f80fd5b50610fe587828801610e5a565b91505092959194509250565b5f81518084528060208401602086015e5f602082860101526020601f19601f83011685010191505092915050565b5f604082016040835280855180835260608501915060608160051b860101925060208088015f5b8381101561107457605f19888703018552611062868351610ff1565b95509382019390820190600101611046565b50505050508091505060ff831660208301529392505050565b602081525f6106a86020830184610ff1565b5f60208083850312156110b0575f80fd5b82356001600160401b03808211156110c6575f80fd5b818501915085601f8301126110d9575f80fd5b81356110e7610e2c82610ed9565b81815260059190911b83018401908481019088831115611105575f80fd5b8585015b8381101561114e5780358581111561111f575f80fd5b8601603f81018b1361112f575f80fd5b6111408b8983013560408401610e1f565b845250918601918601611109565b5098975050505050505050565b5f60208083016020845280855180835260408601915060408160051b8701019250602087015f5b828110156111b057603f1988860301845261119e858351610ff1565b94509285019290850190600101611182565b5092979650505050505050565b5f805f606084860312156111cf575f80fd5b83356001600160401b03808211156111e5575f80fd5b6111f187838801610e5a565b94506020860135915080821115611206575f80fd5b61121287838801610e78565b93506040860135915080821115611227575f80fd5b5061123486828701610e5a565b9150509250925092565b5f6020828403121561124e575f80fd5b81356001600160a01b03811681146106a8575f80fd5b604081525f835160208060408501526112806060850183610ff1565b91508382038185015260a08201855183528186015182840152604086015160a0604085015281815180845260c08601915060c08160051b870101935084830192505f5b818110156112f15760bf198786030183526112df858551610ff1565b945092850192918501916001016112c3565b5050505060608601519150828103606084015261130e8183610ff1565b915050608085015161132b60808401826001600160a01b03169052565b5095945050505050565b5f82601f830112611344575f80fd5b8151611352610e2c82610df9565b818152846020838601011115611366575f80fd5b8160208501602083015e5f918101602001919091529392505050565b5f82601f830112611391575f80fd5b815160206113a1610e2c83610ed9565b82815260059290921b840181019181810190868411156113bf575f80fd5b8286015b848110156113fc5780516001600160401b038111156113e0575f80fd5b6113ee8986838b0101611335565b8452509183019183016113c3565b509695505050505050565b5f8060408385031215611418575f80fd5b82516001600160401b0381111561142d575f80fd5b61143985828601611382565b925050602083015160ff8116811461144f575f80fd5b809150509250929050565b634e487b7160e01b5f52601160045260245ffd5b818103818111156105af576105af61145a565b600181811c9082168061149557607f821691505b6020821081036114b357634e487b7160e01b5f52602260045260245ffd5b50919050565b5f602082840312156114c9575f80fd5b5051919050565b5f602082840312156114e0575f80fd5b81516001600160401b03808211156114f6575f80fd5b9083019060608286031215611509575f80fd5b611511610da1565b82518281111561151f575f80fd5b61152b87828601611335565b82525060208301518281111561153f575f80fd5b61154b87828601611382565b602083015250604083015182811115611562575f80fd5b61156e87828601611335565b60408301525095945050505050565b634e487b7160e01b5f52603260045260245ffd5b808201808211156105af576105af61145a565b805160208083015191908110156114b3575f1960209190910360031b1b16919050565b634e487b7160e01b5f52602160045260245ffd5b601f82111561162257805f5260205f20601f840160051c810160208510156116005750805b601f840160051c820191505b8181101561161f575f815560010161160c565b50505b505050565b81516001600160401b0381111561164057611640610d8d565b6116548161164e8454611481565b846115db565b602080601f831160018114611687575f84156116705750858301515b5f19600386901b1c1916600185901b1785556116de565b5f85815260208120601f198616915b828110156116b557888601518255948401946001909101908401611696565b50858210156116d257878501515f19600388901b60f8161c191681555b505060018460011b0185555b50505050505056fea2646970667358221220838281e0f04cf625f4cc0ea78f82ba78ac91e156705dd95805823a849f79c67a64736f6c63430008190033","linkReferences":{"contracts/GatewayVM.sol":{"GatewayVM":[{"start":1593,"length":20}]}}},"methodIdentifiers":{"gatewayURLs()":"b50f2fbc","getHooks()":"5cd2525e","getLatestContext()":"87c484fe","getStorageValues(bytes,(bytes),bytes)":"e3d1666e","getWindow()":"1d80051d","owner()":"8da5cb5b","renounceOwnership()":"715018a6","setGatewayURLs(string[])":"8e5ea8df","transferOwnership(address)":"f2fde38b","verify((bytes),bytes32,bytes[],bytes)":"7a26fd76"},"id":10}