{"abi":[{"type":"constructor","inputs":[{"name":"urls","type":"string[]","internalType":"string[]"},{"name":"window","type":"uint256","internalType":"uint256"},{"name":"hooks","type":"address","internalType":"contract IVerifierHooks"}],"stateMutability":"nonpayable"},{"type":"function","name":"commits","inputs":[{"name":"","type":"uint256","internalType":"uint256"}],"outputs":[{"name":"stateRoot","type":"bytes32","internalType":"bytes32"},{"name":"prevIndex","type":"uint256","internalType":"uint256"}],"stateMutability":"view"},{"type":"function","name":"gatewayURLs","inputs":[],"outputs":[{"name":"","type":"string[]","internalType":"string[]"}],"stateMutability":"view"},{"type":"function","name":"getHooks","inputs":[],"outputs":[{"name":"","type":"address","internalType":"contract IVerifierHooks"}],"stateMutability":"view"},{"type":"function","name":"getLatestContext","inputs":[],"outputs":[{"name":"","type":"bytes","internalType":"bytes"}],"stateMutability":"view"},{"type":"function","name":"getStorageValues","inputs":[{"name":"context","type":"bytes","internalType":"bytes"},{"name":"req","type":"tuple","internalType":"struct GatewayRequest","components":[{"name":"ops","type":"bytes","internalType":"bytes"}]},{"name":"proof","type":"bytes","internalType":"bytes"}],"outputs":[{"name":"values","type":"bytes[]","internalType":"bytes[]"},{"name":"exitCode","type":"uint8","internalType":"uint8"}],"stateMutability":"view"},{"type":"function","name":"getWindow","inputs":[],"outputs":[{"name":"","type":"uint256","internalType":"uint256"}],"stateMutability":"view"},{"type":"function","name":"latestIndex","inputs":[],"outputs":[{"name":"","type":"uint256","internalType":"uint256"}],"stateMutability":"view"},{"type":"function","name":"owner","inputs":[],"outputs":[{"name":"","type":"address","internalType":"address"}],"stateMutability":"view"},{"type":"function","name":"renounceOwnership","inputs":[],"outputs":[],"stateMutability":"nonpayable"},{"type":"function","name":"setGatewayURLs","inputs":[{"name":"urls","type":"string[]","internalType":"string[]"}],"outputs":[],"stateMutability":"nonpayable"},{"type":"function","name":"setStateRoot","inputs":[{"name":"index","type":"uint256","internalType":"uint256"},{"name":"stateRoot","type":"bytes32","internalType":"bytes32"}],"outputs":[],"stateMutability":"nonpayable"},{"type":"function","name":"transferOwnership","inputs":[{"name":"newOwner","type":"address","internalType":"address"}],"outputs":[],"stateMutability":"nonpayable"},{"type":"event","name":"GatewayURLsChanged","inputs":[],"anonymous":false},{"type":"event","name":"NewStateRoot","inputs":[{"name":"prevIndex","type":"uint256","indexed":true,"internalType":"uint256"},{"name":"index","type":"uint256","indexed":true,"internalType":"uint256"},{"name":"stateRoot","type":"bytes32","indexed":false,"internalType":"bytes32"}],"anonymous":false},{"type":"event","name":"OwnershipTransferred","inputs":[{"name":"previousOwner","type":"address","indexed":true,"internalType":"address"},{"name":"newOwner","type":"address","indexed":true,"internalType":"address"}],"anonymous":false},{"type":"error","name":"CommitTooNew","inputs":[{"name":"latest","type":"uint256","internalType":"uint256"},{"name":"got","type":"uint256","internalType":"uint256"}]},{"type":"error","name":"CommitTooOld","inputs":[{"name":"latest","type":"uint256","internalType":"uint256"},{"name":"got","type":"uint256","internalType":"uint256"},{"name":"window","type":"uint256","internalType":"uint256"}]},{"type":"error","name":"OwnableInvalidOwner","inputs":[{"name":"owner","type":"address","internalType":"address"}]},{"type":"error","name":"OwnableUnauthorizedAccount","inputs":[{"name":"account","type":"address","internalType":"address"}]}],"bytecode":{"object":"0x60c060405234801561000f575f80fd5b506040516113d43803806113d483398101604081905261002e916101fc565b828282338061005657604051631e4fbdf760e01b81525f600482015260240160405180910390fd5b61005f81610090565b5082516100739060019060208601906100df565b506080919091526001600160a01b031660a0525061046592505050565b5f80546001600160a01b038381166001600160a01b0319831681178455604051919092169283917f8be0079c531659141344cd1fd0a4f28419497f9722a3daafe3b4186f6b6457e09190a35050565b828054828255905f5260205f20908101928215610123579160200282015b82811115610123578251829061011390826103a6565b50916020019190600101906100fd565b5061012f929150610133565b5090565b8082111561012f575f610146828261014f565b50600101610133565b50805461015b90610322565b5f825580601f1061016a575050565b601f0160209004905f5260205f20908101906101869190610189565b50565b5b8082111561012f575f815560010161018a565b634e487b7160e01b5f52604160045260245ffd5b604051601f8201601f191681016001600160401b03811182821017156101d9576101d961019d565b604052919050565b80516001600160a01b03811681146101f7575f80fd5b919050565b5f805f6060848603121561020e575f80fd5b83516001600160401b0380821115610224575f80fd5b818601915086601f830112610237575f80fd5b815160208282111561024b5761024b61019d565b8160051b61025a8282016101b1565b928352848101820192828101908b851115610273575f80fd5b83870192505b848310156102fd5782518681111561028f575f80fd5b8701603f81018d1361029f575f80fd5b848101516040888211156102b5576102b561019d565b6102c7601f8301601f191688016101b1565b8281528f828486010111156102da575f80fd5b828285018983015e5f928101880192909252508352509183019190830190610279565b80995050505080880151955050505050610319604085016101e1565b90509250925092565b600181811c9082168061033657607f821691505b60208210810361035457634e487b7160e01b5f52602260045260245ffd5b50919050565b601f8211156103a157805f5260205f20601f840160051c8101602085101561037f5750805b601f840160051c820191505b8181101561039e575f815560010161038b565b50505b505050565b81516001600160401b038111156103bf576103bf61019d565b6103d3816103cd8454610322565b8461035a565b602080601f831160018114610406575f84156103ef5750858301515b5f19600386901b1c1916600185901b17855561045d565b5f85815260208120601f198616915b8281101561043457888601518255948401946001909101908401610415565b508582101561045157878501515f19600388901b60f8161c191681555b505060018460011b0185555b505050505050565b60805160a051610f3b6104995f395f818160fb015261047d01525f818160a8015281816105ed01526106350152610f3b5ff3fe608060405234801561000f575f80fd5b50600436106100a2575f3560e01c80631d80051d146100a65780632bdd1f16146100db578063578f2aa0146100f05780635cd2525e146100f9578063715018a61461012857806387c484fe146101305780638da5cb5b146101455780638e5ea8df1461014d578063b50f2fbc14610160578063c7c4a61514610175578063e3d1666e146101b0578063f2fde38b146101d1575b5f80fd5b7f00000000000000000000000000000000000000000000000000000000000000005b6040519081526020015b60405180910390f35b6100ee6100e9366004610746565b6101e4565b005b6100c860035481565b7f00000000000000000000000000000000000000000000000000000000000000005b6040516100d29190610766565b6100ee61029d565b6101386102b0565b6040516100d291906107a8565b61011b6102db565b6100ee61015b366004610888565b6102e9565b610168610330565b6040516100d29190610944565b61019b6101833660046109a6565b60026020525f90815260409020805460019091015482565b604080519283526020830191909152016100d2565b6101c36101be3660046109db565b610404565b6040516100d2929190610a9e565b6100ee6101df366004610b0c565b610529565b6101ec610566565b60035482116102315760405162461bcd60e51b815260206004820152600c60248201526b37baba1037b31037b93232b960a11b60448201526064015b60405180910390fd5b6040805180820182528281526003805460208084019182525f878152600282528590209351845590516001909301929092555491518381528492917f78ef32cc4f254354e318cb6d8fdbb53373634f90e3f1e2bd4c110edd87d0fea5910160405180910390a350600355565b6102a5610566565b6102ae5f610598565b565b60606003546040516020016102c791815260200190565b604051602081830303815290604052905090565b5f546001600160a01b031690565b6102f1610566565b8051610304906001906020840190610690565b506040517fe621d803a0c96b9bbeea51d136777f6ea8a4ce0c4ac74f6645e18b4342e2fa07905f90a150565b60606001805480602002602001604051908101604052809291908181526020015f905b828210156103fb578382905f5260205f2001805461037090610b32565b80601f016020809104026020016040519081016040528092919081815260200182805461039c90610b32565b80156103e75780601f106103be576101008083540402835291602001916103e7565b820191905f5260205f20905b8154815290600101906020018083116103ca57829003601f168201915b505050505081526020019060010190610353565b50505050905090565b60605f808580602001905181019061041c9190610b6a565b90505f805f868060200190518101906104359190610c53565b92509250925061044584846105e7565b6040805160a0810182525f80825285815260026020908152908390205490820152808201849052606081018390526001600160a01b037f000000000000000000000000000000000000000000000000000000000000000016608082015290516324a8807560e21b815273__$011ed85421b307e5206de383929e31be73$__916392a201d4916104d8918c91600401610cb1565b5f60405180830381865af41580156104f2573d5f803e3d5ffd5b505050506040513d5f823e601f3d908101601f191682016040526105199190810190610d82565b9550955050505050935093915050565b610531610566565b6001600160a01b03811661055a575f604051631e4fbdf760e01b81526004016102289190610766565b61056381610598565b50565b3361056f6102db565b6001600160a01b0316146102ae573360405163118cdaa760e01b81526004016102289190610766565b5f80546001600160a01b038381166001600160a01b0319831681178455604051919092169283917f8be0079c531659141344cd1fd0a4f28419497f9722a3daafe3b4186f6b6457e09190a35050565b816106127f000000000000000000000000000000000000000000000000000000000000000083610dd5565b101561066157604051632a54241d60e21b815260048101839052602481018290527f00000000000000000000000000000000000000000000000000000000000000006044820152606401610228565b8181111561068c5760405163b356ade760e01b81526004810183905260248101829052604401610228565b5050565b828054828255905f5260205f209081019282156106d4579160200282015b828111156106d457825182906106c49082610e46565b50916020019190600101906106ae565b506106e09291506106e4565b5090565b808211156106e0575f6106f78282610700565b506001016106e4565b50805461070c90610b32565b5f825580601f1061071b575050565b601f0160209004905f5260205f209081019061056391905b808211156106e0575f8155600101610733565b5f8060408385031215610757575f80fd5b50508035926020909101359150565b6001600160a01b0391909116815260200190565b5f81518084528060208401602086015e5f602082860101526020601f19601f83011685010191505092915050565b602081525f6107ba602083018461077a565b9392505050565b634e487b7160e01b5f52604160045260245ffd5b604051601f8201601f191681016001600160401b03811182821017156107fd576107fd6107c1565b604052919050565b5f6001600160401b0382111561081d5761081d6107c1565b5060051b60200190565b5f6001600160401b0382111561083f5761083f6107c1565b50601f01601f191660200190565b5f61085f61085a84610827565b6107d5565b9050828152838383011115610872575f80fd5b828260208301375f602084830101529392505050565b5f6020808385031215610899575f80fd5b82356001600160401b03808211156108af575f80fd5b818501915085601f8301126108c2575f80fd5b81356108d061085a82610805565b81815260059190911b830184019084810190888311156108ee575f80fd5b8585015b8381101561093757803585811115610908575f80fd5b8601603f81018b13610918575f80fd5b6109298b898301356040840161084d565b8452509186019186016108f2565b5098975050505050505050565b5f60208083016020845280855180835260408601915060408160051b8701019250602087015f5b8281101561099957603f1988860301845261098785835161077a565b9450928501929085019060010161096b565b5092979650505050505050565b5f602082840312156109b6575f80fd5b5035919050565b5f82601f8301126109cc575f80fd5b6107ba8383356020850161084d565b5f805f606084860312156109ed575f80fd5b83356001600160401b0380821115610a03575f80fd5b610a0f878388016109bd565b94506020860135915080821115610a24575f80fd5b9085019060208288031215610a37575f80fd5b604051602081018181108382111715610a5257610a526107c1565b604052823582811115610a63575f80fd5b610a6f898286016109bd565b82525093506040860135915080821115610a87575f80fd5b50610a94868287016109bd565b9150509250925092565b5f604082016040835280855180835260608501915060608160051b860101925060208088015f5b83811015610af357605f19888703018552610ae186835161077a565b95509382019390820190600101610ac5565b50505050508091505060ff831660208301529392505050565b5f60208284031215610b1c575f80fd5b81356001600160a01b03811681146107ba575f80fd5b600181811c90821680610b4657607f821691505b602082108103610b6457634e487b7160e01b5f52602260045260245ffd5b50919050565b5f60208284031215610b7a575f80fd5b5051919050565b5f82601f830112610b90575f80fd5b8151610b9e61085a82610827565b818152846020838601011115610bb2575f80fd5b8160208501602083015e5f918101602001919091529392505050565b5f82601f830112610bdd575f80fd5b81516020610bed61085a83610805565b82815260059290921b84018101918181019086841115610c0b575f80fd5b8286015b84811015610c485780516001600160401b03811115610c2c575f80fd5b610c3a8986838b0101610b81565b845250918301918301610c0f565b509695505050505050565b5f805f60608486031215610c65575f80fd5b835160208501519093506001600160401b0380821115610c83575f80fd5b610c8f87838801610bce565b93506040860151915080821115610ca4575f80fd5b50610a9486828701610b81565b604081525f83516020806040850152610ccd606085018361077a565b91508382038185015260a08201855183528186015182840152604086015160a0604085015281815180845260c08601915060c08160051b870101935084830192505f5b81811015610d3e5760bf19878603018352610d2c85855161077a565b94509285019291850191600101610d10565b50505050606086015191508281036060840152610d5b818361077a565b9150506080850151610d7860808401826001600160a01b03169052565b5095945050505050565b5f8060408385031215610d93575f80fd5b82516001600160401b03811115610da8575f80fd5b610db485828601610bce565b925050602083015160ff81168114610dca575f80fd5b809150509250929050565b80820180821115610df457634e487b7160e01b5f52601160045260245ffd5b92915050565b601f821115610e4157805f5260205f20601f840160051c81016020851015610e1f5750805b601f840160051c820191505b81811015610e3e575f8155600101610e2b565b50505b505050565b81516001600160401b03811115610e5f57610e5f6107c1565b610e7381610e6d8454610b32565b84610dfa565b602080601f831160018114610ea6575f8415610e8f5750858301515b5f19600386901b1c1916600185901b178555610efd565b5f85815260208120601f198616915b82811015610ed457888601518255948401946001909101908401610eb5565b5085821015610ef157878501515f19600388901b60f8161c191681555b505060018460011b0185555b50505050505056fea264697066735822122029cc0eb5052c1272d56bd7739d398436c0f580c7761eb20ed508126d24cc0e9064736f6c63430008190033","linkReferences":{"contracts/GatewayVM.sol":{"GatewayVM":[{"start":2377,"length":20}]}}},"methodIdentifiers":{"commits(uint256)":"c7c4a615","gatewayURLs()":"b50f2fbc","getHooks()":"5cd2525e","getLatestContext()":"87c484fe","getStorageValues(bytes,(bytes),bytes)":"e3d1666e","getWindow()":"1d80051d","latestIndex()":"578f2aa0","owner()":"8da5cb5b","renounceOwnership()":"715018a6","setGatewayURLs(string[])":"8e5ea8df","setStateRoot(uint256,bytes32)":"2bdd1f16","transferOwnership(address)":"f2fde38b"},"id":8}