{"abi":[{"type":"constructor","inputs":[{"name":"urls","type":"string[]","internalType":"string[]"},{"name":"window","type":"uint256","internalType":"uint256"},{"name":"hooks","type":"address","internalType":"contract IVerifierHooks"}],"stateMutability":"nonpayable"},{"type":"function","name":"commits","inputs":[{"name":"","type":"uint256","internalType":"uint256"}],"outputs":[{"name":"stateRoot","type":"bytes32","internalType":"bytes32"},{"name":"prevIndex","type":"uint256","internalType":"uint256"}],"stateMutability":"view"},{"type":"function","name":"gatewayURLs","inputs":[],"outputs":[{"name":"","type":"string[]","internalType":"string[]"}],"stateMutability":"view"},{"type":"function","name":"getHooks","inputs":[],"outputs":[{"name":"","type":"address","internalType":"contract IVerifierHooks"}],"stateMutability":"view"},{"type":"function","name":"getLatestContext","inputs":[],"outputs":[{"name":"","type":"bytes","internalType":"bytes"}],"stateMutability":"view"},{"type":"function","name":"getStorageValues","inputs":[{"name":"context","type":"bytes","internalType":"bytes"},{"name":"req","type":"tuple","internalType":"struct GatewayRequest","components":[{"name":"ops","type":"bytes","internalType":"bytes"}]},{"name":"proof","type":"bytes","internalType":"bytes"}],"outputs":[{"name":"values","type":"bytes[]","internalType":"bytes[]"},{"name":"exitCode","type":"uint8","internalType":"uint8"}],"stateMutability":"view"},{"type":"function","name":"getWindow","inputs":[],"outputs":[{"name":"","type":"uint256","internalType":"uint256"}],"stateMutability":"view"},{"type":"function","name":"latestIndex","inputs":[],"outputs":[{"name":"","type":"uint256","internalType":"uint256"}],"stateMutability":"view"},{"type":"function","name":"owner","inputs":[],"outputs":[{"name":"","type":"address","internalType":"address"}],"stateMutability":"view"},{"type":"function","name":"renounceOwnership","inputs":[],"outputs":[],"stateMutability":"nonpayable"},{"type":"function","name":"setGatewayURLs","inputs":[{"name":"urls","type":"string[]","internalType":"string[]"}],"outputs":[],"stateMutability":"nonpayable"},{"type":"function","name":"setStateRoot","inputs":[{"name":"index","type":"uint256","internalType":"uint256"},{"name":"stateRoot","type":"bytes32","internalType":"bytes32"}],"outputs":[],"stateMutability":"nonpayable"},{"type":"function","name":"supportsInterface","inputs":[{"name":"interfaceId","type":"bytes4","internalType":"bytes4"}],"outputs":[{"name":"","type":"bool","internalType":"bool"}],"stateMutability":"view"},{"type":"function","name":"transferOwnership","inputs":[{"name":"newOwner","type":"address","internalType":"address"}],"outputs":[],"stateMutability":"nonpayable"},{"type":"event","name":"GatewayURLsChanged","inputs":[],"anonymous":false},{"type":"event","name":"NewStateRoot","inputs":[{"name":"prevIndex","type":"uint256","indexed":true,"internalType":"uint256"},{"name":"index","type":"uint256","indexed":true,"internalType":"uint256"},{"name":"stateRoot","type":"bytes32","indexed":false,"internalType":"bytes32"}],"anonymous":false},{"type":"event","name":"OwnershipTransferred","inputs":[{"name":"previousOwner","type":"address","indexed":true,"internalType":"address"},{"name":"newOwner","type":"address","indexed":true,"internalType":"address"}],"anonymous":false},{"type":"error","name":"CommitTooNew","inputs":[{"name":"latest","type":"uint256","internalType":"uint256"},{"name":"got","type":"uint256","internalType":"uint256"}]},{"type":"error","name":"CommitTooOld","inputs":[{"name":"latest","type":"uint256","internalType":"uint256"},{"name":"got","type":"uint256","internalType":"uint256"},{"name":"window","type":"uint256","internalType":"uint256"}]},{"type":"error","name":"OwnableInvalidOwner","inputs":[{"name":"owner","type":"address","internalType":"address"}]},{"type":"error","name":"OwnableUnauthorizedAccount","inputs":[{"name":"account","type":"address","internalType":"address"}]}],"bytecode":{"object":"0x60c060405234801561000f575f80fd5b5060405161147538038061147583398101604081905261002e916101fc565b828282338061005657604051631e4fbdf760e01b81525f600482015260240160405180910390fd5b61005f81610090565b5082516100739060019060208601906100df565b506080919091526001600160a01b031660a0525061046592505050565b5f80546001600160a01b038381166001600160a01b0319831681178455604051919092169283917f8be0079c531659141344cd1fd0a4f28419497f9722a3daafe3b4186f6b6457e09190a35050565b828054828255905f5260205f20908101928215610123579160200282015b82811115610123578251829061011390826103a6565b50916020019190600101906100fd565b5061012f929150610133565b5090565b8082111561012f575f610146828261014f565b50600101610133565b50805461015b90610322565b5f825580601f1061016a575050565b601f0160209004905f5260205f20908101906101869190610189565b50565b5b8082111561012f575f815560010161018a565b634e487b7160e01b5f52604160045260245ffd5b604051601f8201601f191681016001600160401b03811182821017156101d9576101d961019d565b604052919050565b80516001600160a01b03811681146101f7575f80fd5b919050565b5f805f6060848603121561020e575f80fd5b83516001600160401b0380821115610224575f80fd5b818601915086601f830112610237575f80fd5b815160208282111561024b5761024b61019d565b8160051b61025a8282016101b1565b928352848101820192828101908b851115610273575f80fd5b83870192505b848310156102fd5782518681111561028f575f80fd5b8701603f81018d1361029f575f80fd5b848101516040888211156102b5576102b561019d565b6102c7601f8301601f191688016101b1565b8281528f828486010111156102da575f80fd5b828285018983015e5f928101880192909252508352509183019190830190610279565b80995050505080880151955050505050610319604085016101e1565b90509250925092565b600181811c9082168061033657607f821691505b60208210810361035457634e487b7160e01b5f52602260045260245ffd5b50919050565b601f8211156103a157805f5260205f20601f840160051c8101602085101561037f5750805b601f840160051c820191505b8181101561039e575f815560010161038b565b50505b505050565b81516001600160401b038111156103bf576103bf61019d565b6103d3816103cd8454610322565b8461035a565b602080601f831160018114610406575f84156103ef5750858301515b5f19600386901b1c1916600185901b17855561045d565b5f85815260208120601f198616915b8281101561043457888601518255948401946001909101908401610415565b508582101561045157878501515f19600388901b60f8161c191681555b505060018460011b0185555b505050505050565b60805160a051610fdb61049a5f395f818161012901526104fc01525f818160db0152818161066c01526106b40152610fdb5ff3fe608060405234801561000f575f80fd5b50600436106100ad575f3560e01c806301ffc9a7146100b15780631d80051d146100d95780632bdd1f1614610109578063578f2aa01461011e5780635cd2525e14610127578063715018a61461015657806387c484fe1461015e5780638da5cb5b146101735780638e5ea8df1461017b578063b50f2fbc1461018e578063c7c4a615146101a3578063e3d1666e146101de578063f2fde38b146101ff575b5f80fd5b6100c46100bf3660046107c5565b610212565b60405190151581526020015b60405180910390f35b7f00000000000000000000000000000000000000000000000000000000000000005b6040519081526020016100d0565b61011c6101173660046107f3565b610263565b005b6100fb60035481565b7f00000000000000000000000000000000000000000000000000000000000000005b6040516100d09190610813565b61011c61031c565b61016661032f565b6040516100d09190610855565b61014961035a565b61011c61018936600461092e565b610368565b6101966103af565b6040516100d091906109ea565b6101c96101b1366004610a4c565b60026020525f90815260409020805460019091015482565b604080519283526020830191909152016100d0565b6101f16101ec366004610a81565b610483565b6040516100d0929190610b44565b61011c61020d366004610bb2565b6105a8565b5f6001600160e01b03198216633446b34b60e21b148061024257506001600160e01b03198216634152574360e01b145b8061025d57506301ffc9a760e01b6001600160e01b03198316145b92915050565b61026b6105e5565b60035482116102b05760405162461bcd60e51b815260206004820152600c60248201526b37baba1037b31037b93232b960a11b60448201526064015b60405180910390fd5b6040805180820182528281526003805460208084019182525f878152600282528590209351845590516001909301929092555491518381528492917f78ef32cc4f254354e318cb6d8fdbb53373634f90e3f1e2bd4c110edd87d0fea5910160405180910390a350600355565b6103246105e5565b61032d5f610617565b565b606060035460405160200161034691815260200190565b604051602081830303815290604052905090565b5f546001600160a01b031690565b6103706105e5565b805161038390600190602084019061070f565b506040517fe621d803a0c96b9bbeea51d136777f6ea8a4ce0c4ac74f6645e18b4342e2fa07905f90a150565b60606001805480602002602001604051908101604052809291908181526020015f905b8282101561047a578382905f5260205f200180546103ef90610bd8565b80601f016020809104026020016040519081016040528092919081815260200182805461041b90610bd8565b80156104665780601f1061043d57610100808354040283529160200191610466565b820191905f5260205f20905b81548152906001019060200180831161044957829003601f168201915b5050505050815260200190600101906103d2565b50505050905090565b60605f808580602001905181019061049b9190610c10565b90505f805f868060200190518101906104b49190610cf9565b9250925092506104c48484610666565b6040805160a0810182525f80825285815260026020908152908390205490820152808201849052606081018390526001600160a01b037f000000000000000000000000000000000000000000000000000000000000000016608082015290516324a8807560e21b815273__$011ed85421b307e5206de383929e31be73$__916392a201d491610557918c91600401610d57565b5f60405180830381865af4158015610571573d5f803e3d5ffd5b505050506040513d5f823e601f3d908101601f191682016040526105989190810190610e28565b9550955050505050935093915050565b6105b06105e5565b6001600160a01b0381166105d9575f604051631e4fbdf760e01b81526004016102a79190610813565b6105e281610617565b50565b336105ee61035a565b6001600160a01b03161461032d573360405163118cdaa760e01b81526004016102a79190610813565b5f80546001600160a01b038381166001600160a01b0319831681178455604051919092169283917f8be0079c531659141344cd1fd0a4f28419497f9722a3daafe3b4186f6b6457e09190a35050565b816106917f000000000000000000000000000000000000000000000000000000000000000083610e7b565b10156106e057604051632a54241d60e21b815260048101839052602481018290527f000000000000000000000000000000000000000000000000000000000000000060448201526064016102a7565b8181111561070b5760405163b356ade760e01b815260048101839052602481018290526044016102a7565b5050565b828054828255905f5260205f20908101928215610753579160200282015b8281111561075357825182906107439082610ee6565b509160200191906001019061072d565b5061075f929150610763565b5090565b8082111561075f575f610776828261077f565b50600101610763565b50805461078b90610bd8565b5f825580601f1061079a575050565b601f0160209004905f5260205f20908101906105e291905b8082111561075f575f81556001016107b2565b5f602082840312156107d5575f80fd5b81356001600160e01b0319811681146107ec575f80fd5b9392505050565b5f8060408385031215610804575f80fd5b50508035926020909101359150565b6001600160a01b0391909116815260200190565b5f81518084528060208401602086015e5f602082860101526020601f19601f83011685010191505092915050565b602081525f6107ec6020830184610827565b634e487b7160e01b5f52604160045260245ffd5b604051601f8201601f191681016001600160401b03811182821017156108a3576108a3610867565b604052919050565b5f6001600160401b038211156108c3576108c3610867565b5060051b60200190565b5f6001600160401b038211156108e5576108e5610867565b50601f01601f191660200190565b5f610905610900846108cd565b61087b565b9050828152838383011115610918575f80fd5b828260208301375f602084830101529392505050565b5f602080838503121561093f575f80fd5b82356001600160401b0380821115610955575f80fd5b818501915085601f830112610968575f80fd5b8135610976610900826108ab565b81815260059190911b83018401908481019088831115610994575f80fd5b8585015b838110156109dd578035858111156109ae575f80fd5b8601603f81018b136109be575f80fd5b6109cf8b89830135604084016108f3565b845250918601918601610998565b5098975050505050505050565b5f60208083016020845280855180835260408601915060408160051b8701019250602087015f5b82811015610a3f57603f19888603018452610a2d858351610827565b94509285019290850190600101610a11565b5092979650505050505050565b5f60208284031215610a5c575f80fd5b5035919050565b5f82601f830112610a72575f80fd5b6107ec838335602085016108f3565b5f805f60608486031215610a93575f80fd5b83356001600160401b0380821115610aa9575f80fd5b610ab587838801610a63565b94506020860135915080821115610aca575f80fd5b9085019060208288031215610add575f80fd5b604051602081018181108382111715610af857610af8610867565b604052823582811115610b09575f80fd5b610b1589828601610a63565b82525093506040860135915080821115610b2d575f80fd5b50610b3a86828701610a63565b9150509250925092565b5f604082016040835280855180835260608501915060608160051b860101925060208088015f5b83811015610b9957605f19888703018552610b87868351610827565b95509382019390820190600101610b6b565b50505050508091505060ff831660208301529392505050565b5f60208284031215610bc2575f80fd5b81356001600160a01b03811681146107ec575f80fd5b600181811c90821680610bec57607f821691505b602082108103610c0a57634e487b7160e01b5f52602260045260245ffd5b50919050565b5f60208284031215610c20575f80fd5b5051919050565b5f82601f830112610c36575f80fd5b8151610c44610900826108cd565b818152846020838601011115610c58575f80fd5b8160208501602083015e5f918101602001919091529392505050565b5f82601f830112610c83575f80fd5b81516020610c93610900836108ab565b82815260059290921b84018101918181019086841115610cb1575f80fd5b8286015b84811015610cee5780516001600160401b03811115610cd2575f80fd5b610ce08986838b0101610c27565b845250918301918301610cb5565b509695505050505050565b5f805f60608486031215610d0b575f80fd5b835160208501519093506001600160401b0380821115610d29575f80fd5b610d3587838801610c74565b93506040860151915080821115610d4a575f80fd5b50610b3a86828701610c27565b604081525f83516020806040850152610d736060850183610827565b91508382038185015260a08201855183528186015182840152604086015160a0604085015281815180845260c08601915060c08160051b870101935084830192505f5b81811015610de45760bf19878603018352610dd2858551610827565b94509285019291850191600101610db6565b50505050606086015191508281036060840152610e018183610827565b9150506080850151610e1e60808401826001600160a01b03169052565b5095945050505050565b5f8060408385031215610e39575f80fd5b82516001600160401b03811115610e4e575f80fd5b610e5a85828601610c74565b925050602083015160ff81168114610e70575f80fd5b809150509250929050565b8082018082111561025d57634e487b7160e01b5f52601160045260245ffd5b601f821115610ee157805f5260205f20601f840160051c81016020851015610ebf5750805b601f840160051c820191505b81811015610ede575f8155600101610ecb565b50505b505050565b81516001600160401b03811115610eff57610eff610867565b610f1381610f0d8454610bd8565b84610e9a565b602080601f831160018114610f46575f8415610f2f5750858301515b5f19600386901b1c1916600185901b178555610f9d565b5f85815260208120601f198616915b82811015610f7457888601518255948401946001909101908401610f55565b5085821015610f9157878501515f19600388901b60f8161c191681555b505060018460011b0185555b50505050505056fea2646970667358221220387332c947439a2eab689b33128a95883cf848f3f391e17a5abb974c9843b49a64736f6c63430008190033","linkReferences":{"contracts/GatewayVM.sol":{"GatewayVM":[{"start":2505,"length":20}]}}},"methodIdentifiers":{"commits(uint256)":"c7c4a615","gatewayURLs()":"b50f2fbc","getHooks()":"5cd2525e","getLatestContext()":"87c484fe","getStorageValues(bytes,(bytes),bytes)":"e3d1666e","getWindow()":"1d80051d","latestIndex()":"578f2aa0","owner()":"8da5cb5b","renounceOwnership()":"715018a6","setGatewayURLs(string[])":"8e5ea8df","setStateRoot(uint256,bytes32)":"2bdd1f16","supportsInterface(bytes4)":"01ffc9a7","transferOwnership(address)":"f2fde38b"},"id":10}