{"abi":[{"type":"function","name":"getAccount","inputs":[{"name":"_encodedAccountValue","type":"bytes","internalType":"bytes"}],"outputs":[{"name":"","type":"tuple","internalType":"struct SparseMerkleProof.Account","components":[{"name":"nonce","type":"uint64","internalType":"uint64"},{"name":"balance","type":"uint256","internalType":"uint256"},{"name":"storageRoot","type":"bytes32","internalType":"bytes32"},{"name":"mimcCodeHash","type":"bytes32","internalType":"bytes32"},{"name":"keccakCodeHash","type":"bytes32","internalType":"bytes32"},{"name":"codeSize","type":"uint64","internalType":"uint64"}]}],"stateMutability":"pure"},{"type":"function","name":"getLeaf","inputs":[{"name":"_encodedLeaf","type":"bytes","internalType":"bytes"}],"outputs":[{"name":"","type":"tuple","internalType":"struct SparseMerkleProof.Leaf","components":[{"name":"prev","type":"uint256","internalType":"uint256"},{"name":"next","type":"uint256","internalType":"uint256"},{"name":"hKey","type":"bytes32","internalType":"bytes32"},{"name":"hValue","type":"bytes32","internalType":"bytes32"}]}],"stateMutability":"pure"},{"type":"function","name":"hashAccountValue","inputs":[{"name":"_value","type":"bytes","internalType":"bytes"}],"outputs":[{"name":"","type":"bytes32","internalType":"bytes32"}],"stateMutability":"pure"},{"type":"function","name":"hashStorageValue","inputs":[{"name":"_value","type":"bytes32","internalType":"bytes32"}],"outputs":[{"name":"","type":"bytes32","internalType":"bytes32"}],"stateMutability":"pure"},{"type":"function","name":"mimcHash","inputs":[{"name":"_input","type":"bytes","internalType":"bytes"}],"outputs":[{"name":"","type":"bytes32","internalType":"bytes32"}],"stateMutability":"pure"},{"type":"function","name":"verifyProof","inputs":[{"name":"_rawProof","type":"bytes[]","internalType":"bytes[]"},{"name":"_leafIndex","type":"uint256","internalType":"uint256"},{"name":"_root","type":"bytes32","internalType":"bytes32"}],"outputs":[{"name":"","type":"bool","internalType":"bool"}],"stateMutability":"pure"},{"type":"error","name":"LengthNotMod32","inputs":[]},{"type":"error","name":"MaxTreeLeafIndexExceed","inputs":[]},{"type":"error","name":"WrongBytesLength","inputs":[{"name":"expectedLength","type":"uint256","internalType":"uint256"},{"name":"bytesLength","type":"uint256","internalType":"uint256"}]},{"type":"error","name":"WrongProofLength","inputs":[{"name":"expectedLength","type":"uint256","internalType":"uint256"},{"name":"actualLength","type":"uint256","internalType":"uint256"}]}],"bytecode":{"object":"0x61104c610034600b8282823980515f1a607314602857634e487b7160e01b5f525f60045260245ffd5b305f52607381538281f3fe730000000000000000000000000000000000000000301460806040526004361061006b575f3560e01c80635ea5a98f1461006f57806360f0f00f146100be5780638c628e4014610124578063b893e57914610145578063cc5c21ea14610158578063ceeef5041461017b575b5f80fd5b61008261007d366004610b96565b61018e565b6040516100b591908151815260208083015190820152604080830151908201526060918201519181019190915260800190565b60405180910390f35b6100d16100cc366004610b96565b6101a9565b6040516100b5919081516001600160401b0390811682526020808401519083015260408381015190830152606080840151908301526080808401519083015260a092830151169181019190915260c00190565b610137610132366004610b96565b6101bb565b6040519081526020016100b5565b610137610153366004610b96565b6102c8565b61016b610166366004610c01565b610342565b60405190151581526020016100b5565b610137610189366004610c7b565b61039e565b610196610b3c565b6101a0838361044d565b90505b92915050565b6101b1610b62565b6101a08383610487565b5f806101c78484610487565b90505f806101d883608001516104c1565b84516020808701516040808901516060808b015160a0808d015185516001600160401b03998a16988101989098529487019590955290850191909152608084015290820184905260c082018590529190911660e0820152919350915073__$4b0c057427fdd4f3ae1a196a391458ad60$__9063aa1e84de90610100016040516020818303038152906040526040518263ffffffff1660e01b815260040161027f9190610c92565b602060405180830381865af415801561029a573d5f803e3d5ffd5b505050506040513d601f19601f820116820180604052508101906102be9190610cc7565b9695505050505050565b60405163550f426f60e11b81525f9073__$4b0c057427fdd4f3ae1a196a391458ad60$__9063aa1e84de906103039086908690600401610cde565b602060405180830381865af415801561031e573d5f803e3d5ffd5b505050506040513d601f19601f820116820180604052508101906101a09190610cc7565b5f602a841461037257604051637169558560e11b815261036990602a908690600401610d0c565b60405180910390fd5b5f805f61037f88886104d5565b9250925092506103928183888887610874565b98975050505050505050565b5f805f6103aa846104c1565b9150915073__$4b0c057427fdd4f3ae1a196a391458ad60$__63aa1e84de82846040516020016103db929190610d0c565b6040516020818303038152906040526040518263ffffffff1660e01b81526004016104069190610c92565b602060405180830381865af4158015610421573d5f803e3d5ffd5b505050506040513d601f19601f820116820180604052508101906104459190610cc7565b949350505050565b610455610b3c565b6080821461047b57604051637b45159f60e01b8152610369906080908490600401610d0c565b6101a082840184610d2e565b61048f610b62565b60c082146104b557604051637b45159f60e01b81526103699060c0908490600401610d0c565b6101a082840184610db8565b608081901c916001600160801b0390911690565b5f80606083826104e6600283610e58565b90505f816001600160401b0381111561050157610501610d1a565b60405190808252806020026020018201604052801561052a578160200160208202803683370190505b50905087875f81811061053f5761053f610e6b565b90506020028101906105519190610e7f565b905060401461059b57604088885f81811061056e5761056e610e6b565b90506020028101906105809190610e7f565b604051637b45159f60e01b8152610369939250600401610d0c565b5f88885f8181106105ae576105ae610e6b565b90506020028101906105c09190610e7f565b6105ce916020915f91610ec8565b6105d791610eef565b90505f73__$4b0c057427fdd4f3ae1a196a391458ad60$__63aa1e84de8b8b61060160018a610e58565b81811061061057610610610e6b565b90506020028101906106229190610e7f565b6040518363ffffffff1660e01b815260040161063f929190610cde565b602060405180830381865af415801561065a573d5f803e3d5ffd5b505050506040513d601f19601f8201168201806040525081019061067e9190610cc7565b905060015b848110156107535773__$4b0c057427fdd4f3ae1a196a391458ad60$__63aa1e84de8c8c848181106106b7576106b7610e6b565b90506020028101906106c99190610e7f565b6040518363ffffffff1660e01b81526004016106e6929190610cde565b602060405180830381865af4158015610701573d5f803e3d5ffd5b505050506040513d601f19601f820116820180604052508101906107259190610cc7565b846107308388610e58565b8151811061074057610740610e6b565b6020908102919091010152600101610683565b506107808a8a8681811061076957610769610e6b565b905060200281019061077b9190610e7f565b610ae0565b156107ab575f801b835f8151811061079a5761079a610e6b565b602002602001018181525050610864565b73__$4b0c057427fdd4f3ae1a196a391458ad60$__63aa1e84de8b8b878181106107d7576107d7610e6b565b90506020028101906107e99190610e7f565b6040518363ffffffff1660e01b8152600401610806929190610cde565b602060405180830381865af4158015610821573d5f803e3d5ffd5b505050506040513d601f19601f820116820180604052508101906108459190610cc7565b835f8151811061085757610857610e6b565b6020026020010181815250505b9096509450925050509250925092565b5f8484600161088560286002610fec565b61088f9190610e58565b8611156108af57604051630382f09360e41b815260040160405180910390fd5b5f5b6028811015610a3a578082901c60011660010361097f5773__$4b0c057427fdd4f3ae1a196a391458ad60$__63aa1e84de8a83815181106108f4576108f4610e6b565b60200260200101518560405160200161090e929190610d0c565b6040516020818303038152906040526040518263ffffffff1660e01b81526004016109399190610c92565b602060405180830381865af4158015610954573d5f803e3d5ffd5b505050506040513d601f19601f820116820180604052508101906109789190610cc7565b9250610a32565b73__$4b0c057427fdd4f3ae1a196a391458ad60$__63aa1e84de848b84815181106109ac576109ac610e6b565b60200260200101516040516020016109c5929190610d0c565b6040516020818303038152906040526040518263ffffffff1660e01b81526004016109f09190610c92565b602060405180830381865af4158015610a0b573d5f803e3d5ffd5b505050506040513d601f19601f82011682018060405250810190610a2f9190610cc7565b92505b6001016108b1565b508473__$4b0c057427fdd4f3ae1a196a391458ad60$__63aa1e84de8685604051602001610a69929190610d0c565b6040516020818303038152906040526040518263ffffffff1660e01b8152600401610a949190610c92565b602060405180830381865af4158015610aaf573d5f803e3d5ffd5b505050506040513d601f19601f82011682018060405250810190610ad39190610cc7565b1498975050505050505050565b5f610aec602083610ff7565b15610b0a5760405163398658fd60e21b815260040160405180910390fd5b50600182805b838201811015610b345780358015610b2b575f935050610b34565b50602001610b10565b505092915050565b604080516080810182525f80825260208201819052918101829052606081019190915290565b6040805160c0810182525f80825260208201819052918101829052606081018290526080810182905260a081019190915290565b5f8060208385031215610ba7575f80fd5b82356001600160401b0380821115610bbd575f80fd5b818501915085601f830112610bd0575f80fd5b813581811115610bde575f80fd5b866020828501011115610bef575f80fd5b60209290920196919550909350505050565b5f805f8060608587031215610c14575f80fd5b84356001600160401b0380821115610c2a575f80fd5b818701915087601f830112610c3d575f80fd5b813581811115610c4b575f80fd5b8860208260051b8501011115610c5f575f80fd5b6020928301999098509187013596604001359550909350505050565b5f60208284031215610c8b575f80fd5b5035919050565b602081525f82518060208401528060208501604085015e5f604082850101526040601f19601f83011684010191505092915050565b5f60208284031215610cd7575f80fd5b5051919050565b60208152816020820152818360408301375f818301604090810191909152601f909201601f19160101919050565b918252602082015260400190565b634e487b7160e01b5f52604160045260245ffd5b5f60808284031215610d3e575f80fd5b604051608081016001600160401b0381118282101715610d6c57634e487b7160e01b5f52604160045260245ffd5b8060405250823581526020830135602082015260408301356040820152606083013560608201528091505092915050565b80356001600160401b0381168114610db3575f80fd5b919050565b5f60c08284031215610dc8575f80fd5b60405160c081016001600160401b0381118282101715610df657634e487b7160e01b5f52604160045260245ffd5b604052610e0283610d9d565b815260208301356020820152604083013560408201526060830135606082015260808301356080820152610e3860a08401610d9d565b60a08201529392505050565b634e487b7160e01b5f52601160045260245ffd5b818103818111156101a3576101a3610e44565b634e487b7160e01b5f52603260045260245ffd5b5f808335601e19843603018112610e94575f80fd5b8301803591506001600160401b03821115610ead575f80fd5b602001915036819003821315610ec1575f80fd5b9250929050565b5f8085851115610ed6575f80fd5b83861115610ee2575f80fd5b5050820193919092039150565b803560208310156101a3575f19602084900360031b1b1692915050565b600181815b80851115610f4657815f1904821115610f2c57610f2c610e44565b80851615610f3957918102915b93841c9390800290610f11565b509250929050565b5f82610f5c575060016101a3565b81610f6857505f6101a3565b8160018114610f7e5760028114610f8857610fa4565b60019150506101a3565b60ff841115610f9957610f99610e44565b50506001821b6101a3565b5060208310610133831016604e8410600b8410161715610fc7575081810a6101a3565b610fd18383610f0c565b805f1904821115610fe457610fe4610e44565b029392505050565b5f6101a08383610f4e565b5f8261101157634e487b7160e01b5f52601260045260245ffd5b50069056fea26469706673582212205f933b429c55eb710d9f5dacb1d644760cfc0afb94e26b15e0fb39a50ec320e464736f6c63430008190033","linkReferences":{"contracts/linea/Mimc.sol":{"Mimc":[{"start":618,"length":20},{"start":781,"length":20},{"start":996,"length":20},{"start":1552,"length":20},{"start":1729,"length":20},{"start":2017,"length":20},{"start":2302,"length":20},{"start":2485,"length":20},{"start":2674,"length":20}]}}},"methodIdentifiers":{"getAccount(bytes)":"60f0f00f","getLeaf(bytes)":"5ea5a98f","hashAccountValue(bytes)":"8c628e40","hashStorageValue(bytes32)":"ceeef504","mimcHash(bytes)":"b893e579","verifyProof(bytes[],uint256,bytes32)":"cc5c21ea"},"id":23}