{"abi":[{"type":"function","name":"readBytesAt","inputs":[{"name":"slot","type":"uint256","internalType":"uint256"}],"outputs":[{"name":"","type":"bytes","internalType":"bytes"}],"stateMutability":"pure"}],"bytecode":{"object":"0x6080604052348015600e575f80fd5b506101a68061001c5f395ff3fe608060405234801561000f575f80fd5b5060043610610029575f3560e01c806315fea0281461002d575b5f80fd5b61004061003b3660046100ec565b610056565b60405161004d9190610103565b60405180910390f35b60605f82905080805461006890610138565b80601f016020809104026020016040519081016040528092919081815260200182805461009490610138565b80156100df5780601f106100b6576101008083540402835291602001916100df565b820191905f5260205f20905b8154815290600101906020018083116100c257829003601f168201915b5050505050915050919050565b5f602082840312156100fc575f80fd5b5035919050565b602081525f82518060208401528060208501604085015e5f604082850101526040601f19601f83011684010191505092915050565b600181811c9082168061014c57607f821691505b60208210810361016a57634e487b7160e01b5f52602260045260245ffd5b5091905056fea2646970667358221220856b9bdf8923b861af86b58b3f94a3d0d28547386505effcafd321abd1159fad64736f6c63430008190033","linkReferences":{}},"methodIdentifiers":{"readBytesAt(uint256)":"15fea028"},"id":10}