{"abi":[{"type":"constructor","inputs":[{"name":"urls","type":"string[]","internalType":"string[]"}],"stateMutability":"nonpayable"},{"type":"function","name":"gatewayURLs","inputs":[],"outputs":[{"name":"","type":"string[]","internalType":"string[]"}],"stateMutability":"view"},{"type":"function","name":"getLatestContext","inputs":[],"outputs":[{"name":"","type":"bytes","internalType":"bytes"}],"stateMutability":"view"},{"type":"function","name":"getStorageValues","inputs":[{"name":"","type":"bytes","internalType":"bytes"},{"name":"req","type":"tuple","internalType":"struct GatewayRequest","components":[{"name":"ops","type":"bytes","internalType":"bytes"}]},{"name":"proof","type":"bytes","internalType":"bytes"}],"outputs":[{"name":"values","type":"bytes[]","internalType":"bytes[]"},{"name":"exitCode","type":"uint8","internalType":"uint8"}],"stateMutability":"view"},{"type":"function","name":"verifyAccountState","inputs":[{"name":"","type":"bytes32","internalType":"bytes32"},{"name":"","type":"address","internalType":"address"},{"name":"proof","type":"bytes","internalType":"bytes"}],"outputs":[{"name":"storageRoot","type":"bytes32","internalType":"bytes32"}],"stateMutability":"pure"},{"type":"function","name":"verifyStorageValue","inputs":[{"name":"","type":"bytes32","internalType":"bytes32"},{"name":"","type":"address","internalType":"address"},{"name":"","type":"uint256","internalType":"uint256"},{"name":"proof","type":"bytes","internalType":"bytes"}],"outputs":[{"name":"","type":"bytes32","internalType":"bytes32"}],"stateMutability":"pure"}],"bytecode":{"object":"0x608060405234801561000f575f80fd5b50604051610caf380380610caf83398101604081905261002e91610149565b8051610040905f906020840190610047565b5050610399565b828054828255905f5260205f2090810192821561008b579160200282015b8281111561008b578251829061007b90826102da565b5091602001919060010190610065565b5061009792915061009b565b5090565b80821115610097575f6100ae82826100b7565b5060010161009b565b5080546100c390610256565b5f825580601f106100d2575050565b601f0160209004905f5260205f20908101906100ee91906100f1565b50565b5b80821115610097575f81556001016100f2565b634e487b7160e01b5f52604160045260245ffd5b604051601f8201601f191681016001600160401b038111828210171561014157610141610105565b604052919050565b5f602080838503121561015a575f80fd5b82516001600160401b0380821115610170575f80fd5b8185019150601f86601f840112610185575f80fd5b82518281111561019757610197610105565b8060051b6101a6868201610119565b918252848101860191868101908a8411156101bf575f80fd5b87870192505b83831015610248578251868111156101db575f80fd5b8701603f81018c136101eb575f80fd5b8881015160408882111561020157610201610105565b610212828901601f19168c01610119565b8281528e82848601011115610225575f80fd5b828285018d83015e5f9281018c01929092525083525091870191908701906101c5565b9a9950505050505050505050565b600181811c9082168061026a57607f821691505b60208210810361028857634e487b7160e01b5f52602260045260245ffd5b50919050565b601f8211156102d557805f5260205f20601f840160051c810160208510156102b35750805b601f840160051c820191505b818110156102d2575f81556001016102bf565b50505b505050565b81516001600160401b038111156102f3576102f3610105565b610307816103018454610256565b8461028e565b602080601f83116001811461033a575f84156103235750858301515b5f19600386901b1c1916600185901b178555610391565b5f85815260208120601f198616915b8281101561036857888601518255948401946001909101908401610349565b508582101561038557878501515f19600388901b60f8161c191681555b505060018460011b0185555b505050505050565b610909806103a65f395ff3fe608060405234801561000f575f80fd5b5060043610610055575f3560e01c80631dcc17691461005957806387c484fe1461007f578063b50f2fbc146100b1578063dd0d907c146100c6578063e3d1666e146100d9575b5f80fd5b61006c610067366004610394565b6100fa565b6040519081526020015b60405180910390f35b6100a46040805143602082015260609101604051602081830303815290604052905090565b604051610076919061041e565b6100b961010d565b6040516100769190610437565b61006c6100d4366004610499565b6101e0565b6100ec6100e73660046104eb565b6101f2565b6040516100769291906105a4565b5f61010482610612565b95945050505050565b60605f805480602002602001604051908101604052809291908181526020015f905b828210156101d7578382905f5260205f2001805461014c90610638565b80601f016020809104026020016040519081016040528092919081815260200182805461017890610638565b80156101c35780601f1061019a576101008083540402835291602001916101c3565b820191905f5260205f20905b8154815290600101906020018083116101a657829003601f168201915b50505050508152602001906001019061012f565b50505050905090565b5f6101ea82610612565b949350505050565b60605f805f8480602001905181019061020b9190610750565b6040805160a0810182525f80825260208201528082018490526060810183905230608082015290516324a8807560e21b815292945090925073__$011ed85421b307e5206de383929e31be73$__916392a201d49161026e918a91906004016107af565b5f60405180830381865af4158015610288573d5f803e3d5ffd5b505050506040513d5f823e601f3d908101601f191682016040526102af9190810190610880565b935093505050935093915050565b80356001600160a01b03811681146102d3575f80fd5b919050565b634e487b7160e01b5f52604160045260245ffd5b604051601f8201601f191681016001600160401b0381118282101715610314576103146102d8565b604052919050565b5f6001600160401b03821115610334576103346102d8565b50601f01601f191660200190565b5f82601f830112610351575f80fd5b813561036461035f8261031c565b6102ec565b818152846020838601011115610378575f80fd5b816020850160208301375f918101602001919091529392505050565b5f805f80608085870312156103a7575f80fd5b843593506103b7602086016102bd565b92506040850135915060608501356001600160401b038111156103d8575f80fd5b6103e487828801610342565b91505092959194509250565b5f81518084528060208401602086015e5f602082860101526020601f19601f83011685010191505092915050565b602081525f61043060208301846103f0565b9392505050565b5f60208083016020845280855180835260408601915060408160051b8701019250602087015f5b8281101561048c57603f1988860301845261047a8583516103f0565b9450928501929085019060010161045e565b5092979650505050505050565b5f805f606084860312156104ab575f80fd5b833592506104bb602085016102bd565b915060408401356001600160401b038111156104d5575f80fd5b6104e186828701610342565b9150509250925092565b5f805f606084860312156104fd575f80fd5b83356001600160401b0380821115610513575f80fd5b61051f87838801610342565b94506020860135915080821115610534575f80fd5b9085019060208288031215610547575f80fd5b604051602081018181108382111715610562576105626102d8565b604052823582811115610573575f80fd5b61057f89828601610342565b82525093506040860135915080821115610597575f80fd5b506104e186828701610342565b5f604082016040835280855180835260608501915060608160051b860101925060208088015f5b838110156105f957605f198887030185526105e78683516103f0565b955093820193908201906001016105cb565b50505050508091505060ff831660208301529392505050565b80516020808301519190811015610632575f198160200360031b1b821691505b50919050565b600181811c9082168061064c57607f821691505b60208210810361063257634e487b7160e01b5f52602260045260245ffd5b5f82601f830112610679575f80fd5b815161068761035f8261031c565b81815284602083860101111561069b575f80fd5b8160208501602083015e5f918101602001919091529392505050565b5f82601f8301126106c6575f80fd5b815160206001600160401b03808311156106e2576106e26102d8565b8260051b6106f18382016102ec565b938452858101830193838101908886111561070a575f80fd5b84880192505b8583101561074457825184811115610726575f80fd5b6107348a87838c010161066a565b8352509184019190840190610710565b98975050505050505050565b5f8060408385031215610761575f80fd5b82516001600160401b0380821115610777575f80fd5b610783868387016106b7565b93506020850151915080821115610798575f80fd5b506107a58582860161066a565b9150509250929050565b604081525f835160208060408501526107cb60608501836103f0565b91508382038185015260a08201855183528186015182840152604086015160a0604085015281815180845260c08601915060c08160051b870101935084830192505f5b8181101561083c5760bf1987860301835261082a8585516103f0565b9450928501929185019160010161080e565b5050505060608601519150828103606084015261085981836103f0565b915050608085015161087660808401826001600160a01b03169052565b5095945050505050565b5f8060408385031215610891575f80fd5b82516001600160401b038111156108a6575f80fd5b6108b2858286016106b7565b925050602083015160ff811681146108c8575f80fd5b80915050925092905056fea2646970667358221220db227cd30b318f780d2db61483acd71ba976c13829a26098d629d3b2547797d264736f6c63430008190033","linkReferences":{"contracts/GatewayVM.sol":{"GatewayVM":[{"start":1515,"length":20}]}}},"methodIdentifiers":{"gatewayURLs()":"b50f2fbc","getLatestContext()":"87c484fe","getStorageValues(bytes,(bytes),bytes)":"e3d1666e","verifyAccountState(bytes32,address,bytes)":"dd0d907c","verifyStorageValue(bytes32,address,uint256,bytes)":"1dcc1769"},"id":11}