{"abi":[{"type":"constructor","inputs":[{"name":"urls","type":"string[]","internalType":"string[]"},{"name":"window","type":"uint256","internalType":"uint256"},{"name":"hooks","type":"address","internalType":"contract IVerifierHooks"},{"name":"params","type":"tuple","internalType":"struct OPFaultParams","components":[{"name":"portal","type":"address","internalType":"contract IOptimismPortal"},{"name":"gameFinder","type":"address","internalType":"contract IOPFaultGameFinder"},{"name":"gameTypeBitMask","type":"uint256","internalType":"uint256"},{"name":"minAgeSec","type":"uint256","internalType":"uint256"}]}],"stateMutability":"nonpayable"},{"type":"function","name":"gatewayURLs","inputs":[],"outputs":[{"name":"","type":"string[]","internalType":"string[]"}],"stateMutability":"view"},{"type":"function","name":"getHooks","inputs":[],"outputs":[{"name":"","type":"address","internalType":"contract IVerifierHooks"}],"stateMutability":"view"},{"type":"function","name":"getLatestContext","inputs":[],"outputs":[{"name":"","type":"bytes","internalType":"bytes"}],"stateMutability":"view"},{"type":"function","name":"getStorageValues","inputs":[{"name":"context","type":"bytes","internalType":"bytes"},{"name":"req","type":"tuple","internalType":"struct GatewayRequest","components":[{"name":"ops","type":"bytes","internalType":"bytes"}]},{"name":"proof","type":"bytes","internalType":"bytes"}],"outputs":[{"name":"","type":"bytes[]","internalType":"bytes[]"},{"name":"exitCode","type":"uint8","internalType":"uint8"}],"stateMutability":"view"},{"type":"function","name":"getWindow","inputs":[],"outputs":[{"name":"","type":"uint256","internalType":"uint256"}],"stateMutability":"view"},{"type":"function","name":"owner","inputs":[],"outputs":[{"name":"","type":"address","internalType":"address"}],"stateMutability":"view"},{"type":"function","name":"renounceOwnership","inputs":[],"outputs":[],"stateMutability":"nonpayable"},{"type":"function","name":"setGatewayURLs","inputs":[{"name":"urls","type":"string[]","internalType":"string[]"}],"outputs":[],"stateMutability":"nonpayable"},{"type":"function","name":"transferOwnership","inputs":[{"name":"newOwner","type":"address","internalType":"address"}],"outputs":[],"stateMutability":"nonpayable"},{"type":"event","name":"GatewayURLsChanged","inputs":[],"anonymous":false},{"type":"event","name":"OwnershipTransferred","inputs":[{"name":"previousOwner","type":"address","indexed":true,"internalType":"address"},{"name":"newOwner","type":"address","indexed":true,"internalType":"address"}],"anonymous":false},{"type":"error","name":"CommitTooNew","inputs":[{"name":"latest","type":"uint256","internalType":"uint256"},{"name":"got","type":"uint256","internalType":"uint256"}]},{"type":"error","name":"CommitTooOld","inputs":[{"name":"latest","type":"uint256","internalType":"uint256"},{"name":"got","type":"uint256","internalType":"uint256"},{"name":"window","type":"uint256","internalType":"uint256"}]},{"type":"error","name":"OwnableInvalidOwner","inputs":[{"name":"owner","type":"address","internalType":"address"}]},{"type":"error","name":"OwnableUnauthorizedAccount","inputs":[{"name":"account","type":"address","internalType":"address"}]}],"bytecode":{"object":"0x610140604052348015610010575f80fd5b50604051611a5e380380611a5e83398101604081905261002f916102a0565b838383338061005757604051631e4fbdf760e01b81525f600482015260240160405180910390fd5b610060816100b4565b508251610074906001906020860190610103565b506080919091526001600160a01b0390811660a0528251811660c05260208301511660e0525060408101516101005260600151610120525061051a915050565b5f80546001600160a01b038381166001600160a01b0319831681178455604051919092169283917f8be0079c531659141344cd1fd0a4f28419497f9722a3daafe3b4186f6b6457e09190a35050565b828054828255905f5260205f20908101928215610147579160200282015b828111156101475782518290610137908261045b565b5091602001919060010190610121565b50610153929150610157565b5090565b80821115610153575f61016a8282610173565b50600101610157565b50805461017f906103d7565b5f825580601f1061018e575050565b601f0160209004905f5260205f20908101906101aa91906101ad565b50565b5b80821115610153575f81556001016101ae565b634e487b7160e01b5f52604160045260245ffd5b604051601f8201601f191681016001600160401b03811182821017156101fd576101fd6101c1565b604052919050565b6001600160a01b03811681146101aa575f80fd5b805161022481610205565b919050565b5f60808284031215610239575f80fd5b604051608081016001600160401b038111828210171561025b5761025b6101c1565b8060405250809150825161026e81610205565b8152602083015161027e81610205565b8060208301525060408301516040820152606083015160608201525092915050565b5f805f8060e085870312156102b3575f80fd5b84516001600160401b03808211156102c9575f80fd5b818701915087601f8301126102dc575f80fd5b81516020828211156102f0576102f06101c1565b8160051b6102ff8282016101d5565b928352848101820192828101908c851115610318575f80fd5b83870192505b848310156103a157825186811115610334575f80fd5b8701603f81018e13610344575f80fd5b8481015187811115610358576103586101c1565b61036a601f8201601f191687016101d5565b8181528f604083850101111561037e575f80fd5b81604084018883015e5f918101870191909152835250918301919083019061031e565b809a50505050808901519650505050506103bd60408601610219565b91506103cc8660608701610229565b905092959194509250565b600181811c908216806103eb57607f821691505b60208210810361040957634e487b7160e01b5f52602260045260245ffd5b50919050565b601f82111561045657805f5260205f20601f840160051c810160208510156104345750805b601f840160051c820191505b81811015610453575f8155600101610440565b50505b505050565b81516001600160401b03811115610474576104746101c1565b6104888161048284546103d7565b8461040f565b602080601f8311600181146104bb575f84156104a45750858301515b5f19600386901b1c1916600185901b178555610512565b5f85815260208120601f198616915b828110156104e9578886015182559484019460019091019084016104ca565b508582101561050657878501515f19600388901b60f8161c191681555b505060018460011b0185555b505050505050565b60805160a05160c05160e05161010051610120516114c061059e5f395f81816101e60152818161045e01526108a101525f8181610208015261048001525f8181610197015261040f01525f81816101c40152818161043c015261054501525f818160ba015261073401525f8181608a0152818161099f01526109e701526114c05ff3fe608060405234801561000f575f80fd5b5060043610610081575f3560e01c80631d80051d146100855780635cd2525e146100b8578063715018a6146100e757806387c484fe146100f15780638da5cb5b146101065780638e5ea8df1461010e578063b50f2fbc14610121578063e3d1666e14610136578063f2fde38b14610157575b5f80fd5b6040517f000000000000000000000000000000000000000000000000000000000000000081526020015b60405180910390f35b7f00000000000000000000000000000000000000000000000000000000000000005b6040516100af9190610b52565b6100ef61016a565b005b6100f961017d565b6040516100af9190610b94565b6100da610297565b6100ef61011c366004610c9c565b6102a5565b6101296102ec565b6040516100af9190610d58565b610149610144366004610dd8565b6103c0565b6040516100af929190610e9b565b6100ef610165366004610f1d565b6107e0565b61017261081d565b61017b5f61084f565b565b6040516355cb530760e01b81526060906001600160a01b037f000000000000000000000000000000000000000000000000000000000000000016906355cb530790610232907f0000000000000000000000000000000000000000000000000000000000000000907f0000000000000000000000000000000000000000000000000000000000000000907f0000000000000000000000000000000000000000000000000000000000000000905f90600401610f38565b602060405180830381865afa15801561024d573d5f803e3d5ffd5b505050506040513d601f19601f820116820180604052508101906102719190610f5e565b60405160200161028391815260200190565b604051602081830303815290604052905090565b5f546001600160a01b031690565b6102ad61081d565b80516102c0906001906020840190610a9c565b506040517fe621d803a0c96b9bbeea51d136777f6ea8a4ce0c4ac74f6645e18b4342e2fa07905f90a150565b60606001805480602002602001604051908101604052809291908181526020015f905b828210156103b7578382905f5260205f2001805461032c90610f75565b80601f016020809104026020016040519081016040528092919081815260200182805461035890610f75565b80156103a35780601f1061037a576101008083540402835291602001916103a3565b820191905f5260205f20905b81548152906001019060200180831161038657829003601f168201915b50505050508152602001906001019061030f565b50505050905090565b60605f80858060200190518101906103d89190610f5e565b90505f848060200190518101906103ef919061107f565b80516040516327d6a43760e11b81529192505f9182916001600160a01b037f00000000000000000000000000000000000000000000000000000000000000001691634fad486e916104a9917f0000000000000000000000000000000000000000000000000000000000000000917f0000000000000000000000000000000000000000000000000000000000000000917f00000000000000000000000000000000000000000000000000000000000000009190600401610f38565b608060405180830381865afa1580156104c4573d5f803e3d5ffd5b505050506040513d601f19601f820116820180604052508101906104e8919061115d565b935093505050805f0361053a5760405162461bcd60e51b81526020600482015260156024820152744f504661756c743a20696e76616c69642067616d6560581b60448201526064015b60405180910390fd5b8251841461064f575f7f00000000000000000000000000000000000000000000000000000000000000006001600160a01b031663f2b4e6176040518163ffffffff1660e01b8152600401602060405180830381865afa15801561059f573d5f803e3d5ffd5b505050506040513d601f19601f820116820180604052508101906105c39190611199565b6001600160a01b031663bb8aa1fc866040518263ffffffff1660e01b81526004016105f091815260200190565b606060405180830381865afa15801561060b573d5f803e3d5ffd5b505050506040513d601f19601f8201168201806040525081019061062f91906111cf565b9250505061064d61063f8261089e565b6106488561089e565b610999565b505b61065c8360200151610a42565b826001600160a01b031663bcef3b556040518163ffffffff1660e01b8152600401602060405180830381865afa158015610698573d5f803e3d5ffd5b505050506040513d601f19601f820116820180604052508101906106bc9190610f5e565b146106fe5760405162461bcd60e51b81526020600482015260126024820152714f504661756c743a20726f6f74436c61696d60701b6044820152606401610531565b6040805160a0810182525f8152602085810151810151908201528482015181830152606080860151908201526001600160a01b037f000000000000000000000000000000000000000000000000000000000000000016608082015290516324a8807560e21b815273__$011ed85421b307e5206de383929e31be73$__916392a201d49161078f918c9160040161121d565b5f60405180830381865af41580156107a9573d5f803e3d5ffd5b505050506040513d5f823e601f3d908101601f191682016040526107d091908101906112ee565b9550955050505050935093915050565b6107e861081d565b6001600160a01b038116610811575f604051631e4fbdf760e01b81526004016105319190610b52565b61081a8161084f565b50565b33610826610297565b6001600160a01b03161461017b573360405163118cdaa760e01b81526004016105319190610b52565b5f80546001600160a01b038381166001600160a01b0319831681178455604051919092169283917f8be0079c531659141344cd1fd0a4f28419497f9722a3daafe3b4186f6b6457e09190a35050565b5f7f00000000000000000000000000000000000000000000000000000000000000001561092a57816001600160a01b031663cf09e0d06040518163ffffffff1660e01b8152600401602060405180830381865afa158015610901573d5f803e3d5ffd5b505050506040513d601f19601f820116820180604052508101906109259190611341565b61098a565b816001600160a01b03166319effeb46040518163ffffffff1660e01b8152600401602060405180830381865afa158015610966573d5f803e3d5ffd5b505050506040513d601f19601f8201168201806040525081019061098a9190611341565b6001600160401b031692915050565b816109c47f00000000000000000000000000000000000000000000000000000000000000008361135a565b1015610a1357604051632a54241d60e21b815260048101839052602481018290527f00000000000000000000000000000000000000000000000000000000000000006044820152606401610531565b81811115610a3e5760405163b356ade760e01b81526004810183905260248101829052604401610531565b5050565b5f815f0151826020015183604001518460600151604051602001610a7f949392919093845260208401929092526040830152606082015260800190565b604051602081830303815290604052805190602001209050919050565b828054828255905f5260205f20908101928215610ae0579160200282015b82811115610ae05782518290610ad090826113cb565b5091602001919060010190610aba565b50610aec929150610af0565b5090565b80821115610aec575f610b038282610b0c565b50600101610af0565b508054610b1890610f75565b5f825580601f10610b27575050565b601f0160209004905f5260205f209081019061081a91905b80821115610aec575f8155600101610b3f565b6001600160a01b0391909116815260200190565b5f81518084528060208401602086015e5f602082860101526020601f19601f83011685010191505092915050565b602081525f610ba66020830184610b66565b9392505050565b634e487b7160e01b5f52604160045260245ffd5b604051608081016001600160401b0381118282101715610be357610be3610bad565b60405290565b604051601f8201601f191681016001600160401b0381118282101715610c1157610c11610bad565b604052919050565b5f6001600160401b03821115610c3157610c31610bad565b5060051b60200190565b5f6001600160401b03821115610c5357610c53610bad565b50601f01601f191660200190565b5f610c73610c6e84610c3b565b610be9565b9050828152838383011115610c86575f80fd5b828260208301375f602084830101529392505050565b5f6020808385031215610cad575f80fd5b82356001600160401b0380821115610cc3575f80fd5b818501915085601f830112610cd6575f80fd5b8135610ce4610c6e82610c19565b81815260059190911b83018401908481019088831115610d02575f80fd5b8585015b83811015610d4b57803585811115610d1c575f80fd5b8601603f81018b13610d2c575f80fd5b610d3d8b8983013560408401610c61565b845250918601918601610d06565b5098975050505050505050565b5f60208083016020845280855180835260408601915060408160051b8701019250602087015f5b82811015610dad57603f19888603018452610d9b858351610b66565b94509285019290850190600101610d7f565b5092979650505050505050565b5f82601f830112610dc9575f80fd5b610ba683833560208501610c61565b5f805f60608486031215610dea575f80fd5b83356001600160401b0380821115610e00575f80fd5b610e0c87838801610dba565b94506020860135915080821115610e21575f80fd5b9085019060208288031215610e34575f80fd5b604051602081018181108382111715610e4f57610e4f610bad565b604052823582811115610e60575f80fd5b610e6c89828601610dba565b82525093506040860135915080821115610e84575f80fd5b50610e9186828701610dba565b9150509250925092565b5f604082016040835280855180835260608501915060608160051b860101925060208088015f5b83811015610ef057605f19888703018552610ede868351610b66565b95509382019390820190600101610ec2565b50505050508091505060ff831660208301529392505050565b6001600160a01b038116811461081a575f80fd5b5f60208284031215610f2d575f80fd5b8135610ba681610f09565b6001600160a01b0394909416845260208401929092526040830152606082015260800190565b5f60208284031215610f6e575f80fd5b5051919050565b600181811c90821680610f8957607f821691505b602082108103610fa757634e487b7160e01b5f52602260045260245ffd5b50919050565b5f82601f830112610fbc575f80fd5b8151610fca610c6e82610c3b565b818152846020838601011115610fde575f80fd5b8160208501602083015e5f918101602001919091529392505050565b5f82601f830112611009575f80fd5b81516020611019610c6e83610c19565b82815260059290921b84018101918181019086841115611037575f80fd5b8286015b848110156110745780516001600160401b03811115611058575f80fd5b6110668986838b0101610fad565b84525091830191830161103b565b509695505050505050565b5f6020828403121561108f575f80fd5b81516001600160401b03808211156110a5575f80fd5b9083019081850360e08112156110b9575f80fd5b6110c1610bc1565b835181526080601f19830112156110d6575f80fd5b6110de610bc1565b91506020840151825260408401516020830152606084015160408301526080840151606083015281602082015260a084015191508282111561111e575f80fd5b61112a87838601610ffa565b604082015260c0840151915082821115611142575f80fd5b61114e87838601610fad565b60608201529695505050505050565b5f805f8060808587031215611170575f80fd5b8451935060208501519250604085015161118981610f09565b6060959095015193969295505050565b5f602082840312156111a9575f80fd5b8151610ba681610f09565b80516001600160401b03811681146111ca575f80fd5b919050565b5f805f606084860312156111e1575f80fd5b835163ffffffff811681146111f4575f80fd5b9250611202602085016111b4565b9150604084015161121281610f09565b809150509250925092565b604081525f835160208060408501526112396060850183610b66565b91508382038185015260a08201855183528186015182840152604086015160a0604085015281815180845260c08601915060c08160051b870101935084830192505f5b818110156112aa5760bf19878603018352611298858551610b66565b9450928501929185019160010161127c565b505050506060860151915082810360608401526112c78183610b66565b91505060808501516112e460808401826001600160a01b03169052565b5095945050505050565b5f80604083850312156112ff575f80fd5b82516001600160401b03811115611314575f80fd5b61132085828601610ffa565b925050602083015160ff81168114611336575f80fd5b809150509250929050565b5f60208284031215611351575f80fd5b610ba6826111b4565b8082018082111561137957634e487b7160e01b5f52601160045260245ffd5b92915050565b601f8211156113c657805f5260205f20601f840160051c810160208510156113a45750805b601f840160051c820191505b818110156113c3575f81556001016113b0565b50505b505050565b81516001600160401b038111156113e4576113e4610bad565b6113f8816113f28454610f75565b8461137f565b602080601f83116001811461142b575f84156114145750858301515b5f19600386901b1c1916600185901b178555611482565b5f85815260208120601f198616915b828110156114595788860151825594840194600190910190840161143a565b508582101561147657878501515f19600388901b60f8161c191681555b505060018460011b0185555b50505050505056fea2646970667358221220fb38d833260677111ea26885f406a463f64d5c60837efd4bcb5c71936340a2fa64736f6c63430008190033","linkReferences":{"contracts/GatewayVM.sol":{"GatewayVM":[{"start":3333,"length":20}]}}},"methodIdentifiers":{"gatewayURLs()":"b50f2fbc","getHooks()":"5cd2525e","getLatestContext()":"87c484fe","getStorageValues(bytes,(bytes),bytes)":"e3d1666e","getWindow()":"1d80051d","owner()":"8da5cb5b","renounceOwnership()":"715018a6","setGatewayURLs(string[])":"8e5ea8df","transferOwnership(address)":"f2fde38b"},"id":26}