{"abi":[{"type":"constructor","inputs":[{"name":"urls","type":"string[]","internalType":"string[]"},{"name":"window","type":"uint256","internalType":"uint256"},{"name":"hooks","type":"address","internalType":"contract IVerifierHooks"},{"name":"rollup","type":"address","internalType":"contract ILineaRollup"}],"stateMutability":"nonpayable"},{"type":"function","name":"gatewayURLs","inputs":[],"outputs":[{"name":"","type":"string[]","internalType":"string[]"}],"stateMutability":"view"},{"type":"function","name":"getHooks","inputs":[],"outputs":[{"name":"","type":"address","internalType":"contract IVerifierHooks"}],"stateMutability":"view"},{"type":"function","name":"getLatestContext","inputs":[],"outputs":[{"name":"","type":"bytes","internalType":"bytes"}],"stateMutability":"view"},{"type":"function","name":"getStorageValues","inputs":[{"name":"context","type":"bytes","internalType":"bytes"},{"name":"req","type":"tuple","internalType":"struct GatewayRequest","components":[{"name":"ops","type":"bytes","internalType":"bytes"}]},{"name":"proof","type":"bytes","internalType":"bytes"}],"outputs":[{"name":"","type":"bytes[]","internalType":"bytes[]"},{"name":"exitCode","type":"uint8","internalType":"uint8"}],"stateMutability":"view"},{"type":"function","name":"getWindow","inputs":[],"outputs":[{"name":"","type":"uint256","internalType":"uint256"}],"stateMutability":"view"},{"type":"function","name":"owner","inputs":[],"outputs":[{"name":"","type":"address","internalType":"address"}],"stateMutability":"view"},{"type":"function","name":"renounceOwnership","inputs":[],"outputs":[],"stateMutability":"nonpayable"},{"type":"function","name":"setGatewayURLs","inputs":[{"name":"urls","type":"string[]","internalType":"string[]"}],"outputs":[],"stateMutability":"nonpayable"},{"type":"function","name":"supportsInterface","inputs":[{"name":"interfaceId","type":"bytes4","internalType":"bytes4"}],"outputs":[{"name":"","type":"bool","internalType":"bool"}],"stateMutability":"view"},{"type":"function","name":"transferOwnership","inputs":[{"name":"newOwner","type":"address","internalType":"address"}],"outputs":[],"stateMutability":"nonpayable"},{"type":"event","name":"GatewayURLsChanged","inputs":[],"anonymous":false},{"type":"event","name":"OwnershipTransferred","inputs":[{"name":"previousOwner","type":"address","indexed":true,"internalType":"address"},{"name":"newOwner","type":"address","indexed":true,"internalType":"address"}],"anonymous":false},{"type":"error","name":"CommitTooNew","inputs":[{"name":"latest","type":"uint256","internalType":"uint256"},{"name":"got","type":"uint256","internalType":"uint256"}]},{"type":"error","name":"CommitTooOld","inputs":[{"name":"latest","type":"uint256","internalType":"uint256"},{"name":"got","type":"uint256","internalType":"uint256"},{"name":"window","type":"uint256","internalType":"uint256"}]},{"type":"error","name":"OwnableInvalidOwner","inputs":[{"name":"owner","type":"address","internalType":"address"}]},{"type":"error","name":"OwnableUnauthorizedAccount","inputs":[{"name":"account","type":"address","internalType":"address"}]}],"bytecode":{"object":"0x60e060405234801561000f575f80fd5b506040516114cb3803806114cb83398101604081905261002e91610205565b838383338061005657604051631e4fbdf760e01b81525f600482015260240160405180910390fd5b61005f81610099565b5082516100739060019060208601906100e8565b506080919091526001600160a01b0390811660a0529190911660c0525061047e92505050565b5f80546001600160a01b038381166001600160a01b0319831681178455604051919092169283917f8be0079c531659141344cd1fd0a4f28419497f9722a3daafe3b4186f6b6457e09190a35050565b828054828255905f5260205f2090810192821561012c579160200282015b8281111561012c578251829061011c90826103bf565b5091602001919060010190610106565b5061013892915061013c565b5090565b80821115610138575f61014f8282610158565b5060010161013c565b5080546101649061033b565b5f825580601f10610173575050565b601f0160209004905f5260205f209081019061018f9190610192565b50565b5b80821115610138575f8155600101610193565b634e487b7160e01b5f52604160045260245ffd5b604051601f8201601f191681016001600160401b03811182821017156101e2576101e26101a6565b604052919050565b80516001600160a01b0381168114610200575f80fd5b919050565b5f805f8060808587031215610218575f80fd5b84516001600160401b038082111561022e575f80fd5b818701915087601f830112610241575f80fd5b8151602082821115610255576102556101a6565b8160051b6102648282016101ba565b928352848101820192828101908c85111561027d575f80fd5b83870192505b8483101561030657825186811115610299575f80fd5b8701603f81018e136102a9575f80fd5b84810151878111156102bd576102bd6101a6565b6102cf601f8201601f191687016101ba565b8181528f60408385010111156102e3575f80fd5b81604084018883015e5f9181018701919091528352509183019190830190610283565b809a5050505080890151965050505050610322604086016101ea565b9150610330606086016101ea565b905092959194509250565b600181811c9082168061034f57607f821691505b60208210810361036d57634e487b7160e01b5f52602260045260245ffd5b50919050565b601f8211156103ba57805f5260205f20601f840160051c810160208510156103985750805b601f840160051c820191505b818110156103b7575f81556001016103a4565b50505b505050565b81516001600160401b038111156103d8576103d86101a6565b6103ec816103e6845461033b565b84610373565b602080601f83116001811461041f575f84156104085750858301515b5f19600386901b1c1916600185901b178555610476565b5f85815260208120601f198616915b8281101561044d5788860151825594840194600190910190840161042e565b508582101561046a57878501515f19600388901b60f8161c191681555b505060018460011b0185555b505050505050565b60805160a05160c0516110096104c25f395f8181610200015261042601525f818160e8015261051601525f818160bd0152818161068501526106cd01526110095ff3fe608060405234801561000f575f80fd5b506004361061008c575f3560e01c806301ffc9a7146100905780631d80051d146100b85780635cd2525e146100e6578063715018a61461011557806387c484fe1461011f5780638da5cb5b146101345780638e5ea8df1461013c578063b50f2fbc1461014f578063e3d1666e14610164578063f2fde38b14610185575b5f80fd5b6100a361009e3660046107de565b610198565b60405190151581526020015b60405180910390f35b6040517f000000000000000000000000000000000000000000000000000000000000000081526020016100af565b7f00000000000000000000000000000000000000000000000000000000000000005b6040516100af919061080c565b61011d6101e9565b005b6101276101fc565b6040516100af919061084e565b6101086102a4565b61011d61014a366004610927565b6102b2565b6101576102f9565b6040516100af91906109e3565b610177610172366004610a63565b6103cd565b6040516100af929190610b26565b61011d610193366004610b94565b6105c1565b5f6001600160e01b03198216633446b34b60e21b14806101c857506001600160e01b03198216634152574360e01b145b806101e357506301ffc9a760e01b6001600160e01b03198316145b92915050565b6101f16105fe565b6101fa5f610630565b565b60607f00000000000000000000000000000000000000000000000000000000000000006001600160a01b031663695378f56040518163ffffffff1660e01b8152600401602060405180830381865afa15801561025a573d5f803e3d5ffd5b505050506040513d601f19601f8201168201806040525081019061027e9190610bba565b60405160200161029091815260200190565b604051602081830303815290604052905090565b5f546001600160a01b031690565b6102ba6105fe565b80516102cd906001906020840190610728565b506040517fe621d803a0c96b9bbeea51d136777f6ea8a4ce0c4ac74f6645e18b4342e2fa07905f90a150565b60606001805480602002602001604051908101604052809291908181526020015f905b828210156103c4578382905f5260205f2001805461033990610bd1565b80601f016020809104026020016040519081016040528092919081815260200182805461036590610bd1565b80156103b05780601f10610387576101008083540402835291602001916103b0565b820191905f5260205f20905b81548152906001019060200180831161039357829003601f168201915b50505050508152602001906001019061031c565b50505050905090565b60605f80858060200190518101906103e59190610bba565b90505f848060200190518101906103fc9190610cdb565b905061040b82825f015161067f565b8051604051638be745d160e01b81525f916001600160a01b037f00000000000000000000000000000000000000000000000000000000000000001691638be745d19161045d9160040190815260200190565b602060405180830381865afa158015610478573d5f803e3d5ffd5b505050506040513d601f19601f8201168201806040525081019061049c9190610bba565b9050806104e75760405162461bcd60e51b8152602060048201526014602482015273131a5b99584e881b9bdd08199a5b985b1a5e995960621b60448201526064015b60405180910390fd5b6040805160a0810182525f81526020808201849052840151818301528382015160608201526001600160a01b037f000000000000000000000000000000000000000000000000000000000000000016608082015290516324a8807560e21b815273__$011ed85421b307e5206de383929e31be73$__916392a201d491610571918b91600401610d85565b5f60405180830381865af415801561058b573d5f803e3d5ffd5b505050506040513d5f823e601f3d908101601f191682016040526105b29190810190610e56565b94509450505050935093915050565b6105c96105fe565b6001600160a01b0381166105f2575f604051631e4fbdf760e01b81526004016104de919061080c565b6105fb81610630565b50565b336106076102a4565b6001600160a01b0316146101fa573360405163118cdaa760e01b81526004016104de919061080c565b5f80546001600160a01b038381166001600160a01b0319831681178455604051919092169283917f8be0079c531659141344cd1fd0a4f28419497f9722a3daafe3b4186f6b6457e09190a35050565b816106aa7f000000000000000000000000000000000000000000000000000000000000000083610ea9565b10156106f957604051632a54241d60e21b815260048101839052602481018290527f000000000000000000000000000000000000000000000000000000000000000060448201526064016104de565b818111156107245760405163b356ade760e01b815260048101839052602481018290526044016104de565b5050565b828054828255905f5260205f2090810192821561076c579160200282015b8281111561076c578251829061075c9082610f14565b5091602001919060010190610746565b5061077892915061077c565b5090565b80821115610778575f61078f8282610798565b5060010161077c565b5080546107a490610bd1565b5f825580601f106107b3575050565b601f0160209004905f5260205f20908101906105fb91905b80821115610778575f81556001016107cb565b5f602082840312156107ee575f80fd5b81356001600160e01b031981168114610805575f80fd5b9392505050565b6001600160a01b0391909116815260200190565b5f81518084528060208401602086015e5f602082860101526020601f19601f83011685010191505092915050565b602081525f6108056020830184610820565b634e487b7160e01b5f52604160045260245ffd5b604051601f8201601f191681016001600160401b038111828210171561089c5761089c610860565b604052919050565b5f6001600160401b038211156108bc576108bc610860565b5060051b60200190565b5f6001600160401b038211156108de576108de610860565b50601f01601f191660200190565b5f6108fe6108f9846108c6565b610874565b9050828152838383011115610911575f80fd5b828260208301375f602084830101529392505050565b5f6020808385031215610938575f80fd5b82356001600160401b038082111561094e575f80fd5b818501915085601f830112610961575f80fd5b813561096f6108f9826108a4565b81815260059190911b8301840190848101908883111561098d575f80fd5b8585015b838110156109d6578035858111156109a7575f80fd5b8601603f81018b136109b7575f80fd5b6109c88b89830135604084016108ec565b845250918601918601610991565b5098975050505050505050565b5f60208083016020845280855180835260408601915060408160051b8701019250602087015f5b82811015610a3857603f19888603018452610a26858351610820565b94509285019290850190600101610a0a565b5092979650505050505050565b5f82601f830112610a54575f80fd5b610805838335602085016108ec565b5f805f60608486031215610a75575f80fd5b83356001600160401b0380821115610a8b575f80fd5b610a9787838801610a45565b94506020860135915080821115610aac575f80fd5b9085019060208288031215610abf575f80fd5b604051602081018181108382111715610ada57610ada610860565b604052823582811115610aeb575f80fd5b610af789828601610a45565b82525093506040860135915080821115610b0f575f80fd5b50610b1c86828701610a45565b9150509250925092565b5f604082016040835280855180835260608501915060608160051b860101925060208088015f5b83811015610b7b57605f19888703018552610b69868351610820565b95509382019390820190600101610b4d565b50505050508091505060ff831660208301529392505050565b5f60208284031215610ba4575f80fd5b81356001600160a01b0381168114610805575f80fd5b5f60208284031215610bca575f80fd5b5051919050565b600181811c90821680610be557607f821691505b602082108103610c0357634e487b7160e01b5f52602260045260245ffd5b50919050565b5f82601f830112610c18575f80fd5b8151610c266108f9826108c6565b818152846020838601011115610c3a575f80fd5b8160208501602083015e5f918101602001919091529392505050565b5f82601f830112610c65575f80fd5b81516020610c756108f9836108a4565b82815260059290921b84018101918181019086841115610c93575f80fd5b8286015b84811015610cd05780516001600160401b03811115610cb4575f80fd5b610cc28986838b0101610c09565b845250918301918301610c97565b509695505050505050565b5f60208284031215610ceb575f80fd5b81516001600160401b0380821115610d01575f80fd5b9083019060608286031215610d14575f80fd5b604051606081018181108382111715610d2f57610d2f610860565b60405282518152602083015182811115610d47575f80fd5b610d5387828601610c56565b602083015250604083015182811115610d6a575f80fd5b610d7687828601610c09565b60408301525095945050505050565b604081525f83516020806040850152610da16060850183610820565b91508382038185015260a08201855183528186015182840152604086015160a0604085015281815180845260c08601915060c08160051b870101935084830192505f5b81811015610e125760bf19878603018352610e00858551610820565b94509285019291850191600101610de4565b50505050606086015191508281036060840152610e2f8183610820565b9150506080850151610e4c60808401826001600160a01b03169052565b5095945050505050565b5f8060408385031215610e67575f80fd5b82516001600160401b03811115610e7c575f80fd5b610e8885828601610c56565b925050602083015160ff81168114610e9e575f80fd5b809150509250929050565b808201808211156101e357634e487b7160e01b5f52601160045260245ffd5b601f821115610f0f57805f5260205f20601f840160051c81016020851015610eed5750805b601f840160051c820191505b81811015610f0c575f8155600101610ef9565b50505b505050565b81516001600160401b03811115610f2d57610f2d610860565b610f4181610f3b8454610bd1565b84610ec8565b602080601f831160018114610f74575f8415610f5d5750858301515b5f19600386901b1c1916600185901b178555610fcb565b5f85815260208120601f198616915b82811015610fa257888601518255948401946001909101908401610f83565b5085821015610fbf57878501515f19600388901b60f8161c191681555b505060018460011b0185555b50505050505056fea2646970667358221220c922125882a1c47b8cf11949464c052cc8a0a41efa273b57baea8217f9cb0ae964736f6c63430008190033","linkReferences":{"contracts/GatewayVM.sol":{"GatewayVM":[{"start":2571,"length":20}]}}},"methodIdentifiers":{"gatewayURLs()":"b50f2fbc","getHooks()":"5cd2525e","getLatestContext()":"87c484fe","getStorageValues(bytes,(bytes),bytes)":"e3d1666e","getWindow()":"1d80051d","owner()":"8da5cb5b","renounceOwnership()":"715018a6","setGatewayURLs(string[])":"8e5ea8df","supportsInterface(bytes4)":"01ffc9a7","transferOwnership(address)":"f2fde38b"},"id":22}