{"abi":[{"type":"constructor","inputs":[{"name":"urls","type":"string[]","internalType":"string[]"},{"name":"window","type":"uint256","internalType":"uint256"},{"name":"hooks","type":"address","internalType":"contract IVerifierHooks"},{"name":"rollup12","type":"address","internalType":"address"},{"name":"minAgeBlocks12","type":"uint256","internalType":"uint256"},{"name":"isBoLD12","type":"bool","internalType":"bool"},{"name":"_request","type":"tuple","internalType":"struct GatewayRequest","components":[{"name":"ops","type":"bytes","internalType":"bytes"}]}],"stateMutability":"nonpayable"},{"type":"function","name":"gatewayURLs","inputs":[],"outputs":[{"name":"","type":"string[]","internalType":"string[]"}],"stateMutability":"view"},{"type":"function","name":"getHooks","inputs":[],"outputs":[{"name":"","type":"address","internalType":"contract IVerifierHooks"}],"stateMutability":"view"},{"type":"function","name":"getLatestContext","inputs":[],"outputs":[{"name":"","type":"bytes","internalType":"bytes"}],"stateMutability":"view"},{"type":"function","name":"getStorageValues","inputs":[{"name":"context","type":"bytes","internalType":"bytes"},{"name":"req","type":"tuple","internalType":"struct GatewayRequest","components":[{"name":"ops","type":"bytes","internalType":"bytes"}]},{"name":"proof","type":"bytes","internalType":"bytes"}],"outputs":[{"name":"","type":"bytes[]","internalType":"bytes[]"},{"name":"exitCode","type":"uint8","internalType":"uint8"}],"stateMutability":"view"},{"type":"function","name":"getWindow","inputs":[],"outputs":[{"name":"","type":"uint256","internalType":"uint256"}],"stateMutability":"view"},{"type":"function","name":"isBoLD","inputs":[],"outputs":[{"name":"","type":"bool","internalType":"bool"}],"stateMutability":"view"},{"type":"function","name":"minAgeBlocks","inputs":[],"outputs":[{"name":"","type":"uint256","internalType":"uint256"}],"stateMutability":"view"},{"type":"function","name":"owner","inputs":[],"outputs":[{"name":"","type":"address","internalType":"address"}],"stateMutability":"view"},{"type":"function","name":"renounceOwnership","inputs":[],"outputs":[],"stateMutability":"nonpayable"},{"type":"function","name":"request","inputs":[],"outputs":[{"name":"ops","type":"bytes","internalType":"bytes"}],"stateMutability":"view"},{"type":"function","name":"rollup","inputs":[],"outputs":[{"name":"","type":"address","internalType":"address"}],"stateMutability":"view"},{"type":"function","name":"setGatewayURLs","inputs":[{"name":"urls","type":"string[]","internalType":"string[]"}],"outputs":[],"stateMutability":"nonpayable"},{"type":"function","name":"supportsInterface","inputs":[{"name":"interfaceId","type":"bytes4","internalType":"bytes4"}],"outputs":[{"name":"","type":"bool","internalType":"bool"}],"stateMutability":"view"},{"type":"function","name":"transferOwnership","inputs":[{"name":"newOwner","type":"address","internalType":"address"}],"outputs":[],"stateMutability":"nonpayable"},{"type":"event","name":"GatewayURLsChanged","inputs":[],"anonymous":false},{"type":"event","name":"OwnershipTransferred","inputs":[{"name":"previousOwner","type":"address","indexed":true,"internalType":"address"},{"name":"newOwner","type":"address","indexed":true,"internalType":"address"}],"anonymous":false},{"type":"error","name":"CommitTooNew","inputs":[{"name":"latest","type":"uint256","internalType":"uint256"},{"name":"got","type":"uint256","internalType":"uint256"}]},{"type":"error","name":"CommitTooOld","inputs":[{"name":"latest","type":"uint256","internalType":"uint256"},{"name":"got","type":"uint256","internalType":"uint256"},{"name":"window","type":"uint256","internalType":"uint256"}]},{"type":"error","name":"OwnableInvalidOwner","inputs":[{"name":"owner","type":"address","internalType":"address"}]},{"type":"error","name":"OwnableUnauthorizedAccount","inputs":[{"name":"account","type":"address","internalType":"address"}]}],"bytecode":{"object":"0x610120604052348015610010575f80fd5b50604051611f01380380611f0183398101604081905261002f9161030c565b868686868686858585338061005d57604051631e4fbdf760e01b81525f600482015260240160405180910390fd5b610066816100c9565b50825161007a906001906020860190610118565b506080919091526001600160a01b0390811660a0529390931660c05260e091909152151561010052505082518392506002915081906100b990826104e4565b50905050505050505050506105a3565b5f80546001600160a01b038381166001600160a01b0319831681178455604051919092169283917f8be0079c531659141344cd1fd0a4f28419497f9722a3daafe3b4186f6b6457e09190a35050565b828054828255905f5260205f2090810192821561015c579160200282015b8281111561015c578251829061014c90826104e4565b5091602001919060010190610136565b5061016892915061016c565b5090565b80821115610168575f61017f8282610188565b5060010161016c565b50805461019490610460565b5f825580601f106101a3575050565b601f0160209004905f5260205f20908101906101bf91906101c2565b50565b5b80821115610168575f81556001016101c3565b634e487b7160e01b5f52604160045260245ffd5b604051601f8201601f191681016001600160401b0381118282101715610212576102126101d6565b604052919050565b5f6001600160401b03831115610232576102326101d6565b610245601f8401601f19166020016101ea565b9050828152838383011115610258575f80fd5b8282602083015e5f602084830101529392505050565b80516001600160a01b0381168114610284575f80fd5b919050565b80518015158114610284575f80fd5b5f602082840312156102a8575f80fd5b604051602081016001600160401b0380821183831017156102cb576102cb6101d6565b8160405282935084519150808211156102e2575f80fd5b508301601f810185136102f3575f80fd5b6103028582516020840161021a565b8252505092915050565b5f805f805f805f60e0888a031215610322575f80fd5b87516001600160401b03811115610337575f80fd5b8801601f81018a13610347575f80fd5b80516001600160401b03811115610360576103606101d6565b61036f60208260051b016101ea565b808282526020820191508c60208460051b860101111561038d575f80fd5b602084015b60208460051b8601018110156103ec5780516001600160401b038111156103b7575f80fd5b8e603f82880101126103c7575f80fd5b6103dd8f602083890101516040848a010161021a565b84525060209283019201610392565b50809a5050505050602088015195506104076040890161026e565b94506104156060890161026e565b93506080880151925061042a60a08901610289565b60c08901519092506001600160401b03811115610445575f80fd5b6104518a828b01610298565b91505092959891949750929550565b600181811c9082168061047457607f821691505b60208210810361049257634e487b7160e01b5f52602260045260245ffd5b50919050565b601f8211156104df57805f5260205f20601f840160051c810160208510156104bd5750805b601f840160051c820191505b818110156104dc575f81556001016104c9565b50505b505050565b81516001600160401b038111156104fd576104fd6101d6565b6105118161050b8454610460565b84610498565b602080601f831160018114610544575f841561052d5750858301515b5f19600386901b1c1916600185901b17855561059b565b5f85815260208120601f198616915b8281101561057257888601518255948401946001909101908401610553565b508582101561058f57878501515f19600388901b60f8161c191681555b505060018460011b0185555b505050505050565b60805160a05160c05160e051610100516118c06106415f395f818161020e0152818161033b0152610a0401525f818161019f015281816103af0152818161047501528181610a7b0152610b3f01525f81816101c60152818161038d0152818161045301528181610a590152610b1d01525f818161012b015281816106cc015261088901525f818160e601528181610bd50152610c1d01526118c05ff3fe608060405234801561000f575f80fd5b50600436106100b8575f3560e01c806301ffc9a7146100bc5780631d80051d146100e4578063338cdca1146101145780635cd2525e14610129578063715018a61461015857806387c484fe146101625780638da5cb5b1461016a5780638e5ea8df14610172578063b50f2fbc14610185578063b56aabe91461019a578063cb23bcb5146101c1578063e3d1666e146101e8578063e84b525f14610209578063f2fde38b14610230575b5f80fd5b6100cf6100ca366004610d2e565b610243565b60405190151581526020015b60405180910390f35b7f00000000000000000000000000000000000000000000000000000000000000005b6040519081526020016100db565b61011c610294565b6040516100db9190610d8a565b7f00000000000000000000000000000000000000000000000000000000000000005b6040516100db9190610d9c565b610160610324565b005b61011c610337565b61014b610502565b610160610180366004610ec1565b610510565b61018d610557565b6040516100db9190610f7d565b6101067f000000000000000000000000000000000000000000000000000000000000000081565b61014b7f000000000000000000000000000000000000000000000000000000000000000081565b6101fb6101f6366004610ffd565b61062b565b6040516100db9291906110c0565b6100cf7f000000000000000000000000000000000000000000000000000000000000000081565b61016061023e36600461112e565b610922565b5f6001600160e01b03198216633446b34b60e21b148061027357506001600160e01b03198216634152574360e01b145b8061028e57506301ffc9a760e01b6001600160e01b03198316145b92915050565b6002805481906102a390611154565b80601f01602080910402602001604051908101604052809291908181526020018280546102cf90611154565b801561031a5780601f106102f15761010080835404028352916020019161031a565b820191905f5260205f20905b8154815290600101906020018083116102fd57829003601f168201915b5050505050905081565b61032c610968565b6103355f61099a565b565b60607f000000000000000000000000000000000000000000000000000000000000000061042457604051631b40d77b60e21b815273__$ec550694073df65076548fc5c1176e3255$__90636d035dec906103d7907f0000000000000000000000000000000000000000000000000000000000000000907f00000000000000000000000000000000000000000000000000000000000000009060040161118c565b602060405180830381865af41580156103f2573d5f803e3d5ffd5b505050506040513d601f19601f8201168201806040525081019061041691906111c0565b6001600160401b03166104dc565b604051631b40d77b60e21b815273__$1d2df7ff0c1011216eeaf379be1cf65d5d$__90636d035dec9061049d907f0000000000000000000000000000000000000000000000000000000000000000907f00000000000000000000000000000000000000000000000000000000000000009060040161118c565b602060405180830381865af41580156104b8573d5f803e3d5ffd5b505050506040513d601f19601f820116820180604052508101906104dc91906111d9565b6040516020016104ee91815260200190565b604051602081830303815290604052905090565b5f546001600160a01b031690565b610518610968565b805161052b906001906020840190610c78565b506040517fe621d803a0c96b9bbeea51d136777f6ea8a4ce0c4ac74f6645e18b4342e2fa07905f90a150565b60606001805480602002602001604051908101604052809291908181526020015f905b82821015610622578382905f5260205f2001805461059790611154565b80601f01602080910402602001604051908101604052809291908181526020018280546105c390611154565b801561060e5780601f106105e55761010080835404028352916020019161060e565b820191905f5260205f20905b8154815290600101906020018083116105f157829003601f168201915b50505050508152602001906001019061057a565b50505050905090565b60605f808380602001905181019061064391906112c2565b80519091505f9061065490886109e9565b90505f73__$011ed85421b307e5206de383929e31be73$__6392a201d460026040518060a001604052805f8152602001868152602001875f6002811061069c5761069c6113c3565b6020020151602001518152602001875f600281106106bc576106bc6113c3565b60200201516040015181526020017f00000000000000000000000000000000000000000000000000000000000000006001600160a01b03168152506040518363ffffffff1660e01b8152600401610714929190611485565b5f60405180830381865af415801561072e573d5f803e3d5ffd5b505050506040513d5f823e601f3d908101601f191682016040526107559190810190611529565b506020808501515180519293505f92610774929082018101910161157c565b905073__$ec550694073df65076548fc5c1176e3255$__635b68b71e82846001815181106107a4576107a46113c3565b60200260200101516107b5906115fe565b6040518363ffffffff1660e01b81526004016107d2929190611621565b602060405180830381865af41580156107ed573d5f803e3d5ffd5b505050506040513d601f19601f8201168201806040525081019061081191906111d9565b925073__$011ed85421b307e5206de383929e31be73$__6392a201d4896040518060a001604052805f815260200187815260200188600160028110610858576108586113c3565b602002015160200151815260200188600160028110610879576108796113c3565b60200201516040015181526020017f00000000000000000000000000000000000000000000000000000000000000006001600160a01b03168152506040518363ffffffff1660e01b81526004016108d1929190611668565b5f60405180830381865af41580156108eb573d5f803e3d5ffd5b505050506040513d5f823e601f3d908101601f191682016040526109129190810190611529565b9550955050505050935093915050565b61092a610968565b6001600160a01b03811661095c575f604051631e4fbdf760e01b81526004016109539190610d9c565b60405180910390fd5b6109658161099a565b50565b33610971610502565b6001600160a01b031614610335573360405163118cdaa760e01b81526004016109539190610d9c565b5f80546001600160a01b038381166001600160a01b0319831681178455604051919092169283917f8be0079c531659141344cd1fd0a4f28419497f9722a3daafe3b4186f6b6457e09190a35050565b5f80828060200190518101906109ff91906111d9565b90505f7f000000000000000000000000000000000000000000000000000000000000000015610aec5784516040516356b357ad60e11b815273__$1d2df7ff0c1011216eeaf379be1cf65d5d$__9163ad66af5a91610aa4917f0000000000000000000000000000000000000000000000000000000000000000917f000000000000000000000000000000000000000000000000000000000000000091906004016116a0565b6040805180830381865af4158015610abe573d5f803e3d5ffd5b505050506040513d601f19601f82011682018060405250810190610ae291906116c6565b9093509050610bbd565b8451604051630c31e23360e11b815273__$ec550694073df65076548fc5c1176e3255$__91631863c46691610b6a917f0000000000000000000000000000000000000000000000000000000000000000917f0000000000000000000000000000000000000000000000000000000000000000919088906004016116e8565b606060405180830381865af4158015610b85573d5f803e3d5ffd5b505050506040513d601f19601f82011682018060405250810190610ba99190611727565b9194506001600160401b0390811693501690505b610bc78282610bcf565b505092915050565b81610bfa7f000000000000000000000000000000000000000000000000000000000000000083611760565b1015610c4957604051632a54241d60e21b815260048101839052602481018290527f00000000000000000000000000000000000000000000000000000000000000006044820152606401610953565b81811115610c745760405163b356ade760e01b81526004810183905260248101829052604401610953565b5050565b828054828255905f5260205f20908101928215610cbc579160200282015b82811115610cbc5782518290610cac90826117cb565b5091602001919060010190610c96565b50610cc8929150610ccc565b5090565b80821115610cc8575f610cdf8282610ce8565b50600101610ccc565b508054610cf490611154565b5f825580601f10610d03575050565b601f0160209004905f5260205f209081019061096591905b80821115610cc8575f8155600101610d1b565b5f60208284031215610d3e575f80fd5b81356001600160e01b031981168114610d55575f80fd5b9392505050565b5f81518084528060208401602086015e5f602082860101526020601f19601f83011685010191505092915050565b602081525f610d556020830184610d5c565b6001600160a01b0391909116815260200190565b634e487b7160e01b5f52604160045260245ffd5b604080519081016001600160401b0381118282101715610de657610de6610db0565b60405290565b604051606081016001600160401b0381118282101715610de657610de6610db0565b604051601f8201601f191681016001600160401b0381118282101715610e3657610e36610db0565b604052919050565b5f6001600160401b03821115610e5657610e56610db0565b5060051b60200190565b5f6001600160401b03821115610e7857610e78610db0565b50601f01601f191660200190565b5f610e98610e9384610e60565b610e0e565b9050828152838383011115610eab575f80fd5b828260208301375f602084830101529392505050565b5f6020808385031215610ed2575f80fd5b82356001600160401b0380821115610ee8575f80fd5b818501915085601f830112610efb575f80fd5b8135610f09610e9382610e3e565b81815260059190911b83018401908481019088831115610f27575f80fd5b8585015b83811015610f7057803585811115610f41575f80fd5b8601603f81018b13610f51575f80fd5b610f628b8983013560408401610e86565b845250918601918601610f2b565b5098975050505050505050565b5f60208083016020845280855180835260408601915060408160051b8701019250602087015f5b82811015610fd257603f19888603018452610fc0858351610d5c565b94509285019290850190600101610fa4565b5092979650505050505050565b5f82601f830112610fee575f80fd5b610d5583833560208501610e86565b5f805f6060848603121561100f575f80fd5b83356001600160401b0380821115611025575f80fd5b61103187838801610fdf565b94506020860135915080821115611046575f80fd5b9085019060208288031215611059575f80fd5b60405160208101818110838211171561107457611074610db0565b604052823582811115611085575f80fd5b61109189828601610fdf565b825250935060408601359150808211156110a9575f80fd5b506110b686828701610fdf565b9150509250925092565b5f604082016040835280855180835260608501915060608160051b860101925060208088015f5b8381101561111557605f19888703018552611103868351610d5c565b955093820193908201906001016110e7565b50505050508091505060ff831660208301529392505050565b5f6020828403121561113e575f80fd5b81356001600160a01b0381168114610d55575f80fd5b600181811c9082168061116857607f821691505b60208210810361118657634e487b7160e01b5f52602260045260245ffd5b50919050565b6001600160a01b03929092168252602082015260400190565b80516001600160401b03811681146111bb575f80fd5b919050565b5f602082840312156111d0575f80fd5b610d55826111a5565b5f602082840312156111e9575f80fd5b5051919050565b5f82601f8301126111ff575f80fd5b815161120d610e9382610e60565b818152846020838601011115611221575f80fd5b8160208501602083015e5f918101602001919091529392505050565b5f82601f83011261124c575f80fd5b8151602061125c610e9383610e3e565b82815260059290921b8401810191818101908684111561127a575f80fd5b8286015b848110156112b75780516001600160401b0381111561129b575f80fd5b6112a98986838b01016111f0565b84525091830191830161127e565b509695505050505050565b5f60208083850312156112d3575f80fd5b82516001600160401b03808211156112e9575f80fd5b818501915085601f8301126112fc575f80fd5b611304610dc4565b80604080850189811115611316575f80fd5b855b818110156113b45780518681111561132e575f80fd5b87016060818d03121561133f575f80fd5b611347610dec565b815188811115611355575f80fd5b6113618e8285016111f0565b8252508982015188811115611374575f80fd5b6113808e82850161123d565b8b830152508482015188811115611395575f80fd5b6113a18e8285016111f0565b8287015250865250938701938701611318565b50919998505050505050505050565b634e487b7160e01b5f52603260045260245ffd5b5f60a08301825184526020808401516020860152604084015160a0604087015282815180855260c08801915060c08160051b89010194506020830192505f5b818110156114445760bf19898703018352611432868551610d5c565b95509284019291840191600101611416565b5050505050606083015184820360608601526114608282610d5c565b915050608083015161147d60808601826001600160a01b03169052565b509392505050565b604081525f60208060408401525f855461149e81611154565b806060870152608060018084165f81146114bf57600181146114db57611508565b60ff19851660808a0152608084151560051b8a01019550611508565b8a5f5260205f205f5b858110156114ff5781548b82018601529083019088016114e4565b8a016080019650505b5050505050838103602085015261151f81866113d7565b9695505050505050565b5f806040838503121561153a575f80fd5b82516001600160401b0381111561154f575f80fd5b61155b8582860161123d565b925050602083015160ff81168114611571575f80fd5b809150509250929050565b5f6020828403121561158c575f80fd5b81516001600160401b03808211156115a2575f80fd5b90830190606082860312156115b5575f80fd5b6115bd610dec565b6115c6836111a5565b8152602083015160208201526040830151828111156115e3575f80fd5b6115ef878286016111f0565b60408301525095945050505050565b80516020808301519190811015611186575f1960209190910360031b1b16919050565b6040815260018060401b038351166040820152602083015160608201525f60408401516060608084015261165860a0840182610d5c565b9150508260208301529392505050565b604081525f8351602060408401526116836060840182610d5c565b9050828103602084015261169781856113d7565b95945050505050565b60018060a01b0384168152826020820152606060408201525f6116976060830184610d5c565b5f80604083850312156116d7575f80fd5b505080516020909101519092909150565b60018060a01b0385168152836020820152608060408201525f61170e6080830185610d5c565b905060018060401b038316606083015295945050505050565b5f805f60608486031215611739575f80fd5b83519250611749602085016111a5565b9150611757604085016111a5565b90509250925092565b8082018082111561028e57634e487b7160e01b5f52601160045260245ffd5b601f8211156117c657805f5260205f20601f840160051c810160208510156117a45750805b601f840160051c820191505b818110156117c3575f81556001016117b0565b50505b505050565b81516001600160401b038111156117e4576117e4610db0565b6117f8816117f28454611154565b8461177f565b602080601f83116001811461182b575f84156118145750858301515b5f19600386901b1c1916600185901b178555611882565b5f85815260208120601f198616915b828110156118595788860151825594840194600190910190840161183a565b508582101561187657878501515f19600388901b60f8161c191681555b505060018460011b0185555b50505050505056fea26469706673582212209f639eb5a5f1480b353ec156c86a0b06e6bc9566f75ba5759e3ef563e62d250864736f6c63430008190033","linkReferences":{"contracts/GatewayVM.sol":{"GatewayVM":[{"start":3226,"length":20},{"start":3670,"length":20}]},"contracts/arbitrum/BoLDVerifierLib.sol":{"BoLDVerifierLib":[{"start":2676,"length":20},{"start":4218,"length":20}]},"contracts/arbitrum/NitroVerifierLib.sol":{"NitroVerifierLib":[{"start":2478,"length":20},{"start":3513,"length":20},{"start":4414,"length":20}]}}},"methodIdentifiers":{"gatewayURLs()":"b50f2fbc","getHooks()":"5cd2525e","getLatestContext()":"87c484fe","getStorageValues(bytes,(bytes),bytes)":"e3d1666e","getWindow()":"1d80051d","isBoLD()":"e84b525f","minAgeBlocks()":"b56aabe9","owner()":"8da5cb5b","renounceOwnership()":"715018a6","request()":"338cdca1","rollup()":"cb23bcb5","setGatewayURLs(string[])":"8e5ea8df","supportsInterface(bytes4)":"01ffc9a7","transferOwnership(address)":"f2fde38b"},"id":16}