{"abi":[{"type":"constructor","inputs":[{"name":"urls","type":"string[]","internalType":"string[]"},{"name":"window","type":"uint256","internalType":"uint256"},{"name":"hooks","type":"address","internalType":"contract IVerifierHooks"},{"name":"rollup12","type":"address","internalType":"address"},{"name":"minAgeBlocks12","type":"uint256","internalType":"uint256"},{"name":"isBoLD12","type":"bool","internalType":"bool"},{"name":"_request","type":"tuple","internalType":"struct GatewayRequest","components":[{"name":"ops","type":"bytes","internalType":"bytes"}]}],"stateMutability":"nonpayable"},{"type":"function","name":"gatewayURLs","inputs":[],"outputs":[{"name":"","type":"string[]","internalType":"string[]"}],"stateMutability":"view"},{"type":"function","name":"getHooks","inputs":[],"outputs":[{"name":"","type":"address","internalType":"contract IVerifierHooks"}],"stateMutability":"view"},{"type":"function","name":"getLatestContext","inputs":[],"outputs":[{"name":"","type":"bytes","internalType":"bytes"}],"stateMutability":"view"},{"type":"function","name":"getStorageValues","inputs":[{"name":"context","type":"bytes","internalType":"bytes"},{"name":"req","type":"tuple","internalType":"struct GatewayRequest","components":[{"name":"ops","type":"bytes","internalType":"bytes"}]},{"name":"proof","type":"bytes","internalType":"bytes"}],"outputs":[{"name":"","type":"bytes[]","internalType":"bytes[]"},{"name":"exitCode","type":"uint8","internalType":"uint8"}],"stateMutability":"view"},{"type":"function","name":"getWindow","inputs":[],"outputs":[{"name":"","type":"uint256","internalType":"uint256"}],"stateMutability":"view"},{"type":"function","name":"isBoLD","inputs":[],"outputs":[{"name":"","type":"bool","internalType":"bool"}],"stateMutability":"view"},{"type":"function","name":"minAgeBlocks","inputs":[],"outputs":[{"name":"","type":"uint256","internalType":"uint256"}],"stateMutability":"view"},{"type":"function","name":"owner","inputs":[],"outputs":[{"name":"","type":"address","internalType":"address"}],"stateMutability":"view"},{"type":"function","name":"renounceOwnership","inputs":[],"outputs":[],"stateMutability":"nonpayable"},{"type":"function","name":"request","inputs":[],"outputs":[{"name":"ops","type":"bytes","internalType":"bytes"}],"stateMutability":"view"},{"type":"function","name":"rollup","inputs":[],"outputs":[{"name":"","type":"address","internalType":"address"}],"stateMutability":"view"},{"type":"function","name":"setGatewayURLs","inputs":[{"name":"urls","type":"string[]","internalType":"string[]"}],"outputs":[],"stateMutability":"nonpayable"},{"type":"function","name":"transferOwnership","inputs":[{"name":"newOwner","type":"address","internalType":"address"}],"outputs":[],"stateMutability":"nonpayable"},{"type":"event","name":"GatewayURLsChanged","inputs":[],"anonymous":false},{"type":"event","name":"OwnershipTransferred","inputs":[{"name":"previousOwner","type":"address","indexed":true,"internalType":"address"},{"name":"newOwner","type":"address","indexed":true,"internalType":"address"}],"anonymous":false},{"type":"error","name":"CommitTooNew","inputs":[{"name":"latest","type":"uint256","internalType":"uint256"},{"name":"got","type":"uint256","internalType":"uint256"}]},{"type":"error","name":"CommitTooOld","inputs":[{"name":"latest","type":"uint256","internalType":"uint256"},{"name":"got","type":"uint256","internalType":"uint256"},{"name":"window","type":"uint256","internalType":"uint256"}]},{"type":"error","name":"OwnableInvalidOwner","inputs":[{"name":"owner","type":"address","internalType":"address"}]},{"type":"error","name":"OwnableUnauthorizedAccount","inputs":[{"name":"account","type":"address","internalType":"address"}]}],"bytecode":{"object":"0x610120604052348015610010575f80fd5b50604051611e70380380611e7083398101604081905261002f9161030c565b868686868686858585338061005d57604051631e4fbdf760e01b81525f600482015260240160405180910390fd5b610066816100c9565b50825161007a906001906020860190610118565b506080919091526001600160a01b0390811660a0529390931660c05260e091909152151561010052505082518392506002915081906100b990826104e4565b50905050505050505050506105a3565b5f80546001600160a01b038381166001600160a01b0319831681178455604051919092169283917f8be0079c531659141344cd1fd0a4f28419497f9722a3daafe3b4186f6b6457e09190a35050565b828054828255905f5260205f2090810192821561015c579160200282015b8281111561015c578251829061014c90826104e4565b5091602001919060010190610136565b5061016892915061016c565b5090565b80821115610168575f61017f8282610188565b5060010161016c565b50805461019490610460565b5f825580601f106101a3575050565b601f0160209004905f5260205f20908101906101bf91906101c2565b50565b5b80821115610168575f81556001016101c3565b634e487b7160e01b5f52604160045260245ffd5b604051601f8201601f191681016001600160401b0381118282101715610212576102126101d6565b604052919050565b5f6001600160401b03831115610232576102326101d6565b610245601f8401601f19166020016101ea565b9050828152838383011115610258575f80fd5b8282602083015e5f602084830101529392505050565b80516001600160a01b0381168114610284575f80fd5b919050565b80518015158114610284575f80fd5b5f602082840312156102a8575f80fd5b604051602081016001600160401b0380821183831017156102cb576102cb6101d6565b8160405282935084519150808211156102e2575f80fd5b508301601f810185136102f3575f80fd5b6103028582516020840161021a565b8252505092915050565b5f805f805f805f60e0888a031215610322575f80fd5b87516001600160401b03811115610337575f80fd5b8801601f81018a13610347575f80fd5b80516001600160401b03811115610360576103606101d6565b61036f60208260051b016101ea565b808282526020820191508c60208460051b860101111561038d575f80fd5b602084015b60208460051b8601018110156103ec5780516001600160401b038111156103b7575f80fd5b8e603f82880101126103c7575f80fd5b6103dd8f602083890101516040848a010161021a565b84525060209283019201610392565b50809a5050505050602088015195506104076040890161026e565b94506104156060890161026e565b93506080880151925061042a60a08901610289565b60c08901519092506001600160401b03811115610445575f80fd5b6104518a828b01610298565b91505092959891949750929550565b600181811c9082168061047457607f821691505b60208210810361049257634e487b7160e01b5f52602260045260245ffd5b50919050565b601f8211156104df57805f5260205f20601f840160051c810160208510156104bd5750805b601f840160051c820191505b818110156104dc575f81556001016104c9565b50505b505050565b81516001600160401b038111156104fd576104fd6101d6565b6105118161050b8454610460565b84610498565b602080601f831160018114610544575f841561052d5750858301515b5f19600386901b1c1916600185901b17855561059b565b5f85815260208120601f198616915b8281101561057257888601518255948401946001909101908401610553565b508582101561058f57878501515f19600388901b60f8161c191681555b505060018460011b0185555b505050505050565b60805160a05160c05160e051610100516118306106405f395f81816101e0015281816102cc015261099501525f8181610171015281816103400152818161040601528181610a0c0152610ad001525f81816101980152818161031e015281816103e4015281816109ea0152610aae01525f818160fd0152818161065d015261081a01525f818160b301528181610b660152610bae01526118305ff3fe608060405234801561000f575f80fd5b50600436106100ad575f3560e01c80631d80051d146100b1578063338cdca1146100e65780635cd2525e146100fb578063715018a61461012a57806387c484fe146101345780638da5cb5b1461013c5780638e5ea8df14610144578063b50f2fbc14610157578063b56aabe91461016c578063cb23bcb514610193578063e3d1666e146101ba578063e84b525f146101db578063f2fde38b14610212575b5f80fd5b7f00000000000000000000000000000000000000000000000000000000000000005b6040519081526020015b60405180910390f35b6100ee610225565b6040516100dd9190610ced565b7f00000000000000000000000000000000000000000000000000000000000000005b6040516100dd9190610d06565b6101326102b5565b005b6100ee6102c8565b61011d610493565b610132610152366004610e2b565b6104a1565b61015f6104e8565b6040516100dd9190610ee7565b6100d37f000000000000000000000000000000000000000000000000000000000000000081565b61011d7f000000000000000000000000000000000000000000000000000000000000000081565b6101cd6101c8366004610f67565b6105bc565b6040516100dd92919061102a565b6102027f000000000000000000000000000000000000000000000000000000000000000081565b60405190151581526020016100dd565b610132610220366004611098565b6108b3565b600280548190610234906110be565b80601f0160208091040260200160405190810160405280929190818152602001828054610260906110be565b80156102ab5780601f10610282576101008083540402835291602001916102ab565b820191905f5260205f20905b81548152906001019060200180831161028e57829003601f168201915b5050505050905081565b6102bd6108f9565b6102c65f61092b565b565b60607f00000000000000000000000000000000000000000000000000000000000000006103b557604051631b40d77b60e21b815273__$ec550694073df65076548fc5c1176e3255$__90636d035dec90610368907f0000000000000000000000000000000000000000000000000000000000000000907f0000000000000000000000000000000000000000000000000000000000000000906004016110f6565b602060405180830381865af4158015610383573d5f803e3d5ffd5b505050506040513d601f19601f820116820180604052508101906103a7919061112a565b6001600160401b031661046d565b604051631b40d77b60e21b815273__$1d2df7ff0c1011216eeaf379be1cf65d5d$__90636d035dec9061042e907f0000000000000000000000000000000000000000000000000000000000000000907f0000000000000000000000000000000000000000000000000000000000000000906004016110f6565b602060405180830381865af4158015610449573d5f803e3d5ffd5b505050506040513d601f19601f8201168201806040525081019061046d9190611143565b60405160200161047f91815260200190565b604051602081830303815290604052905090565b5f546001600160a01b031690565b6104a96108f9565b80516104bc906001906020840190610c09565b506040517fe621d803a0c96b9bbeea51d136777f6ea8a4ce0c4ac74f6645e18b4342e2fa07905f90a150565b60606001805480602002602001604051908101604052809291908181526020015f905b828210156105b3578382905f5260205f20018054610528906110be565b80601f0160208091040260200160405190810160405280929190818152602001828054610554906110be565b801561059f5780601f106105765761010080835404028352916020019161059f565b820191905f5260205f20905b81548152906001019060200180831161058257829003601f168201915b50505050508152602001906001019061050b565b50505050905090565b60605f80838060200190518101906105d4919061122c565b80519091505f906105e5908861097a565b90505f73__$011ed85421b307e5206de383929e31be73$__6392a201d460026040518060a001604052805f8152602001868152602001875f6002811061062d5761062d61132d565b6020020151602001518152602001875f6002811061064d5761064d61132d565b60200201516040015181526020017f00000000000000000000000000000000000000000000000000000000000000006001600160a01b03168152506040518363ffffffff1660e01b81526004016106a59291906113ef565b5f60405180830381865af41580156106bf573d5f803e3d5ffd5b505050506040513d5f823e601f3d908101601f191682016040526106e69190810190611493565b506020808501515180519293505f9261070592908201810191016114e6565b905073__$ec550694073df65076548fc5c1176e3255$__635b68b71e82846001815181106107355761073561132d565b602002602001015161074690611568565b6040518363ffffffff1660e01b815260040161076392919061158b565b602060405180830381865af415801561077e573d5f803e3d5ffd5b505050506040513d601f19601f820116820180604052508101906107a29190611143565b925073__$011ed85421b307e5206de383929e31be73$__6392a201d4896040518060a001604052805f8152602001878152602001886001600281106107e9576107e961132d565b60200201516020015181526020018860016002811061080a5761080a61132d565b60200201516040015181526020017f00000000000000000000000000000000000000000000000000000000000000006001600160a01b03168152506040518363ffffffff1660e01b81526004016108629291906115d2565b5f60405180830381865af415801561087c573d5f803e3d5ffd5b505050506040513d5f823e601f3d908101601f191682016040526108a39190810190611493565b9550955050505050935093915050565b6108bb6108f9565b6001600160a01b0381166108ed575f604051631e4fbdf760e01b81526004016108e49190610d06565b60405180910390fd5b6108f68161092b565b50565b33610902610493565b6001600160a01b0316146102c6573360405163118cdaa760e01b81526004016108e49190610d06565b5f80546001600160a01b038381166001600160a01b0319831681178455604051919092169283917f8be0079c531659141344cd1fd0a4f28419497f9722a3daafe3b4186f6b6457e09190a35050565b5f80828060200190518101906109909190611143565b90505f7f000000000000000000000000000000000000000000000000000000000000000015610a7d5784516040516356b357ad60e11b815273__$1d2df7ff0c1011216eeaf379be1cf65d5d$__9163ad66af5a91610a35917f0000000000000000000000000000000000000000000000000000000000000000917f0000000000000000000000000000000000000000000000000000000000000000919060040161160a565b6040805180830381865af4158015610a4f573d5f803e3d5ffd5b505050506040513d601f19601f82011682018060405250810190610a739190611630565b9093509050610b4e565b8451604051630c31e23360e11b815273__$ec550694073df65076548fc5c1176e3255$__91631863c46691610afb917f0000000000000000000000000000000000000000000000000000000000000000917f000000000000000000000000000000000000000000000000000000000000000091908890600401611652565b606060405180830381865af4158015610b16573d5f803e3d5ffd5b505050506040513d601f19601f82011682018060405250810190610b3a9190611691565b9194506001600160401b0390811693501690505b610b588282610b60565b505092915050565b81610b8b7f0000000000000000000000000000000000000000000000000000000000000000836116ca565b1015610bda57604051632a54241d60e21b815260048101839052602481018290527f000000000000000000000000000000000000000000000000000000000000000060448201526064016108e4565b81811115610c055760405163b356ade760e01b815260048101839052602481018290526044016108e4565b5050565b828054828255905f5260205f20908101928215610c4d579160200282015b82811115610c4d5782518290610c3d908261173b565b5091602001919060010190610c27565b50610c59929150610c5d565b5090565b80821115610c59575f610c708282610c79565b50600101610c5d565b508054610c85906110be565b5f825580601f10610c94575050565b601f0160209004905f5260205f20908101906108f691905b80821115610c59575f8155600101610cac565b5f81518084528060208401602086015e5f602082860101526020601f19601f83011685010191505092915050565b602081525f610cff6020830184610cbf565b9392505050565b6001600160a01b0391909116815260200190565b634e487b7160e01b5f52604160045260245ffd5b604080519081016001600160401b0381118282101715610d5057610d50610d1a565b60405290565b604051606081016001600160401b0381118282101715610d5057610d50610d1a565b604051601f8201601f191681016001600160401b0381118282101715610da057610da0610d1a565b604052919050565b5f6001600160401b03821115610dc057610dc0610d1a565b5060051b60200190565b5f6001600160401b03821115610de257610de2610d1a565b50601f01601f191660200190565b5f610e02610dfd84610dca565b610d78565b9050828152838383011115610e15575f80fd5b828260208301375f602084830101529392505050565b5f6020808385031215610e3c575f80fd5b82356001600160401b0380821115610e52575f80fd5b818501915085601f830112610e65575f80fd5b8135610e73610dfd82610da8565b81815260059190911b83018401908481019088831115610e91575f80fd5b8585015b83811015610eda57803585811115610eab575f80fd5b8601603f81018b13610ebb575f80fd5b610ecc8b8983013560408401610df0565b845250918601918601610e95565b5098975050505050505050565b5f60208083016020845280855180835260408601915060408160051b8701019250602087015f5b82811015610f3c57603f19888603018452610f2a858351610cbf565b94509285019290850190600101610f0e565b5092979650505050505050565b5f82601f830112610f58575f80fd5b610cff83833560208501610df0565b5f805f60608486031215610f79575f80fd5b83356001600160401b0380821115610f8f575f80fd5b610f9b87838801610f49565b94506020860135915080821115610fb0575f80fd5b9085019060208288031215610fc3575f80fd5b604051602081018181108382111715610fde57610fde610d1a565b604052823582811115610fef575f80fd5b610ffb89828601610f49565b82525093506040860135915080821115611013575f80fd5b5061102086828701610f49565b9150509250925092565b5f604082016040835280855180835260608501915060608160051b860101925060208088015f5b8381101561107f57605f1988870301855261106d868351610cbf565b95509382019390820190600101611051565b50505050508091505060ff831660208301529392505050565b5f602082840312156110a8575f80fd5b81356001600160a01b0381168114610cff575f80fd5b600181811c908216806110d257607f821691505b6020821081036110f057634e487b7160e01b5f52602260045260245ffd5b50919050565b6001600160a01b03929092168252602082015260400190565b80516001600160401b0381168114611125575f80fd5b919050565b5f6020828403121561113a575f80fd5b610cff8261110f565b5f60208284031215611153575f80fd5b5051919050565b5f82601f830112611169575f80fd5b8151611177610dfd82610dca565b81815284602083860101111561118b575f80fd5b8160208501602083015e5f918101602001919091529392505050565b5f82601f8301126111b6575f80fd5b815160206111c6610dfd83610da8565b82815260059290921b840181019181810190868411156111e4575f80fd5b8286015b848110156112215780516001600160401b03811115611205575f80fd5b6112138986838b010161115a565b8452509183019183016111e8565b509695505050505050565b5f602080838503121561123d575f80fd5b82516001600160401b0380821115611253575f80fd5b818501915085601f830112611266575f80fd5b61126e610d2e565b80604080850189811115611280575f80fd5b855b8181101561131e57805186811115611298575f80fd5b87016060818d0312156112a9575f80fd5b6112b1610d56565b8151888111156112bf575f80fd5b6112cb8e82850161115a565b82525089820151888111156112de575f80fd5b6112ea8e8285016111a7565b8b8301525084820151888111156112ff575f80fd5b61130b8e82850161115a565b8287015250865250938701938701611282565b50919998505050505050505050565b634e487b7160e01b5f52603260045260245ffd5b5f60a08301825184526020808401516020860152604084015160a0604087015282815180855260c08801915060c08160051b89010194506020830192505f5b818110156113ae5760bf1989870301835261139c868551610cbf565b95509284019291840191600101611380565b5050505050606083015184820360608601526113ca8282610cbf565b91505060808301516113e760808601826001600160a01b03169052565b509392505050565b604081525f60208060408401525f8554611408816110be565b806060870152608060018084165f8114611429576001811461144557611472565b60ff19851660808a0152608084151560051b8a01019550611472565b8a5f5260205f205f5b858110156114695781548b820186015290830190880161144e565b8a016080019650505b505050505083810360208501526114898186611341565b9695505050505050565b5f80604083850312156114a4575f80fd5b82516001600160401b038111156114b9575f80fd5b6114c5858286016111a7565b925050602083015160ff811681146114db575f80fd5b809150509250929050565b5f602082840312156114f6575f80fd5b81516001600160401b038082111561150c575f80fd5b908301906060828603121561151f575f80fd5b611527610d56565b6115308361110f565b81526020830151602082015260408301518281111561154d575f80fd5b6115598782860161115a565b60408301525095945050505050565b805160208083015191908110156110f0575f1960209190910360031b1b16919050565b6040815260018060401b038351166040820152602083015160608201525f6040840151606060808401526115c260a0840182610cbf565b9150508260208301529392505050565b604081525f8351602060408401526115ed6060840182610cbf565b905082810360208401526116018185611341565b95945050505050565b60018060a01b0384168152826020820152606060408201525f6116016060830184610cbf565b5f8060408385031215611641575f80fd5b505080516020909101519092909150565b60018060a01b0385168152836020820152608060408201525f6116786080830185610cbf565b905060018060401b038316606083015295945050505050565b5f805f606084860312156116a3575f80fd5b835192506116b36020850161110f565b91506116c16040850161110f565b90509250925092565b808201808211156116e957634e487b7160e01b5f52601160045260245ffd5b92915050565b601f82111561173657805f5260205f20601f840160051c810160208510156117145750805b601f840160051c820191505b81811015611733575f8155600101611720565b50505b505050565b81516001600160401b0381111561175457611754610d1a565b6117688161176284546110be565b846116ef565b602080601f83116001811461179b575f84156117845750858301515b5f19600386901b1c1916600185901b1785556117f2565b5f85815260208120601f198616915b828110156117c9578886015182559484019460019091019084016117aa565b50858210156117e657878501515f19600388901b60f8161c191681555b505060018460011b0185555b50505050505056fea26469706673582212203ca595f2470af0c943136ba0ee274cfe7aaafbeeb05874c331ac1f861e34a1c564736f6c63430008190033","linkReferences":{"contracts/GatewayVM.sol":{"GatewayVM":[{"start":3114,"length":20},{"start":3558,"length":20}]},"contracts/arbitrum/BoLDVerifierLib.sol":{"BoLDVerifierLib":[{"start":2564,"length":20},{"start":4106,"length":20}]},"contracts/arbitrum/NitroVerifierLib.sol":{"NitroVerifierLib":[{"start":2366,"length":20},{"start":3401,"length":20},{"start":4302,"length":20}]}}},"methodIdentifiers":{"gatewayURLs()":"b50f2fbc","getHooks()":"5cd2525e","getLatestContext()":"87c484fe","getStorageValues(bytes,(bytes),bytes)":"e3d1666e","getWindow()":"1d80051d","isBoLD()":"e84b525f","minAgeBlocks()":"b56aabe9","owner()":"8da5cb5b","renounceOwnership()":"715018a6","request()":"338cdca1","rollup()":"cb23bcb5","setGatewayURLs(string[])":"8e5ea8df","transferOwnership(address)":"f2fde38b"},"id":14}