{"abi":[{"type":"function","name":"latestIndex","inputs":[{"name":"rollup","type":"address","internalType":"address"},{"name":"minAgeBlocks","type":"uint256","internalType":"uint256"}],"outputs":[{"name":"index","type":"uint64","internalType":"uint64"}],"stateMutability":"view"},{"type":"function","name":"verifyRollup","inputs":[{"name":"rollup","type":"address","internalType":"address"},{"name":"minAgeBlocks","type":"uint256","internalType":"uint256"},{"name":"proof","type":"bytes","internalType":"bytes"},{"name":"nodeNum1","type":"uint64","internalType":"uint64"}],"outputs":[{"name":"stateRoot","type":"bytes32","internalType":"bytes32"},{"name":"latest","type":"uint64","internalType":"uint64"},{"name":"got","type":"uint64","internalType":"uint64"}],"stateMutability":"view"},{"type":"function","name":"verifyStateRoot","inputs":[{"name":"proof","type":"tuple","internalType":"struct NitroVerifierLib.RollupProof","components":[{"name":"nodeNum","type":"uint64","internalType":"uint64"},{"name":"sendRoot","type":"bytes32","internalType":"bytes32"},{"name":"rlpEncodedBlock","type":"bytes","internalType":"bytes"}]},{"name":"confirmData","type":"bytes32","internalType":"bytes32"}],"outputs":[{"name":"stateRoot","type":"bytes32","internalType":"bytes32"}],"stateMutability":"pure"},{"type":"error","name":"ContentLengthMismatch","inputs":[]},{"type":"error","name":"EmptyItem","inputs":[]},{"type":"error","name":"InvalidDataRemainder","inputs":[]},{"type":"error","name":"InvalidHeader","inputs":[]},{"type":"error","name":"UnexpectedList","inputs":[]},{"type":"error","name":"UnexpectedString","inputs":[]}],"bytecode":{"object":"0x6111c8610034600b8282823980515f1a607314602857634e487b7160e01b5f525f60045260245ffd5b305f52607381538281f3fe730000000000000000000000000000000000000000301460806040526004361061004a575f3560e01c80631863c4661461004e5780635b68b71e1461008b5780636d035dec146100ac575b5f80fd5b61006161005c366004610ded565b6100cc565b604080519384526001600160401b0392831660208501529116908201526060015b60405180910390f35b61009e610099366004610e52565b610376565b604051908152602001610082565b6100bf6100ba366004610ede565b610436565b6040516100829190610f06565b5f805f80858060200190518101906100e49190610f25565b80516040516324b204d360e21b81529192505f916001600160a01b038b16916392c8134c916101169190600401610f06565b61018060405180830381865afa158015610132573d5f803e3d5ffd5b505050506040513d601f19601f820116820180604052508101906101569190610fe7565b90508061014001519250856001600160401b0316825f01516001600160401b031614610351576040516324b204d360e21b81525f906001600160a01b038b16906392c8134c906101aa908a90600401610f06565b61018060405180830381865afa1580156101c6573d5f803e3d5ffd5b505050506040513d601f19601f820116820180604052508101906101ea9190610fe7565b90508061014001519450885f036102fd575b825f01516001600160401b031681606001516001600160401b031611156102945760608101516040516324b204d360e21b81526001600160a01b038c16916392c8134c9161024d9190600401610f06565b61018060405180830381865afa158015610269573d5f803e3d5ffd5b505050506040513d601f19601f8201168201806040525081019061028d9190610fe7565b90506101fc565b825f01516001600160401b031681606001516001600160401b0316146102f85760405162461bcd60e51b8152602060048201526014602482015273139a5d1c9bce881b9bdd08199a5b985b1a5e995960621b60448201526064015b60405180910390fd5b61034b565b61030b8a845f015184610616565b61034b5760405162461bcd60e51b81526020600482015260116024820152704e6974726f3a206e6f7420757361626c6560781b60448201526064016102ef565b5061035a565b80610140015193505b610368828260400151610376565b945050509450945094915050565b5f82604001518051906020012083602001516040516020016103a2929190918252602082015260400190565b6040516020818303038152906040528051906020012082146103fb5760405162461bcd60e51b81526020600482015260126024820152714e6974726f3a20636f6e6669726d4461746160701b60448201526064016102ef565b5f610409846040015161069c565b905061042e81600381518110610421576104216110b7565b60200260200101516106af565b949350505050565b5f815f036104a557826001600160a01b03166365f7f80d6040518163ffffffff1660e01b8152600401602060405180830381865afa15801561047a573d5f803e3d5ffd5b505050506040513d601f19601f8201168201806040525081019061049e91906110cb565b9050610610565b826001600160a01b0316637ba9534a6040518163ffffffff1660e01b8152600401602060405180830381865afa1580156104e1573d5f803e3d5ffd5b505050506040513d601f19601f8201168201806040525081019061050591906110cb565b90505f61051283436110fa565b90505b6040516324b204d360e21b81525f906001600160a01b038616906392c8134c90610543908690600401610f06565b61018060405180830381865afa15801561055f573d5f803e3d5ffd5b505050506040513d601f19601f820116820180604052508101906105839190610fe7565b9050818161014001516001600160401b0316111580156105a957506105a9858483610616565b156105b4575061060e565b826001600160401b03165f036105fd5760405162461bcd60e51b815260206004820152600e60248201526d4e6974726f3a206e6f206e6f646560901b60448201526064016102ef565b6106068361110d565b925050610515565b505b92915050565b6040516317185fa560e21b81525f906001600160a01b03851690635c617e9490610644908690600401610f06565b602060405180830381865afa15801561065f573d5f803e3d5ffd5b505050506040513d601f19601f82011682018060405250810190610683919061112e565b8260c001516001600160401b03161190505b9392505050565b60606106106106aa836106e7565b61072e565b5f806106ba836108a1565b905080516020146106de576040516366c9448560e01b815260040160405180910390fd5b61069581611145565b6106ef610c9c565b81515f0361071057604051635ab458fb60e01b815260040160405180910390fd5b50604080518082019091528151815260209182019181019190915290565b60605f805f61073c85610929565b9194509250905060018160018111156107575761075761116b565b14610775576040516325ce355f60e11b815260040160405180910390fd5b8451610781838561117f565b1461079f57604051630b8aa6f760e31b815260040160405180910390fd5b604080516020808252610420820190925290816020015b6107be610c9c565b8152602001906001900390816107b65790505093505f835b8651811015610895575f8061081a6040518060400160405280858c5f01516107fe91906110fa565b8152602001858c60200151610813919061117f565b9052610929565b509150915060405180604001604052808383610836919061117f565b8152602001848b6020015161084b919061117f565b815250888581518110610860576108606110b7565b602090810291909101015261087660018561117f565b9350610882818361117f565b61088c908461117f565b925050506107d6565b50845250919392505050565b60605f805f6108af85610929565b919450925090505f8160018111156108c9576108c961116b565b146108e7576040516307fe6cb960e21b815260040160405180910390fd5b6108f1828461117f565b85511461091157604051630b8aa6f760e31b815260040160405180910390fd5b61092085602001518484610c0c565b95945050505050565b5f805f835f01515f0361094f57604051635ab458fb60e01b815260040160405180910390fd5b602084015180515f1a607f8111610971575f60015f9450945094505050610c05565b60b78111610a06575f6109856080836110fa565b905080875f0151116109aa576040516366c9448560e01b815260040160405180910390fd5b6001838101516001600160f81b03191690821480156109d65750600160ff1b6001600160f81b03198216105b156109f45760405163babb01dd60e01b815260040160405180910390fd5b506001955093505f9250610c05915050565b60bf8111610ae4575f610a1a60b7836110fa565b905080875f015111610a3f576040516366c9448560e01b815260040160405180910390fd5b60018301516001600160f81b0319165f819003610a6f5760405163babb01dd60e01b815260040160405180910390fd5b600184015160088302610100031c60378111610a9e5760405163babb01dd60e01b815260040160405180910390fd5b610aa8818461117f565b895111610ac8576040516366c9448560e01b815260040160405180910390fd5b610ad383600161117f565b975095505f9450610c059350505050565b60f78111610b2e575f610af860c0836110fa565b905080875f015111610b1d576040516366c9448560e01b815260040160405180910390fd5b600195509350849250610c05915050565b5f610b3a60f7836110fa565b905080875f015111610b5f576040516366c9448560e01b815260040160405180910390fd5b60018301516001600160f81b0319165f819003610b8f5760405163babb01dd60e01b815260040160405180910390fd5b600184015160088302610100031c60378111610bbe5760405163babb01dd60e01b815260040160405180910390fd5b610bc8818461117f565b895111610be8576040516366c9448560e01b815260040160405180910390fd5b610bf383600161117f565b9750955060019450610c059350505050565b9193909250565b6060816001600160401b03811115610c2657610c26610ccf565b6040519080825280601f01601f191660200182016040528015610c50576020820181803683370190505b5090508115610695575f610c64848661117f565b9050602082015f5b84811015610c84578281015182820152602001610c6c565b84811115610c92575f858301525b5050509392505050565b60405180604001604052805f81526020015f81525090565b80356001600160a01b0381168114610cca575f80fd5b919050565b634e487b7160e01b5f52604160045260245ffd5b604051606081016001600160401b0381118282101715610d0557610d05610ccf565b60405290565b60405161018081016001600160401b0381118282101715610d0557610d05610ccf565b604051601f8201601f191681016001600160401b0381118282101715610d5657610d56610ccf565b604052919050565b5f6001600160401b03821115610d7657610d76610ccf565b50601f01601f191660200190565b5f82601f830112610d93575f80fd5b8135610da6610da182610d5e565b610d2e565b818152846020838601011115610dba575f80fd5b816020850160208301375f918101602001919091529392505050565b6001600160401b0381168114610dea575f80fd5b50565b5f805f8060808587031215610e00575f80fd5b610e0985610cb4565b93506020850135925060408501356001600160401b03811115610e2a575f80fd5b610e3687828801610d84565b9250506060850135610e4781610dd6565b939692955090935050565b5f8060408385031215610e63575f80fd5b82356001600160401b0380821115610e79575f80fd5b9084019060608287031215610e8c575f80fd5b610e94610ce3565b8235610e9f81610dd6565b815260208381013590820152604083013582811115610ebc575f80fd5b610ec888828601610d84565b6040830152509660209590950135955050505050565b5f8060408385031215610eef575f80fd5b610ef883610cb4565b946020939093013593505050565b6001600160401b0391909116815260200190565b8051610cca81610dd6565b5f6020808385031215610f36575f80fd5b82516001600160401b0380821115610f4c575f80fd5b9084019060608287031215610f5f575f80fd5b610f67610ce3565b8251610f7281610dd6565b81528284015184820152604083015182811115610f8d575f80fd5b80840193505086601f840112610fa1575f80fd5b82519150610fb1610da183610d5e565b8281528785848601011115610fc4575f80fd5b828585018683015e5f858483010152806040830152508094505050505092915050565b5f6101808284031215610ff8575f80fd5b611000610d0b565b82518152602083015160208201526040830151604082015261102460608401610f1a565b606082015261103560808401610f1a565b608082015261104660a08401610f1a565b60a082015261105760c08401610f1a565b60c082015261106860e08401610f1a565b60e082015261010061107b818501610f1a565b9082015261012061108d848201610f1a565b9082015261014061109f848201610f1a565b90820152610160928301519281019290925250919050565b634e487b7160e01b5f52603260045260245ffd5b5f602082840312156110db575f80fd5b815161069581610dd6565b634e487b7160e01b5f52601160045260245ffd5b81810381811115610610576106106110e6565b5f6001600160401b03821680611125576111256110e6565b5f190192915050565b5f6020828403121561113e575f80fd5b5051919050565b80516020808301519190811015611165575f198160200360031b1b821691505b50919050565b634e487b7160e01b5f52602160045260245ffd5b80820180821115610610576106106110e656fea264697066735822122007fd45a180f4576d7177b5e733387d6ba60dbd7ffe8aee3647414e54277d517564736f6c63430008190033","linkReferences":{}},"methodIdentifiers":{"latestIndex(address,uint256)":"6d035dec","verifyRollup(address,uint256,bytes,uint64)":"1863c466","verifyStateRoot(NitroVerifierLib.RollupProof,bytes32)":"5b68b71e"},"id":17}