{"abi":[{"type":"constructor","inputs":[{"name":"hooks","type":"address","internalType":"contract IVerifierHooks"},{"name":"urls","type":"string[]","internalType":"string[]"},{"name":"signers","type":"address[]","internalType":"address[]"},{"name":"expSec","type":"uint256","internalType":"uint256"}],"stateMutability":"nonpayable"},{"type":"function","name":"gatewayURLs","inputs":[],"outputs":[{"name":"","type":"string[]","internalType":"string[]"}],"stateMutability":"view"},{"type":"function","name":"getExpSec","inputs":[],"outputs":[{"name":"","type":"uint256","internalType":"uint256"}],"stateMutability":"view"},{"type":"function","name":"getHooks","inputs":[],"outputs":[{"name":"","type":"address","internalType":"contract IVerifierHooks"}],"stateMutability":"view"},{"type":"function","name":"getLatestContext","inputs":[],"outputs":[{"name":"","type":"bytes","internalType":"bytes"}],"stateMutability":"view"},{"type":"function","name":"getStorageValues","inputs":[{"name":"context","type":"bytes","internalType":"bytes"},{"name":"req","type":"tuple","internalType":"struct GatewayRequest","components":[{"name":"ops","type":"bytes","internalType":"bytes"}]},{"name":"proof","type":"bytes","internalType":"bytes"}],"outputs":[{"name":"","type":"bytes[]","internalType":"bytes[]"},{"name":"exitCode","type":"uint8","internalType":"uint8"}],"stateMutability":"view"},{"type":"function","name":"init","inputs":[{"name":"_owner","type":"address","internalType":"address"},{"name":"hooks","type":"address","internalType":"contract IVerifierHooks"},{"name":"urls","type":"string[]","internalType":"string[]"},{"name":"signers","type":"address[]","internalType":"address[]"},{"name":"expSec","type":"uint256","internalType":"uint256"}],"outputs":[],"stateMutability":"nonpayable"},{"type":"function","name":"initialized","inputs":[],"outputs":[{"name":"","type":"bool","internalType":"bool"}],"stateMutability":"view"},{"type":"function","name":"isSigner","inputs":[{"name":"signer","type":"address","internalType":"address"}],"outputs":[{"name":"","type":"bool","internalType":"bool"}],"stateMutability":"view"},{"type":"function","name":"owner","inputs":[],"outputs":[{"name":"","type":"address","internalType":"address"}],"stateMutability":"view"},{"type":"function","name":"renounceOwnership","inputs":[],"outputs":[],"stateMutability":"nonpayable"},{"type":"function","name":"setExpSec","inputs":[{"name":"expSec","type":"uint256","internalType":"uint256"}],"outputs":[],"stateMutability":"nonpayable"},{"type":"function","name":"setGatewayURLs","inputs":[{"name":"urls","type":"string[]","internalType":"string[]"}],"outputs":[],"stateMutability":"nonpayable"},{"type":"function","name":"setHooks","inputs":[{"name":"hooks","type":"address","internalType":"contract IVerifierHooks"}],"outputs":[],"stateMutability":"nonpayable"},{"type":"function","name":"setSigner","inputs":[{"name":"signer","type":"address","internalType":"address"},{"name":"allow","type":"bool","internalType":"bool"}],"outputs":[],"stateMutability":"nonpayable"},{"type":"function","name":"transferOwnership","inputs":[{"name":"newOwner","type":"address","internalType":"address"}],"outputs":[],"stateMutability":"nonpayable"},{"type":"event","name":"OwnershipTransferred","inputs":[{"name":"previousOwner","type":"address","indexed":true,"internalType":"address"},{"name":"newOwner","type":"address","indexed":true,"internalType":"address"}],"anonymous":false},{"type":"event","name":"TrustedVerifierChanged","inputs":[],"anonymous":false},{"type":"error","name":"CommitTooNew","inputs":[{"name":"latest","type":"uint256","internalType":"uint256"},{"name":"got","type":"uint256","internalType":"uint256"}]},{"type":"error","name":"CommitTooOld","inputs":[{"name":"latest","type":"uint256","internalType":"uint256"},{"name":"got","type":"uint256","internalType":"uint256"},{"name":"window","type":"uint256","internalType":"uint256"}]},{"type":"error","name":"ECDSAInvalidSignature","inputs":[]},{"type":"error","name":"ECDSAInvalidSignatureLength","inputs":[{"name":"length","type":"uint256","internalType":"uint256"}]},{"type":"error","name":"ECDSAInvalidSignatureS","inputs":[{"name":"s","type":"bytes32","internalType":"bytes32"}]},{"type":"error","name":"LazyOwnableAlreadyInitialized","inputs":[]},{"type":"error","name":"OwnableInvalidOwner","inputs":[{"name":"owner","type":"address","internalType":"address"}]},{"type":"error","name":"OwnableUnauthorizedAccount","inputs":[{"name":"account","type":"address","internalType":"address"}]}],"bytecode":{"object":"0x608060405234801561000f575f80fd5b50604051611abd380380611abd83398101604081905261002e91610350565b61003b3385858585610044565b505050506105df565b61004d856100e1565b600180546001600160a01b0319166001600160a01b038616179055825161007b9060049060208601906101ab565b505f5b82518110156100d757600160025f85848151811061009e5761009e610488565b6020908102919091018101516001600160a01b031682528101919091526040015f20805460ff191691151591909117905560010161007e565b5060035550505050565b6100e9610136565b15610107576040516319e1744160e21b815260040160405180910390fd5b6001600160a01b03811661012a575f805460ff60a01b1916600160a01b17905550565b6101338161015c565b50565b5f8054600160a01b900460ff168061015757505f546001600160a01b031615155b905090565b5f80546001600160a01b038381166001600160a01b0319831681178455604051919092169283917f8be0079c531659141344cd1fd0a4f28419497f9722a3daafe3b4186f6b6457e09190a35050565b828054828255905f5260205f209081019282156101ef579160200282015b828111156101ef57825182906101df9082610520565b50916020019190600101906101c9565b506101fb9291506101ff565b5090565b808211156101fb575f610212828261021b565b506001016101ff565b5080546102279061049c565b5f825580601f10610236575050565b601f0160209004905f5260205f209081019061013391905b808211156101fb575f815560010161024e565b6001600160a01b0381168114610133575f80fd5b634e487b7160e01b5f52604160045260245ffd5b604051601f8201601f191681016001600160401b03811182821017156102b1576102b1610275565b604052919050565b5f6001600160401b038211156102d1576102d1610275565b5060051b60200190565b5f82601f8301126102ea575f80fd5b815160206102ff6102fa836102b9565b610289565b8083825260208201915060208460051b870101935086841115610320575f80fd5b602086015b8481101561034557805161033881610261565b8352918301918301610325565b509695505050505050565b5f805f8060808587031215610363575f80fd5b845161036e81610261565b602086810151919550906001600160401b038082111561038c575f80fd5b818801915088601f83011261039f575f80fd5b81516103ad6102fa826102b9565b81815260059190911b8301840190848101908b8311156103cb575f80fd5b8585015b83811015610450578051858111156103e5575f80fd5b8601603f81018e136103f5575f80fd5b878101518681111561040957610409610275565b61041b601f8201601f19168a01610289565b8181528f604083850101111561042f575f80fd5b81604084018b83015e5f9181018a01919091528452509186019186016103cf565b5060408b01519098509450505080831115610469575f80fd5b5050610477878288016102db565b606096909601519497939650505050565b634e487b7160e01b5f52603260045260245ffd5b600181811c908216806104b057607f821691505b6020821081036104ce57634e487b7160e01b5f52602260045260245ffd5b50919050565b601f82111561051b57805f5260205f20601f840160051c810160208510156104f95750805b601f840160051c820191505b81811015610518575f8155600101610505565b50505b505050565b81516001600160401b0381111561053957610539610275565b61054d81610547845461049c565b846104d4565b602080601f831160018114610580575f84156105695750858301515b5f19600386901b1c1916600185901b1785556105d7565b5f85815260208120601f198616915b828110156105ae5788860151825594840194600190910190840161058f565b50858210156105cb57878501515f19600388901b60f8161c191681555b505060018460011b0185555b505050505050565b6114d1806105ec5f395ff3fe608060405234801561000f575f80fd5b50600436106100c3575f3560e01c8063158ef93e146100c7578063225dc5b6146100e457806331cb6105146100f95780635cd2525e1461010c578063715018a6146101265780637df73e271461012e578063858259b61461015957806387c484fe1461016a5780638da5cb5b1461019c5780638e5ea8df146101a4578063b50f2fbc146101b7578063b6f8f15d146101cc578063e3d1666e146101df578063f2fde38b14610200578063fb63daa114610213575b5f80fd5b6100cf610226565b60405190151581526020015b60405180910390f35b6100f76100f2366004610ae8565b61024c565b005b6100f7610107366004610b13565b610271565b6001546001600160a01b03165b6040516100db9190610b4e565b6100f76102b3565b6100cf61013c366004610b62565b6001600160a01b03165f9081526002602052604090205460ff1690565b6003546040519081526020016100db565b61018f6040805142602082015260609101604051602081830303815290604052905090565b6040516100db9190610bb2565b6101196102d8565b6100f76101b2366004610d4b565b6102e6565b6101bf61031a565b6040516100db9190610d84565b6100f76101da366004610de6565b6103ee565b6101f26101ed366004610ee9565b610402565b6040516100db929190610fac565b6100f761020e366004610b62565b610651565b6100f7610221366004610b62565b61068e565b5f8054600160a01b900460ff168061024757505f546001600160a01b031615155b905090565b6102546106c9565b60038190556040515f8051602061147c833981519152905f90a150565b6102796106c9565b6001600160a01b0382165f90815260026020526040808220805460ff1916841515179055515f8051602061147c8339815191529190a15050565b6102bb6106c9565b5f805460ff60a01b1916600160a01b1781556102d690610710565b565b5f546001600160a01b031690565b6102ee6106c9565b8051610301906004906020840190610a32565b506040515f8051602061147c833981519152905f90a150565b60606004805480602002602001604051908101604052809291908181526020015f905b828210156103e5578382905f5260205f2001805461035a9061101a565b80601f01602080910402602001604051908101604052809291908181526020018280546103869061101a565b80156103d15780601f106103a8576101008083540402835291602001916103d1565b820191905f5260205f20905b8154815290600101906020018083116103b457829003601f168201915b50505050508152602001906001019061033d565b50505050905090565b6103fb858585858561075f565b5050505050565b60605f808580602001905181019061041a9190611052565b90505f84806020019051810190610431919061114b565b6020818101516040808401519051601960f81b938101939093525f6022840181905260c09290921b6001600160c01b0319166036840152603e830152919250605e016040516020818303038152906040528051906020012090505f61049982845f01516107fc565b6001600160a01b0381165f9081526002602052604090205490915060ff166104fa5760405162461bcd60e51b815260206004820152600f60248201526e2a393ab9ba32b21d1039b4b3b732b960891b60448201526064015b60405180910390fd5b5f8484602001516001600160401b03161161052c576020840151610527906001600160401b031686611213565b610545565b8484602001516001600160401b03166105459190611213565b905060035481111561058c5760405162461bcd60e51b815260206004820152601060248201526f151c9d5cdd19590e88195e1c1a5c995960821b60448201526064016104f1565b6040805160a0810182525f815285820151602082015260608087015182840152608080880151918301919091526001546001600160a01b03169082015290516324a8807560e21b815273__$011ed85421b307e5206de383929e31be73$__916392a201d4916105ff918d91600401611232565b5f60405180830381865af4158015610619573d5f803e3d5ffd5b505050506040513d5f823e601f3d908101601f191682016040526106409190810190611303565b965096505050505050935093915050565b6106596106c9565b6001600160a01b038116610682575f604051631e4fbdf760e01b81526004016104f19190610b4e565b61068b81610710565b50565b6106966106c9565b600180546001600160a01b0319166001600160a01b0383161790556040515f8051602061147c833981519152905f90a150565b5f54600160a01b900460ff16806106f05750336106e46102d8565b6001600160a01b031614155b156102d6573360405163118cdaa760e01b81526004016104f19190610b4e565b5f80546001600160a01b038381166001600160a01b0319831681178455604051919092169283917f8be0079c531659141344cd1fd0a4f28419497f9722a3daafe3b4186f6b6457e09190a35050565b61076885610826565b600180546001600160a01b0319166001600160a01b0386161790558251610796906004906020860190610a32565b505f5b82518110156107f257600160025f8584815181106107b9576107b961134b565b6020908102919091018101516001600160a01b031682528101919091526040015f20805460ff1916911515919091179055600101610799565b5060035550505050565b5f805f8061080a868661086f565b92509250925061081a82826108b8565b50909150505b92915050565b61082e610226565b1561084c576040516319e1744160e21b815260040160405180910390fd5b6001600160a01b038116610682575f805460ff60a01b1916600160a01b17905550565b5f805f83516041036108a6576020840151604085015160608601515f1a61089888828585610974565b9550955095505050506108b1565b505081515f91506002905b9250925092565b5f8260038111156108cb576108cb61135f565b036108d4575050565b60018260038111156108e8576108e861135f565b036109065760405163f645eedf60e01b815260040160405180910390fd5b600282600381111561091a5761091a61135f565b0361093b5760405163fce698f760e01b8152600481018290526024016104f1565b600382600381111561094f5761094f61135f565b03610970576040516335e2f38360e21b8152600481018290526024016104f1565b5050565b5f80806fa2a8918ca85bafe22016d0b997e4df60600160ff1b038411156109a357505f91506003905082610a28565b604080515f808252602082018084528a905260ff891692820192909252606081018790526080810186905260019060a0016020604051602081039080840390855afa1580156109f4573d5f803e3d5ffd5b5050604051601f1901519150506001600160a01b038116610a1f57505f925060019150829050610a28565b92505f91508190505b9450945094915050565b828054828255905f5260205f20908101928215610a76579160200282015b82811115610a765782518290610a6690826113bc565b5091602001919060010190610a50565b50610a82929150610a86565b5090565b80821115610a82575f610a998282610aa2565b50600101610a86565b508054610aae9061101a565b5f825580601f10610abd575050565b601f0160209004905f5260205f209081019061068b91905b80821115610a82575f8155600101610ad5565b5f60208284031215610af8575f80fd5b5035919050565b6001600160a01b038116811461068b575f80fd5b5f8060408385031215610b24575f80fd5b8235610b2f81610aff565b915060208301358015158114610b43575f80fd5b809150509250929050565b6001600160a01b0391909116815260200190565b5f60208284031215610b72575f80fd5b8135610b7d81610aff565b9392505050565b5f81518084528060208401602086015e5f602082860101526020601f19601f83011685010191505092915050565b602081525f610b7d6020830184610b84565b634e487b7160e01b5f52604160045260245ffd5b60405160a081016001600160401b0381118282101715610bfa57610bfa610bc4565b60405290565b604051601f8201601f191681016001600160401b0381118282101715610c2857610c28610bc4565b604052919050565b5f6001600160401b03821115610c4857610c48610bc4565b5060051b60200190565b5f6001600160401b03821115610c6a57610c6a610bc4565b50601f01601f191660200190565b5f610c8a610c8584610c52565b610c00565b9050828152838383011115610c9d575f80fd5b828260208301375f602084830101529392505050565b5f82601f830112610cc2575f80fd5b81356020610cd2610c8583610c30565b82815260059290921b84018101918181019086841115610cf0575f80fd5b8286015b84811015610d405780356001600160401b03811115610d11575f80fd5b8701603f81018913610d21575f80fd5b610d32898683013560408401610c78565b845250918301918301610cf4565b509695505050505050565b5f60208284031215610d5b575f80fd5b81356001600160401b03811115610d70575f80fd5b610d7c84828501610cb3565b949350505050565b5f60208083016020845280855180835260408601915060408160051b8701019250602087015f5b82811015610dd957603f19888603018452610dc7858351610b84565b94509285019290850190600101610dab565b5092979650505050505050565b5f805f805f60a08688031215610dfa575f80fd5b8535610e0581610aff565b9450602086810135610e1681610aff565b945060408701356001600160401b0380821115610e31575f80fd5b610e3d8a838b01610cb3565b95506060890135915080821115610e52575f80fd5b508701601f81018913610e63575f80fd5b8035610e71610c8582610c30565b81815260059190911b8201830190838101908b831115610e8f575f80fd5b928401925b82841015610eb6578335610ea781610aff565b82529284019290840190610e94565b989b979a509598608001359695505050505050565b5f82601f830112610eda575f80fd5b610b7d83833560208501610c78565b5f805f60608486031215610efb575f80fd5b83356001600160401b0380821115610f11575f80fd5b610f1d87838801610ecb565b94506020860135915080821115610f32575f80fd5b9085019060208288031215610f45575f80fd5b604051602081018181108382111715610f6057610f60610bc4565b604052823582811115610f71575f80fd5b610f7d89828601610ecb565b82525093506040860135915080821115610f95575f80fd5b50610fa286828701610ecb565b9150509250925092565b5f604082016040835280855180835260608501915060608160051b860101925060208088015f5b8381101561100157605f19888703018552610fef868351610b84565b95509382019390820190600101610fd3565b50505050508091505060ff831660208301529392505050565b600181811c9082168061102e57607f821691505b60208210810361104c57634e487b7160e01b5f52602260045260245ffd5b50919050565b5f60208284031215611062575f80fd5b5051919050565b5f82601f830112611078575f80fd5b8151611086610c8582610c52565b81815284602083860101111561109a575f80fd5b8160208501602083015e5f918101602001919091529392505050565b80516001600160401b03811681146110cc575f80fd5b919050565b5f82601f8301126110e0575f80fd5b815160206110f0610c8583610c30565b82815260059290921b8401810191818101908684111561110e575f80fd5b8286015b84811015610d405780516001600160401b0381111561112f575f80fd5b61113d8986838b0101611069565b845250918301918301611112565b5f6020828403121561115b575f80fd5b81516001600160401b0380821115611171575f80fd5b9083019060a08286031215611184575f80fd5b61118c610bd8565b82518281111561119a575f80fd5b6111a687828601611069565b8252506111b5602084016110b6565b6020820152604083015160408201526060830151828111156111d5575f80fd5b6111e1878286016110d1565b6060830152506080830151828111156111f8575f80fd5b61120487828601611069565b60808301525095945050505050565b8181038181111561082057634e487b7160e01b5f52601160045260245ffd5b604081525f8351602080604085015261124e6060850183610b84565b91508382038185015260a08201855183528186015182840152604086015160a0604085015281815180845260c08601915060c08160051b870101935084830192505f5b818110156112bf5760bf198786030183526112ad858551610b84565b94509285019291850191600101611291565b505050506060860151915082810360608401526112dc8183610b84565b91505060808501516112f960808401826001600160a01b03169052565b5095945050505050565b5f8060408385031215611314575f80fd5b82516001600160401b03811115611329575f80fd5b611335858286016110d1565b925050602083015160ff81168114610b43575f80fd5b634e487b7160e01b5f52603260045260245ffd5b634e487b7160e01b5f52602160045260245ffd5b601f8211156113b757805f5260205f20601f840160051c810160208510156113985750805b601f840160051c820191505b818110156103fb575f81556001016113a4565b505050565b81516001600160401b038111156113d5576113d5610bc4565b6113e9816113e3845461101a565b84611373565b602080601f83116001811461141c575f84156114055750858301515b5f19600386901b1c1916600185901b178555611473565b5f85815260208120601f198616915b8281101561144a5788860151825594840194600190910190840161142b565b508582101561146757878501515f19600388901b60f8161c191681555b505060018460011b0185555b50505050505056fe965b3677af7470fb2668642e66c94355372345a2059f614eaa78acd69ed3fe08a264697066735822122044c7bbe3ff0b01a2c7c2613cb089d00c11104149031d83826c3939b001d5889a64736f6c63430008190033","linkReferences":{"contracts/GatewayVM.sol":{"GatewayVM":[{"start":3011,"length":20}]}}},"methodIdentifiers":{"gatewayURLs()":"b50f2fbc","getExpSec()":"858259b6","getHooks()":"5cd2525e","getLatestContext()":"87c484fe","getStorageValues(bytes,(bytes),bytes)":"e3d1666e","init(address,address,string[],address[],uint256)":"b6f8f15d","initialized()":"158ef93e","isSigner(address)":"7df73e27","owner()":"8da5cb5b","renounceOwnership()":"715018a6","setExpSec(uint256)":"225dc5b6","setGatewayURLs(string[])":"8e5ea8df","setHooks(address)":"fb63daa1","setSigner(address,bool)":"31cb6105","transferOwnership(address)":"f2fde38b"},"id":42}