{"abi":[{"type":"function","name":"findOutputIndex","inputs":[{"name":"portal","type":"address","internalType":"contract IOptimismPortal"},{"name":"minAgeSec","type":"uint256","internalType":"uint256"}],"outputs":[{"name":"","type":"uint256","internalType":"uint256"}],"stateMutability":"view"},{"type":"function","name":"getOutput","inputs":[{"name":"portal","type":"address","internalType":"contract IOptimismPortal"},{"name":"outputIndex","type":"uint256","internalType":"uint256"}],"outputs":[{"name":"","type":"tuple","internalType":"struct OutputProposal","components":[{"name":"outputRoot","type":"bytes32","internalType":"bytes32"},{"name":"timestamp","type":"uint128","internalType":"uint128"},{"name":"l2BlockNumber","type":"uint128","internalType":"uint128"}]}],"stateMutability":"view"},{"type":"error","name":"OutputNotFound","inputs":[]}],"bytecode":{"object":"0x6080604052348015600e575f80fd5b506105ce8061001c5f395ff3fe608060405234801561000f575f80fd5b5060043610610034575f3560e01c8063b0b651eb14610038578063e86f594014610083575b5f80fd5b61004b610046366004610472565b6100a4565b60408051825181526020808401516001600160801b039081169183019190915292820151909216908201526060015b60405180910390f35b610096610091366004610472565b610213565b60405190815260200161007a565b604080516060810182525f80825260208201819052918101919091525f836001600160a01b0316639b5f694a6040518163ffffffff1660e01b8152600401602060405180830381865afa1580156100fd573d5f803e3d5ffd5b505050506040513d601f19601f82011682018060405250810190610121919061049c565b9050806001600160a01b0316636abcf5636040518163ffffffff1660e01b8152600401602060405180830381865afa15801561015f573d5f803e3d5ffd5b505050506040513d601f19601f8201168201806040525081019061018391906104be565b83106101a25760405163cf841fd760e01b815260040160405180910390fd5b60405163a25ae55760e01b8152600481018490526001600160a01b0382169063a25ae55790602401606060405180830381865afa1580156101e5573d5f803e3d5ffd5b505050506040513d601f19601f8201168201806040525081019061020991906104f0565b9150505b92915050565b5f80836001600160a01b0316639b5f694a6040518163ffffffff1660e01b8152600401602060405180830381865afa158015610251573d5f803e3d5ffd5b505050506040513d601f19601f82011682018060405250810190610275919061049c565b9050825f036102e157806001600160a01b031663ce5db8d66040518163ffffffff1660e01b8152600401602060405180830381865afa1580156102ba573d5f803e3d5ffd5b505050506040513d601f19601f820116820180604052508101906102de91906104be565b92505b428311156103025760405163cf841fd760e01b815260040160405180910390fd5b5f61030d8442610572565b90505f80836001600160a01b0316636abcf5636040518163ffffffff1660e01b8152600401602060405180830381865afa15801561034d573d5f803e3d5ffd5b505050506040513d601f19601f8201168201806040525081019061037191906104be565b90505b80821015610425575f60016103898385610585565b60405163a25ae55760e01b8152911c60048201819052915084906001600160a01b0387169063a25ae55790602401606060405180830381865afa1580156103d2573d5f803e3d5ffd5b505050506040513d601f19601f820116820180604052508101906103f691906104f0565b602001516001600160801b031611156104115780915061041f565b61041c816001610585565b92505b50610374565b815f036104455760405163cf841fd760e01b815260040160405180910390fd5b610450600183610572565b979650505050505050565b6001600160a01b038116811461046f575f80fd5b50565b5f8060408385031215610483575f80fd5b823561048e8161045b565b946020939093013593505050565b5f602082840312156104ac575f80fd5b81516104b78161045b565b9392505050565b5f602082840312156104ce575f80fd5b5051919050565b80516001600160801b03811681146104eb575f80fd5b919050565b5f60608284031215610500575f80fd5b604051606081016001600160401b038111828210171561052e57634e487b7160e01b5f52604160045260245ffd5b60405282518152610541602084016104d5565b6020820152610552604084016104d5565b60408201529392505050565b634e487b7160e01b5f52601160045260245ffd5b8181038181111561020d5761020d61055e565b8082018082111561020d5761020d61055e56fea26469706673582212209a4348b4432a17385ad5ce317e87ea5ade1a65c38263bb8d7b5510128fb12f6c64736f6c63430008190033","linkReferences":{}},"methodIdentifiers":{"findOutputIndex(address,uint256)":"e86f5940","getOutput(address,uint256)":"b0b651eb"},"id":30}