{"abi":[{"type":"function","name":"verifyAccountState","inputs":[{"name":"","type":"bytes32","internalType":"bytes32"},{"name":"","type":"address","internalType":"address"},{"name":"proof","type":"bytes","internalType":"bytes"}],"outputs":[{"name":"storageRoot","type":"bytes32","internalType":"bytes32"}],"stateMutability":"pure"},{"type":"function","name":"verifyStorageValue","inputs":[{"name":"","type":"bytes32","internalType":"bytes32"},{"name":"","type":"address","internalType":"address"},{"name":"","type":"uint256","internalType":"uint256"},{"name":"proof","type":"bytes","internalType":"bytes"}],"outputs":[{"name":"","type":"bytes32","internalType":"bytes32"}],"stateMutability":"pure"}],"bytecode":{"object":"0x6080604052348015600e575f80fd5b506102568061001c5f395ff3fe608060405234801561000f575f80fd5b5060043610610034575f3560e01c80631dcc176914610038578063dd0d907c1461005d575b5f80fd5b61004b61004636600461014c565b610070565b60405190815260200160405180910390f35b61004b61006b3660046101a8565b610083565b5f61007a826101fa565b95945050505050565b5f61008d826101fa565b949350505050565b80356001600160a01b03811681146100ab575f80fd5b919050565b634e487b7160e01b5f52604160045260245ffd5b5f82601f8301126100d3575f80fd5b81356001600160401b03808211156100ed576100ed6100b0565b604051601f8301601f19908116603f01168101908282118183101715610115576101156100b0565b8160405283815286602085880101111561012d575f80fd5b836020870160208301375f602085830101528094505050505092915050565b5f805f806080858703121561015f575f80fd5b8435935061016f60208601610095565b92506040850135915060608501356001600160401b03811115610190575f80fd5b61019c878288016100c4565b91505092959194509250565b5f805f606084860312156101ba575f80fd5b833592506101ca60208501610095565b915060408401356001600160401b038111156101e4575f80fd5b6101f0868287016100c4565b9150509250925092565b8051602080830151919081101561021a575f198160200360031b1b821691505b5091905056fea26469706673582212201a16d9f4ae6f2eee7d8f7e6ea78939d3f0aa5429c0505f378f461a8651ec80b264736f6c63430008190033","linkReferences":{}},"methodIdentifiers":{"verifyAccountState(bytes32,address,bytes)":"dd0d907c","verifyStorageValue(bytes32,address,uint256,bytes)":"1dcc1769"},"id":45}