{"abi":[{"type":"constructor","inputs":[{"name":"urls","type":"string[]","internalType":"string[]"},{"name":"window","type":"uint256","internalType":"uint256"},{"name":"hooks","type":"address","internalType":"contract IVerifierHooks"},{"name":"rollup","type":"address","internalType":"contract IRollup"},{"name":"ethHooks","type":"address","internalType":"contract IVerifierHooks"}],"stateMutability":"nonpayable"},{"type":"function","name":"gatewayURLs","inputs":[],"outputs":[{"name":"","type":"string[]","internalType":"string[]"}],"stateMutability":"view"},{"type":"function","name":"getHooks","inputs":[],"outputs":[{"name":"","type":"address","internalType":"contract IVerifierHooks"}],"stateMutability":"view"},{"type":"function","name":"getLatestContext","inputs":[],"outputs":[{"name":"","type":"bytes","internalType":"bytes"}],"stateMutability":"view"},{"type":"function","name":"getStorageValues","inputs":[{"name":"context","type":"bytes","internalType":"bytes"},{"name":"req","type":"tuple","internalType":"struct GatewayRequest","components":[{"name":"ops","type":"bytes","internalType":"bytes"}]},{"name":"proof","type":"bytes","internalType":"bytes"}],"outputs":[{"name":"","type":"bytes[]","internalType":"bytes[]"},{"name":"exitCode","type":"uint8","internalType":"uint8"}],"stateMutability":"view"},{"type":"function","name":"getWindow","inputs":[],"outputs":[{"name":"","type":"uint256","internalType":"uint256"}],"stateMutability":"view"},{"type":"function","name":"owner","inputs":[],"outputs":[{"name":"","type":"address","internalType":"address"}],"stateMutability":"view"},{"type":"function","name":"renounceOwnership","inputs":[],"outputs":[],"stateMutability":"nonpayable"},{"type":"function","name":"setGatewayURLs","inputs":[{"name":"urls","type":"string[]","internalType":"string[]"}],"outputs":[],"stateMutability":"nonpayable"},{"type":"function","name":"supportsInterface","inputs":[{"name":"interfaceId","type":"bytes4","internalType":"bytes4"}],"outputs":[{"name":"","type":"bool","internalType":"bool"}],"stateMutability":"view"},{"type":"function","name":"transferOwnership","inputs":[{"name":"newOwner","type":"address","internalType":"address"}],"outputs":[],"stateMutability":"nonpayable"},{"type":"event","name":"GatewayURLsChanged","inputs":[],"anonymous":false},{"type":"event","name":"OwnershipTransferred","inputs":[{"name":"previousOwner","type":"address","indexed":true,"internalType":"address"},{"name":"newOwner","type":"address","indexed":true,"internalType":"address"}],"anonymous":false},{"type":"error","name":"CommitTooNew","inputs":[{"name":"latest","type":"uint256","internalType":"uint256"},{"name":"got","type":"uint256","internalType":"uint256"}]},{"type":"error","name":"CommitTooOld","inputs":[{"name":"latest","type":"uint256","internalType":"uint256"},{"name":"got","type":"uint256","internalType":"uint256"},{"name":"window","type":"uint256","internalType":"uint256"}]},{"type":"error","name":"ContentLengthMismatch","inputs":[]},{"type":"error","name":"EmptyItem","inputs":[]},{"type":"error","name":"InvalidDataRemainder","inputs":[]},{"type":"error","name":"InvalidHeader","inputs":[]},{"type":"error","name":"OwnableInvalidOwner","inputs":[{"name":"owner","type":"address","internalType":"address"}]},{"type":"error","name":"OwnableUnauthorizedAccount","inputs":[{"name":"account","type":"address","internalType":"address"}]},{"type":"error","name":"UnexpectedList","inputs":[]},{"type":"error","name":"UnexpectedString","inputs":[]}],"bytecode":{"object":"0x610100604052348015610010575f80fd5b50604051611df2380380611df283398101604081905261002f91610209565b848484338061005757604051631e4fbdf760e01b81525f600482015260240160405180910390fd5b6100608161009d565b5082516100749060019060208601906100ec565b506080919091526001600160a01b0390811660a05292831660c052501660e0525061049f915050565b5f80546001600160a01b038381166001600160a01b0319831681178455604051919092169283917f8be0079c531659141344cd1fd0a4f28419497f9722a3daafe3b4186f6b6457e09190a35050565b828054828255905f5260205f20908101928215610130579160200282015b82811115610130578251829061012090826103e0565b509160200191906001019061010a565b5061013c929150610140565b5090565b8082111561013c575f610153828261015c565b50600101610140565b5080546101689061035c565b5f825580601f10610177575050565b601f0160209004905f5260205f20908101906101939190610196565b50565b5b8082111561013c575f8155600101610197565b634e487b7160e01b5f52604160045260245ffd5b604051601f8201601f191681016001600160401b03811182821017156101e6576101e66101aa565b604052919050565b80516001600160a01b0381168114610204575f80fd5b919050565b5f805f805f60a0868803121561021d575f80fd5b85516001600160401b0380821115610233575f80fd5b818801915088601f830112610246575f80fd5b815181811115610258576102586101aa565b61026760208260051b016101be565b8082825260208201915060208360051b86010192508b831115610288575f80fd5b602085015b83811015610318578051858111156102a3575f80fd5b8601603f81018e136102b3575f80fd5b6020810151868111156102c8576102c86101aa565b6102db601f8201601f19166020016101be565b8181528f60408385010111156102ef575f80fd5b8160408401602083015e5f6020838301015280865250505060208301925060208101905061028d565b50809950505050505060208601519350610334604087016101ee565b9250610342606087016101ee565b9150610350608087016101ee565b90509295509295909350565b600181811c9082168061037057607f821691505b60208210810361038e57634e487b7160e01b5f52602260045260245ffd5b50919050565b601f8211156103db57805f5260205f20601f840160051c810160208510156103b95750805b601f840160051c820191505b818110156103d8575f81556001016103c5565b50505b505050565b81516001600160401b038111156103f9576103f96101aa565b61040d81610407845461035c565b84610394565b602080601f831160018114610440575f84156104295750858301515b5f19600386901b1c1916600185901b178555610497565b5f85815260208120601f198616915b8281101561046e5788860151825594840194600190910190840161044f565b508582101561048b57878501515f19600388901b60f8161c191681555b505060018460011b0185555b505050505050565b60805160a05160c05160e0516118ff6104f35f395f8181610544015261061401525f81816102000152818161040b01528181610574015261064301525f818160e8015261070501525f60bd01526118ff5ff3fe608060405234801561000f575f80fd5b506004361061008c575f3560e01c806301ffc9a7146100905780631d80051d146100b85780635cd2525e146100e6578063715018a61461011557806387c484fe1461011f5780638da5cb5b146101345780638e5ea8df1461013c578063b50f2fbc1461014f578063e3d1666e14610164578063f2fde38b14610185575b5f80fd5b6100a361009e366004610f9b565b610198565b60405190151581526020015b60405180910390f35b6040517f000000000000000000000000000000000000000000000000000000000000000081526020016100af565b7f00000000000000000000000000000000000000000000000000000000000000005b6040516100af9190610fc2565b61011d6101e9565b005b6101276101fc565b6040516100af9190611004565b6101086102a4565b61011d61014a366004611105565b6102b2565b6101576102f9565b6040516100af91906111c1565b610177610172366004611241565b6103cd565b6040516100af929190611304565b61011d610193366004611372565b6107af565b5f6001600160e01b03198216633446b34b60e21b14806101c857506001600160e01b03198216634152574360e01b145b806101e357506301ffc9a760e01b6001600160e01b03198316145b92915050565b6101f16107ec565b6101fa5f61081e565b565b60607f00000000000000000000000000000000000000000000000000000000000000006001600160a01b03166335befa5d6040518163ffffffff1660e01b8152600401602060405180830381865afa15801561025a573d5f803e3d5ffd5b505050506040513d601f19601f8201168201806040525081019061027e9190611398565b60405160200161029091815260200190565b604051602081830303815290604052905090565b5f546001600160a01b031690565b6102ba6107ec565b80516102cd906001906020840190610ecd565b506040517fe621d803a0c96b9bbeea51d136777f6ea8a4ce0c4ac74f6645e18b4342e2fa07905f90a150565b60606001805480602002602001604051908101604052809291908181526020015f905b828210156103c4578382905f5260205f20018054610339906113af565b80601f0160208091040260200160405190810160405280929190818152602001828054610365906113af565b80156103b05780601f10610387576101008083540402835291602001916103b0565b820191905f5260205f20905b81548152906001019060200180831161039357829003601f168201915b50505050508152602001906001019061031c565b50505050905090565b60605f80858060200190518101906103e59190611398565b90505f848060200190518101906103fc91906114b9565b90505f815f01518303610490577f00000000000000000000000000000000000000000000000000000000000000006001600160a01b0316639588eca26040518163ffffffff1660e01b8152600401602060405180830381865afa158015610465573d5f803e3d5ffd5b505050506040513d601f19601f820116820180604052508101906104899190611398565b90506106d3565b5f61049e836020015161086d565b90505f6104c4826008815181106104b7576104b76115b6565b6020026020010151610880565b602080860151805191012090409150811461051c5760405162461bcd60e51b81526020600482015260136024820152720a6e8c2e4d6dccae87440c4d8dec6d6d0c2e6d606b1b60448201526064015b60405180910390fd5b61053f82600381518110610532576105326115b6565b6020026020010151610892565b92505f7f00000000000000000000000000000000000000000000000000000000000000006001600160a01b031663dd0d907c857f000000000000000000000000000000000000000000000000000000000000000088604001516040518463ffffffff1660e01b81526004016105b6939291906115ca565b602060405180830381865afa1580156105d1573d5f803e3d5ffd5b505050506040513d601f19601f820116820180604052508101906105f59190611398565b6060860151604051631dcc176960e01b81529192506001600160a01b037f00000000000000000000000000000000000000000000000000000000000000001691631dcc17699161068e9185917f0000000000000000000000000000000000000000000000000000000000000000917f71a8ef1b1265359d77973c3524afac225c0a0d829a0d4da5cac3b34532019fec91906004016115f3565b602060405180830381865afa1580156106a9573d5f803e3d5ffd5b505050506040513d601f19601f820116820180604052508101906106cd9190611398565b93505050505b6040805160a080820183525f825260208201849052608080860151838501529085015160608301526001600160a01b037f0000000000000000000000000000000000000000000000000000000000000000169082015290516324a8807560e21b815273__$011ed85421b307e5206de383929e31be73$__916392a201d49161075f918b91600401611629565b5f60405180830381865af4158015610779573d5f803e3d5ffd5b505050506040513d5f823e601f3d908101601f191682016040526107a091908101906116fa565b94509450505050935093915050565b6107b76107ec565b6001600160a01b0381166107e0575f604051631e4fbdf760e01b81526004016105139190610fc2565b6107e98161081e565b50565b336107f56102a4565b6001600160a01b0316146101fa573360405163118cdaa760e01b81526004016105139190610fc2565b5f80546001600160a01b038381166001600160a01b0319831681178455604051919092169283917f8be0079c531659141344cd1fd0a4f28419497f9722a3daafe3b4186f6b6457e09190a35050565b60606101e361087b836108d1565b610918565b5f6101e361088d83610a8b565b610b13565b5f8061089d83610a8b565b905080516020146108c1576040516366c9448560e01b815260040160405180910390fd5b6108ca8161174d565b9392505050565b6108d9610f21565b81515f036108fa57604051635ab458fb60e01b815260040160405180910390fd5b50604080518082019091528151815260209182019181019190915290565b60605f805f61092685610b5a565b91945092509050600181600181111561094157610941611770565b1461095f576040516325ce355f60e11b815260040160405180910390fd5b845161096b8385611798565b1461098957604051630b8aa6f760e31b815260040160405180910390fd5b604080516020808252610420820190925290816020015b6109a8610f21565b8152602001906001900390816109a05790505093505f835b8651811015610a7f575f80610a046040518060400160405280858c5f01516109e891906117ab565b8152602001858c602001516109fd9190611798565b9052610b5a565b509150915060405180604001604052808383610a209190611798565b8152602001848b60200151610a359190611798565b815250888581518110610a4a57610a4a6115b6565b6020908102919091010152610a60600185611798565b9350610a6c8183611798565b610a769084611798565b925050506109c0565b50845250919392505050565b60605f805f610a9985610b5a565b919450925090505f816001811115610ab357610ab3611770565b14610ad1576040516307fe6cb960e21b815260040160405180910390fd5b610adb8284611798565b855114610afb57604051630b8aa6f760e31b815260040160405180910390fd5b610b0a85602001518484610e3d565b95945050505050565b5f602082511115610b37576040516366c9448560e01b815260040160405180910390fd5b600382516020610b4791906117ab565b901b610b528361174d565b901c92915050565b5f805f835f01515f03610b8057604051635ab458fb60e01b815260040160405180910390fd5b602084015180515f1a607f8111610ba2575f60015f9450945094505050610e36565b60b78111610c37575f610bb66080836117ab565b905080875f015111610bdb576040516366c9448560e01b815260040160405180910390fd5b6001838101516001600160f81b0319169082148015610c075750600160ff1b6001600160f81b03198216105b15610c255760405163babb01dd60e01b815260040160405180910390fd5b506001955093505f9250610e36915050565b60bf8111610d15575f610c4b60b7836117ab565b905080875f015111610c70576040516366c9448560e01b815260040160405180910390fd5b60018301516001600160f81b0319165f819003610ca05760405163babb01dd60e01b815260040160405180910390fd5b600184015160088302610100031c60378111610ccf5760405163babb01dd60e01b815260040160405180910390fd5b610cd98184611798565b895111610cf9576040516366c9448560e01b815260040160405180910390fd5b610d04836001611798565b975095505f9450610e369350505050565b60f78111610d5f575f610d2960c0836117ab565b905080875f015111610d4e576040516366c9448560e01b815260040160405180910390fd5b600195509350849250610e36915050565b5f610d6b60f7836117ab565b905080875f015111610d90576040516366c9448560e01b815260040160405180910390fd5b60018301516001600160f81b0319165f819003610dc05760405163babb01dd60e01b815260040160405180910390fd5b600184015160088302610100031c60378111610def5760405163babb01dd60e01b815260040160405180910390fd5b610df98184611798565b895111610e19576040516366c9448560e01b815260040160405180910390fd5b610e24836001611798565b9750955060019450610e369350505050565b9193909250565b6060816001600160401b03811115610e5757610e57611016565b6040519080825280601f01601f191660200182016040528015610e81576020820181803683370190505b50905081156108ca575f610e958486611798565b9050602082015f5b84811015610eb5578281015182820152602001610e9d565b84811115610ec3575f858301525b5050509392505050565b828054828255905f5260205f20908101928215610f11579160200282015b82811115610f115782518290610f01908261180a565b5091602001919060010190610eeb565b50610f1d929150610f39565b5090565b60405180604001604052805f81526020015f81525090565b80821115610f1d575f610f4c8282610f55565b50600101610f39565b508054610f61906113af565b5f825580601f10610f70575050565b601f0160209004905f5260205f20908101906107e991905b80821115610f1d575f8155600101610f88565b5f60208284031215610fab575f80fd5b81356001600160e01b0319811681146108ca575f80fd5b6001600160a01b0391909116815260200190565b5f81518084528060208401602086015e5f602082860101526020601f19601f83011685010191505092915050565b602081525f6108ca6020830184610fd6565b634e487b7160e01b5f52604160045260245ffd5b60405160c081016001600160401b038111828210171561104c5761104c611016565b60405290565b604051601f8201601f191681016001600160401b038111828210171561107a5761107a611016565b604052919050565b5f6001600160401b0382111561109a5761109a611016565b5060051b60200190565b5f6001600160401b038211156110bc576110bc611016565b50601f01601f191660200190565b5f6110dc6110d7846110a4565b611052565b90508281528383830111156110ef575f80fd5b828260208301375f602084830101529392505050565b5f6020808385031215611116575f80fd5b82356001600160401b038082111561112c575f80fd5b818501915085601f83011261113f575f80fd5b813561114d6110d782611082565b81815260059190911b8301840190848101908883111561116b575f80fd5b8585015b838110156111b457803585811115611185575f80fd5b8601603f81018b13611195575f80fd5b6111a68b89830135604084016110ca565b84525091860191860161116f565b5098975050505050505050565b5f60208083016020845280855180835260408601915060408160051b8701019250602087015f5b8281101561121657603f19888603018452611204858351610fd6565b945092850192908501906001016111e8565b5092979650505050505050565b5f82601f830112611232575f80fd5b6108ca838335602085016110ca565b5f805f60608486031215611253575f80fd5b83356001600160401b0380821115611269575f80fd5b61127587838801611223565b9450602086013591508082111561128a575f80fd5b908501906020828803121561129d575f80fd5b6040516020810181811083821117156112b8576112b8611016565b6040528235828111156112c9575f80fd5b6112d589828601611223565b825250935060408601359150808211156112ed575f80fd5b506112fa86828701611223565b9150509250925092565b5f604082016040835280855180835260608501915060608160051b860101925060208088015f5b8381101561135957605f19888703018552611347868351610fd6565b9550938201939082019060010161132b565b50505050508091505060ff831660208301529392505050565b5f60208284031215611382575f80fd5b81356001600160a01b03811681146108ca575f80fd5b5f602082840312156113a8575f80fd5b5051919050565b600181811c908216806113c357607f821691505b6020821081036113e157634e487b7160e01b5f52602260045260245ffd5b50919050565b5f82601f8301126113f6575f80fd5b81516114046110d7826110a4565b818152846020838601011115611418575f80fd5b8160208501602083015e5f918101602001919091529392505050565b5f82601f830112611443575f80fd5b815160206114536110d783611082565b82815260059290921b84018101918181019086841115611471575f80fd5b8286015b848110156114ae5780516001600160401b03811115611492575f80fd5b6114a08986838b01016113e7565b845250918301918301611475565b509695505050505050565b5f602082840312156114c9575f80fd5b81516001600160401b03808211156114df575f80fd5b9083019060c082860312156114f2575f80fd5b6114fa61102a565b8251815260208301518281111561150f575f80fd5b61151b878286016113e7565b602083015250604083015182811115611532575f80fd5b61153e878286016113e7565b604083015250606083015182811115611555575f80fd5b611561878286016113e7565b606083015250608083015182811115611578575f80fd5b61158487828601611434565b60808301525060a08301518281111561159b575f80fd5b6115a7878286016113e7565b60a08301525095945050505050565b634e487b7160e01b5f52603260045260245ffd5b8381526001600160a01b03831660208201526060604082018190525f90610b0a90830184610fd6565b84815260018060a01b0384166020820152826040820152608060608201525f61161f6080830184610fd6565b9695505050505050565b604081525f835160208060408501526116456060850183610fd6565b91508382038185015260a08201855183528186015182840152604086015160a0604085015281815180845260c08601915060c08160051b870101935084830192505f5b818110156116b65760bf198786030183526116a4858551610fd6565b94509285019291850191600101611688565b505050506060860151915082810360608401526116d38183610fd6565b91505060808501516116f060808401826001600160a01b03169052565b5095945050505050565b5f806040838503121561170b575f80fd5b82516001600160401b03811115611720575f80fd5b61172c85828601611434565b925050602083015160ff81168114611742575f80fd5b809150509250929050565b805160208083015191908110156113e1575f1960209190910360031b1b16919050565b634e487b7160e01b5f52602160045260245ffd5b634e487b7160e01b5f52601160045260245ffd5b808201808211156101e3576101e3611784565b818103818111156101e3576101e3611784565b601f82111561180557805f5260205f20601f840160051c810160208510156117e35750805b601f840160051c820191505b81811015611802575f81556001016117ef565b50505b505050565b81516001600160401b0381111561182357611823611016565b6118378161183184546113af565b846117be565b602080601f83116001811461186a575f84156118535750858301515b5f19600386901b1c1916600185901b1785556118c1565b5f85815260208120601f198616915b8281101561189857888601518255948401946001909101908401611879565b50858210156118b557878501515f19600388901b60f8161c191681555b505060018460011b0185555b50505050505056fea2646970667358221220618f71c0568d10a145dc9f7ab105641ac1016adf3702c162c1d0e5e0dca1f42d64736f6c63430008190033","linkReferences":{"contracts/GatewayVM.sol":{"GatewayVM":[{"start":3114,"length":20}]}}},"methodIdentifiers":{"gatewayURLs()":"b50f2fbc","getHooks()":"5cd2525e","getLatestContext()":"87c484fe","getStorageValues(bytes,(bytes),bytes)":"e3d1666e","getWindow()":"1d80051d","owner()":"8da5cb5b","renounceOwnership()":"715018a6","setGatewayURLs(string[])":"8e5ea8df","supportsInterface(bytes4)":"01ffc9a7","transferOwnership(address)":"f2fde38b"},"id":37}