{"abi":[{"type":"constructor","inputs":[{"name":"urls","type":"string[]","internalType":"string[]"},{"name":"window","type":"uint256","internalType":"uint256"},{"name":"hooks","type":"address","internalType":"contract IVerifierHooks"},{"name":"rootChain","type":"address","internalType":"contract IRootChain"},{"name":"poster","type":"address","internalType":"address"}],"stateMutability":"nonpayable"},{"type":"function","name":"gatewayURLs","inputs":[],"outputs":[{"name":"","type":"string[]","internalType":"string[]"}],"stateMutability":"view"},{"type":"function","name":"getHooks","inputs":[],"outputs":[{"name":"","type":"address","internalType":"contract IVerifierHooks"}],"stateMutability":"view"},{"type":"function","name":"getLatestContext","inputs":[],"outputs":[{"name":"","type":"bytes","internalType":"bytes"}],"stateMutability":"view"},{"type":"function","name":"getPoster","inputs":[],"outputs":[{"name":"","type":"address","internalType":"address"}],"stateMutability":"view"},{"type":"function","name":"getStorageValues","inputs":[{"name":"context","type":"bytes","internalType":"bytes"},{"name":"req","type":"tuple","internalType":"struct GatewayRequest","components":[{"name":"ops","type":"bytes","internalType":"bytes"}]},{"name":"proof","type":"bytes","internalType":"bytes"}],"outputs":[{"name":"","type":"bytes[]","internalType":"bytes[]"},{"name":"exitCode","type":"uint8","internalType":"uint8"}],"stateMutability":"view"},{"type":"function","name":"getWindow","inputs":[],"outputs":[{"name":"","type":"uint256","internalType":"uint256"}],"stateMutability":"view"},{"type":"function","name":"owner","inputs":[],"outputs":[{"name":"","type":"address","internalType":"address"}],"stateMutability":"view"},{"type":"function","name":"renounceOwnership","inputs":[],"outputs":[],"stateMutability":"nonpayable"},{"type":"function","name":"setGatewayURLs","inputs":[{"name":"urls","type":"string[]","internalType":"string[]"}],"outputs":[],"stateMutability":"nonpayable"},{"type":"function","name":"supportsInterface","inputs":[{"name":"interfaceId","type":"bytes4","internalType":"bytes4"}],"outputs":[{"name":"","type":"bool","internalType":"bool"}],"stateMutability":"view"},{"type":"function","name":"transferOwnership","inputs":[{"name":"newOwner","type":"address","internalType":"address"}],"outputs":[],"stateMutability":"nonpayable"},{"type":"event","name":"GatewayURLsChanged","inputs":[],"anonymous":false},{"type":"event","name":"OwnershipTransferred","inputs":[{"name":"previousOwner","type":"address","indexed":true,"internalType":"address"},{"name":"newOwner","type":"address","indexed":true,"internalType":"address"}],"anonymous":false},{"type":"error","name":"CommitTooNew","inputs":[{"name":"latest","type":"uint256","internalType":"uint256"},{"name":"got","type":"uint256","internalType":"uint256"}]},{"type":"error","name":"CommitTooOld","inputs":[{"name":"latest","type":"uint256","internalType":"uint256"},{"name":"got","type":"uint256","internalType":"uint256"},{"name":"window","type":"uint256","internalType":"uint256"}]},{"type":"error","name":"ContentLengthMismatch","inputs":[]},{"type":"error","name":"EmptyItem","inputs":[]},{"type":"error","name":"InvalidDataRemainder","inputs":[]},{"type":"error","name":"InvalidHeader","inputs":[]},{"type":"error","name":"OwnableInvalidOwner","inputs":[{"name":"owner","type":"address","internalType":"address"}]},{"type":"error","name":"OwnableUnauthorizedAccount","inputs":[{"name":"account","type":"address","internalType":"address"}]},{"type":"error","name":"UnexpectedList","inputs":[]},{"type":"error","name":"UnexpectedString","inputs":[]}],"bytecode":{"object":"0x610100604052348015610010575f80fd5b5060405161257c38038061257c83398101604081905261002f91610209565b848484338061005757604051631e4fbdf760e01b81525f600482015260240160405180910390fd5b6100608161009d565b5082516100749060019060208601906100ec565b506080919091526001600160a01b0390811660a05292831660c052501660e0525061049f915050565b5f80546001600160a01b038381166001600160a01b0319831681178455604051919092169283917f8be0079c531659141344cd1fd0a4f28419497f9722a3daafe3b4186f6b6457e09190a35050565b828054828255905f5260205f20908101928215610130579160200282015b82811115610130578251829061012090826103e0565b509160200191906001019061010a565b5061013c929150610140565b5090565b8082111561013c575f610153828261015c565b50600101610140565b5080546101689061035c565b5f825580601f10610177575050565b601f0160209004905f5260205f20908101906101939190610196565b50565b5b8082111561013c575f8155600101610197565b634e487b7160e01b5f52604160045260245ffd5b604051601f8201601f191681016001600160401b03811182821017156101e6576101e66101aa565b604052919050565b80516001600160a01b0381168114610204575f80fd5b919050565b5f805f805f60a0868803121561021d575f80fd5b85516001600160401b0380821115610233575f80fd5b818801915088601f830112610246575f80fd5b815181811115610258576102586101aa565b61026760208260051b016101be565b8082825260208201915060208360051b86010192508b831115610288575f80fd5b602085015b83811015610318578051858111156102a3575f80fd5b8601603f81018e136102b3575f80fd5b6020810151868111156102c8576102c86101aa565b6102db601f8201601f19166020016101be565b8181528f60408385010111156102ef575f80fd5b8160408401602083015e5f6020838301015280865250505060208301925060208101905061028d565b50809950505050505060208601519350610334604087016101ee565b9250610342606087016101ee565b9150610350608087016101ee565b90509295509295909350565b600181811c9082168061037057607f821691505b60208210810361038e57634e487b7160e01b5f52602260045260245ffd5b50919050565b601f8211156103db57805f5260205f20601f840160051c810160208510156103b95750805b601f840160051c820191505b818110156103d8575f81556001016103c5565b50505b505050565b81516001600160401b038111156103f9576103f96101aa565b61040d81610407845461035c565b84610394565b602080601f831160018114610440575f84156104295750858301515b5f19600386901b1c1916600185901b178555610497565b5f85815260208120601f198616915b8281101561046e5788860151825594840194600190910190840161044f565b508582101561048b57878501515f19600388901b60f8161c191681555b505060018460011b0185555b505050505050565b60805160a05160c05160e0516120826104fa5f395f81816101220152610bb801525f818161023101528181610488015261056701525f818160f301526106e901525f818160c80152818161087101526108b901526120825ff3fe608060405234801561000f575f80fd5b5060043610610097575f3560e01c806301ffc9a71461009b5780631d80051d146100c35780635cd2525e146100f1578063683a6a8b14610120578063715018a61461014657806387c484fe146101505780638da5cb5b146101655780638e5ea8df1461016d578063b50f2fbc14610180578063e3d1666e14610195578063f2fde38b146101b6575b5f80fd5b6100ae6100a9366004611740565b6101c9565b60405190151581526020015b60405180910390f35b6040517f000000000000000000000000000000000000000000000000000000000000000081526020016100ba565b7f00000000000000000000000000000000000000000000000000000000000000005b6040516100ba9190611767565b7f0000000000000000000000000000000000000000000000000000000000000000610113565b61014e61021a565b005b61015861022d565b6040516100ba91906117a9565b6101136102d5565b61014e61017b3660046118aa565b6102e3565b61018861032a565b6040516100ba9190611966565b6101a86101a33660046119e6565b6103fe565b6040516100ba929190611aa9565b61014e6101c4366004611b2b565b610788565b5f6001600160e01b03198216633446b34b60e21b14806101f957506001600160e01b03198216634152574360e01b145b8061021457506301ffc9a760e01b6001600160e01b03198316145b92915050565b6102226107c5565b61022b5f6107f7565b565b60607f00000000000000000000000000000000000000000000000000000000000000006001600160a01b031663ec7e48556040518163ffffffff1660e01b8152600401602060405180830381865afa15801561028b573d5f803e3d5ffd5b505050506040513d601f19601f820116820180604052508101906102af9190611b46565b6040516020016102c191815260200190565b604051602081830303815290604052905090565b5f546001600160a01b031690565b6102eb6107c5565b80516102fe906001906020840190611672565b506040517fe621d803a0c96b9bbeea51d136777f6ea8a4ce0c4ac74f6645e18b4342e2fa07905f90a150565b60606001805480602002602001604051908101604052809291908181526020015f905b828210156103f5578382905f5260205f2001805461036a90611b5d565b80601f016020809104026020016040519081016040528092919081815260200182805461039690611b5d565b80156103e15780601f106103b8576101008083540402835291602001916103e1565b820191905f5260205f20905b8154815290600101906020018083116103c457829003601f168201915b50505050508152602001906001019061034d565b50505050905090565b60605f80858060200190518101906104169190611b46565b90505f8480602001905181019061042d9190611c67565b90505f61043c825f0151610846565b90505f610461825f8151811061045457610454611d37565b6020026020010151610859565b6040516320a9cea560e11b8152600481018290529091505f90819081906001600160a01b037f000000000000000000000000000000000000000000000000000000000000000016906341539d4a9060240160a060405180830381865afa1580156104cd573d5f803e3d5ffd5b505050506040513d601f19601f820116820180604052508101906104f19190611d4b565b50935050925092505f801b83036105485760405162461bcd60e51b8152602060048201526016602482015275141bdb1e59dbdb941bd4ce8818da1958dadc1bda5b9d60521b60448201526064015b60405180910390fd5b8387146105ea576040516320a9cea560e11b8152600481018890525f907f00000000000000000000000000000000000000000000000000000000000000006001600160a01b0316906341539d4a9060240160a060405180830381865afa1580156105b4573d5f803e3d5ffd5b505050506040513d601f19601f820116820180604052508101906105d89190611d4b565b5093505050506105e8818361086b565b505b5f6105f6868585610914565b90505f610618826106138960098151811061045457610454611d37565b610adf565b9050876020015180519060200120811461066c5760405162461bcd60e51b81526020600482015260156024820152740a0ded8f2cededca0dea67440c4d8dec6d690c2e6d605b1b604482015260640161053f565b6106798860200151610846565b96505f61069f8860038151811061069257610692611d37565b6020026020010151610c63565b905073__$011ed85421b307e5206de383929e31be73$__6392a201d48f6040518060a001604052805f81526020018581526020018d6040015181526020018d6060015181526020017f00000000000000000000000000000000000000000000000000000000000000006001600160a01b03168152506040518363ffffffff1660e01b8152600401610731929190611d94565b5f60405180830381865af415801561074b573d5f803e3d5ffd5b505050506040513d5f823e601f3d908101601f191682016040526107729190810190611e65565b9b509b5050505050505050505050935093915050565b6107906107c5565b6001600160a01b0381166107b9575f604051631e4fbdf760e01b815260040161053f9190611767565b6107c2816107f7565b50565b336107ce6102d5565b6001600160a01b03161461022b573360405163118cdaa760e01b815260040161053f9190611767565b5f80546001600160a01b038381166001600160a01b0319831681178455604051919092169283917f8be0079c531659141344cd1fd0a4f28419497f9722a3daafe3b4186f6b6457e09190a35050565b606061021461085483610ca2565b610ce9565b5f61021461086683610e5c565b610edb565b816108967f000000000000000000000000000000000000000000000000000000000000000083611ecc565b10156108e557604051632a54241d60e21b815260048101839052602481018290527f0000000000000000000000000000000000000000000000000000000000000000604482015260640161053f565b818111156109105760405163b356ade760e01b8152600481018390526024810182905260440161053f565b5050565b60605f61092d8560028151811061045457610454611d37565b5f1c90505f6109488660058151811061069257610692611d37565b90505f826109628860038151811061045457610454611d37565b6109788960048151811061069257610692611d37565b60408051602081019490945283019190915260608201526080810183905260a0016040516020818303038152906040528051906020012090505f6109e8826109d98a6001815181106109cc576109cc611d37565b6020026020010151610e5c565b6109e38988611edf565b610f22565b9050808714610a305760405162461bcd60e51b81526020600482015260146024820152730a0ded8f2cededca0dea67440e4dedee890c2e6d60631b604482015260640161053f565b610a46886006815181106109cc576109cc611d37565b9450610a8583610a6a610a658b6007815181106109cc576109cc611d37565b610846565b610a808b6008815181106109cc576109cc611d37565b610fb6565b8551602087012014610ad45760405162461bcd60e51b8152602060048201526018602482015277141bdb1e59dbdb941bdcce881c9958d95a5c1d1cd49bdbdd60421b604482015260640161053f565b505050509392505050565b5f825f81518110610af257610af2611d37565b016020015160f81c15610b0d5782515f190160019093019283525b5f610b1784610846565b9050610b3c81600381518110610b2f57610b2f611d37565b6020026020010151610ce9565b905082815111610b855760405162461bcd60e51b81526020600482015260146024820152730a0ded8f2cededca0dea67440d8dece92dcc8caf60631b604482015260640161053f565b610b9a818481518110610b2f57610b2f611d37565b90505f610bb2825f8151811061045457610454611d37565b5f1c90507f00000000000000000000000000000000000000000000000000000000000000006001600160a01b0316816001600160a01b031614610c2c5760405162461bcd60e51b81526020600482015260126024820152712837b63cb3b7b72837a99d103837b9ba32b960711b604482015260640161053f565b610c4282600181518110610b2f57610b2f611d37565b9150610c5a8260018151811061069257610692611d37565b95945050505050565b5f80610c6e83610e5c565b90508051602014610c92576040516366c9448560e01b815260040160405180910390fd5b610c9b81611ef2565b9392505050565b610caa6116c6565b81515f03610ccb57604051635ab458fb60e01b815260040160405180910390fd5b50604080518082019091528151815260209182019181019190915290565b60605f805f610cf7856111e2565b919450925090506001816001811115610d1257610d12611f15565b14610d30576040516325ce355f60e11b815260040160405180910390fd5b8451610d3c8385611ecc565b14610d5a57604051630b8aa6f760e31b815260040160405180910390fd5b604080516020808252610420820190925290816020015b610d796116c6565b815260200190600190039081610d715790505093505f835b8651811015610e50575f80610dd56040518060400160405280858c5f0151610db99190611edf565b8152602001858c60200151610dce9190611ecc565b90526111e2565b509150915060405180604001604052808383610df19190611ecc565b8152602001848b60200151610e069190611ecc565b815250888581518110610e1b57610e1b611d37565b6020908102919091010152610e31600185611ecc565b9350610e3d8183611ecc565b610e479084611ecc565b92505050610d91565b50845250919392505050565b60605f805f610e6a856111e2565b919450925090505f816001811115610e8457610e84611f15565b14610ea2576040516307fe6cb960e21b815260040160405180910390fd5b610eac8284611ecc565b855114610ecc57604051630b8aa6f760e31b815260040160405180910390fd5b610c5a856020015184846114c5565b5f602082511115610eff576040516366c9448560e01b815260040160405180910390fd5b600382516020610f0f9190611edf565b901b610f1a83611ef2565b901c92915050565b825f5b8351811015610fae576020818501810151910190600184165f03610f74576040805160208101859052908101829052606001604051602081830303815290604052805190602001209250610fa1565b60408051602081018390529081018490526060016040516020818303038152906040528051906020012092505b50600183901c9250610f25565b509392505050565b5f610fc082611553565b9150835f805b855181108015610fd7575084518211155b156111d857611005868281518110610ff157610ff1611d37565b602002602001015180516020909101512090565b83036111d8575f611021878381518110610b2f57610b2f611d37565b905080516011036110b357855183036110595761104a816010815181106109cc576109cc611d37565b805190602001209450506111d8565b5f86848151811061106c5761106c611d37565b016020015160f81c905060108111156110865750506111d8565b61109e828260ff168151811061069257610692611d37565b94506110ab600185611ecc565b9350506111c5565b80516002036111bf575f6110da6110d5835f815181106109cc576109cc611d37565b611553565b90505f5b81518110801561113657508181815181106110fb576110fb611d37565b01602001516001600160f81b031916886111158388611ecc565b8151811061112557611125611d37565b01602001516001600160f81b031916145b1561114d578061114581611f29565b9150506110de565b87516111598287611ecc565b0361118557611174836001815181106109cc576109cc611d37565b8051906020012096505050506111d8565b805f03611194575050506111d8565b61119e8186611ecc565b94506111b68360018151811061069257610692611d37565b955050506111c5565b506111d8565b50806111d081611f29565b915050610fc6565b5050509392505050565b5f805f835f01515f0361120857604051635ab458fb60e01b815260040160405180910390fd5b602084015180515f1a607f811161122a575f60015f94509450945050506114be565b60b781116112bf575f61123e608083611edf565b905080875f015111611263576040516366c9448560e01b815260040160405180910390fd5b6001838101516001600160f81b031916908214801561128f5750600160ff1b6001600160f81b03198216105b156112ad5760405163babb01dd60e01b815260040160405180910390fd5b506001955093505f92506114be915050565b60bf811161139d575f6112d360b783611edf565b905080875f0151116112f8576040516366c9448560e01b815260040160405180910390fd5b60018301516001600160f81b0319165f8190036113285760405163babb01dd60e01b815260040160405180910390fd5b600184015160088302610100031c603781116113575760405163babb01dd60e01b815260040160405180910390fd5b6113618184611ecc565b895111611381576040516366c9448560e01b815260040160405180910390fd5b61138c836001611ecc565b975095505f94506114be9350505050565b60f781116113e7575f6113b160c083611edf565b905080875f0151116113d6576040516366c9448560e01b815260040160405180910390fd5b6001955093508492506114be915050565b5f6113f360f783611edf565b905080875f015111611418576040516366c9448560e01b815260040160405180910390fd5b60018301516001600160f81b0319165f8190036114485760405163babb01dd60e01b815260040160405180910390fd5b600184015160088302610100031c603781116114775760405163babb01dd60e01b815260040160405180910390fd5b6114818184611ecc565b8951116114a1576040516366c9448560e01b815260040160405180910390fd5b6114ac836001611ecc565b97509550600194506114be9350505050565b9193909250565b6060816001600160401b038111156114df576114df6117bb565b6040519080825280601f01601f191660200182016040528015611509576020820181803683370190505b5090508115610c9b575f61151d8486611ecc565b9050602082015f5b8481101561153d578281015182820152602001611525565b848111156111d857505f90840152509392505050565b606081515f14611628575f611568835f61162d565b6001161561157757600161157a565b60025b60ff1690508060018451901b6115909190611edf565b6001600160401b038111156115a7576115a76117bb565b6040519080825280601f01601f1916602001820160405280156115d1576020820181803683370190505b5091505f5b8251811015611625576115f2846115ed8385611ecc565b61162d565b60f81b83828151811061160757611607611d37565b60200101906001600160f81b03191690815f1a9053506001016115d6565b50505b919050565b5f8083600184901c8151811061164557611645611d37565b016020015160f81c905060018316156116615780600f1661166a565b60048160ff16901c5b949350505050565b828054828255905f5260205f209081019282156116b6579160200282015b828111156116b657825182906116a69082611f8d565b5091602001919060010190611690565b506116c29291506116de565b5090565b60405180604001604052805f81526020015f81525090565b808211156116c2575f6116f182826116fa565b506001016116de565b50805461170690611b5d565b5f825580601f10611715575050565b601f0160209004905f5260205f20908101906107c291905b808211156116c2575f815560010161172d565b5f60208284031215611750575f80fd5b81356001600160e01b031981168114610c9b575f80fd5b6001600160a01b0391909116815260200190565b5f81518084528060208401602086015e5f602082860101526020601f19601f83011685010191505092915050565b602081525f610c9b602083018461177b565b634e487b7160e01b5f52604160045260245ffd5b604051608081016001600160401b03811182821017156117f1576117f16117bb565b60405290565b604051601f8201601f191681016001600160401b038111828210171561181f5761181f6117bb565b604052919050565b5f6001600160401b0382111561183f5761183f6117bb565b5060051b60200190565b5f6001600160401b03821115611861576118616117bb565b50601f01601f191660200190565b5f61188161187c84611849565b6117f7565b9050828152838383011115611894575f80fd5b828260208301375f602084830101529392505050565b5f60208083850312156118bb575f80fd5b82356001600160401b03808211156118d1575f80fd5b818501915085601f8301126118e4575f80fd5b81356118f261187c82611827565b81815260059190911b83018401908481019088831115611910575f80fd5b8585015b838110156119595780358581111561192a575f80fd5b8601603f81018b1361193a575f80fd5b61194b8b898301356040840161186f565b845250918601918601611914565b5098975050505050505050565b5f60208083016020845280855180835260408601915060408160051b8701019250602087015f5b828110156119bb57603f198886030184526119a985835161177b565b9450928501929085019060010161198d565b5092979650505050505050565b5f82601f8301126119d7575f80fd5b610c9b8383356020850161186f565b5f805f606084860312156119f8575f80fd5b83356001600160401b0380821115611a0e575f80fd5b611a1a878388016119c8565b94506020860135915080821115611a2f575f80fd5b9085019060208288031215611a42575f80fd5b604051602081018181108382111715611a5d57611a5d6117bb565b604052823582811115611a6e575f80fd5b611a7a898286016119c8565b82525093506040860135915080821115611a92575f80fd5b50611a9f868287016119c8565b9150509250925092565b5f604082016040835280855180835260608501915060608160051b860101925060208088015f5b83811015611afe57605f19888703018552611aec86835161177b565b95509382019390820190600101611ad0565b50505050508091505060ff831660208301529392505050565b6001600160a01b03811681146107c2575f80fd5b5f60208284031215611b3b575f80fd5b8135610c9b81611b17565b5f60208284031215611b56575f80fd5b5051919050565b600181811c90821680611b7157607f821691505b602082108103611b8f57634e487b7160e01b5f52602260045260245ffd5b50919050565b5f82601f830112611ba4575f80fd5b8151611bb261187c82611849565b818152846020838601011115611bc6575f80fd5b8160208501602083015e5f918101602001919091529392505050565b5f82601f830112611bf1575f80fd5b81516020611c0161187c83611827565b82815260059290921b84018101918181019086841115611c1f575f80fd5b8286015b84811015611c5c5780516001600160401b03811115611c40575f80fd5b611c4e8986838b0101611b95565b845250918301918301611c23565b509695505050505050565b5f60208284031215611c77575f80fd5b81516001600160401b0380821115611c8d575f80fd5b9083019060808286031215611ca0575f80fd5b611ca86117cf565b825182811115611cb6575f80fd5b611cc287828601611b95565b825250602083015182811115611cd6575f80fd5b611ce287828601611b95565b602083015250604083015182811115611cf9575f80fd5b611d0587828601611be2565b604083015250606083015182811115611d1c575f80fd5b611d2887828601611b95565b60608301525095945050505050565b634e487b7160e01b5f52603260045260245ffd5b5f805f805f60a08688031215611d5f575f80fd5b855194506020860151935060408601519250606086015191506080860151611d8681611b17565b809150509295509295909350565b604081525f83516020806040850152611db0606085018361177b565b91508382038185015260a08201855183528186015182840152604086015160a0604085015281815180845260c08601915060c08160051b870101935084830192505f5b81811015611e215760bf19878603018352611e0f85855161177b565b94509285019291850191600101611df3565b50505050606086015191508281036060840152611e3e818361177b565b9150506080850151611e5b60808401826001600160a01b03169052565b5095945050505050565b5f8060408385031215611e76575f80fd5b82516001600160401b03811115611e8b575f80fd5b611e9785828601611be2565b925050602083015160ff81168114611ead575f80fd5b809150509250929050565b634e487b7160e01b5f52601160045260245ffd5b8082018082111561021457610214611eb8565b8181038181111561021457610214611eb8565b80516020808301519190811015611b8f575f1960209190910360031b1b16919050565b634e487b7160e01b5f52602160045260245ffd5b5f60018201611f3a57611f3a611eb8565b5060010190565b601f821115611f8857805f5260205f20601f840160051c81016020851015611f665750805b601f840160051c820191505b81811015611f85575f8155600101611f72565b50505b505050565b81516001600160401b03811115611fa657611fa66117bb565b611fba81611fb48454611b5d565b84611f41565b602080601f831160018114611fed575f8415611fd65750858301515b5f19600386901b1c1916600185901b178555612044565b5f85815260208120601f198616915b8281101561201b57888601518255948401946001909101908401611ffc565b508582101561203857878501515f19600388901b60f8161c191681555b505060018460011b0185555b50505050505056fea2646970667358221220d66daf0c5a11edf5dc2dd4c72bbacbd1e3ee646091e8448a4004639a84beac5764736f6c63430008190033","linkReferences":{"contracts/GatewayVM.sol":{"GatewayVM":[{"start":2973,"length":20}]}}},"methodIdentifiers":{"gatewayURLs()":"b50f2fbc","getHooks()":"5cd2525e","getLatestContext()":"87c484fe","getPoster()":"683a6a8b","getStorageValues(bytes,(bytes),bytes)":"e3d1666e","getWindow()":"1d80051d","owner()":"8da5cb5b","renounceOwnership()":"715018a6","setGatewayURLs(string[])":"8e5ea8df","supportsInterface(bytes4)":"01ffc9a7","transferOwnership(address)":"f2fde38b"},"id":34}