{"abi":[{"type":"function","name":"latestIndex","inputs":[{"name":"rollup","type":"address","internalType":"address"},{"name":"minAgeBlocks","type":"uint256","internalType":"uint256"}],"outputs":[{"name":"index","type":"uint256","internalType":"uint256"}],"stateMutability":"view"},{"type":"function","name":"verifyRollup","inputs":[{"name":"rollup","type":"address","internalType":"address"},{"name":"minAgeBlocks","type":"uint256","internalType":"uint256"},{"name":"proof","type":"bytes","internalType":"bytes"}],"outputs":[{"name":"stateRoot","type":"bytes32","internalType":"bytes32"},{"name":"got","type":"uint256","internalType":"uint256"}],"stateMutability":"view"},{"type":"function","name":"verifyStateRoot","inputs":[{"name":"proof","type":"tuple","internalType":"struct BoLDVerifierLib.RollupProof","components":[{"name":"assertionHash","type":"bytes32","internalType":"bytes32"},{"name":"encodedAssertionChain","type":"bytes","internalType":"bytes"},{"name":"afterState","type":"tuple","internalType":"struct AssertionState","components":[{"name":"globalState","type":"tuple","internalType":"struct GlobalState","components":[{"name":"bytes32Vals","type":"bytes32[2]","internalType":"bytes32[2]"},{"name":"u64Vals","type":"uint64[2]","internalType":"uint64[2]"}]},{"name":"machineStatus","type":"MachineStatus","internalType":"enum MachineStatus"},{"name":"endHistoryRoot","type":"bytes32","internalType":"bytes32"}]},{"name":"rlpEncodedBlock","type":"bytes","internalType":"bytes"}]},{"name":"blockHash","type":"bytes32","internalType":"bytes32"}],"outputs":[{"name":"stateRoot","type":"bytes32","internalType":"bytes32"}],"stateMutability":"pure"},{"type":"error","name":"ContentLengthMismatch","inputs":[]},{"type":"error","name":"EmptyItem","inputs":[]},{"type":"error","name":"InvalidDataRemainder","inputs":[]},{"type":"error","name":"InvalidHeader","inputs":[]},{"type":"error","name":"UnexpectedList","inputs":[]},{"type":"error","name":"UnexpectedString","inputs":[]}],"bytecode":{"object":"0x611446610034600b8282823980515f1a607314602857634e487b7160e01b5f525f60045260245ffd5b305f52607381538281f3fe730000000000000000000000000000000000000000301460806040526004361061004a575f3560e01c80631213912c1461004e5780636d035dec14610074578063ad66af5a14610087575b5f80fd5b61006161005c366004610e5c565b6100af565b6040519081526020015b60405180910390f35b610061610082366004610fbf565b61013c565b61009a610095366004610fe7565b61023b565b6040805192835260208301919091520161006b565b5f81836060015180519060200120146101015760405162461bcd60e51b815260206004820152600f60248201526e084de98887440c4d8dec6d690c2e6d608b1b60448201526064015b60405180910390fd5b5f61010f846060015161036c565b90506101348160038151811061012757610127611039565b602002602001015161037f565b949350505050565b5f815f03610228575f836001600160a01b03166365f7f80d6040518163ffffffff1660e01b8152600401602060405180830381865afa158015610181573d5f803e3d5ffd5b505050506040513d601f19601f820116820180604052508101906101a5919061104d565b60405163220c0a2160e21b8152600481018290529091505f906001600160a01b0386169063883028849060240160c060405180830381865afa1580156101ed573d5f803e3d5ffd5b505050506040513d601f19601f82011682018060405250810190610211919061106f565b604001516001600160401b03169250610235915050565b6102328243611127565b90505b92915050565b5f805f8380602001905181019061025291906111d2565b90505f8061026b888460200151855f01518a5f146103be565b91509150808360400151604051602001610285919061134e565b60405160208183030381529060405280519060200120146102dc5760405162461bcd60e51b8152602060048201526011602482015270426f4c443a20616674657220737461746560781b60448201526064016100f8565b600183604001516020015160028111156102f8576102f861131a565b1461033a5760405162461bcd60e51b8152602060048201526012602482015271109bd3110e881b9bdd08199a5b9a5cda195960721b60448201526064016100f8565b604082810151908401515151516001600160401b03909116945061035f9084906100af565b9450505050935093915050565b606061023561037a836106de565b610725565b5f8061038a83610898565b905080516020146103ae576040516366c9448560e01b815260040160405180910390fd5b6103b7816113d7565b9392505050565b6040805160c0810182525f80825260208201819052918101829052606081018290526080810182905260a081019190915260405163220c0a2160e21b8152600481018490525f906001600160a01b0387169063883028849060240160c060405180830381865afa158015610434573d5f803e3d5ffd5b505050506040513d601f19601f82011682018060405250810190610458919061106f565b91506002826080015160028111156104725761047261131a565b146104ba5760405162461bcd60e51b8152602060048201526018602482015277109bd3110e881c185c995b9d081d5b999a5b985b1a5e995960421b60448201526064016100f8565b5f85511180156104cc57508451603f16155b61050a5760405162461bcd60e51b815260206004820152600f60248201526e2137a6221d103130b21031b430b4b760891b60448201526064016100f8565b5f5b85518110156106d4576020818701818101516040918201518251938401899052838301829052606084018190529094509201919060800160408051808303601f190181529082905280516020918201209086015163220c0a2160e21b8352600483018290529097506001600160401b031615906001600160a01b038a169063883028849060240160c060405180830381865afa1580156105ae573d5f803e3d5ffd5b505050506040513d601f19601f820116820180604052508101906105d2919061106f565b94506002856080015160028111156105ec576105ec61131a565b146106cd5785156106335760405162461bcd60e51b8152602060048201526011602482015270109bd3110e881d5b999a5b985b1a5e9959607a1b60448201526064016100f8565b806106735760405162461bcd60e51b815260206004820152601060248201526f109bd3110e8818da185b1b195b99d95960821b60448201526064016100f8565b60018560800151600281111561068b5761068b61131a565b146106cd5760405162461bcd60e51b81526020600482015260126024820152712137a6221d1037379030b9b9b2b93a34b7b760711b60448201526064016100f8565b505061050c565b5094509492505050565b6106e6610c93565b81515f0361070757604051635ab458fb60e01b815260040160405180910390fd5b50604080518082019091528151815260209182019181019190915290565b60605f805f61073385610920565b91945092509050600181600181111561074e5761074e61131a565b1461076c576040516325ce355f60e11b815260040160405180910390fd5b845161077883856113fd565b1461079657604051630b8aa6f760e31b815260040160405180910390fd5b604080516020808252610420820190925290816020015b6107b5610c93565b8152602001906001900390816107ad5790505093505f835b865181101561088c575f806108116040518060400160405280858c5f01516107f59190611127565b8152602001858c6020015161080a91906113fd565b9052610920565b50915091506040518060400160405280838361082d91906113fd565b8152602001848b6020015161084291906113fd565b81525088858151811061085757610857611039565b602090810291909101015261086d6001856113fd565b935061087981836113fd565b61088390846113fd565b925050506107cd565b50845250919392505050565b60605f805f6108a685610920565b919450925090505f8160018111156108c0576108c061131a565b146108de576040516307fe6cb960e21b815260040160405180910390fd5b6108e882846113fd565b85511461090857604051630b8aa6f760e31b815260040160405180910390fd5b61091785602001518484610c03565b95945050505050565b5f805f835f01515f0361094657604051635ab458fb60e01b815260040160405180910390fd5b602084015180515f1a607f8111610968575f60015f9450945094505050610bfc565b60b781116109fd575f61097c608083611127565b905080875f0151116109a1576040516366c9448560e01b815260040160405180910390fd5b6001838101516001600160f81b03191690821480156109cd5750600160ff1b6001600160f81b03198216105b156109eb5760405163babb01dd60e01b815260040160405180910390fd5b506001955093505f9250610bfc915050565b60bf8111610adb575f610a1160b783611127565b905080875f015111610a36576040516366c9448560e01b815260040160405180910390fd5b60018301516001600160f81b0319165f819003610a665760405163babb01dd60e01b815260040160405180910390fd5b600184015160088302610100031c60378111610a955760405163babb01dd60e01b815260040160405180910390fd5b610a9f81846113fd565b895111610abf576040516366c9448560e01b815260040160405180910390fd5b610aca8360016113fd565b975095505f9450610bfc9350505050565b60f78111610b25575f610aef60c083611127565b905080875f015111610b14576040516366c9448560e01b815260040160405180910390fd5b600195509350849250610bfc915050565b5f610b3160f783611127565b905080875f015111610b56576040516366c9448560e01b815260040160405180910390fd5b60018301516001600160f81b0319165f819003610b865760405163babb01dd60e01b815260040160405180910390fd5b600184015160088302610100031c60378111610bb55760405163babb01dd60e01b815260040160405180910390fd5b610bbf81846113fd565b895111610bdf576040516366c9448560e01b815260040160405180910390fd5b610bea8360016113fd565b9750955060019450610bfc9350505050565b9193909250565b6060816001600160401b03811115610c1d57610c1d610cab565b6040519080825280601f01601f191660200182016040528015610c47576020820181803683370190505b50905081156103b7575f610c5b84866113fd565b9050602082015f5b84811015610c7b578281015182820152602001610c63565b84811115610c89575f858301525b5050509392505050565b60405180604001604052805f81526020015f81525090565b634e487b7160e01b5f52604160045260245ffd5b604051608081016001600160401b0381118282101715610ce157610ce1610cab565b60405290565b604051606081016001600160401b0381118282101715610ce157610ce1610cab565b604080519081016001600160401b0381118282101715610ce157610ce1610cab565b604051601f8201601f191681016001600160401b0381118282101715610d5357610d53610cab565b604052919050565b5f6001600160401b03821115610d7357610d73610cab565b50601f01601f191660200190565b5f82601f830112610d90575f80fd5b8135610da3610d9e82610d5b565b610d2b565b818152846020838601011115610db7575f80fd5b816020850160208301375f918101602001919091529392505050565b6001600160401b0381168114610de7575f80fd5b50565b5f82601f830112610df9575f80fd5b610e01610d09565b806040840185811115610e12575f80fd5b845b81811015610e35578035610e2781610dd3565b845260209384019301610e14565b509095945050505050565b60038110610de7575f80fd5b8035610e5781610e40565b919050565b5f8060408385031215610e6d575f80fd5b82356001600160401b0380821115610e83575f80fd5b90840190818603610120811215610e98575f80fd5b610ea0610cbf565b8335815260208085013584811115610eb6575f80fd5b610ec28a828801610d81565b8284015250603f198301925060c0831215610edb575f80fd5b610ee3610ce7565b6080841215610ef0575f80fd5b610ef8610d09565b935089605f870112610f08575f80fd5b610f10610d09565b80608088018c811115610f21575f80fd5b604089015b81811015610f3d5780358452928501928501610f26565b50818752610f4b8d82610dea565b85880152505050838152610f6160c08701610e4c565b8282015260e0860135604082015280604084015250610100850135925083831115610f8a575f80fd5b610f9689848701610d81565b6060830152909896013596505050505050565b80356001600160a01b0381168114610e57575f80fd5b5f8060408385031215610fd0575f80fd5b610fd983610fa9565b946020939093013593505050565b5f805f60608486031215610ff9575f80fd5b61100284610fa9565b92506020840135915060408401356001600160401b03811115611023575f80fd5b61102f86828701610d81565b9150509250925092565b634e487b7160e01b5f52603260045260245ffd5b5f6020828403121561105d575f80fd5b5051919050565b8051610e5781610e40565b5f60c0828403121561107f575f80fd5b60405160c081016001600160401b03811182821017156110a1576110a1610cab565b60405282516110af81610dd3565b815260208301516110bf81610dd3565b602082015260408301516110d281610dd3565b6040820152606083015180151581146110e9575f80fd5b60608201526110fa60808401611064565b608082015260a083015160a08201528091505092915050565b634e487b7160e01b5f52601160045260245ffd5b8181038181111561023557610235611113565b5f82601f830112611149575f80fd5b8151611157610d9e82610d5b565b81815284602083860101111561116b575f80fd5b8160208501602083015e5f918101602001919091529392505050565b5f82601f830112611196575f80fd5b61119e610d09565b8060408401858111156111af575f80fd5b845b81811015610e355780516111c481610dd3565b8452602093840193016111b1565b5f60208083850312156111e3575f80fd5b82516001600160401b03808211156111f9575f80fd5b9084019081860361012081121561120e575f80fd5b611216610cbf565b83518152848401518381111561122a575f80fd5b6112368982870161113a565b8683015250603f198201915060c082121561124f575f80fd5b611257610ce7565b6080831215611264575f80fd5b61126c610d09565b925088605f86011261127c575f80fd5b611284610d09565b80608087018b811115611295575f80fd5b604088015b818110156112b1578051845292890192890161129a565b508186526112bf8c82611187565b898701525050508281526112d560c08601611064565b8682015260e08501516040820152806040830152506101008401519450828511156112fe575f80fd5b61130a8886860161113a565b6060820152979650505050505050565b634e487b7160e01b5f52602160045260245ffd5b6003811061134a57634e487b7160e01b5f52602160045260245ffd5b9052565b8151805160c083019190835f5b600281101561137a57825182526020928301929091019060010161135b565b50505060209081015190604084015f5b60028110156113b05783516001600160401b03168252928201929082019060010161138a565b5050505060208301516113c6608084018261132e565b50604083015160a083015292915050565b805160208083015191908110156113f7575f198160200360031b1b821691505b50919050565b808201808211156102355761023561111356fea2646970667358221220413105dcd47bd483ccdf6d90d9e8ff3a4a4622b1e55a73582e82f43a0a3e5db864736f6c63430008190033","linkReferences":{}},"methodIdentifiers":{"latestIndex(address,uint256)":"6d035dec","verifyRollup(address,uint256,bytes)":"ad66af5a","verifyStateRoot(BoLDVerifierLib.RollupProof,bytes32)":"1213912c"},"id":13}