{"abi":[{"type":"function","name":"fetchCallback","inputs":[{"name":"response","type":"bytes","internalType":"bytes"},{"name":"carry","type":"bytes","internalType":"bytes"}],"outputs":[],"stateMutability":"view"},{"type":"function","name":"relay","inputs":[{"name":"verifier","type":"address","internalType":"contract IGatewayVerifier"},{"name":"req","type":"tuple","internalType":"struct GatewayRequest","components":[{"name":"ops","type":"bytes","internalType":"bytes"}]},{"name":"urls","type":"string[]","internalType":"string[]"}],"outputs":[{"name":"","type":"bytes[]","internalType":"bytes[]"},{"name":"","type":"uint8","internalType":"uint8"}],"stateMutability":"view"},{"type":"function","name":"relayCallback","inputs":[{"name":"values","type":"bytes[]","internalType":"bytes[]"},{"name":"exitCode","type":"uint8","internalType":"uint8"},{"name":"","type":"bytes","internalType":"bytes"}],"outputs":[{"name":"","type":"bytes[]","internalType":"bytes[]"},{"name":"","type":"uint8","internalType":"uint8"}],"stateMutability":"pure"},{"type":"error","name":"OffchainLookup","inputs":[{"name":"from","type":"address","internalType":"address"},{"name":"urls","type":"string[]","internalType":"string[]"},{"name":"request","type":"bytes","internalType":"bytes"},{"name":"callback","type":"bytes4","internalType":"bytes4"},{"name":"carry","type":"bytes","internalType":"bytes"}]},{"type":"error","name":"TooManyProofs","inputs":[{"name":"max","type":"uint256","internalType":"uint256"}]}],"bytecode":{"object":"0x6080604052348015600e575f80fd5b50610dea8061001c5f395ff3fe608060405234801561000f575f80fd5b506004361061003f575f3560e01c80630cf1058014610043578063de0a48221461006d578063e31844fe14610083575b5f80fd5b610056610051366004610586565b610098565b6040516100649291906106fc565b60405180910390f35b61005661007b366004610780565b509192909150565b610096610091366004610860565b6100c5565b005b60605f6100bd858563de0a482260e01b60405180602001604052805f81525087610262565b935093915050565b601f831615610110575f84848080601f0160208091040260200160405190810160405280939291908181526020018383808284375f9201919091525050825192935050602083019050fd5b5f61011d828401846108c4565b8051602082015160408084015190516371e8b33760e11b81529394505f9384936001600160a01b03169263e3d1666e9261015d928c908c90600401610993565b5f60405180830381865afa158015610177573d5f803e3d5ffd5b505050506040513d5f823e601f3d908101601f1916820160405261019e9190810190610a4f565b915091505f80306001600160a01b03168560600151858588608001516040516024016101cc93929190610b0a565b60408051601f198184030181529181526020820180516001600160e01b03166001600160e01b031990941693909317909252905161020a9190610b41565b5f60405180830381855afa9150503d805f8114610242576040519150601f19603f3d011682016040523d82523d5f602084013e610247565b606091505b5091509150811561025a57805160208201f35b805160208201fd5b5f856001600160a01b03166387c484fe6040518163ffffffff1660e01b81526004015f60405180830381865afa15801561029e573d5f803e3d5ffd5b505050506040513d5f823e601f3d908101601f191682016040526102c59190810190610b57565b905081515f0361033457856001600160a01b031663b50f2fbc6040518163ffffffff1660e01b81526004015f60405180830381865afa15801561030a573d5f803e3d5ffd5b505050506040513d5f823e601f3d908101601f191682016040526103319190810190610b90565b91505b30828287604051602401610349929190610c4c565b60408051601f19818403018152918152602080830180516001600160e01b03166331c1980f60e01b179052815160a0810183526001600160a01b038c1681528082018790528083018b90526001600160e01b03198a16606082015260808101899052915163718c227f60e11b926103c292909101610c79565b60408051601f1981840301815290829052630556f18360e41b82526103ed9594939291600401610d09565b60405180910390fd5b80356001600160a01b038116811461040c575f80fd5b919050565b634e487b7160e01b5f52604160045260245ffd5b60405160a081016001600160401b038111828210171561044757610447610411565b60405290565b604051601f8201601f191681016001600160401b038111828210171561047557610475610411565b604052919050565b5f6001600160401b0382111561049557610495610411565b50601f01601f191660200190565b5f6104b56104b08461047d565b61044d565b90508281528383830111156104c8575f80fd5b828260208301375f602084830101529392505050565b5f82601f8301126104ed575f80fd5b6104fc838335602085016104a3565b9392505050565b5f60208284031215610513575f80fd5b604051602081016001600160401b03808211838310171561053657610536610411565b81604052829350843591508082111561054d575f80fd5b5061055a858286016104de565b8252505092915050565b5f6001600160401b0382111561057c5761057c610411565b5060051b60200190565b5f805f60608486031215610598575f80fd5b6105a1846103f6565b92506020848101356001600160401b03808211156105bd575f80fd5b6105c988838901610503565b9450604091506040870135818111156105e0575f80fd5b8701601f810189136105f0575f80fd5b80356105fe6104b082610564565b81815260059190911b8201850190858101908b83111561061c575f80fd5b8684015b8381101561066457803586811115610636575f80fd5b8501603f81018e13610646575f80fd5b6106568e8a8301358a84016104a3565b845250918701918701610620565b50809750505050505050509250925092565b5f81518084528060208401602086015e5f602082860101526020601f19601f83011685010191505092915050565b5f8282518085526020808601955060208260051b840101602086015f5b848110156106ef57601f198684030189526106dd838351610676565b988401989250908301906001016106c1565b5090979650505050505050565b604081525f61070e60408301856106a4565b905060ff831660208301529392505050565b60ff8116811461072e575f80fd5b50565b803561040c81610720565b5f8083601f84011261074c575f80fd5b5081356001600160401b03811115610762575f80fd5b602083019150836020828501011115610779575f80fd5b9250929050565b5f805f8060608587031215610793575f80fd5b84356001600160401b03808211156107a9575f80fd5b818701915087601f8301126107bc575f80fd5b813560206107cc6104b083610564565b82815260059290921b8401810191818101908b8411156107ea575f80fd5b8286015b8481101561082057803586811115610804575f80fd5b6108128e86838b01016104de565b8452509183019183016107ee565b5098506108309050898201610731565b965050506040870135915080821115610847575f80fd5b506108548782880161073c565b95989497509550505050565b5f805f8060408587031215610873575f80fd5b84356001600160401b0380821115610889575f80fd5b6108958883890161073c565b90965094506020870135915080821115610847575f80fd5b80356001600160e01b03198116811461040c575f80fd5b5f602082840312156108d4575f80fd5b81356001600160401b03808211156108ea575f80fd5b9083019060a082860312156108fd575f80fd5b610905610425565b61090e836103f6565b8152602083013582811115610921575f80fd5b61092d878286016104de565b602083015250604083013582811115610944575f80fd5b61095087828601610503565b604083015250610962606084016108ad565b6060820152608083013582811115610978575f80fd5b610984878286016104de565b60808301525095945050505050565b606081525f6109a56060830187610676565b60208382038185015286518183526109bf82840182610676565b92505083820360408501528482528486828401375f828601820152601f909401601f19160190920195945050505050565b5f6109fd6104b08461047d565b9050828152838383011115610a10575f80fd5b8282602083015e5f602084830101529392505050565b5f82601f830112610a35575f80fd5b6104fc838351602085016109f0565b805161040c81610720565b5f8060408385031215610a60575f80fd5b82516001600160401b0380821115610a76575f80fd5b818501915085601f830112610a89575f80fd5b81516020610a996104b083610564565b82815260059290921b84018101918181019089841115610ab7575f80fd5b8286015b84811015610aed57805186811115610ad1575f80fd5b610adf8c86838b0101610a26565b845250918301918301610abb565b509650610afd9050878201610a44565b9450505050509250929050565b606081525f610b1c60608301866106a4565b60ff851660208401528281036040840152610b378185610676565b9695505050505050565b5f82518060208501845e5f920191825250919050565b5f60208284031215610b67575f80fd5b81516001600160401b03811115610b7c575f80fd5b610b8884828501610a26565b949350505050565b5f6020808385031215610ba1575f80fd5b82516001600160401b0380821115610bb7575f80fd5b818501915085601f830112610bca575f80fd5b8151610bd86104b082610564565b81815260059190911b83018401908481019088831115610bf6575f80fd5b8585015b83811015610c3f57805185811115610c10575f80fd5b8601603f81018b13610c20575f80fd5b610c318b89830151604084016109f0565b845250918601918601610bfa565b5098975050505050505050565b604081525f610c5e6040830185610676565b8281036020840152835160208252610b376020830182610676565b602080825282516001600160a01b03168282015282015160a060408301525f90610ca660c0840182610676565b90506040840151601f19808584030160608601528151915060208352610ccf6020840183610676565b925063ffffffff60e01b606087015116608086015260808601519150808584030160a086015250610d008282610676565b95945050505050565b5f60a0820160018060a01b0388168352602060a0602085015281885180845260c08601915060c08160051b870101935060208a015f5b82811015610d6d5760bf19888703018452610d5b868351610676565b95509284019290840190600101610d3f565b50505050508281036040840152610d848187610676565b6001600160e01b03198616606085015290508281036080840152610da88185610676565b9897505050505050505056fea2646970667358221220cca7d76405692f9f3db65cefae804f1e27bb89c0596d5c23b9d51d017dd2769a64736f6c63430008190033","linkReferences":{}},"methodIdentifiers":{"fetchCallback(bytes,bytes)":"e31844fe","relay(address,(bytes),string[])":"0cf10580","relayCallback(bytes[],uint8,bytes)":"de0a4822"},"id":1}