{"abi":[{"type":"constructor","inputs":[{"name":"urls","type":"string[]","internalType":"string[]"},{"name":"window","type":"uint256","internalType":"uint256"},{"name":"hooks","type":"address","internalType":"contract IVerifierHooks"},{"name":"l1Block","type":"address","internalType":"contract IL1Block"}],"stateMutability":"nonpayable"},{"type":"function","name":"gatewayURLs","inputs":[],"outputs":[{"name":"","type":"string[]","internalType":"string[]"}],"stateMutability":"view"},{"type":"function","name":"getHooks","inputs":[],"outputs":[{"name":"","type":"address","internalType":"contract IVerifierHooks"}],"stateMutability":"view"},{"type":"function","name":"getLatestContext","inputs":[],"outputs":[{"name":"","type":"bytes","internalType":"bytes"}],"stateMutability":"view"},{"type":"function","name":"getStorageValues","inputs":[{"name":"context","type":"bytes","internalType":"bytes"},{"name":"req","type":"tuple","internalType":"struct GatewayRequest","components":[{"name":"ops","type":"bytes","internalType":"bytes"}]},{"name":"proof","type":"bytes","internalType":"bytes"}],"outputs":[{"name":"","type":"bytes[]","internalType":"bytes[]"},{"name":"exitCode","type":"uint8","internalType":"uint8"}],"stateMutability":"view"},{"type":"function","name":"getWindow","inputs":[],"outputs":[{"name":"","type":"uint256","internalType":"uint256"}],"stateMutability":"view"},{"type":"function","name":"owner","inputs":[],"outputs":[{"name":"","type":"address","internalType":"address"}],"stateMutability":"view"},{"type":"function","name":"renounceOwnership","inputs":[],"outputs":[],"stateMutability":"nonpayable"},{"type":"function","name":"setGatewayURLs","inputs":[{"name":"urls","type":"string[]","internalType":"string[]"}],"outputs":[],"stateMutability":"nonpayable"},{"type":"function","name":"transferOwnership","inputs":[{"name":"newOwner","type":"address","internalType":"address"}],"outputs":[],"stateMutability":"nonpayable"},{"type":"event","name":"GatewayURLsChanged","inputs":[],"anonymous":false},{"type":"event","name":"OwnershipTransferred","inputs":[{"name":"previousOwner","type":"address","indexed":true,"internalType":"address"},{"name":"newOwner","type":"address","indexed":true,"internalType":"address"}],"anonymous":false},{"type":"error","name":"CommitTooNew","inputs":[{"name":"latest","type":"uint256","internalType":"uint256"},{"name":"got","type":"uint256","internalType":"uint256"}]},{"type":"error","name":"CommitTooOld","inputs":[{"name":"latest","type":"uint256","internalType":"uint256"},{"name":"got","type":"uint256","internalType":"uint256"},{"name":"window","type":"uint256","internalType":"uint256"}]},{"type":"error","name":"ContentLengthMismatch","inputs":[]},{"type":"error","name":"EmptyItem","inputs":[]},{"type":"error","name":"InvalidDataRemainder","inputs":[]},{"type":"error","name":"InvalidHeader","inputs":[]},{"type":"error","name":"OwnableInvalidOwner","inputs":[{"name":"owner","type":"address","internalType":"address"}]},{"type":"error","name":"OwnableUnauthorizedAccount","inputs":[{"name":"account","type":"address","internalType":"address"}]},{"type":"error","name":"UnexpectedList","inputs":[]},{"type":"error","name":"UnexpectedString","inputs":[]}],"bytecode":{"object":"0x610100604052600260c052348015610015575f80fd5b50604051611e03380380611e038339810160408190526100349161020b565b838383338061005c57604051631e4fbdf760e01b81525f600482015260240160405180910390fd5b6100658161009f565b5082516100799060019060208601906100ee565b506080919091526001600160a01b0390811660a0529190911660e0525061048492505050565b5f80546001600160a01b038381166001600160a01b0319831681178455604051919092169283917f8be0079c531659141344cd1fd0a4f28419497f9722a3daafe3b4186f6b6457e09190a35050565b828054828255905f5260205f20908101928215610132579160200282015b82811115610132578251829061012290826103c5565b509160200191906001019061010c565b5061013e929150610142565b5090565b8082111561013e575f610155828261015e565b50600101610142565b50805461016a90610341565b5f825580601f10610179575050565b601f0160209004905f5260205f20908101906101959190610198565b50565b5b8082111561013e575f8155600101610199565b634e487b7160e01b5f52604160045260245ffd5b604051601f8201601f191681016001600160401b03811182821017156101e8576101e86101ac565b604052919050565b80516001600160a01b0381168114610206575f80fd5b919050565b5f805f806080858703121561021e575f80fd5b84516001600160401b0380821115610234575f80fd5b818701915087601f830112610247575f80fd5b815160208282111561025b5761025b6101ac565b8160051b61026a8282016101c0565b928352848101820192828101908c851115610283575f80fd5b83870192505b8483101561030c5782518681111561029f575f80fd5b8701603f81018e136102af575f80fd5b84810151878111156102c3576102c36101ac565b6102d5601f8201601f191687016101c0565b8181528f60408385010111156102e9575f80fd5b81604084018883015e5f9181018701919091528352509183019190830190610289565b809a5050505080890151965050505050610328604086016101f0565b9150610336606086016101f0565b905092959194509250565b600181811c9082168061035557607f821691505b60208210810361037357634e487b7160e01b5f52602260045260245ffd5b50919050565b601f8211156103c057805f5260205f20601f840160051c8101602085101561039e5750805b601f840160051c820191505b818110156103bd575f81556001016103aa565b50505b505050565b81516001600160401b038111156103de576103de6101ac565b6103f2816103ec8454610341565b84610379565b602080601f831160018114610425575f841561040e5750858301515b5f19600386901b1c1916600185901b17855561047c565b5f85815260208120601f198616915b8281101561045357888601518255948401946001909101908401610434565b508582101561047057878501515f19600388901b60f8161c191681555b505060018460011b0185555b505050505050565b60805160a05160c05160e05161191d6104e65f395f818161018101528181610447015261051601525f61053801525f818160ba01528181610417015281816104e7015261066d01525f8181608a015281816108480152610890015261191d5ff3fe608060405234801561000f575f80fd5b5060043610610081575f3560e01c80631d80051d146100855780635cd2525e146100b8578063715018a6146100e757806387c484fe146100f15780638da5cb5b146101065780638e5ea8df1461010e578063b50f2fbc14610121578063e3d1666e14610136578063f2fde38b14610157575b5f80fd5b6040517f000000000000000000000000000000000000000000000000000000000000000081526020015b60405180910390f35b7f00000000000000000000000000000000000000000000000000000000000000005b6040516100af9190610fc7565b6100ef61016a565b005b6100f961017d565b6040516100af9190611009565b6100da610225565b6100ef61011c36600461110a565b610233565b61012961027a565b6040516100af91906111c6565b610149610144366004611246565b61034e565b6040516100af929190611309565b6100ef610165366004611377565b610708565b610172610745565b61017b5f610777565b565b60607f00000000000000000000000000000000000000000000000000000000000000006001600160a01b0316638381f58a6040518163ffffffff1660e01b8152600401602060405180830381865afa1580156101db573d5f803e3d5ffd5b505050506040513d601f19601f820116820180604052508101906101ff919061139d565b60405160200161021191815260200190565b604051602081830303815290604052905090565b5f546001600160a01b031690565b61023b610745565b805161024e906001906020840190610ef9565b506040517fe621d803a0c96b9bbeea51d136777f6ea8a4ce0c4ac74f6645e18b4342e2fa07905f90a150565b60606001805480602002602001604051908101604052809291908181526020015f905b82821015610345578382905f5260205f200180546102ba906113b4565b80601f01602080910402602001604051908101604052809291908181526020018280546102e6906113b4565b80156103315780601f1061030857610100808354040283529160200191610331565b820191905f5260205f20905b81548152906001019060200180831161031457829003601f168201915b50505050508152602001906001019061029d565b50505050905090565b60605f8085806020019051810190610366919061139d565b90505f8480602001905181019061037d91906114be565b90505f61038d82602001516107c6565b90505f610399826107df565b40905082602001518051906020012081146103ee5760405162461bcd60e51b815260206004820152601060248201526f2932bb32b939b2a7a81d103430b9b41960811b60448201526064015b60405180910390fd5b5f61041283600381518110610405576104056115d4565b6020026020010151610803565b90505f7f00000000000000000000000000000000000000000000000000000000000000006001600160a01b031663dd0d907c837f000000000000000000000000000000000000000000000000000000000000000088604001516040518463ffffffff1660e01b8152600401610489939291906115e8565b602060405180830381865afa1580156104a4573d5f803e3d5ffd5b505050506040513d601f19601f820116820180604052508101906104c8919061139d565b6060860151604051631dcc176960e01b81529192506001600160a01b037f00000000000000000000000000000000000000000000000000000000000000001691631dcc1769916105619185917f0000000000000000000000000000000000000000000000000000000000000000917f00000000000000000000000000000000000000000000000000000000000000009190600401611611565b602060405180830381865afa15801561057c573d5f803e3d5ffd5b505050506040513d601f19601f820116820180604052508101906105a0919061139d565b9250845f01518051906020012083146105ee5760405162461bcd60e51b815260206004820152601060248201526f526576657273654f503a20686173683160801b60448201526064016103e5565b84516105f9906107c6565b935061060d86610608866107df565b610842565b61062384600381518110610405576104056115d4565b915073__$011ed85421b307e5206de383929e31be73$__6392a201d48b6040518060a001604052805f8152602001868152602001896080015181526020018960a0015181526020017f00000000000000000000000000000000000000000000000000000000000000006001600160a01b03168152506040518363ffffffff1660e01b81526004016106b5929190611647565b5f60405180830381865af41580156106cf573d5f803e3d5ffd5b505050506040513d5f823e601f3d908101601f191682016040526106f69190810190611718565b97509750505050505050935093915050565b610710610745565b6001600160a01b038116610739575f604051631e4fbdf760e01b81526004016103e59190610fc7565b61074281610777565b50565b3361074e610225565b6001600160a01b03161461017b573360405163118cdaa760e01b81526004016103e59190610fc7565b5f80546001600160a01b038381166001600160a01b0319831681178455604051919092169283917f8be0079c531659141344cd1fd0a4f28419497f9722a3daafe3b4186f6b6457e09190a35050565b60606107d96107d4836108eb565b610932565b92915050565b5f6107d9826008815181106107f6576107f66115d4565b6020026020010151610aa5565b5f8061080e83610ab7565b90508051602014610832576040516366c9448560e01b815260040160405180910390fd5b61083b8161176b565b9392505050565b8161086d7f0000000000000000000000000000000000000000000000000000000000000000836117a2565b10156108bc57604051632a54241d60e21b815260048101839052602481018290527f000000000000000000000000000000000000000000000000000000000000000060448201526064016103e5565b818111156108e75760405163b356ade760e01b815260048101839052602481018290526044016103e5565b5050565b6108f3610f4d565b81515f0361091457604051635ab458fb60e01b815260040160405180910390fd5b50604080518082019091528151815260209182019181019190915290565b60605f805f61094085610b3f565b91945092509050600181600181111561095b5761095b6117b5565b14610979576040516325ce355f60e11b815260040160405180910390fd5b845161098583856117a2565b146109a357604051630b8aa6f760e31b815260040160405180910390fd5b604080516020808252610420820190925290816020015b6109c2610f4d565b8152602001906001900390816109ba5790505093505f835b8651811015610a99575f80610a1e6040518060400160405280858c5f0151610a0291906117c9565b8152602001858c60200151610a1791906117a2565b9052610b3f565b509150915060405180604001604052808383610a3a91906117a2565b8152602001848b60200151610a4f91906117a2565b815250888581518110610a6457610a646115d4565b6020908102919091010152610a7a6001856117a2565b9350610a8681836117a2565b610a9090846117a2565b925050506109da565b50845250919392505050565b5f6107d9610ab283610ab7565b610e22565b60605f805f610ac585610b3f565b919450925090505f816001811115610adf57610adf6117b5565b14610afd576040516307fe6cb960e21b815260040160405180910390fd5b610b0782846117a2565b855114610b2757604051630b8aa6f760e31b815260040160405180910390fd5b610b3685602001518484610e69565b95945050505050565b5f805f835f01515f03610b6557604051635ab458fb60e01b815260040160405180910390fd5b602084015180515f1a607f8111610b87575f60015f9450945094505050610e1b565b60b78111610c1c575f610b9b6080836117c9565b905080875f015111610bc0576040516366c9448560e01b815260040160405180910390fd5b6001838101516001600160f81b0319169082148015610bec5750600160ff1b6001600160f81b03198216105b15610c0a5760405163babb01dd60e01b815260040160405180910390fd5b506001955093505f9250610e1b915050565b60bf8111610cfa575f610c3060b7836117c9565b905080875f015111610c55576040516366c9448560e01b815260040160405180910390fd5b60018301516001600160f81b0319165f819003610c855760405163babb01dd60e01b815260040160405180910390fd5b600184015160088302610100031c60378111610cb45760405163babb01dd60e01b815260040160405180910390fd5b610cbe81846117a2565b895111610cde576040516366c9448560e01b815260040160405180910390fd5b610ce98360016117a2565b975095505f9450610e1b9350505050565b60f78111610d44575f610d0e60c0836117c9565b905080875f015111610d33576040516366c9448560e01b815260040160405180910390fd5b600195509350849250610e1b915050565b5f610d5060f7836117c9565b905080875f015111610d75576040516366c9448560e01b815260040160405180910390fd5b60018301516001600160f81b0319165f819003610da55760405163babb01dd60e01b815260040160405180910390fd5b600184015160088302610100031c60378111610dd45760405163babb01dd60e01b815260040160405180910390fd5b610dde81846117a2565b895111610dfe576040516366c9448560e01b815260040160405180910390fd5b610e098360016117a2565b9750955060019450610e1b9350505050565b9193909250565b5f602082511115610e46576040516366c9448560e01b815260040160405180910390fd5b600382516020610e5691906117c9565b901b610e618361176b565b901c92915050565b6060816001600160401b03811115610e8357610e8361101b565b6040519080825280601f01601f191660200182016040528015610ead576020820181803683370190505b509050811561083b575f610ec184866117a2565b9050602082015f5b84811015610ee1578281015182820152602001610ec9565b84811115610eef575f858301525b5050509392505050565b828054828255905f5260205f20908101928215610f3d579160200282015b82811115610f3d5782518290610f2d9082611828565b5091602001919060010190610f17565b50610f49929150610f65565b5090565b60405180604001604052805f81526020015f81525090565b80821115610f49575f610f788282610f81565b50600101610f65565b508054610f8d906113b4565b5f825580601f10610f9c575050565b601f0160209004905f5260205f209081019061074291905b80821115610f49575f8155600101610fb4565b6001600160a01b0391909116815260200190565b5f81518084528060208401602086015e5f602082860101526020601f19601f83011685010191505092915050565b602081525f61083b6020830184610fdb565b634e487b7160e01b5f52604160045260245ffd5b60405160c081016001600160401b03811182821017156110515761105161101b565b60405290565b604051601f8201601f191681016001600160401b038111828210171561107f5761107f61101b565b604052919050565b5f6001600160401b0382111561109f5761109f61101b565b5060051b60200190565b5f6001600160401b038211156110c1576110c161101b565b50601f01601f191660200190565b5f6110e16110dc846110a9565b611057565b90508281528383830111156110f4575f80fd5b828260208301375f602084830101529392505050565b5f602080838503121561111b575f80fd5b82356001600160401b0380821115611131575f80fd5b818501915085601f830112611144575f80fd5b81356111526110dc82611087565b81815260059190911b83018401908481019088831115611170575f80fd5b8585015b838110156111b95780358581111561118a575f80fd5b8601603f81018b1361119a575f80fd5b6111ab8b89830135604084016110cf565b845250918601918601611174565b5098975050505050505050565b5f60208083016020845280855180835260408601915060408160051b8701019250602087015f5b8281101561121b57603f19888603018452611209858351610fdb565b945092850192908501906001016111ed565b5092979650505050505050565b5f82601f830112611237575f80fd5b61083b838335602085016110cf565b5f805f60608486031215611258575f80fd5b83356001600160401b038082111561126e575f80fd5b61127a87838801611228565b9450602086013591508082111561128f575f80fd5b90850190602082880312156112a2575f80fd5b6040516020810181811083821117156112bd576112bd61101b565b6040528235828111156112ce575f80fd5b6112da89828601611228565b825250935060408601359150808211156112f2575f80fd5b506112ff86828701611228565b9150509250925092565b5f604082016040835280855180835260608501915060608160051b860101925060208088015f5b8381101561135e57605f1988870301855261134c868351610fdb565b95509382019390820190600101611330565b50505050508091505060ff831660208301529392505050565b5f60208284031215611387575f80fd5b81356001600160a01b038116811461083b575f80fd5b5f602082840312156113ad575f80fd5b5051919050565b600181811c908216806113c857607f821691505b6020821081036113e657634e487b7160e01b5f52602260045260245ffd5b50919050565b5f82601f8301126113fb575f80fd5b81516114096110dc826110a9565b81815284602083860101111561141d575f80fd5b8160208501602083015e5f918101602001919091529392505050565b5f82601f830112611448575f80fd5b815160206114586110dc83611087565b82815260059290921b84018101918181019086841115611476575f80fd5b8286015b848110156114b35780516001600160401b03811115611497575f80fd5b6114a58986838b01016113ec565b84525091830191830161147a565b509695505050505050565b5f602082840312156114ce575f80fd5b81516001600160401b03808211156114e4575f80fd5b9083019060c082860312156114f7575f80fd5b6114ff61102f565b82518281111561150d575f80fd5b611519878286016113ec565b82525060208301518281111561152d575f80fd5b611539878286016113ec565b602083015250604083015182811115611550575f80fd5b61155c878286016113ec565b604083015250606083015182811115611573575f80fd5b61157f878286016113ec565b606083015250608083015182811115611596575f80fd5b6115a287828601611439565b60808301525060a0830151828111156115b9575f80fd5b6115c5878286016113ec565b60a08301525095945050505050565b634e487b7160e01b5f52603260045260245ffd5b8381526001600160a01b03831660208201526060604082018190525f90610b3690830184610fdb565b84815260018060a01b0384166020820152826040820152608060608201525f61163d6080830184610fdb565b9695505050505050565b604081525f835160208060408501526116636060850183610fdb565b91508382038185015260a08201855183528186015182840152604086015160a0604085015281815180845260c08601915060c08160051b870101935084830192505f5b818110156116d45760bf198786030183526116c2858551610fdb565b945092850192918501916001016116a6565b505050506060860151915082810360608401526116f18183610fdb565b915050608085015161170e60808401826001600160a01b03169052565b5095945050505050565b5f8060408385031215611729575f80fd5b82516001600160401b0381111561173e575f80fd5b61174a85828601611439565b925050602083015160ff81168114611760575f80fd5b809150509250929050565b805160208083015191908110156113e6575f1960209190910360031b1b16919050565b634e487b7160e01b5f52601160045260245ffd5b808201808211156107d9576107d961178e565b634e487b7160e01b5f52602160045260245ffd5b818103818111156107d9576107d961178e565b601f82111561182357805f5260205f20601f840160051c810160208510156118015750805b601f840160051c820191505b81811015611820575f815560010161180d565b50505b505050565b81516001600160401b038111156118415761184161101b565b6118558161184f84546113b4565b846117dc565b602080601f831160018114611888575f84156118715750858301515b5f19600386901b1c1916600185901b1785556118df565b5f85815260208120601f198616915b828110156118b657888601518255948401946001909101908401611897565b50858210156118d357878501515f19600388901b60f8161c191681555b505060018460011b0185555b50505050505056fea26469706673582212208876a80c6596b87e940856bd539166897ab0fea75f7eff2c2be68ea8f637e32764736f6c63430008190033","linkReferences":{"contracts/GatewayVM.sol":{"GatewayVM":[{"start":2829,"length":20}]}}},"methodIdentifiers":{"gatewayURLs()":"b50f2fbc","getHooks()":"5cd2525e","getLatestContext()":"87c484fe","getStorageValues(bytes,(bytes),bytes)":"e3d1666e","getWindow()":"1d80051d","owner()":"8da5cb5b","renounceOwnership()":"715018a6","setGatewayURLs(string[])":"8e5ea8df","transferOwnership(address)":"f2fde38b"},"id":29}