{"abi":[{"type":"function","name":"verifyAccountState","inputs":[{"name":"stateRoot","type":"bytes32","internalType":"bytes32"},{"name":"target","type":"address","internalType":"address"},{"name":"encodedProof","type":"bytes","internalType":"bytes"}],"outputs":[{"name":"","type":"bytes32","internalType":"bytes32"}],"stateMutability":"pure"},{"type":"function","name":"verifyStorageValue","inputs":[{"name":"storageRoot","type":"bytes32","internalType":"bytes32"},{"name":"","type":"address","internalType":"address"},{"name":"slot","type":"uint256","internalType":"uint256"},{"name":"encodedProof","type":"bytes","internalType":"bytes"}],"outputs":[{"name":"","type":"bytes32","internalType":"bytes32"}],"stateMutability":"pure"},{"type":"error","name":"InvalidProof","inputs":[]}],"bytecode":{"object":"0x6080604052348015600e575f80fd5b50610ddb8061001c5f395ff3fe608060405234801561000f575f80fd5b5060043610610034575f3560e01c80631dcc176914610038578063dd0d907c1461005d575b5f80fd5b61004b610046366004610940565b610070565b60405190815260200160405180910390f35b61004b61006b36600461099c565b6101cd565b5f805f838060200190518101906100879190610b31565b6040516333bbbd4160e21b81526004810188905291935091505f9073__$dd7ca4067d118f4d3c5422538f1e501020$__9063ceeef50490602401602060405180830381865af41580156100dc573d5f803e3d5ffd5b505050506040513d601f19601f820116820180604052508101906101009190610b90565b90508160400151515f036101ad575f836020015161011d90610ba7565b90506101a2898373__$dd7ca4067d118f4d3c5422538f1e501020$__63ceeef504856040518263ffffffff1660e01b815260040161015d91815260200190565b602060405180830381865af4158015610178573d5f803e3d5ffd5b505050506040513d601f19601f8201168201806040525081019061019c9190610b90565b876103f7565b93506101c592505050565b6101b988828585610567565b505f92506101c5915050565b949350505050565b5f805f838060200190518101906101e49190610b31565b604080516001600160a01b03891660208201529294509092505f9173__$dd7ca4067d118f4d3c5422538f1e501020$__9163b893e57991016040516020818303038152906040526040518263ffffffff1660e01b81526004016102479190610bfb565b602060405180830381865af4158015610262573d5f803e3d5ffd5b505050506040513d601f19601f820116820180604052508101906102869190610b90565b90508160400151515f036103d857610319878273__$dd7ca4067d118f4d3c5422538f1e501020$__638c628e4087602001516040518263ffffffff1660e01b81526004016102d49190610bfb565b602060405180830381865af41580156102ef573d5f803e3d5ffd5b505050506040513d601f19601f820116820180604052508101906103139190610b90565b866103f7565b60208301516040516360f0f00f60e01b81525f9173__$dd7ca4067d118f4d3c5422538f1e501020$__916360f0f00f9161035591600401610bfb565b60c060405180830381865af4158015610370573d5f803e3d5ffd5b505050506040513d601f19601f820116820180604052508101906103949190610c23565b90507fc5d2460186f7233c927e7db2dcc703c0e500b653ca82273b7bfad8045d85a4708160800151146103cb5780604001516103cd565b5f5b9450505050506103f0565b6103e487828585610567565b505f92506103f0915050565b9392505050565b6040808201518251915163662e10f560e11b815273__$dd7ca4067d118f4d3c5422538f1e501020$__9263cc5c21ea92610438929091908990600401610ca3565b602060405180830381865af4158015610453573d5f803e3d5ffd5b505050506040513d601f19601f820116820180604052508101906104779190610d0f565b610494576040516309bde33960e01b815260040160405180910390fd5b5f73__$dd7ca4067d118f4d3c5422538f1e501020$__635ea5a98f83604001516029815181106104c6576104c6610d2e565b60200260200101516040518263ffffffff1660e01b81526004016104ea9190610bfb565b608060405180830381865af4158015610505573d5f803e3d5ffd5b505050506040513d601f19601f820116820180604052508101906105299190610d42565b9050806040015184141580610542575080606001518314155b15610560576040516309bde33960e01b815260040160405180910390fd5b5050505050565b6040808301518351915163662e10f560e11b815273__$dd7ca4067d118f4d3c5422538f1e501020$__9263cc5c21ea926105a8929091908990600401610ca3565b602060405180830381865af41580156105c3573d5f803e3d5ffd5b505050506040513d601f19601f820116820180604052508101906105e79190610d0f565b610604576040516309bde33960e01b815260040160405180910390fd5b6040808201518251915163662e10f560e11b815273__$dd7ca4067d118f4d3c5422538f1e501020$__9263cc5c21ea92610645929091908990600401610ca3565b602060405180830381865af4158015610660573d5f803e3d5ffd5b505050506040513d601f19601f820116820180604052508101906106849190610d0f565b6106a1576040516309bde33960e01b815260040160405180910390fd5b5f73__$dd7ca4067d118f4d3c5422538f1e501020$__635ea5a98f84604001516029815181106106d3576106d3610d2e565b60200260200101516040518263ffffffff1660e01b81526004016106f79190610bfb565b608060405180830381865af4158015610712573d5f803e3d5ffd5b505050506040513d601f19601f820116820180604052508101906107369190610d42565b90505f73__$dd7ca4067d118f4d3c5422538f1e501020$__635ea5a98f846040015160298151811061076a5761076a610d2e565b60200260200101516040518263ffffffff1660e01b815260040161078e9190610bfb565b608060405180830381865af41580156107a9573d5f803e3d5ffd5b505050506040513d601f19601f820116820180604052508101906107cd9190610d42565b835160208401519192501415806107e657508351815114155b15610804576040516309bde33960e01b815260040160405180910390fd5b84826040015110158061081b575084816040015111155b15610839576040516309bde33960e01b815260040160405180910390fd5b505050505050565b80356001600160a01b0381168114610857575f80fd5b919050565b634e487b7160e01b5f52604160045260245ffd5b604051606081016001600160401b03811182821017156108925761089261085c565b60405290565b604051601f8201601f191681016001600160401b03811182821017156108c0576108c061085c565b604052919050565b5f6001600160401b038211156108e0576108e061085c565b50601f01601f191660200190565b5f82601f8301126108fd575f80fd5b813561091061090b826108c8565b610898565b818152846020838601011115610924575f80fd5b816020850160208301375f918101602001919091529392505050565b5f805f8060808587031215610953575f80fd5b8435935061096360208601610841565b92506040850135915060608501356001600160401b03811115610984575f80fd5b610990878288016108ee565b91505092959194509250565b5f805f606084860312156109ae575f80fd5b833592506109be60208501610841565b915060408401356001600160401b038111156109d8575f80fd5b6109e4868287016108ee565b9150509250925092565b5f82601f8301126109fd575f80fd5b8151610a0b61090b826108c8565b818152846020838601011115610a1f575f80fd5b8160208501602083015e5f918101602001919091529392505050565b5f60608284031215610a4b575f80fd5b610a53610870565b82518152602080840151919250906001600160401b0380821115610a75575f80fd5b610a81868387016109ee565b838501526040850151915080821115610a98575f80fd5b818501915085601f830112610aab575f80fd5b815181811115610abd57610abd61085c565b8060051b610acc858201610898565b9182528381018501918581019089841115610ae5575f80fd5b86860192505b83831015610b1f57825185811115610b01575f80fd5b610b0f8b89838a01016109ee565b8352509186019190860190610aeb565b60408801525094979650505050505050565b5f8060408385031215610b42575f80fd5b82516001600160401b0380821115610b58575f80fd5b610b6486838701610a3b565b93506020850151915080821115610b79575f80fd5b50610b8685828601610a3b565b9150509250929050565b5f60208284031215610ba0575f80fd5b5051919050565b80516020808301519190811015610bc7575f198160200360031b1b821691505b50919050565b5f81518084528060208401602086015e5f602082860101526020601f19601f83011685010191505092915050565b602081525f6103f06020830184610bcd565b80516001600160401b0381168114610857575f80fd5b5f60c08284031215610c33575f80fd5b60405160c081016001600160401b0381118282101715610c5557610c5561085c565b604052610c6183610c0d565b815260208301516020820152604083015160408201526060830151606082015260808301516080820152610c9760a08401610c0d565b60a08201529392505050565b5f606082016060835280865180835260808501915060808160051b860101925060208089015f5b83811015610cf857607f19888703018552610ce6868351610bcd565b95509382019390820190600101610cca565b505050505060208301949094525060400152919050565b5f60208284031215610d1f575f80fd5b815180151581146103f0575f80fd5b634e487b7160e01b5f52603260045260245ffd5b5f60808284031215610d52575f80fd5b604051608081016001600160401b0381118282101715610d7457610d7461085c565b806040525082518152602083015160208201526040830151604082015260608301516060820152809150509291505056fea2646970667358221220abc7fb551e7e1c1197a6b981140f2d6b883115f189d9ab16880dc836850d6d9464736f6c63430008190033","linkReferences":{"contracts/linea/SparseMerkleProof.sol":{"SparseMerkleProof":[{"start":192,"length":20},{"start":322,"length":20},{"start":541,"length":20},{"start":695,"length":20},{"start":843,"length":20},{"start":1065,"length":20},{"start":1203,"length":20},{"start":1433,"length":20},{"start":1590,"length":20},{"start":1728,"length":20},{"start":1879,"length":20}]}}},"methodIdentifiers":{"verifyAccountState(bytes32,address,bytes)":"dd0d907c","verifyStorageValue(bytes32,address,uint256,bytes)":"1dcc1769"},"id":21}