{"abi":[{"type":"function","name":"DEFAULT_EMPTY_KEY","inputs":[],"outputs":[{"name":"","type":"bytes","internalType":"bytes"}],"stateMutability":"view"},{"type":"function","name":"DEFAULT_OUTLEN","inputs":[],"outputs":[{"name":"","type":"uint256","internalType":"uint256"}],"stateMutability":"view"},{"type":"function","name":"toDigest","inputs":[{"name":"input","type":"bytes","internalType":"bytes"}],"outputs":[{"name":"","type":"bytes32","internalType":"bytes32"}],"stateMutability":"view"},{"type":"function","name":"toDigest","inputs":[{"name":"input1","type":"bytes","internalType":"bytes"},{"name":"input2","type":"bytes","internalType":"bytes"}],"outputs":[{"name":"","type":"bytes32","internalType":"bytes32"}],"stateMutability":"view"}],"bytecode":{"object":"0x611505610034600b8282823980515f1a607314602857634e487b7160e01b5f525f60045260245ffd5b305f52607381538281f3fe7300000000000000000000000000000000000000003014608060405260043610610055575f3560e01c80633c1513641461005957806340b9f4521461008457806389fdba9c146100a55780638e61cdc6146100b8575b5f80fd5b61006e60405180602001604052805f81525081565b60405161007b9190611308565b60405180910390f35b6100976100923660046113d9565b6100c0565b60405190815260200161007b565b6100976100b336600461140a565b610108565b610097602081565b5f6100c9611274565b6100d16112ac565b6100ed82602060405180602001604052805f815250848561015d565b6100f782856102af565b61010082610325565b949350505050565b5f610111611274565b6101196112ac565b61013582602060405180602001604052805f815250848561015d565b61013f82866102af565b61014982856102af565b61015282610325565b925050505b92915050565b83158061016a5750602084115b8061017e575061017b60048561147d565b15155b8061018a575060208351115b156101c45760405162461bcd60e51b815260206004820152600660248201526537baba3632b760d11b604482015260640160405180910390fd5b84515f908190528551602090810182905260408088018390526060808901939093528188018051636a09e6679052805163bb67ae85908401528051633c6ef372920191909152805163a54ff53a930192909252815163510e527f6080918201528251639b05688c60a0918201528351631f83d9ab60c0918201528451635be0cd1960e091820152975185518051630101000060089390931b63ffffff0016188b18919091189052865185518401805190911890529583015184519091018051909118905283518351909501805190951890945291909101519051909201805190921890915290910152565b8051606083015163ffffffff909116905f5b8281101561031757816040036102e957604085018051830190526102e5855f6103c7565b5f91505b5f6102f98285038460400361125d565b905080838751018284602089010160045f19fa5091820191016102c1565b506060909301929092525050565b606081015160408201805190910190525f6103418260016103c7565b5f5b600483608001518161035757610357611469565b048110156103c157806007036020026103b28460200151836008811061037f5761037f61149c565b60200201515f601882901b63ff00000016600883901b62ff000016600884901c61ff0016601885901c1717179050919050565b901b9190911790600101610343565b50919050565b6103cf6112ca565b61010081610100602086015160045f19fa50636a09e66761010082015263bb67ae85610120820152633c6ef37261014082015263a54ff53a61016082015263510e527f6101808201818152639b05688c6101a08401818152631f83d9ab6101c0860152635be0cd196101e086015260408701805163ffffffff9081169095188516909352915160201c83161890911690528115610477576101c0810180511963ffffffff1690525b825180516020909101517cff000000ff000000ff000000ff000000ff000000ff000000ff000000ff601883811c82167dff000000ff000000ff000000ff000000ff000000ff000000ff000000ff00600886811c8216929092177eff000000ff000000ff000000ff000000ff000000ff000000ff000000ff000087841b8116919091177fff000000ff000000ff000000ff000000ff000000ff000000ff000000ff00000097851b8816179686851c90951686841c909216919091179185901b161792901b16176105d8565b9182018051918301805190920190950163ffffffff9081168083529483018051909518601081811c91901b1781168086529390920180519093018216808452855118600c81901c60149190911b1782168086528151019095018116948590528251909418600881901c60189190911b178416918290528051909101831690819052815118600781901c60199190911b179091169052565b6105fe63ffffffff8360c01c1663ffffffff8460e01c1661018061010060805f89610541565b61062563ffffffff8360801c1663ffffffff8460a01c166101a061012060a0602089610541565b61064c63ffffffff8360401c1663ffffffff8460601c166101c061014060c0604089610541565b61067263ffffffff835f1c1663ffffffff8460201c166101e061016060e0606089610541565b61069863ffffffff8260c01c1663ffffffff8360e01c166101e061014060a05f89610541565b6106bf63ffffffff8260801c1663ffffffff8360a01c1661018061016060c0602089610541565b6106e663ffffffff8260401c1663ffffffff8360601c166101a061010060e0604089610541565b61070c63ffffffff825f1c1663ffffffff8360201c166101c06101206080606089610541565b61073263ffffffff8260a01c1663ffffffff8360201c1661018061010060805f89610541565b61075963ffffffff8260e01c1663ffffffff8460601c166101a061012060a0602089610541565b61077f63ffffffff825f1c1663ffffffff8360c01c166101c061014060c0604089610541565b6107a663ffffffff8360201c1663ffffffff8360401c166101e061016060e0606089610541565b6107cc63ffffffff8260601c1663ffffffff8460c01c166101e061014060a05f89610541565b6107f363ffffffff8360a01c1663ffffffff8460e01c1661018061016060c0602089610541565b61081963ffffffff835f1c1663ffffffff8360801c166101a061010060e0604089610541565b61084063ffffffff8360801c1663ffffffff8460401c166101c06101206080606089610541565b61086663ffffffff8260e01c1663ffffffff8360801c1661018061010060805f89610541565b61088d63ffffffff8360e01c1663ffffffff8360601c166101a061012060a0602089610541565b6108b463ffffffff8360a01c1663ffffffff8460401c166101c061014060c0604089610541565b6108da63ffffffff8260401c1663ffffffff835f1c166101e061016060e0606089610541565b61090063ffffffff8260201c1663ffffffff8360a01c166101e061014060a05f89610541565b61092763ffffffff8360201c1663ffffffff8460801c1661018061016060c0602089610541565b61094d63ffffffff8360c01c1663ffffffff845f1c166101a061010060e0604089610541565b61097463ffffffff8360601c1663ffffffff8360c01c166101c06101206080606089610541565b61099963ffffffff8260c01c1663ffffffff845f1c1661018061010060805f89610541565b6109c063ffffffff8360c01c1663ffffffff8460801c166101a061012060a0602089610541565b6109e763ffffffff8260601c1663ffffffff8360401c166101c061014060c0604089610541565b610a0e63ffffffff8260201c1663ffffffff8360801c166101e061016060e0606089610541565b610a3463ffffffff8360201c1663ffffffff8460a01c166101e061014060a05f89610541565b610a5b63ffffffff8260a01c1663ffffffff8460401c1661018061016060c0602089610541565b610a8263ffffffff8360e01c1663ffffffff8460601c166101a061010060e0604089610541565b610aa160e082901c63ffffffff83166101c06101206080606089610541565b610ac763ffffffff8360e01c1663ffffffff8360c01c1661018061010060805f89610541565b610aed63ffffffff835f1c1663ffffffff8460401c166101a061012060a0602089610541565b610b1463ffffffff8360601c1663ffffffff8460a01c166101c061014060c0604089610541565b610b3a63ffffffff825f1c1663ffffffff8360a01c166101e061016060e0606089610541565b610b6063ffffffff8360c01c1663ffffffff8360201c166101e061014060a05f89610541565b610b8763ffffffff8260601c1663ffffffff8360801c1661018061016060c0602089610541565b610bae63ffffffff8260e01c1663ffffffff8460201c166101a061010060e0604089610541565b610bd563ffffffff8260401c1663ffffffff8460801c166101c06101206080606089610541565b610bfb63ffffffff8260601c1663ffffffff8460a01c1661018061010060805f89610541565b610c2263ffffffff8260a01c1663ffffffff8460201c166101a061012060a0602089610541565b610c4963ffffffff8260801c1663ffffffff8460e01c166101c061014060c0604089610541565b610c7063ffffffff8360801c1663ffffffff8360e01c166101e061016060e0606089610541565b610c9663ffffffff8260401c1663ffffffff8460601c166101e061014060a05f89610541565b610cbc63ffffffff8360401c1663ffffffff845f1c1661018061016060c0602089610541565b610ce263ffffffff8260201c1663ffffffff835f1c166101a061010060e0604089610541565b610d0963ffffffff8260c01c1663ffffffff8460c01c166101c06101206080606089610541565b610d2f63ffffffff8360401c1663ffffffff8360601c1661018061010060805f89610541565b610d5563ffffffff825f1c1663ffffffff8460c01c166101a061012060a0602089610541565b610d7c63ffffffff8260401c1663ffffffff8360201c166101c061014060c0604089610541565b610da363ffffffff8260a01c1663ffffffff8460601c166101e061016060e0606089610541565b610dc163ffffffff831660e084901c6101e061014060a05f89610541565b610de863ffffffff8360801c1663ffffffff8460201c1661018061016060c0602089610541565b610e0f63ffffffff8360a01c1663ffffffff8360c01c166101a061010060e0604089610541565b610e3663ffffffff8260801c1663ffffffff8360e01c166101c06101206080606089610541565b610e5c63ffffffff8260801c1663ffffffff8360401c1661018061010060805f89610541565b610e8263ffffffff8260201c1663ffffffff845f1c166101a061012060a0602089610541565b610ea963ffffffff8360c01c1663ffffffff8360601c166101c061014060c0604089610541565b610ed063ffffffff8260c01c1663ffffffff8460801c166101e061016060e0606089610541565b610ef663ffffffff8360e01c1663ffffffff8460401c166101e061014060a05f89610541565b610f1c63ffffffff8360601c1663ffffffff835f1c1661018061016060c0602089610541565b610f4363ffffffff8360201c1663ffffffff8360e01c166101a061010060e0604089610541565b610f6a63ffffffff8260a01c1663ffffffff8460a01c166101c06101206080606089610541565b610f8f63ffffffff825f1c1663ffffffff8460201c1661018061010060805f89610541565b610fb663ffffffff8260c01c1663ffffffff8360201c166101a061012060a0602089610541565b610fdd63ffffffff8360801c1663ffffffff8360801c166101c061014060c0604089610541565b61100463ffffffff8260e01c1663ffffffff8460e01c166101e061016060e0606089610541565b61102a63ffffffff8360a01c1663ffffffff8360601c166101e061014060a05f89610541565b61105063ffffffff835f1c1663ffffffff8360401c1661018061016060c0602089610541565b61107763ffffffff8360601c1663ffffffff8460c01c166101a061010060e0604089610541565b61109e63ffffffff8360401c1663ffffffff8360a01c166101c06101206080606089610541565b6110c463ffffffff8360a01c1663ffffffff8360a01c1661018061010060805f89610541565b6110eb63ffffffff8360601c1663ffffffff8360e01c166101a061012060a0602089610541565b61111163ffffffff8360201c1663ffffffff845f1c166101c061014060c0604089610541565b61113863ffffffff8360401c1663ffffffff8460c01c166101e061016060e0606089610541565b61115d63ffffffff8260801c1663ffffffff835f1c166101e061014060a05f89610541565b61118463ffffffff8260201c1663ffffffff8360c01c1661018061016060c0602089610541565b6111ab63ffffffff8260601c1663ffffffff8460801c166101a061010060e0604089610541565b6111d263ffffffff8360e01c1663ffffffff8360401c166101c06101206080606089610541565b50505f5b600881101561125757816111eb8260086114b0565b601081106111fb576111fb61149c565b60200201518282601081106112125761121261149c565b60200201518560200151836008811061122d5761122d61149c565b602002015118188460200151826008811061124a5761124a61149c565b60200201526001016111d6565b50505050565b5f81831061126b578161126d565b825b9392505050565b6040518060a001604052806112876112ac565b81526020016112946112e9565b81526020015f81526020015f81526020015f81525090565b60405180604001604052806002906020820280368337509192915050565b6040518061020001604052806010906020820280368337509192915050565b6040518061010001604052806008906020820280368337509192915050565b602081525f82518060208401528060208501604085015e5f604082850101526040601f19601f83011684010191505092915050565b634e487b7160e01b5f52604160045260245ffd5b5f82601f830112611360575f80fd5b81356001600160401b038082111561137a5761137a61133d565b604051601f8301601f19908116603f011681019082821181831017156113a2576113a261133d565b816040528381528660208588010111156113ba575f80fd5b836020870160208301375f602085830101528094505050505092915050565b5f602082840312156113e9575f80fd5b81356001600160401b038111156113fe575f80fd5b61010084828501611351565b5f806040838503121561141b575f80fd5b82356001600160401b0380821115611431575f80fd5b61143d86838701611351565b93506020850135915080821115611452575f80fd5b5061145f85828601611351565b9150509250929050565b634e487b7160e01b5f52601260045260245ffd5b5f8261149757634e487b7160e01b5f52601260045260245ffd5b500690565b634e487b7160e01b5f52603260045260245ffd5b8082018082111561015757634e487b7160e01b5f52601160045260245ffdfea26469706673582212207e48cfb83b2216e4071661fd2386fdc3544bcd772bef9e55b8ef9b1a2059ae4d64736f6c63430008190033","linkReferences":{}},"methodIdentifiers":{"DEFAULT_EMPTY_KEY()":"3c151364","DEFAULT_OUTLEN()":"8e61cdc6","toDigest(bytes)":"40b9f452","toDigest(bytes,bytes)":"89fdba9c"},"id":46}