{"abi":[{"type":"constructor","inputs":[{"name":"urls","type":"string[]","internalType":"string[]"},{"name":"window","type":"uint256","internalType":"uint256"},{"name":"hooks","type":"address","internalType":"contract IVerifierHooks"},{"name":"_rollup","type":"address","internalType":"address"},{"name":"_minAgeBlocks","type":"uint256","internalType":"uint256"},{"name":"_isBoLD","type":"bool","internalType":"bool"}],"stateMutability":"nonpayable"},{"type":"function","name":"gatewayURLs","inputs":[],"outputs":[{"name":"","type":"string[]","internalType":"string[]"}],"stateMutability":"view"},{"type":"function","name":"getHooks","inputs":[],"outputs":[{"name":"","type":"address","internalType":"contract IVerifierHooks"}],"stateMutability":"view"},{"type":"function","name":"getLatestContext","inputs":[],"outputs":[{"name":"","type":"bytes","internalType":"bytes"}],"stateMutability":"view"},{"type":"function","name":"getStorageValues","inputs":[{"name":"context","type":"bytes","internalType":"bytes"},{"name":"req","type":"tuple","internalType":"struct GatewayRequest","components":[{"name":"ops","type":"bytes","internalType":"bytes"}]},{"name":"proof","type":"bytes","internalType":"bytes"}],"outputs":[{"name":"","type":"bytes[]","internalType":"bytes[]"},{"name":"exitCode","type":"uint8","internalType":"uint8"}],"stateMutability":"view"},{"type":"function","name":"getWindow","inputs":[],"outputs":[{"name":"","type":"uint256","internalType":"uint256"}],"stateMutability":"view"},{"type":"function","name":"isBoLD","inputs":[],"outputs":[{"name":"","type":"bool","internalType":"bool"}],"stateMutability":"view"},{"type":"function","name":"minAgeBlocks","inputs":[],"outputs":[{"name":"","type":"uint256","internalType":"uint256"}],"stateMutability":"view"},{"type":"function","name":"owner","inputs":[],"outputs":[{"name":"","type":"address","internalType":"address"}],"stateMutability":"view"},{"type":"function","name":"renounceOwnership","inputs":[],"outputs":[],"stateMutability":"nonpayable"},{"type":"function","name":"rollup","inputs":[],"outputs":[{"name":"","type":"address","internalType":"address"}],"stateMutability":"view"},{"type":"function","name":"setGatewayURLs","inputs":[{"name":"urls","type":"string[]","internalType":"string[]"}],"outputs":[],"stateMutability":"nonpayable"},{"type":"function","name":"transferOwnership","inputs":[{"name":"newOwner","type":"address","internalType":"address"}],"outputs":[],"stateMutability":"nonpayable"},{"type":"event","name":"GatewayURLsChanged","inputs":[],"anonymous":false},{"type":"event","name":"OwnershipTransferred","inputs":[{"name":"previousOwner","type":"address","indexed":true,"internalType":"address"},{"name":"newOwner","type":"address","indexed":true,"internalType":"address"}],"anonymous":false},{"type":"error","name":"CommitTooNew","inputs":[{"name":"latest","type":"uint256","internalType":"uint256"},{"name":"got","type":"uint256","internalType":"uint256"}]},{"type":"error","name":"CommitTooOld","inputs":[{"name":"latest","type":"uint256","internalType":"uint256"},{"name":"got","type":"uint256","internalType":"uint256"},{"name":"window","type":"uint256","internalType":"uint256"}]},{"type":"error","name":"OwnableInvalidOwner","inputs":[{"name":"owner","type":"address","internalType":"address"}]},{"type":"error","name":"OwnableUnauthorizedAccount","inputs":[{"name":"account","type":"address","internalType":"address"}]}],"bytecode":{"object":"0x610120604052348015610010575f80fd5b506040516118e23803806118e283398101604081905261002f91610221565b858585338061005757604051631e4fbdf760e01b81525f600482015260240160405180910390fd5b610060816100a6565b5082516100749060019060208601906100f5565b506080919091526001600160a01b0390811660a0529390931660c05260e091909152151561010052506104da92505050565b5f80546001600160a01b038381166001600160a01b0319831681178455604051919092169283917f8be0079c531659141344cd1fd0a4f28419497f9722a3daafe3b4186f6b6457e09190a35050565b828054828255905f5260205f20908101928215610139579160200282015b828111156101395782518290610129908261041b565b5091602001919060010190610113565b50610145929150610149565b5090565b80821115610145575f61015c8282610165565b50600101610149565b50805461017190610397565b5f825580601f10610180575050565b601f0160209004905f5260205f209081019061019c919061019f565b50565b5b80821115610145575f81556001016101a0565b634e487b7160e01b5f52604160045260245ffd5b604051601f8201601f191681016001600160401b03811182821017156101ef576101ef6101b3565b604052919050565b80516001600160a01b038116811461020d575f80fd5b919050565b8051801515811461020d575f80fd5b5f805f805f8060c08789031215610236575f80fd5b86516001600160401b0381111561024b575f80fd5b8701601f8101891361025b575f80fd5b80516001600160401b03811115610274576102746101b3565b61028360208260051b016101c7565b808282526020820191508b60208460051b86010111156102a1575f80fd5b602084015b60208460051b86010181101561034d5780516001600160401b038111156102cb575f80fd5b8d603f82880101126102db575f80fd5b858101602001516001600160401b038111156102f9576102f96101b3565b61030c601f8201601f19166020016101c7565b8181528f604083858b0101011115610322575f80fd5b816040848a0101602083015e5f602083830101528086525050506020830192506020810190506102a6565b508099505050505060208701519450610368604088016101f7565b9350610376606088016101f7565b92506080870151915061038b60a08801610212565b90509295509295509295565b600181811c908216806103ab57607f821691505b6020821081036103c957634e487b7160e01b5f52602260045260245ffd5b50919050565b601f82111561041657805f5260205f20601f840160051c810160208510156103f45750805b601f840160051c820191505b81811015610413575f8155600101610400565b50505b505050565b81516001600160401b03811115610434576104346101b3565b610448816104428454610397565b846103cf565b602080601f83116001811461047b575f84156104645750858301515b5f19600386901b1c1916600185901b1785556104d2565b5f85815260208120601f198616915b828110156104a95788860151825594840194600190910190840161048a565b50858210156104c657878501515f19600388901b60f8161c191681555b505060018460011b0185555b505050505050565b60805160a05160c05160e051610100516113726105705f395f81816101cd0152818161022901526106fd01525f818161015e0152818161029d0152818161036301528181610774015261083801525f81816101850152818161027b0152818161034101528181610752015261081601525f818160dd015261056d01525f818160a8015281816108ce015261091601526113725ff3fe608060405234801561000f575f80fd5b50600436106100a2575f3560e01c80631d80051d146100a65780635cd2525e146100db578063715018a61461010a57806387c484fe146101145780638da5cb5b146101295780638e5ea8df14610131578063b50f2fbc14610144578063b56aabe914610159578063cb23bcb514610180578063e3d1666e146101a7578063e84b525f146101c8578063f2fde38b146101ff575b5f80fd5b7f00000000000000000000000000000000000000000000000000000000000000005b6040519081526020015b60405180910390f35b7f00000000000000000000000000000000000000000000000000000000000000005b6040516100d29190610a27565b610112610212565b005b61011c610225565b6040516100d29190610a69565b6100fd6103f0565b61011261013f366004610b71565b6103fe565b61014c610445565b6040516100d29190610c2d565b6100c87f000000000000000000000000000000000000000000000000000000000000000081565b6100fd7f000000000000000000000000000000000000000000000000000000000000000081565b6101ba6101b5366004610cad565b610519565b6040516100d2929190610d70565b6101ef7f000000000000000000000000000000000000000000000000000000000000000081565b60405190151581526020016100d2565b61011261020d366004610dde565b61061b565b61021a610661565b6102235f610693565b565b60607f000000000000000000000000000000000000000000000000000000000000000061031257604051631b40d77b60e21b815273__$ec550694073df65076548fc5c1176e3255$__90636d035dec906102c5907f0000000000000000000000000000000000000000000000000000000000000000907f000000000000000000000000000000000000000000000000000000000000000090600401610e04565b602060405180830381865af41580156102e0573d5f803e3d5ffd5b505050506040513d601f19601f820116820180604052508101906103049190610e38565b6001600160401b03166103ca565b604051631b40d77b60e21b815273__$1d2df7ff0c1011216eeaf379be1cf65d5d$__90636d035dec9061038b907f0000000000000000000000000000000000000000000000000000000000000000907f000000000000000000000000000000000000000000000000000000000000000090600401610e04565b602060405180830381865af41580156103a6573d5f803e3d5ffd5b505050506040513d601f19601f820116820180604052508101906103ca9190610e51565b6040516020016103dc91815260200190565b604051602081830303815290604052905090565b5f546001600160a01b031690565b610406610661565b8051610419906001906020840190610971565b506040517fe621d803a0c96b9bbeea51d136777f6ea8a4ce0c4ac74f6645e18b4342e2fa07905f90a150565b60606001805480602002602001604051908101604052809291908181526020015f905b82821015610510578382905f5260205f2001805461048590610e68565b80601f01602080910402602001604051908101604052809291908181526020018280546104b190610e68565b80156104fc5780601f106104d3576101008083540402835291602001916104fc565b820191905f5260205f20905b8154815290600101906020018083116104df57829003601f168201915b505050505081526020019060010190610468565b50505050905090565b60605f80838060200190518101906105319190610f72565b90505f61053e82886106e2565b6040805160a0810182525f81526020808201849052850151818301528482015160608201526001600160a01b037f000000000000000000000000000000000000000000000000000000000000000016608082015290516324a8807560e21b815291925073__$011ed85421b307e5206de383929e31be73$__916392a201d4916105cc918a919060040161101f565b5f60405180830381865af41580156105e6573d5f803e3d5ffd5b505050506040513d5f823e601f3d908101601f1916820160405261060d91908101906110f0565b935093505050935093915050565b610623610661565b6001600160a01b038116610655575f604051631e4fbdf760e01b815260040161064c9190610a27565b60405180910390fd5b61065e81610693565b50565b3361066a6103f0565b6001600160a01b031614610223573360405163118cdaa760e01b815260040161064c9190610a27565b5f80546001600160a01b038381166001600160a01b0319831681178455604051919092169283917f8be0079c531659141344cd1fd0a4f28419497f9722a3daafe3b4186f6b6457e09190a35050565b5f80828060200190518101906106f89190610e51565b90505f7f0000000000000000000000000000000000000000000000000000000000000000156107e55784516040516356b357ad60e11b815273__$1d2df7ff0c1011216eeaf379be1cf65d5d$__9163ad66af5a9161079d917f0000000000000000000000000000000000000000000000000000000000000000917f00000000000000000000000000000000000000000000000000000000000000009190600401611143565b6040805180830381865af41580156107b7573d5f803e3d5ffd5b505050506040513d601f19601f820116820180604052508101906107db9190611172565b90935090506108b6565b8451604051630c31e23360e11b815273__$ec550694073df65076548fc5c1176e3255$__91631863c46691610863917f0000000000000000000000000000000000000000000000000000000000000000917f000000000000000000000000000000000000000000000000000000000000000091908890600401611194565b606060405180830381865af415801561087e573d5f803e3d5ffd5b505050506040513d601f19601f820116820180604052508101906108a291906111d3565b9194506001600160401b0390811693501690505b6108c082826108c8565b505092915050565b816108f37f00000000000000000000000000000000000000000000000000000000000000008361120c565b101561094257604051632a54241d60e21b815260048101839052602481018290527f0000000000000000000000000000000000000000000000000000000000000000604482015260640161064c565b8181111561096d5760405163b356ade760e01b8152600481018390526024810182905260440161064c565b5050565b828054828255905f5260205f209081019282156109b5579160200282015b828111156109b557825182906109a5908261127d565b509160200191906001019061098f565b506109c19291506109c5565b5090565b808211156109c1575f6109d882826109e1565b506001016109c5565b5080546109ed90610e68565b5f825580601f106109fc575050565b601f0160209004905f5260205f209081019061065e91905b808211156109c1575f8155600101610a14565b6001600160a01b0391909116815260200190565b5f81518084528060208401602086015e5f602082860101526020601f19601f83011685010191505092915050565b602081525f610a7b6020830184610a3b565b9392505050565b634e487b7160e01b5f52604160045260245ffd5b604051606081016001600160401b0381118282101715610ab857610ab8610a82565b60405290565b604051601f8201601f191681016001600160401b0381118282101715610ae657610ae6610a82565b604052919050565b5f6001600160401b03821115610b0657610b06610a82565b5060051b60200190565b5f6001600160401b03821115610b2857610b28610a82565b50601f01601f191660200190565b5f610b48610b4384610b10565b610abe565b9050828152838383011115610b5b575f80fd5b828260208301375f602084830101529392505050565b5f6020808385031215610b82575f80fd5b82356001600160401b0380821115610b98575f80fd5b818501915085601f830112610bab575f80fd5b8135610bb9610b4382610aee565b81815260059190911b83018401908481019088831115610bd7575f80fd5b8585015b83811015610c2057803585811115610bf1575f80fd5b8601603f81018b13610c01575f80fd5b610c128b8983013560408401610b36565b845250918601918601610bdb565b5098975050505050505050565b5f60208083016020845280855180835260408601915060408160051b8701019250602087015f5b82811015610c8257603f19888603018452610c70858351610a3b565b94509285019290850190600101610c54565b5092979650505050505050565b5f82601f830112610c9e575f80fd5b610a7b83833560208501610b36565b5f805f60608486031215610cbf575f80fd5b83356001600160401b0380821115610cd5575f80fd5b610ce187838801610c8f565b94506020860135915080821115610cf6575f80fd5b9085019060208288031215610d09575f80fd5b604051602081018181108382111715610d2457610d24610a82565b604052823582811115610d35575f80fd5b610d4189828601610c8f565b82525093506040860135915080821115610d59575f80fd5b50610d6686828701610c8f565b9150509250925092565b5f604082016040835280855180835260608501915060608160051b860101925060208088015f5b83811015610dc557605f19888703018552610db3868351610a3b565b95509382019390820190600101610d97565b50505050508091505060ff831660208301529392505050565b5f60208284031215610dee575f80fd5b81356001600160a01b0381168114610a7b575f80fd5b6001600160a01b03929092168252602082015260400190565b80516001600160401b0381168114610e33575f80fd5b919050565b5f60208284031215610e48575f80fd5b610a7b82610e1d565b5f60208284031215610e61575f80fd5b5051919050565b600181811c90821680610e7c57607f821691505b602082108103610e9a57634e487b7160e01b5f52602260045260245ffd5b50919050565b5f82601f830112610eaf575f80fd5b8151610ebd610b4382610b10565b818152846020838601011115610ed1575f80fd5b8160208501602083015e5f918101602001919091529392505050565b5f82601f830112610efc575f80fd5b81516020610f0c610b4383610aee565b82815260059290921b84018101918181019086841115610f2a575f80fd5b8286015b84811015610f675780516001600160401b03811115610f4b575f80fd5b610f598986838b0101610ea0565b845250918301918301610f2e565b509695505050505050565b5f60208284031215610f82575f80fd5b81516001600160401b0380821115610f98575f80fd5b9083019060608286031215610fab575f80fd5b610fb3610a96565b825182811115610fc1575f80fd5b610fcd87828601610ea0565b825250602083015182811115610fe1575f80fd5b610fed87828601610eed565b602083015250604083015182811115611004575f80fd5b61101087828601610ea0565b60408301525095945050505050565b604081525f8351602080604085015261103b6060850183610a3b565b91508382038185015260a08201855183528186015182840152604086015160a0604085015281815180845260c08601915060c08160051b870101935084830192505f5b818110156110ac5760bf1987860301835261109a858551610a3b565b9450928501929185019160010161107e565b505050506060860151915082810360608401526110c98183610a3b565b91505060808501516110e660808401826001600160a01b03169052565b5095945050505050565b5f8060408385031215611101575f80fd5b82516001600160401b03811115611116575f80fd5b61112285828601610eed565b925050602083015160ff81168114611138575f80fd5b809150509250929050565b60018060a01b0384168152826020820152606060408201525f6111696060830184610a3b565b95945050505050565b5f8060408385031215611183575f80fd5b505080516020909101519092909150565b60018060a01b0385168152836020820152608060408201525f6111ba6080830185610a3b565b905060018060401b038316606083015295945050505050565b5f805f606084860312156111e5575f80fd5b835192506111f560208501610e1d565b915061120360408501610e1d565b90509250925092565b8082018082111561122b57634e487b7160e01b5f52601160045260245ffd5b92915050565b601f82111561127857805f5260205f20601f840160051c810160208510156112565750805b601f840160051c820191505b81811015611275575f8155600101611262565b50505b505050565b81516001600160401b0381111561129657611296610a82565b6112aa816112a48454610e68565b84611231565b602080601f8311600181146112dd575f84156112c65750858301515b5f19600386901b1c1916600185901b178555611334565b5f85815260208120601f198616915b8281101561130b578886015182559484019460019091019084016112ec565b508582101561132857878501515f19600388901b60f8161c191681555b505060018460011b0185555b50505050505056fea26469706673582212200dd2c32e40b18e65e4ec294306c9f123cf0e45102982ab7d673bdf1127c8bef264736f6c63430008190033","linkReferences":{"contracts/GatewayVM.sol":{"GatewayVM":[{"start":2835,"length":20}]},"contracts/arbitrum/BoLDVerifierLib.sol":{"BoLDVerifierLib":[{"start":2193,"length":20},{"start":3234,"length":20}]},"contracts/arbitrum/NitroVerifierLib.sol":{"NitroVerifierLib":[{"start":1995,"length":20},{"start":3430,"length":20}]}}},"methodIdentifiers":{"gatewayURLs()":"b50f2fbc","getHooks()":"5cd2525e","getLatestContext()":"87c484fe","getStorageValues(bytes,(bytes),bytes)":"e3d1666e","getWindow()":"1d80051d","isBoLD()":"e84b525f","minAgeBlocks()":"b56aabe9","owner()":"8da5cb5b","renounceOwnership()":"715018a6","rollup()":"cb23bcb5","setGatewayURLs(string[])":"8e5ea8df","transferOwnership(address)":"f2fde38b"},"id":12}