{"abi":[{"type":"constructor","inputs":[{"name":"urls","type":"string[]","internalType":"string[]"},{"name":"window","type":"uint256","internalType":"uint256"},{"name":"hooks","type":"address","internalType":"contract IVerifierHooks"},{"name":"_rollup","type":"address","internalType":"address"},{"name":"_minAgeBlocks","type":"uint256","internalType":"uint256"},{"name":"_isBoLD","type":"bool","internalType":"bool"}],"stateMutability":"nonpayable"},{"type":"function","name":"gatewayURLs","inputs":[],"outputs":[{"name":"","type":"string[]","internalType":"string[]"}],"stateMutability":"view"},{"type":"function","name":"getHooks","inputs":[],"outputs":[{"name":"","type":"address","internalType":"contract IVerifierHooks"}],"stateMutability":"view"},{"type":"function","name":"getLatestContext","inputs":[],"outputs":[{"name":"","type":"bytes","internalType":"bytes"}],"stateMutability":"view"},{"type":"function","name":"getStorageValues","inputs":[{"name":"context","type":"bytes","internalType":"bytes"},{"name":"req","type":"tuple","internalType":"struct GatewayRequest","components":[{"name":"ops","type":"bytes","internalType":"bytes"}]},{"name":"proof","type":"bytes","internalType":"bytes"}],"outputs":[{"name":"","type":"bytes[]","internalType":"bytes[]"},{"name":"exitCode","type":"uint8","internalType":"uint8"}],"stateMutability":"view"},{"type":"function","name":"getWindow","inputs":[],"outputs":[{"name":"","type":"uint256","internalType":"uint256"}],"stateMutability":"view"},{"type":"function","name":"isBoLD","inputs":[],"outputs":[{"name":"","type":"bool","internalType":"bool"}],"stateMutability":"view"},{"type":"function","name":"minAgeBlocks","inputs":[],"outputs":[{"name":"","type":"uint256","internalType":"uint256"}],"stateMutability":"view"},{"type":"function","name":"owner","inputs":[],"outputs":[{"name":"","type":"address","internalType":"address"}],"stateMutability":"view"},{"type":"function","name":"renounceOwnership","inputs":[],"outputs":[],"stateMutability":"nonpayable"},{"type":"function","name":"rollup","inputs":[],"outputs":[{"name":"","type":"address","internalType":"address"}],"stateMutability":"view"},{"type":"function","name":"setGatewayURLs","inputs":[{"name":"urls","type":"string[]","internalType":"string[]"}],"outputs":[],"stateMutability":"nonpayable"},{"type":"function","name":"supportsInterface","inputs":[{"name":"interfaceId","type":"bytes4","internalType":"bytes4"}],"outputs":[{"name":"","type":"bool","internalType":"bool"}],"stateMutability":"view"},{"type":"function","name":"transferOwnership","inputs":[{"name":"newOwner","type":"address","internalType":"address"}],"outputs":[],"stateMutability":"nonpayable"},{"type":"event","name":"GatewayURLsChanged","inputs":[],"anonymous":false},{"type":"event","name":"OwnershipTransferred","inputs":[{"name":"previousOwner","type":"address","indexed":true,"internalType":"address"},{"name":"newOwner","type":"address","indexed":true,"internalType":"address"}],"anonymous":false},{"type":"error","name":"CommitTooNew","inputs":[{"name":"latest","type":"uint256","internalType":"uint256"},{"name":"got","type":"uint256","internalType":"uint256"}]},{"type":"error","name":"CommitTooOld","inputs":[{"name":"latest","type":"uint256","internalType":"uint256"},{"name":"got","type":"uint256","internalType":"uint256"},{"name":"window","type":"uint256","internalType":"uint256"}]},{"type":"error","name":"OwnableInvalidOwner","inputs":[{"name":"owner","type":"address","internalType":"address"}]},{"type":"error","name":"OwnableUnauthorizedAccount","inputs":[{"name":"account","type":"address","internalType":"address"}]}],"bytecode":{"object":"0x610120604052348015610010575f80fd5b5060405161197338038061197383398101604081905261002f91610221565b858585338061005757604051631e4fbdf760e01b81525f600482015260240160405180910390fd5b610060816100a6565b5082516100749060019060208601906100f5565b506080919091526001600160a01b0390811660a0529390931660c05260e091909152151561010052506104da92505050565b5f80546001600160a01b038381166001600160a01b0319831681178455604051919092169283917f8be0079c531659141344cd1fd0a4f28419497f9722a3daafe3b4186f6b6457e09190a35050565b828054828255905f5260205f20908101928215610139579160200282015b828111156101395782518290610129908261041b565b5091602001919060010190610113565b50610145929150610149565b5090565b80821115610145575f61015c8282610165565b50600101610149565b50805461017190610397565b5f825580601f10610180575050565b601f0160209004905f5260205f209081019061019c919061019f565b50565b5b80821115610145575f81556001016101a0565b634e487b7160e01b5f52604160045260245ffd5b604051601f8201601f191681016001600160401b03811182821017156101ef576101ef6101b3565b604052919050565b80516001600160a01b038116811461020d575f80fd5b919050565b8051801515811461020d575f80fd5b5f805f805f8060c08789031215610236575f80fd5b86516001600160401b0381111561024b575f80fd5b8701601f8101891361025b575f80fd5b80516001600160401b03811115610274576102746101b3565b61028360208260051b016101c7565b808282526020820191508b60208460051b86010111156102a1575f80fd5b602084015b60208460051b86010181101561034d5780516001600160401b038111156102cb575f80fd5b8d603f82880101126102db575f80fd5b858101602001516001600160401b038111156102f9576102f96101b3565b61030c601f8201601f19166020016101c7565b8181528f604083858b0101011115610322575f80fd5b816040848a0101602083015e5f602083830101528086525050506020830192506020810190506102a6565b508099505050505060208701519450610368604088016101f7565b9350610376606088016101f7565b92506080870151915061038b60a08801610212565b90509295509295509295565b600181811c908216806103ab57607f821691505b6020821081036103c957634e487b7160e01b5f52602260045260245ffd5b50919050565b601f82111561041657805f5260205f20601f840160051c810160208510156103f45750805b601f840160051c820191505b81811015610413575f8155600101610400565b50505b505050565b81516001600160401b03811115610434576104346101b3565b610448816104428454610397565b846103cf565b602080601f83116001811461047b575f84156104645750858301515b5f19600386901b1c1916600185901b1785556104d2565b5f85815260208120601f198616915b828110156104a95788860151825594840194600190910190840161048a565b50858210156104c657878501515f19600388901b60f8161c191681555b505060018460011b0185555b505050505050565b60805160a05160c05160e051610100516114026105715f395f81816101fb01528181610298015261076c01525f818161018c0152818161030c015281816103d2015281816107e301526108a701525f81816101b3015281816102ea015281816103b0015281816107c1015261088501525f818161010b01526105dc01525f818160db0152818161093d015261098501526114025ff3fe608060405234801561000f575f80fd5b50600436106100ad575f3560e01c806301ffc9a7146100b15780631d80051d146100d95780635cd2525e14610109578063715018a61461013857806387c484fe146101425780638da5cb5b146101575780638e5ea8df1461015f578063b50f2fbc14610172578063b56aabe914610187578063cb23bcb5146101ae578063e3d1666e146101d5578063e84b525f146101f6578063f2fde38b1461021d575b5f80fd5b6100c46100bf366004610a96565b610230565b60405190151581526020015b60405180910390f35b7f00000000000000000000000000000000000000000000000000000000000000005b6040519081526020016100d0565b7f00000000000000000000000000000000000000000000000000000000000000005b6040516100d09190610ac4565b610140610281565b005b61014a610294565b6040516100d09190610b06565b61012b61045f565b61014061016d366004610c07565b61046d565b61017a6104b4565b6040516100d09190610cc3565b6100fb7f000000000000000000000000000000000000000000000000000000000000000081565b61012b7f000000000000000000000000000000000000000000000000000000000000000081565b6101e86101e3366004610d43565b610588565b6040516100d0929190610e06565b6100c47f000000000000000000000000000000000000000000000000000000000000000081565b61014061022b366004610e74565b61068a565b5f6001600160e01b03198216633446b34b60e21b148061026057506001600160e01b03198216634152574360e01b145b8061027b57506301ffc9a760e01b6001600160e01b03198316145b92915050565b6102896106d0565b6102925f610702565b565b60607f000000000000000000000000000000000000000000000000000000000000000061038157604051631b40d77b60e21b815273__$ec550694073df65076548fc5c1176e3255$__90636d035dec90610334907f0000000000000000000000000000000000000000000000000000000000000000907f000000000000000000000000000000000000000000000000000000000000000090600401610e9a565b602060405180830381865af415801561034f573d5f803e3d5ffd5b505050506040513d601f19601f820116820180604052508101906103739190610ece565b6001600160401b0316610439565b604051631b40d77b60e21b815273__$1d2df7ff0c1011216eeaf379be1cf65d5d$__90636d035dec906103fa907f0000000000000000000000000000000000000000000000000000000000000000907f000000000000000000000000000000000000000000000000000000000000000090600401610e9a565b602060405180830381865af4158015610415573d5f803e3d5ffd5b505050506040513d601f19601f820116820180604052508101906104399190610ee7565b60405160200161044b91815260200190565b604051602081830303815290604052905090565b5f546001600160a01b031690565b6104756106d0565b80516104889060019060208401906109e0565b506040517fe621d803a0c96b9bbeea51d136777f6ea8a4ce0c4ac74f6645e18b4342e2fa07905f90a150565b60606001805480602002602001604051908101604052809291908181526020015f905b8282101561057f578382905f5260205f200180546104f490610efe565b80601f016020809104026020016040519081016040528092919081815260200182805461052090610efe565b801561056b5780601f106105425761010080835404028352916020019161056b565b820191905f5260205f20905b81548152906001019060200180831161054e57829003601f168201915b5050505050815260200190600101906104d7565b50505050905090565b60605f80838060200190518101906105a09190611008565b90505f6105ad8288610751565b6040805160a0810182525f81526020808201849052850151818301528482015160608201526001600160a01b037f000000000000000000000000000000000000000000000000000000000000000016608082015290516324a8807560e21b815291925073__$011ed85421b307e5206de383929e31be73$__916392a201d49161063b918a91906004016110b5565b5f60405180830381865af4158015610655573d5f803e3d5ffd5b505050506040513d5f823e601f3d908101601f1916820160405261067c9190810190611186565b935093505050935093915050565b6106926106d0565b6001600160a01b0381166106c4575f604051631e4fbdf760e01b81526004016106bb9190610ac4565b60405180910390fd5b6106cd81610702565b50565b336106d961045f565b6001600160a01b031614610292573360405163118cdaa760e01b81526004016106bb9190610ac4565b5f80546001600160a01b038381166001600160a01b0319831681178455604051919092169283917f8be0079c531659141344cd1fd0a4f28419497f9722a3daafe3b4186f6b6457e09190a35050565b5f80828060200190518101906107679190610ee7565b90505f7f0000000000000000000000000000000000000000000000000000000000000000156108545784516040516356b357ad60e11b815273__$1d2df7ff0c1011216eeaf379be1cf65d5d$__9163ad66af5a9161080c917f0000000000000000000000000000000000000000000000000000000000000000917f000000000000000000000000000000000000000000000000000000000000000091906004016111d9565b6040805180830381865af4158015610826573d5f803e3d5ffd5b505050506040513d601f19601f8201168201806040525081019061084a9190611208565b9093509050610925565b8451604051630c31e23360e11b815273__$ec550694073df65076548fc5c1176e3255$__91631863c466916108d2917f0000000000000000000000000000000000000000000000000000000000000000917f00000000000000000000000000000000000000000000000000000000000000009190889060040161122a565b606060405180830381865af41580156108ed573d5f803e3d5ffd5b505050506040513d601f19601f820116820180604052508101906109119190611269565b9194506001600160401b0390811693501690505b61092f8282610937565b505092915050565b816109627f0000000000000000000000000000000000000000000000000000000000000000836112a2565b10156109b157604051632a54241d60e21b815260048101839052602481018290527f000000000000000000000000000000000000000000000000000000000000000060448201526064016106bb565b818111156109dc5760405163b356ade760e01b815260048101839052602481018290526044016106bb565b5050565b828054828255905f5260205f20908101928215610a24579160200282015b82811115610a245782518290610a14908261130d565b50916020019190600101906109fe565b50610a30929150610a34565b5090565b80821115610a30575f610a478282610a50565b50600101610a34565b508054610a5c90610efe565b5f825580601f10610a6b575050565b601f0160209004905f5260205f20908101906106cd91905b80821115610a30575f8155600101610a83565b5f60208284031215610aa6575f80fd5b81356001600160e01b031981168114610abd575f80fd5b9392505050565b6001600160a01b0391909116815260200190565b5f81518084528060208401602086015e5f602082860101526020601f19601f83011685010191505092915050565b602081525f610abd6020830184610ad8565b634e487b7160e01b5f52604160045260245ffd5b604051606081016001600160401b0381118282101715610b4e57610b4e610b18565b60405290565b604051601f8201601f191681016001600160401b0381118282101715610b7c57610b7c610b18565b604052919050565b5f6001600160401b03821115610b9c57610b9c610b18565b5060051b60200190565b5f6001600160401b03821115610bbe57610bbe610b18565b50601f01601f191660200190565b5f610bde610bd984610ba6565b610b54565b9050828152838383011115610bf1575f80fd5b828260208301375f602084830101529392505050565b5f6020808385031215610c18575f80fd5b82356001600160401b0380821115610c2e575f80fd5b818501915085601f830112610c41575f80fd5b8135610c4f610bd982610b84565b81815260059190911b83018401908481019088831115610c6d575f80fd5b8585015b83811015610cb657803585811115610c87575f80fd5b8601603f81018b13610c97575f80fd5b610ca88b8983013560408401610bcc565b845250918601918601610c71565b5098975050505050505050565b5f60208083016020845280855180835260408601915060408160051b8701019250602087015f5b82811015610d1857603f19888603018452610d06858351610ad8565b94509285019290850190600101610cea565b5092979650505050505050565b5f82601f830112610d34575f80fd5b610abd83833560208501610bcc565b5f805f60608486031215610d55575f80fd5b83356001600160401b0380821115610d6b575f80fd5b610d7787838801610d25565b94506020860135915080821115610d8c575f80fd5b9085019060208288031215610d9f575f80fd5b604051602081018181108382111715610dba57610dba610b18565b604052823582811115610dcb575f80fd5b610dd789828601610d25565b82525093506040860135915080821115610def575f80fd5b50610dfc86828701610d25565b9150509250925092565b5f604082016040835280855180835260608501915060608160051b860101925060208088015f5b83811015610e5b57605f19888703018552610e49868351610ad8565b95509382019390820190600101610e2d565b50505050508091505060ff831660208301529392505050565b5f60208284031215610e84575f80fd5b81356001600160a01b0381168114610abd575f80fd5b6001600160a01b03929092168252602082015260400190565b80516001600160401b0381168114610ec9575f80fd5b919050565b5f60208284031215610ede575f80fd5b610abd82610eb3565b5f60208284031215610ef7575f80fd5b5051919050565b600181811c90821680610f1257607f821691505b602082108103610f3057634e487b7160e01b5f52602260045260245ffd5b50919050565b5f82601f830112610f45575f80fd5b8151610f53610bd982610ba6565b818152846020838601011115610f67575f80fd5b8160208501602083015e5f918101602001919091529392505050565b5f82601f830112610f92575f80fd5b81516020610fa2610bd983610b84565b82815260059290921b84018101918181019086841115610fc0575f80fd5b8286015b84811015610ffd5780516001600160401b03811115610fe1575f80fd5b610fef8986838b0101610f36565b845250918301918301610fc4565b509695505050505050565b5f60208284031215611018575f80fd5b81516001600160401b038082111561102e575f80fd5b9083019060608286031215611041575f80fd5b611049610b2c565b825182811115611057575f80fd5b61106387828601610f36565b825250602083015182811115611077575f80fd5b61108387828601610f83565b60208301525060408301518281111561109a575f80fd5b6110a687828601610f36565b60408301525095945050505050565b604081525f835160208060408501526110d16060850183610ad8565b91508382038185015260a08201855183528186015182840152604086015160a0604085015281815180845260c08601915060c08160051b870101935084830192505f5b818110156111425760bf19878603018352611130858551610ad8565b94509285019291850191600101611114565b5050505060608601519150828103606084015261115f8183610ad8565b915050608085015161117c60808401826001600160a01b03169052565b5095945050505050565b5f8060408385031215611197575f80fd5b82516001600160401b038111156111ac575f80fd5b6111b885828601610f83565b925050602083015160ff811681146111ce575f80fd5b809150509250929050565b60018060a01b0384168152826020820152606060408201525f6111ff6060830184610ad8565b95945050505050565b5f8060408385031215611219575f80fd5b505080516020909101519092909150565b60018060a01b0385168152836020820152608060408201525f6112506080830185610ad8565b905060018060401b038316606083015295945050505050565b5f805f6060848603121561127b575f80fd5b8351925061128b60208501610eb3565b915061129960408501610eb3565b90509250925092565b8082018082111561027b57634e487b7160e01b5f52601160045260245ffd5b601f82111561130857805f5260205f20601f840160051c810160208510156112e65750805b601f840160051c820191505b81811015611305575f81556001016112f2565b50505b505050565b81516001600160401b0381111561132657611326610b18565b61133a816113348454610efe565b846112c1565b602080601f83116001811461136d575f84156113565750858301515b5f19600386901b1c1916600185901b1785556113c4565b5f85815260208120601f198616915b8281101561139b5788860151825594840194600190910190840161137c565b50858210156113b857878501515f19600388901b60f8161c191681555b505060018460011b0185555b50505050505056fea264697066735822122097f0ffab8637b45907396d2c1dcc900ea15f602252b316eb5520d5872283b19564736f6c63430008190033","linkReferences":{"contracts/GatewayVM.sol":{"GatewayVM":[{"start":2947,"length":20}]},"contracts/arbitrum/BoLDVerifierLib.sol":{"BoLDVerifierLib":[{"start":2305,"length":20},{"start":3346,"length":20}]},"contracts/arbitrum/NitroVerifierLib.sol":{"NitroVerifierLib":[{"start":2107,"length":20},{"start":3542,"length":20}]}}},"methodIdentifiers":{"gatewayURLs()":"b50f2fbc","getHooks()":"5cd2525e","getLatestContext()":"87c484fe","getStorageValues(bytes,(bytes),bytes)":"e3d1666e","getWindow()":"1d80051d","isBoLD()":"e84b525f","minAgeBlocks()":"b56aabe9","owner()":"8da5cb5b","renounceOwnership()":"715018a6","rollup()":"cb23bcb5","setGatewayURLs(string[])":"8e5ea8df","supportsInterface(bytes4)":"01ffc9a7","transferOwnership(address)":"f2fde38b"},"id":14}