{"abi":[{"type":"function","name":"findGameIndex","inputs":[{"name":"params","type":"tuple","internalType":"struct OPFaultParams","components":[{"name":"portal","type":"address","internalType":"contract IOptimismPortal"},{"name":"minAgeSec","type":"uint256","internalType":"uint256"},{"name":"allowedGameTypes","type":"uint256[]","internalType":"uint256[]"},{"name":"allowedProposers","type":"address[]","internalType":"address[]"}]},{"name":"gameCount","type":"uint256","internalType":"uint256"}],"outputs":[{"name":"","type":"uint256","internalType":"uint256"}],"stateMutability":"view"},{"type":"function","name":"gameAtIndex","inputs":[{"name":"params","type":"tuple","internalType":"struct OPFaultParams","components":[{"name":"portal","type":"address","internalType":"contract IOptimismPortal"},{"name":"minAgeSec","type":"uint256","internalType":"uint256"},{"name":"allowedGameTypes","type":"uint256[]","internalType":"uint256[]"},{"name":"allowedProposers","type":"address[]","internalType":"address[]"}]},{"name":"gameIndex","type":"uint256","internalType":"uint256"}],"outputs":[{"name":"gameType","type":"uint256","internalType":"uint256"},{"name":"created","type":"uint256","internalType":"uint256"},{"name":"gameProxy","type":"address","internalType":"contract IDisputeGame"},{"name":"l2BlockNumber","type":"uint256","internalType":"uint256"},{"name":"rootClaim","type":"bytes32","internalType":"bytes32"}],"stateMutability":"view"},{"type":"error","name":"GameNotFound","inputs":[]}],"bytecode":{"object":"0x6080604052348015600e575f80fd5b50610cef8061001c5f395ff3fe608060405234801561000f575f80fd5b5060043610610034575f3560e01c8063b429536914610038578063f1f2dee71461005e575b5f80fd5b61004b610046366004610ab9565b6100a7565b6040519081526020015b60405180910390f35b61007161006c366004610ab9565b61032a565b6040805195865260208601949094526001600160a01b03909216928401929092526060830191909152608082015260a001610055565b5f806040518060400160405280855f01516001600160a01b031663952b27976040518163ffffffff1660e01b8152600401602060405180830381865afa1580156100f3573d5f803e3d5ffd5b505050506040513d601f19601f820116820180604052508101906101179190610bb5565b8152602001855f01516001600160a01b0316634fd0434c6040518163ffffffff1660e01b8152600401602060405180830381865afa15801561015b573d5f803e3d5ffd5b505050506040513d601f19601f8201168201806040525081019061017f9190610bcc565b6001600160401b031681525090505f845f01516001600160a01b031663f2b4e6176040518163ffffffff1660e01b8152600401602060405180830381865afa1580156101cd573d5f803e3d5ffd5b505050506040513d601f19601f820116820180604052508101906101f19190610bf9565b9050835f0361025d57806001600160a01b0316634d1975b46040518163ffffffff1660e01b8152600401602060405180830381865afa158015610236573d5f803e3d5ffd5b505050506040513d601f19601f8201168201806040525081019061025a9190610bb5565b93505b831561030b575f80806001600160a01b03841663bb8aa1fc61027e89610c28565b9850886040518263ffffffff1660e01b815260040161029f91815260200190565b606060405180830381865afa1580156102ba573d5f803e3d5ffd5b505050506040513d601f19601f820116820180604052508101906102de9190610c3d565b9250925092506102f18184848b896105cc565b15610303578695505050505050610324565b50505061025d565b6040516309b3c62760e21b815260040160405180910390fd5b92915050565b5f805f805f806040518060400160405280895f01516001600160a01b031663952b27976040518163ffffffff1660e01b8152600401602060405180830381865afa15801561037a573d5f803e3d5ffd5b505050506040513d601f19601f8201168201806040525081019061039e9190610bb5565b8152602001895f01516001600160a01b0316634fd0434c6040518163ffffffff1660e01b8152600401602060405180830381865afa1580156103e2573d5f803e3d5ffd5b505050506040513d601f19601f820116820180604052508101906104069190610bcc565b6001600160401b031681525090505f885f01516001600160a01b031663f2b4e6176040518163ffffffff1660e01b8152600401602060405180830381865afa158015610454573d5f803e3d5ffd5b505050506040513d601f19601f820116820180604052508101906104789190610bf9565b604051632ee2a87f60e21b8152600481018a90529091506001600160a01b0382169063bb8aa1fc90602401606060405180830381865afa1580156104be573d5f803e3d5ffd5b505050506040513d601f19601f820116820180604052508101906104e29190610c3d565b919850965094506104f68588888c866105cc565b156105c057846001600160a01b0316638b85902b6040518163ffffffff1660e01b8152600401602060405180830381865afa158015610537573d5f803e3d5ffd5b505050506040513d601f19601f8201168201806040525081019061055b9190610bb5565b9350846001600160a01b031663bcef3b556040518163ffffffff1660e01b8152600401602060405180830381865afa158015610599573d5f803e3d5ffd5b505050506040513d601f19601f820116820180604052508101906105bd9190610bb5565b92505b50509295509295909350565b5f6105db8584604001516108f8565b6105e657505f6108ef565b610653866001600160a01b03166337b1b2296040518163ffffffff1660e01b8152600401602060405180830381865afa158015610625573d5f803e3d5ffd5b505050506040513d601f19601f820116820180604052508101906106499190610bf9565b846060015161093f565b61065e57505f6108ef565b82516040516322c4269960e11b81526001600160a01b038881166004830152909116906345884d3290602401602060405180830381865afa1580156106a5573d5f803e3d5ffd5b505050506040513d601f19601f820116820180604052508101906106c99190610c73565b156106d557505f6108ef565b856001600160a01b031663250e69bd6040518163ffffffff1660e01b8152600401602060405180830381865afa158015610711573d5f803e3d5ffd5b505050506040513d601f19601f820116820180604052508101906107359190610c73565b61074057505f6108ef565b6020830151156107ed5760208301516107599042610c92565b84111561076757505f6108ef565b8415806107745750600185145b156107ed57856001600160a01b0316633e3ac9126040518163ffffffff1660e01b8152600401602060405180830381865afa1580156107b5573d5f803e3d5ffd5b505050506040513d601f19601f820116820180604052508101906107d99190610c73565b6107e45760016107e6565b5f5b90506108ef565b81602001516001600160401b03168411801561086857506002866001600160a01b031663200d2ed26040518163ffffffff1660e01b8152600401602060405180830381865afa158015610842573d5f803e3d5ffd5b505050506040513d601f19601f820116820180604052508101906108669190610bb5565b145b156108ec57815f0151866001600160a01b03166319effeb46040518163ffffffff1660e01b8152600401602060405180830381865afa1580156108ad573d5f803e3d5ffd5b505050506040513d601f19601f820116820180604052508101906108d19190610bcc565b6108e4906001600160401b031642610c92565b1190506108ef565b505f5b95945050505050565b5f805b8251811015610936578383828151811061091757610917610ca5565b60200260200101510361092e576001915050610324565b6001016108fb565b505f9392505050565b5f81515f0361095057506001610324565b5f5b825181101561093657836001600160a01b031683828151811061097757610977610ca5565b60200260200101516001600160a01b031603610997576001915050610324565b600101610952565b634e487b7160e01b5f52604160045260245ffd5b604051608081016001600160401b03811182821017156109d5576109d561099f565b60405290565b604051601f8201601f191681016001600160401b0381118282101715610a0357610a0361099f565b604052919050565b6001600160a01b0381168114610a1f575f80fd5b50565b5f6001600160401b03821115610a3a57610a3a61099f565b5060051b60200190565b5f82601f830112610a53575f80fd5b81356020610a68610a6383610a22565b6109db565b8083825260208201915060208460051b870101935086841115610a89575f80fd5b602086015b84811015610aae578035610aa181610a0b565b8352918301918301610a8e565b509695505050505050565b5f8060408385031215610aca575f80fd5b82356001600160401b0380821115610ae0575f80fd5b9084019060808287031215610af3575f80fd5b610afb6109b3565b8235610b0681610a0b565b815260208381013581830152604084013583811115610b23575f80fd5b8401601f81018913610b33575f80fd5b8035610b41610a6382610a22565b81815260059190911b8201830190838101908b831115610b5f575f80fd5b928401925b82841015610b7d57833582529284019290840190610b64565b6040860152505050606084013583811115610b96575f80fd5b610ba289828701610a44565b6060840152509097950135955050505050565b5f60208284031215610bc5575f80fd5b5051919050565b5f60208284031215610bdc575f80fd5b81516001600160401b0381168114610bf2575f80fd5b9392505050565b5f60208284031215610c09575f80fd5b8151610bf281610a0b565b634e487b7160e01b5f52601160045260245ffd5b5f81610c3657610c36610c14565b505f190190565b5f805f60608486031215610c4f575f80fd5b83519250602084015191506040840151610c6881610a0b565b809150509250925092565b5f60208284031215610c83575f80fd5b81518015158114610bf2575f80fd5b8181038181111561032457610324610c14565b634e487b7160e01b5f52603260045260245ffdfea264697066735822122045bf59f02a8accd679c321db7073d99f39b6df197bb28d2bb19614ce50981c2264736f6c63430008190033","linkReferences":{}},"methodIdentifiers":{"findGameIndex((address,uint256,uint256[],address[]),uint256)":"b4295369","gameAtIndex((address,uint256,uint256[],address[]),uint256)":"f1f2dee7"},"id":27}