{"abi":[{"type":"function","name":"findGameIndex","inputs":[{"name":"portal","type":"address","internalType":"contract IOptimismPortal"},{"name":"minAgeSec","type":"uint256","internalType":"uint256"},{"name":"gameTypeBitMask","type":"uint256","internalType":"uint256"},{"name":"gameCount","type":"uint256","internalType":"uint256"}],"outputs":[{"name":"","type":"uint256","internalType":"uint256"}],"stateMutability":"view"},{"type":"function","name":"gameAtIndex","inputs":[{"name":"portal","type":"address","internalType":"contract IOptimismPortal"},{"name":"minAgeSec","type":"uint256","internalType":"uint256"},{"name":"gameTypeBitMask","type":"uint256","internalType":"uint256"},{"name":"gameIndex","type":"uint256","internalType":"uint256"}],"outputs":[{"name":"gameType","type":"uint256","internalType":"uint256"},{"name":"created","type":"uint256","internalType":"uint256"},{"name":"gameProxy","type":"address","internalType":"contract IDisputeGame"},{"name":"l2BlockNumber","type":"uint256","internalType":"uint256"},{"name":"rootClaim","type":"bytes32","internalType":"bytes32"}],"stateMutability":"view"},{"type":"error","name":"GameNotFound","inputs":[]},{"type":"error","name":"InvalidGameTypeBitMask","inputs":[]}],"bytecode":{"object":"0x6080604052348015600e575f80fd5b50610a918061001c5f395ff3fe608060405234801561000f575f80fd5b5060043610610034575f3560e01c80634fad486e1461003857806355cb530714610086575b5f80fd5b61004b610046366004610933565b6100a7565b6040805195865260208601949094526001600160a01b03909216928401929092526060830191909152608082015260a0015b60405180910390f35b610099610094366004610933565b61034f565b60405190815260200161007d565b5f805f805f6100b689886105d9565b96505f60405180604001604052808b6001600160a01b031663952b27976040518163ffffffff1660e01b8152600401602060405180830381865afa158015610100573d5f803e3d5ffd5b505050506040513d601f19601f82011682018060405250810190610124919061096b565b81526020018b6001600160a01b0316634fd0434c6040518163ffffffff1660e01b8152600401602060405180830381865afa158015610165573d5f803e3d5ffd5b505050506040513d601f19601f820116820180604052508101906101899190610982565b6001600160401b031681525090505f8a6001600160a01b031663f2b4e6176040518163ffffffff1660e01b8152600401602060405180830381865afa1580156101d4573d5f803e3d5ffd5b505050506040513d601f19601f820116820180604052508101906101f891906109af565b604051632ee2a87f60e21b8152600481018a90529091506001600160a01b0382169063bb8aa1fc90602401606060405180830381865afa15801561023e573d5f803e3d5ffd5b505050506040513d601f19601f8201168201806040525081019061026291906109ca565b919850965094506102788b8689898d8f88610670565b1561034257846001600160a01b0316638b85902b6040518163ffffffff1660e01b8152600401602060405180830381865afa1580156102b9573d5f803e3d5ffd5b505050506040513d601f19601f820116820180604052508101906102dd919061096b565b9350846001600160a01b031663bcef3b556040518163ffffffff1660e01b8152600401602060405180830381865afa15801561031b573d5f803e3d5ffd5b505050506040513d601f19601f8201168201806040525081019061033f919061096b565b92505b5050945094509450945094565b5f61035a85846105d9565b92505f6040518060400160405280876001600160a01b031663952b27976040518163ffffffff1660e01b8152600401602060405180830381865afa1580156103a4573d5f803e3d5ffd5b505050506040513d601f19601f820116820180604052508101906103c8919061096b565b8152602001876001600160a01b0316634fd0434c6040518163ffffffff1660e01b8152600401602060405180830381865afa158015610409573d5f803e3d5ffd5b505050506040513d601f19601f8201168201806040525081019061042d9190610982565b6001600160401b031681525090505f866001600160a01b031663f2b4e6176040518163ffffffff1660e01b8152600401602060405180830381865afa158015610478573d5f803e3d5ffd5b505050506040513d601f19601f8201168201806040525081019061049c91906109af565b9050835f0361050857806001600160a01b0316634d1975b46040518163ffffffff1660e01b8152600401602060405180830381865afa1580156104e1573d5f803e3d5ffd5b505050506040513d601f19601f82011682018060405250810190610505919061096b565b93505b83156105b8575f80806001600160a01b03841663bb8aa1fc61052989610a14565b9850886040518263ffffffff1660e01b815260040161054a91815260200190565b606060405180830381865afa158015610565573d5f803e3d5ffd5b505050506040513d601f19601f8201168201806040525081019061058991906109ca565b92509250925061059e8a8285858c8e8b610670565b156105b05786955050505050506105d1565b505050610508565b6040516309b3c62760e21b815260040160405180910390fd5b949350505050565b5f815f0361066757826001600160a01b0316633c9f397c6040518163ffffffff1660e01b8152600401602060405180830381865afa15801561061d573d5f803e3d5ffd5b505050506040513d601f19601f82011682018060405250810190610641919061096b565b6001901b9150815f036106675760405163eb57ceb960e01b815260040160405180910390fd5b50805b92915050565b5f60ff86111561068157505f610911565b6001861b84165f0361069457505f610911565b6040516322c4269960e11b81526001600160a01b0388811660048301528916906345884d3290602401602060405180830381865afa1580156106d8573d5f803e3d5ffd5b505050506040513d601f19601f820116820180604052508101906106fc9190610a29565b1561070857505f610911565b821561080f576107188342610a48565b85111561072657505f610911565b8515806107335750600186145b1561080f57866001600160a01b0316633e3ac9126040518163ffffffff1660e01b8152600401602060405180830381865afa158015610774573d5f803e3d5ffd5b505050506040513d601f19601f820116820180604052508101906107989190610a29565b15610807576002876001600160a01b031663200d2ed26040518163ffffffff1660e01b8152600401602060405180830381865afa1580156107db573d5f803e3d5ffd5b505050506040513d601f19601f820116820180604052508101906107ff919061096b565b149050610911565b506001610911565b81602001516001600160401b03168511801561088a57506002876001600160a01b031663200d2ed26040518163ffffffff1660e01b8152600401602060405180830381865afa158015610864573d5f803e3d5ffd5b505050506040513d601f19601f82011682018060405250810190610888919061096b565b145b1561090e57815f0151876001600160a01b03166319effeb46040518163ffffffff1660e01b8152600401602060405180830381865afa1580156108cf573d5f803e3d5ffd5b505050506040513d601f19601f820116820180604052508101906108f39190610982565b610906906001600160401b031642610a48565b119050610911565b505f5b979650505050505050565b6001600160a01b0381168114610930575f80fd5b50565b5f805f8060808587031215610946575f80fd5b84356109518161091c565b966020860135965060408601359560600135945092505050565b5f6020828403121561097b575f80fd5b5051919050565b5f60208284031215610992575f80fd5b81516001600160401b03811681146109a8575f80fd5b9392505050565b5f602082840312156109bf575f80fd5b81516109a88161091c565b5f805f606084860312156109dc575f80fd5b835192506020840151915060408401516109f58161091c565b809150509250925092565b634e487b7160e01b5f52601160045260245ffd5b5f81610a2257610a22610a00565b505f190190565b5f60208284031215610a39575f80fd5b815180151581146109a8575f80fd5b8181038181111561066a5761066a610a0056fea26469706673582212206fbd96d1023f67267a5569e9669fac7e6fac0d5159a6b848fb3042699ccbc4b064736f6c63430008190033","linkReferences":{}},"methodIdentifiers":{"findGameIndex(address,uint256,uint256,uint256)":"55cb5307","gameAtIndex(address,uint256,uint256,uint256)":"4fad486e"},"id":25}